:020000040000FA
:100000000C945E000C9486000C9486000C94860080
:100010000C9486000C9486000C9486000C94860048
:100020000C9486000C9486000C9486000C94860038
:100030000C9486000C9486000C9486000C94860028
:100040000C9425040C9486000C94F3030C94CD03BB
:100050000C9486000C9486000C9486000C94860008
:100060000C9486000C948600000000080002010039
:100070000003040700000000000000000000000072
:10008000250028002B0000000000240027002A0083
:10009000040404040404040402020202020203032E
:1000A0000303030301020408102040800102040836
:1000B00010200102040810206F045B0611241FBEEB
:1000C000CFEFD8E0DEBFCDBF22E0AAE5B1E001C0AE
:1000D0001D92A232B207E1F711E0A0E0B1E0E2E543
:1000E000F1E102C005900D92AA35B107D9F710E0F1
:1000F000CDE5D0E004C02197FE010E949B06CC35DF
:10010000D107C9F70E940F050C949C080C940000BD
:1001100090E0FC01EC55FF4F249180579F4FFC016C
:100120008491882399F090E0880F991FFC01EA5789
:10013000FF4FA591B491FC01E458FF4F8591949134
:100140008FB7F894EC91E22BEC938FBF0895AF92A8
:10015000BF92CF92DF92EF92FF920F931F93CF93B4
:10016000DF936C017B018B01040F151FEB015E0116
:10017000AE18BF08C017D10759F06991D601ED91AB
:10018000FC910190F081E02DC6010995892B79F74A
:10019000C501DF91CF911F910F91FF90EF90DF90FC
:1001A000CF90BF90AF900895FC01538D448D252FC3
:1001B00030E0842F90E0821B930B541710F0CF9601
:1001C000089501970895FC01918D828D981761F033
:1001D000A28DAE0FBF2FB11D5D968C91928D9F5F4A
:1001E0009F73928F90E008958FEF9FEF0895FC0129
:1001F000918D828D981731F0828DE80FF11D858DDC
:1002000090E008958FEF9FEF0895FC01918D228D6E
:10021000892F90E0805C9F4F821B91098F739927F3
:10022000089583E691E00E94050121E0892B09F4FD
:1002300020E0822F089580E090E0892B29F00E9431
:10024000110181110C9400000895FC01A48DA80FE8
:10025000B92FB11DA35ABF4F2C91848D90E0019608
:100260008F739927848FA689B7892C93A089B18928
:100270008C91837080648C93938D848D981306C0C9
:100280000288F389E02D80818F7D80830895EF922D
:10029000FF920F931F93CF93DF93EC0181E0888F40
:1002A0009B8D8C8D98131AC0E889F989808185FF10
:1002B00015C09FB7F894EE89FF896083E889F989B2
:1002C00080818370806480839FBF81E090E0DF91B4
:1002D000CF911F910F91FF90EF900895F62E0B8D07
:1002E00010E00F5F1F4F0F731127E02E8C8D8E11C2
:1002F0000CC00FB607FCFACFE889F989808185FF29
:10030000F5CFCE010E942501F1CFEB8DEC0FFD2F33
:10031000F11DE35AFF4FF0829FB7F8940B8FEA89E3
:10032000FB8980818062CFCFCF93DF93EC01888DF2
:100330008823B9F0AA89BB89E889F9898C9185FD60
:1003400003C0808186FD0DC00FB607FCF7CF8C91EE
:1003500085FFF2CF808185FFEDCFCE010E94250180
:10036000E9CFDF91CF91089590E0FC01E859FF4F6C
:100370002491FC01EC55FF4F3491FC01E057FF4FF5
:10038000E491EE23C9F0222339F0233001F1A8F4DF
:10039000213019F1223029F1F0E0EE0FFF1FE4586F
:1003A000FF4FA591B4918FB7F894EC91611126C0DD
:1003B00030953E233C938FBF08952730A9F0283015
:1003C000C9F0243049F7809180008F7D03C080916F
:1003D00080008F7780938000DFCF84B58F7784BDD6
:1003E000DBCF84B58F7DFBCF8091B0008F7780937A
:1003F000B000D2CF8091B0008F7DF9CF3E2BDACF05
:100400003FB7F89480915F0190916001A0916101E4
:10041000B091620126B5A89B05C02F3F19F0019647
:10042000A11DB11D3FBFBA2FA92F982F8827BC014E
:10043000CD01620F711D811D911D42E0660F771F76
:10044000881F991F4A95D1F708958F929F92AF9276
:10045000BF92CF92DF92EF92FF924B015C010E941C
:1004600000026B017C010E9400026C197D098E095B
:100470009F09683E734081059105A8F321E0821A27
:100480009108A108B10888EEC80E83E0D81EE11CCF
:10049000F11C81149104A104B10429F7FF90EF909D
:1004A000DF90CF90BF90AF909F908F900895089568
:1004B00090E080E00895CF93DF93EC0160E08E81BF
:1004C0000E94B40161E08E810E94B40160E08E81DF
:1004D0000E94B4018BE891E00197F1F7DF91CF9191
:1004E0000895CF92DF92EF92FF920F931F93CF93D5
:1004F000DF936C017C0187E0E80EF11CD0E0C0E0E6
:10050000062F10E0B8010C2E02C0759567950A946D
:10051000E2F76170F70181917F010E94B401219699
:10052000C430D10579F7C601DF91CF911F910F91AA
:10053000FF90EF90DF90CF900C945B02CF92DF9210
:10054000EF92FF920F931F93CF93DF93EC01F62E60
:10055000642F8C810E94B4018D818F3F19F060E07F
:100560000E94B4010F2D10E08F8584FF25C06E011D
:1005700087E0C80ED11CF12CE12CB8010E2C02C072
:10058000759567950A94E2F76170F60181916F01A4
:100590000E94B401FFEFEF1AFF0A88E0E816F104A9
:1005A00061F7CE01DF91CF911F910F91FF90EF90F6
:1005B000DF90CF900C945B02B80184E0759567954D
:1005C0008A95E1F7CE010E9471026F2DCE01DF9175
:1005D000CF911F910F91FF90EF90DF90CF900C94EF
:1005E000710240E0682F86E092E00C949E02CF9367
:1005F000DF93823029F49091150298609093150250
:100600008093190210921A0280E480931B0280E109
:1006100080931C0280E580931D0280910A020E9453
:10062000880080910B028F3F11F00E94880080911A
:100630000C020E948800C6E0D2E09E0126503240A3
:100640008091150284FD0AC084E090E0219628176D
:1006500039073CF48E810E948800EFCF88E090E05B
:10066000F5CF8BE39DE00197F1F760E080910A02FE
:100670000E94B40160E080910C020E94B40180915C
:100680000B028F3F19F060E00E94B40180911502C7
:1006900084FD39C063E086E092E00E947102CBE401
:1006A000D6E4CE010197F1F763E086E092E00E9484
:1006B00071022197F1F763E086E092E00E947102F7
:1006C00083E592E00197F1F762E086E092E00E9414
:1006D00071028091150280620E94F10284E0809391
:1006E00016028CE00E94F10281E00E94F1028BE38D
:1006F0009FE10197F1F782E08093170286E0DF9196
:10070000CF910C94F10280620E94F1028BE496E496
:100710000197F1F78091150280620E94F10283E552
:1007200092E00197F1F78091150280620E94F10238
:10073000D0CF41E00E949E0281E090E00895CF93E7
:10074000DF93EC018091000290910102009759F033
:1007500020910202309103022C173D0720F081E026
:10076000DF91CF910895BE016F5F7F4F0E94C60752
:10077000009789F09093010280930002D0930302C6
:10078000C09302022091040230910502232B39F715
:10079000FC011082E4CF80E0E3CF1F920F920FB6EE
:1007A0000F9211242F933F934F935F936F937F93F7
:1007B0008F939F93AF93BF93EF93FF9383E691E063
:1007C0000E942501FF91EF91BF91AF919F918F9171
:1007D0007F916F915F914F913F912F910F900FBE3D
:1007E0000F901F9018951F920F920FB60F92112421
:1007F0002F938F939F93EF93FF93E0917301F09169
:1008000074018081E0917901F0917A0182FD1BC031
:10081000908180917C018F5F8F7320917D01821781
:1008200041F0E0917C01F0E0ED59FE4F958F80930F
:100830007C01FF91EF919F918F912F910F900FBEAF
:100840000F901F9018958081F4CF1F920F920FB6D2
:100850000F9211242F933F938F939F93AF93BF9346
:1008600080915B0190915C01A0915D01B0915E016E
:1008700030915A0123E0230F2D3758F50196A11D21
:10088000B11D20935A0180935B0190935C01A0936A
:100890005D01B0935E0180915F0190916001A09134
:1008A0006101B09162010196A11DB11D80935F01AC
:1008B00090936001A0936101B0936201BF91AF91E9
:1008C0009F918F913F912F910F900FBE0F901F908E
:1008D000189526E8230F0296A11DB11DD2CF1092C4
:1008E00066011092650188EE93E0A0E0B0E080938D
:1008F000670190936801A0936901B0936A018AE04F
:1009000091E0909364018093630185EC90E0909373
:10091000700180936F0184EC90E09093720180935A
:10092000710180EC90E0909374018093730181ECED
:1009300090E0909376018093750182EC90E0909323
:1009400078018093770186EC90E090937A01809310
:10095000790110927C0110927D0110927E0110921B
:100960007F0110920902109208028CE191E09093AD
:100970000702809306028CE080930A028FEF809337
:100980000B028BE080930C0285E080930D0284E0E3
:1009900080930E0283E080930F0282E08093100226
:1009A000109211021092120210921302109214026D
:1009B0001092150281E00E94F7021092010210923B
:1009C000000210920302109202021092050210928D
:1009D000040290E080E00E949F0320910002309189
:1009E0000102811113C02115310519F0C9010E94BE
:1009F0003D0710920102109200021092050210921F
:100A0000040210920302109202020895109205024D
:100A1000109204026DE271E0C9010C949508CF9325
:100A2000DF9300D0CDB7DEB7789484B5826084BD03
:100A300084B5816084BD85B5826085BD85B58160E2
:100A400085BD80916E00816080936E001092810060
:100A5000809181008260809381008091810081601B
:100A600080938100809180008160809380008091DC
:100A7000B10084608093B1008091B0008160809368
:100A8000B00080917A00846080937A0080917A002F
:100A9000826080937A0080917A00816080937A00EE
:100AA00080917A00806880937A001092C100E09172
:100AB0007301F091740182E08083E0916F01F09105
:100AC00070011082E0917101F09172018FEC8083CE
:100AD00010927B01E0917701F091780186E08083AC
:100AE000E0917501F0917601808180618083E091D1
:100AF0007501F0917601808188608083E0917501B5
:100B0000F0917601808180688083E0917501F09199
:100B1000760180818F7D808382E00E94F70249E028
:100B200050E064E271E086E092E00E94A70086E077
:100B30000E94880087E00E94880088E00E94880068
:100B400089E00E94880090E0E92E90E0F92E83E68B
:100B500091E00E940501181619065CF583E691E004
:100B60000E94E30089831A82009104021091050219
:100B70000F5F1F4FC8010E949F03882399F02091A7
:100B80000002309101028091040290910502BE01A1
:100B90006F5F7F4F820F931F0E949508109305028D
:100BA000009304026AE070E080E090E00E94250279
:100BB000CECF8091040290910502892B09F440C0A8
:100BC0006EE271E080910002909101020E948C0817
:100BD000892B09F049C0E0911902E23008F042C0C7
:100BE000E150F0E0EA5FFD4F848980680E94F102E5
:100BF00048E250E060E371E086E092E00E94A700E6
:100C00008AECC82E82E0D82E16E061E0812F0E9487
:100C1000B40163E070E080E090E00E94250260E0B3
:100C2000812F0E94B4011F5F1A3079F781E0C81A42
:100C3000D10851F760E271EA87E090E00E94250256
:100C400064EF71E080E090E00E942502E114F1047D
:100C500009F47DCF0E941101882309F478CF0E9406
:100C6000000075CFE1E0BDCF90E080E00E949F03DF
:100C70002091000230910102811113C0211531052C
:100C800019F0C9010E943D07109201021092000262
:100C900010920502109204021092030210920202B6
:100CA000CFCF10920502109204026DE271E0C901EB
:100CB0000E949508C5CF8091000290910102009793
:100CC00011F00C943D0708952F923F924F925F923E
:100CD0006F927F928F929F92AF92BF92CF92DF924C
:100CE000EF92FF920F931F93CF93DF93CDB7DEB7B1
:100CF000CA1BDB0B0FB6F894DEBF0FBECDBF099445
:100D00002A88398848885F846E847D848C849B849B
:100D1000AA84B984C884DF80EE80FD800C811B81A9
:100D2000AA81B981CE0FD11D0FB6F894DEBF0FBED8
:100D3000CDBFED010895EE0FFF1F0590F491E02D5A
:100D400009940F931F93CF93DF938230910510F492
:100D500082E090E0E0912002F091210230E020E07A
:100D6000B0E0A0E0309799F42115310509F44AC0AC
:100D7000281B390B24303105D8F58A819B816115F8
:100D8000710589F1FB0193838283FE0111C04081CB
:100D900051810281138148175907E0F0481759071C
:100DA00099F4109761F012960C93129713961C9376
:100DB0003296CF01DF91CF911F910F91089500934B
:100DC000200210932102F4CF2115310551F0421772
:100DD000530738F0A901DB019A01BD01DF01F801D9
:100DE000C1CFEF01F9CF9093210280932002CDCFA4
:100DF000FE01E20FF31F8193919322503109398351
:100E00002883D7CF20911E0230911F02232B41F45B
:100E1000209102013091030130931F0220931E02A2
:100E200020910001309101012115310541F42DB7C8
:100E30003EB74091040150910501241B350BE09110
:100E40001E02F0911F02E217F307A0F42E1B3F0BC6
:100E50002817390778F0AC014E5F5F4F241735072C
:100E600048F04E0F5F1F50931F0240931E02819364
:100E700091939FCFF0E0E0E09CCFCF93DF9300977A
:100E8000E9F0FC01329713821282A0912002B09106
:100E90002102ED0130E020E01097A1F420813181A2
:100EA000820F931F20911E0230911F0228173907CD
:100EB00009F061C0F0931F02E0931E02DF91CF9111
:100EC0000895EA01CE17DF07E8F54A815B819E01AC
:100ED00041155105B1F7E901FB83EA834991599125
:100EE000C40FD51FEC17FD0761F480819181029634
:100EF000840F951FE90199838883828193819B8365
:100F00008A83F0E0E0E012968D919C911397009710
:100F1000B9F52D913C911197CD010296820F931F47
:100F200020911E0230911F022817390739F6309799
:100F300051F51092210210922002B0931F02A0934B
:100F40001E02BCCFD383C28340815181840F951F81
:100F5000C817D90761F44E5F5F4F88819981480FA8
:100F6000591F518340838A819B81938382832115FA
:100F7000310509F0B0CFF0932102E09320029ECF1B
:100F8000FD01DC01C0CF13821282D7CFB0E0A0E018
:100F9000ECECF7E00C9466068C01009751F4CB0161
:100FA0000E94A1068C01C801CDB7DEB7E0E10C9428
:100FB0008206FC01E60FF71F9C0122503109E2175F
:100FC000F30708F49DC0D901CD91DC911197C617A4
:100FD000D70798F0C530D10530F3CE0104978617B6
:100FE000970708F3C61BD70B2297C193D1936D9334
:100FF0007C93CF010E943D07D6CF5B01AC1ABD0A9E
:101000004C018C0E9D1EA0912002B0912102512C0A
:10101000412CF12CE12C109731F580911E0290911A
:101020001F028815990509F05CC04616570608F09E
:1010300058C08091000190910101009741F48DB753
:101040009EB74091040150910501841B950BE81750
:10105000F90708F055C0F0931F02E0931E02F90152
:1010600071836083A0CF8D919C91119712966C90A3
:10107000129713967C901397A815B90559F56C0132
:1010800042E0C40ED11CCA14DB0420F1AC014A19A1
:101090005B09DA011296159780F0628273825183A0
:1010A0004083D9016D937C93E114F10471F0D70171
:1010B0001396FC93EE93129776CF22968C0F9D1F7A
:1010C000F90191838083F301EFCFF0932102E09344
:1010D000200269CF4816590608F42C017D01D3017E
:1010E0009ACFCB010E94A1067C01009749F0AE0186
:1010F000B8010E948308C8010E943D07870153CFB1
:1011000010E000E050CFFB01DC0102C001900D9225
:1011100041505040D8F70895FB01DC018D910190BA
:1011200080190110D9F3990B0895FB01DC0101909E
:101130000D920020E1F7089510E0CDE5D0E004C065
:10114000FE010E949B062196CE35D107C9F7F8947F
:10115000FFCF000022028000000000004701A7002E
:10116000D40094010501E300F7000000000099039A
:10117000A700580257024E6F7468696E673A2000E4
:10118000690057656C636F6D6521546865207379DC
:101190007374656D20697320696E697469616C6927
:0C11A0007A696E672E2E2E2E2E2E000077
:107E0000112484B714BE81FFF0D085E080938100F7
:107E100082E08093C00088E18093C10086E0809377
:107E2000C20080E18093C4008EE0C9D0259A86E02C
:107E300020E33CEF91E0309385002093840096BBD3
:107E4000B09BFECF1D9AA8958150A9F7CC24DD24C4
:107E500088248394B5E0AB2EA1E19A2EF3E0BF2EE7
:107E6000A2D0813461F49FD0082FAFD0023811F036
:107E7000013811F484E001C083E08DD089C08234E0
:107E800011F484E103C0853419F485E0A6D080C0E4
:107E9000853579F488D0E82EFF2485D0082F10E0AE
:107EA000102F00270E291F29000F111F8ED06801E7
:107EB0006FC0863521F484E090D080E0DECF843638
:107EC00009F040C070D06FD0082F6DD080E0C81688
:107ED00080E7D80618F4F601B7BEE895C0E0D1E017
:107EE00062D089930C17E1F7F0E0CF16F0E7DF06D8
:107EF00018F0F601B7BEE89568D007B600FCFDCFD4
:107F0000A601A0E0B1E02C9130E011968C91119780
:107F100090E0982F8827822B932B1296FA010C0160
:107F200087BEE89511244E5F5F4FF1E0A038BF0790
:107F300051F7F601A7BEE89507B600FCFDCF97BE46
:107F4000E89526C08437B1F42ED02DD0F82E2BD052
:107F50003CD0F601EF2C8F010F5F1F4F84911BD097
:107F6000EA94F801C1F70894C11CD11CFA94CF0C13
:107F7000D11C0EC0853739F428D08EE10CD085E9AC
:107F80000AD08FE07ACF813511F488E018D01DD067
:107F900080E101D065CF982F8091C00085FFFCCF94
:107FA0009093C60008958091C00087FFFCCF809118
:107FB000C00084FD01C0A8958091C6000895E0E648
:107FC000F0E098E1908380830895EDDF803219F02E
:107FD00088E0F5DFFFCF84E1DECF1F93182FE3DFCA
:107FE0001150E9F7F2DF1F91089580E0E8DFEE27F6
:047FF000FF270994CA
:027FFE00040479
:00000001FF
