:100000000C945E000C9486000C9486000C94860080
:100010000C9486000C9486000C9486000C94860048
:100020000C9486000C9486000C9486000C94860038
:100030000C9486000C9486000C9486000C94860028
:100040000C94A3050C9486000C9471050C944B053C
:100050000C9486000C9486000C9486000C94860008
:100060000C94ED050C94860000000000240027008D
:100070002A0000000000250028002B0004040404CE
:100080000404040402020202020203030303030342
:10009000010204081020408001020408102001021F
:1000A00004081020000000080002010000030407FB
:1000B00000000000000000000C07ED0911241FBE25
:1000C000CFEFD8E0DEBFCDBF23E0A0E8B1E001C0B4
:1000D0001D92AA30B207E1F711E0A0E0B1E0E6E737
:1000E000F8E102C005900D92A038B107D9F710E0F1
:1000F000CDE5D0E004C02197FE010E942D0ACC3549
:10010000D107C9F70E940C080C942E0C0C94000027
:1001100008950895AF92BF92CF92DF92EF92FF922F
:100120000F931F93CF93DF936C017B018B01040F1F
:10013000151FEB015E01AE18BF08C017D10759F0BB
:100140006991D601ED91FC910190F081E02DC601FD
:100150000995892B79F7C501DF91CF911F910F91F7
:10016000FF90EF90DF90CF90BF90AF900895FC018B
:10017000538D448D252F30E0842F90E0821B930B0C
:10018000541710F0CF96089501970895FC01918DB2
:10019000828D981761F0A28DAE0FBF2FB11D5D96B5
:1001A0008C91928D9F5F9F73928F90E008958FEF57
:1001B0009FEF0895FC01918D828D981731F0828D0B
:1001C000E80FF11D858D90E008958FEF9FEF089562
:1001D000FC01918D228D892F90E0805C9F4F821BC6
:1001E00091098F739927089583E492E00E94E800B3
:1001F00021E0892B09F420E0822F089580E090E02F
:10020000892B29F00E94F40081110C9400000895BC
:10021000FC01A48DA80FB92FB11DA35ABF4F2C917B
:10022000848D90E001968F739927848FA689B78972
:100230002C93A089B1898C91837080648C93938D69
:10024000848D981306C00288F389E02D80818F7D0C
:1002500080830895EF92FF920F931F93CF93DF93C4
:10026000EC0181E0888F9B8D8C8D98131AC0E889F2
:10027000F989808185FF15C09FB7F894EE89FF89C1
:100280006083E889F98980818370806480839FBF5F
:1002900081E090E0DF91CF911F910F91FF90EF905F
:1002A0000895F62E0B8D10E00F5F1F4F0F7311276F
:1002B000E02E8C8D8E110CC00FB607FCFACFE889AA
:1002C000F989808185FFF5CFCE010E940801F1CF29
:1002D000EB8DEC0FFD2FF11DE35AFF4FF0829FB71E
:1002E000F8940B8FEA89FB8980818062CFCFCF930E
:1002F000DF93EC01888D8823B9F0AA89BB89E8894E
:10030000F9898C9185FD03C0808186FD0DC00FB6F3
:1003100007FCF7CF8C9185FFF2CF808185FFEDCF71
:10032000CE010E940801E9CFDF91CF91089590E0BE
:10033000FC01EC55FF4F2491FC01E057FF4F349135
:10034000FC01E458FF4FE491EE23C9F0222339F079
:10035000233001F1A8F4213019F1223029F1F0E025
:10036000EE0FFF1FEE58FF4FA591B4918FB7F89491
:10037000EC91611126C030953E233C938FBF0895C8
:100380002730A9F02830C9F0243049F78091800047
:100390008F7D03C0809180008F7780938000DFCFB6
:1003A00084B58F7784BDDBCF84B58F7DFBCF809103
:1003B000B0008F778093B000D2CF8091B0008F7D56
:1003C000F9CF3E2BDACF3FB7F89480913702909166
:1003D0003802A0913902B0913A0226B5A89B05C017
:1003E0002F3F19F00196A11DB11D3FBFBA2FA92FB4
:1003F000982F8827BC01CD01620F711D811D911DB1
:1004000042E0660F771F881F991F4A95D1F708951C
:100410008F929F92AF92BF92CF92DF92EF92FF9214
:100420004B015C010E94E3016B017C010E94E3012E
:100430006C197D098E099F09683E734081059105FD
:10044000A8F321E0821A9108A108B10888EEC80E2D
:1004500083E0D81EE11CF11C81149104A104B104B5
:1004600029F7FF90EF90DF90CF90BF90AF909F90D3
:100470008F90089508952091C101260F3327331FCF
:1004800021323105ECF420910A02FC0190E080E079
:10049000243069F082E00895A091C1012191AC015E
:1004A0004F555E4FA40FB52FB11D2C9301968617A3
:1004B00098F38091C101680F6093C10180E00895B5
:1004C00081E0089510920A0281E08093090210925F
:1004D000E40161E082E10E94970161E083E10E9412
:1004E0009701E9EBF0E080818E7F808380818D7FB2
:1004F000808388E48093B80085E48093BC000895ED
:10050000CF93DF9391E09093A0018823B9F0C0913D
:10051000B800D091BA008091BC008A7B8093BC0067
:1005200060E082E10E94970160E083E10E94970110
:100530000E946202D093BA00C093B800DF91CF91BD
:1005400008950895E091420280914102E81730F445
:10055000F0E0E058FE4F808190E008958FEF9FEF2C
:10056000089590914202809141022FEF3FEF98173A
:1005700048F4E92FF0E0E058FE4F208130E09F5F23
:1005800090934202C90108958091410290914202E4
:10059000891B990B0895CF92DF92EF92FF920F93F0
:1005A0001F93CF93DF937C01CB018A01209110022E
:1005B000222389F0EB016B01C40ED51ECC15DD059D
:1005C00069F06991D701ED91FC910190F081E02DE6
:1005D000C7010995F3CF642F0E943B02C801DF9148
:1005E000CF911F910F91FF90EF90DF90CF900895E2
:1005F000CF93DF931F92CDB7DEB7698320911002AE
:100600002223F9F020913F02203258F021E030E01F
:10061000FC013383228390E080E00F90DF91CF9143
:10062000089580914002E82FF0E0EF5EFD4F998140
:1006300090838F5F8093400280933F0281E090E03F
:10064000ECCF61E0CE0101960E943B02F7CFCF9242
:10065000DF92EF92FF920F931F93CF93DF93FC01F2
:10066000C48121E020931002C09331021092400215
:1006700010923F028385682B80EE92E00E94F80280
:10068000D0913F02D13208F092C00E94E3016B0189
:100690007C0180910A02811165C082E080930A0288
:1006A00081E0809309028FEF809308021092070285
:1006B000D0930602A1E1B2E0E6EEF1E080E0D813CB
:1006C00085C01092E5018091E501CC0FC82BC09345
:1006D000E5018091E401813009F07CC01092E401D1
:1006E0000E94E3016B017C018091E5018093BB00D6
:1006F00080910C0290910D02A0910E02B0910F0218
:10070000892B8A2B8B2B99F00E94E30100910C021C
:1007100010910D0220910E0230910F026C197D098B
:100720008E099F090617170728073907E0F18091FE
:10073000BC0083FDD9CF85EC8093BC000E94E3010F
:100740006B017C0180910A02823009F445C08091DE
:1007500008028F3F61F180910802803241F180915F
:10076000080225C080910C0290910D02A0910E020A
:10077000B0910F02892B8A2B8B2B09F48ACF0E9410
:10078000E30100910C0210910D0220910E023091B4
:100790000F026C197D098E099F0906171707280794
:1007A000390708F076CF80910B020E9480021092E8
:1007B000400210923F0210921002DF91CF911F91E0
:1007C0000F91FF90EF90DF90CF9008959D919193BE
:1007D0008F5F75CF85EEB0CF80910C0290910D02A6
:1007E000A0910E02B0910F02892B8A2B8B2B09F45A
:1007F000A9CF0E94E30100910C0210910D022091FB
:100800000E0230910F026C197D098E099F0906179F
:1008100017072807390708F095CFC5CF90E080E08B
:100820000895FC0140815181FC0126813781241704
:10083000350714F19A013327F901E057FF4F64910E
:1008400024583F4FF9012491222399F030E0220FE0
:10085000331FF901E859FF4FA591B491F901EE5802
:10086000FF4F259134912FB7F894EC91E62BEC9340
:100870002FBF4F5F5F4FD8CF0895CF92DF92EF9297
:10088000FF920F931F93CF93DF937C016B0110E0D6
:1008900000E00C151D05E4F4F701C081D181F701DA
:1008A000868197818C179D0784F061E08C2F0E94D0
:1008B000970163E070E080E090E00E94080260E051
:1008C0008C2F0E9497012196EACF0F5F1F4FE1CF37
:1008D000DF91CF911F910F91FF90EF90DF90CF901C
:1008E00008950F931F93CF938C01C62F0E94270367
:1008F0006C2F6460C8010E9427036C2F6B7FC801B6
:100900000E94270383EC90E00197F1F7CF911F91AC
:100910000F9108950F931F93CF93DF938C01D62FE0
:10092000C42F607F642B0E94710480E1D89FB001C6
:1009300011246C2BC801DF91CF911F910F910C9462
:100940007104CF93DF93CDB7DEB728970FB6F89435
:10095000DEBF0FBECDBF98E0E6E0F1E0DE0111960C
:1009600001900D929A95E1F790910203981708F47F
:100970008FEF90E0880F991F21E030E02C0F3D1F92
:10098000820F931FFC016081606840E08AEF92E073
:1009900028960FB6F894DEBF0FBECDBFDF91CF9182
:1009A0000C948A0441E00E948A0481E090E008955A
:1009B000FC0101900020E9F73197AF01481B590B6A
:1009C000BC018AEF92E00C948A00CF93DF93EC0194
:1009D0008091F4029091F502009759F02091F6026F
:1009E0003091F7022C173D0720F081E0DF91CF9185
:1009F0000895BE016F5F7F4F0E94580B009789F0EA
:100A00009093F5028093F402D093F702C093F6021C
:100A10002091F8023091F902232B39F7FC01108262
:100A2000E4CF80E0E3CF85ED8093BC0080910C02A1
:100A300090910D02A0910E02B0910F020796A11D98
:100A4000B11D23E0B695A795979587952A95D1F77F
:100A50002091BC0024FD03C010920A020895409129
:100A60000C0250910D0260910E0270910F02452B05
:100A7000462B472B69F30097A105B10541F02AE207
:100A80002A95F1F700C00197A109B109E1CF809142
:100A90000B020C9480021F920F920FB60F9211243A
:100AA0002F933F934F935F936F937F938F939F9376
:100AB000AF93BF93EF93FF9383E492E00E9408010A
:100AC000FF91EF91BF91AF919F918F917F916F9126
:100AD0005F914F913F912F910F900FBE0F901F90FC
:100AE00018951F920F920FB60F9211242F938F9388
:100AF0009F93EF93FF93E0915302F0915402808112
:100B0000E0915902F0915A0282FD1BC090818091C0
:100B10005C028F5F8F7320915D02821741F0E0913C
:100B20005C02F0E0ED5BFD4F958F80935C02FF91DE
:100B3000EF919F918F912F910F900FBE0F901F906B
:100B400018958081F4CF1F920F920FB60F92112447
:100B50002F933F938F939F93AF93BF9380913302D3
:100B600090913402A0913502B09136023091320258
:100B700023E0230F2D3758F50196A11DB11D2093B9
:100B800032028093330290933402A0933502B093E3
:100B900036028091370290913802A0913902B091CB
:100BA0003A020196A11DB11D80933702909338023D
:100BB000A0933902B0933A02BF91AF919F918F9168
:100BC0003F912F910F900FBE0F901F90189526E820
:100BD000230F0296A11DB11DD2CF1F920F920FB607
:100BE0000F9211242F933F934F935F936F937F93B3
:100BF0008F939F93AF93BF93EF93FF938091B9002F
:100C0000887F803609F44AC0F0F5883209F4A7C01D
:100C100018F5803109F49BC0B8F4882309F4F9C0B1
:100C2000883009F494C0FF91EF91BF91AF919F91EB
:100C30008F917F916F915F914F913F912F910F9085
:100C40000FBE0F901F901895883109F488C080322C
:100C500051F78093080214C0803409F49DC040F419
:100C60008033B9F38833F9F68093080285ECB0C07D
:100C7000803509F485C0883509F496C0883499F622
:100C80000E941305D0CF883909F48CC038F5883715
:100C900029F050F4883611F0803729F683E08093EC
:100CA0000A021092E30157C0883809F47BC08039EA
:100CB00019F0803809F0B7CF8091E301803208F055
:100CC00071C0E091E30181E08E0F8093E301809198
:100CD000BB00F0E0ED53FE4F80833DC0803B39F018
:100CE000E0F4803A09F479C0883A09F09CCF84E0B6
:100CF00080930A021092C2011092C101E0913D025C
:100D0000F0913E0209958091C10181110FC081E0EF
:100D10008093C1011092A10109C0803C09F4A6CFC3
:100D2000883C09F4A3CF883B09F07DCFE091C20154
:100D300081E08E0F8093C201F0E0EF55FE4F80817D
:100D40008093BB009091C2018091C10129C0809124
:100D5000E5018093BB0085EC8093BC0064CF90914B
:100D6000070280910602981758F5E091070281E08A
:100D70008E0F80930702F0E0EA51FE4F8081E9CFA9
:100D8000E091070281E08E0F809307028091BB0003
:100D9000F0E0EA51FE4F80839091070280910602B5
:100DA0009817C8F285E8D8CFE091070281E08E0F4E
:100DB000809307028091BB00F0E0EA51FE4F8083F0
:100DC0008091090281115CCF81E08093E40184EA83
:100DD0008093BC0010920A0226CF85EC8093BC0061
:100DE00010920A028091E301803230F4E091E30135
:100DF000F0E0ED53FE4F10826091E30170E0E0916E
:100E00003B02F0913C0283EC91E009951092E301E2
:100E10000ACF1092080234CF109246021092450277
:100E200088EE93E0A0E0B0E0809347029093480200
:100E3000A0934902B0934A0222E131E03093440288
:100E40002093430225EC30E03093500220934F0270
:100E500024EC30E0309352022093510220EC30E039
:100E6000309354022093530221EC30E03093560229
:100E70002093550222EC30E0309358022093570221
:100E800026EC30E030935A022093590210925C0213
:100E900010925D0210925E0210925F021092E302C5
:100EA0001092E2028093E4029093E502A093E6029E
:100EB000B093E70284E291E09093E1028093E00234
:100EC0001092FD021092FC0286E391E09093FB02E7
:100ED0008093FA0287E28093FE0280E1809303030D
:100EE00082E080930403109205031092F5021092A1
:100EF000F4021092F7021092F6021092F902109288
:100F0000F80290E080E00E94E5042091F402309124
:100F1000F502811177C02115310519F0C9010E9430
:100F2000CF0A1092F5021092F4021092F902109278
:100F3000F8021092F7021092F60288E090E00E9408
:100F4000330AFC0182E090E09183808383E090E0AB
:100F50009383828384E090E09583848385E090E0AE
:100F600097838683F093F302E093F20288E090E0A7
:100F70000E94330AFC0186E090E09183808387E041
:100F800090E09383828388E090E09583848389E076
:100F900090E097838683F093F102E093F00288E07B
:100FA00090E00E94330AFC018AE090E09183808304
:100FB0008BE090E0938382838CE090E09583848340
:100FC0008DE090E097838683F093EF02E093EE024A
:100FD00088E090E00E94330AFC0180E190E0918378
:100FE000808381E190E09383828382E190E0958326
:100FF000848383E190E097838683F093ED02E0930E
:10100000EC0208951092F9021092F80260E771E084
:10101000C9010E94270C91CFCF93DF9300D0CDB7A9
:10102000DEB7789484B5826084BD84B5816084BD68
:1010300085B5826085BD85B5816085BD80916E0076
:10104000816080936E0010928100809181008260A7
:1010500080938100809181008160809381008091E4
:1010600080008160809380008091B10084608093D3
:10107000B1008091B00081608093B00080917A00CF
:10108000846080937A0080917A00826080937A00F5
:1010900080917A00816080937A0080917A008068E4
:1010A00080937A001092C100E0915302F0915402B3
:1010B00082E08083E0914F02F09150021082E09133
:1010C0005102F09152028FEC808310925B02E0910A
:1010D0005702F091580286E08083E0915502F0912A
:1010E0005602808180618083E0915502F091560222
:1010F000808188608083E0915502F0915602808162
:1011000080688083E0915502F091560280818F7D46
:1011100080838091F2029091F3020E9411048091E9
:10112000F0029091F1020E9411048091EE029091E0
:10113000EF020E9411048091EC029091ED020E9456
:101140001104109242021092410210924002109239
:101150003F020E94620288E890E090933E028093F2
:101160003D0289E890E090933C0280933B0210920C
:10117000FF0280910403823018F098E09093FF0200
:101180008093020362E370E080E090E00E94080236
:10119000609105038AEF92E00E94270368EE73E0F6
:1011A00080E090E00E94080260E38AEF92E00E94F3
:1011B00071040BE416E4C8010197F1F760E38AEFCC
:1011C00092E00E947104C8010197F1F760E38AEF91
:1011D00092E00E94710483E592E00197F1F760E2EA
:1011E0008AEF92E00E9471046091FF02606240E029
:1011F0008AEF92E00E948A0484E08093000340E03A
:101200006CE08AEF92E00E948A0440E061E08AEF9D
:1012100092E00E948A040BE31FE1C8010197F1F7F5
:1012200082E08093010340E066E08AEF92E00E9452
:101230008A0440E062E08AEF92E00E948A04C801DA
:101240000197F1F788E08093050360E08AEF92E070
:101250000E94270380E00E94A1048EE391E00E9497
:10126000D80480E0E82E80E0F82E83E492E00E942B
:10127000E800181619065CF583E492E00E94C600A7
:1012800089831A820091F8021091F9020F5F1F4FB3
:10129000C8010E94E504882399F02091F40230915E
:1012A000F5028091F8029091F902BE016F5F7F4FC5
:1012B000820F931F0E94270C1093F9020093F802EB
:1012C0006AE070E080E090E00E940802CECF80915A
:1012D000F8029091F902892B09F446C069E471E0A3
:1012E0008091F4029091F5020E941E0C892B09F066
:1012F0004DC080E00E94A1048BE491E00E94D804DC
:1013000067E470E08091F2029091F3020E943D0444
:1013100067E470E08091F0029091F1020E943D0438
:1013200067E470E08091EE029091EF020E943D042C
:1013300067E470E08091EC029091ED020E943D0420
:1013400080E00E94A1048EE591E00E94D80481E033
:101350000E94A10481E791E00E94D80460E271EA52
:1013600087E090E00E94080264EF71E080E090E086
:101370000E940802E114F10409F477CF0E94F400FE
:10138000882309F472CF0E9400006FCF90E080E0C4
:101390000E94E5042091F4023091F502811113C0FE
:1013A0002115310519F0C9010E94CF0A1092F502EA
:1013B0001092F4021092F9021092F8021092F702C1
:1013C0001092F602D1CF1092F9021092F80260E763
:1013D00071E0C9010E94270CC7CF8091F40290915F
:1013E000F502009711F00C94CF0A08952F923F92C6
:1013F0004F925F926F927F928F929F92AF92BF9225
:10140000CF92DF92EF92FF920F931F93CF93DF93D0
:10141000CDB7DEB7CA1BDB0B0FB6F894DEBF0FBE2D
:10142000CDBF09942A88398848885F846E847D847A
:101430008C849B84AA84B984C884DF80EE80FD807C
:101440000C811B81AA81B981CE0FD11D0FB6F894F2
:10145000DEBF0FBECDBFED010895EE0FFF1F05905B
:10146000F491E02D09940F931F93CF93DF93823073
:10147000910510F482E090E0E0910803F0910903F7
:1014800030E020E0B0E0A0E0309799F4211531057C
:1014900009F44AC0281B390B24303105D8F58A815C
:1014A0009B816115710589F1FB0193838283FE01A4
:1014B00011C0408151810281138148175907E0F022
:1014C0004817590799F4109761F012960C931297E8
:1014D00013961C933296CF01DF91CF911F910F91FC
:1014E00008950093080310930903F4CF21153105E3
:1014F00051F04217530738F0A901DB019A01BD01F1
:10150000DF01F801C1CFEF01F9CF90930903809378
:101510000803CDCFFE01E20FF31F81939193225078
:10152000310939832883D7CF2091060330910703EF
:10153000232B41F4209102013091030130930703E2
:1015400020930603209100013091010121153105FE
:1015500041F42DB73EB74091040150910501241B81
:10156000350BE0910603F0910703E217F307A0F4AF
:101570002E1B3F0B2817390778F0AC014E5F5F4FE9
:101580002417350748F04E0F5F1F50930703409311
:101590000603819391939FCFF0E0E0E09CCFCF933F
:1015A000DF930097E9F0FC01329713821282A09139
:1015B0000803B0910903ED0130E020E01097A1F499
:1015C00020813181820F931F209106033091070300
:1015D0002817390709F061C0F0930703E093060369
:1015E000DF91CF910895EA01CE17DF07E8F54A8130
:1015F0005B819E0141155105B1F7E901FB83EA8347
:1016000049915991C40FD51FEC17FD0761F48081F2
:1016100091810296840F951FE901998388838281C5
:1016200093819B838A83F0E0E0E012968D919C91F8
:1016300013970097B9F52D913C911197CD01029622
:10164000820F931F20910603309107032817390753
:1016500039F6309751F51092090310920803B093B0
:101660000703A0930603BCCFD383C283408151817B
:10167000840F951FC817D90761F44E5F5F4F8881AB
:101680009981480F591F518340838A819B8193839D
:1016900082832115310509F0B0CFF0930903E0935F
:1016A00008039ECFFD01DC01C0CF13821282D7CF89
:1016B000B0E0A0E0EEE5FBE00C94F8098C010097A7
:1016C00051F4CB010E94330A8C01C801CDB7DEB7BB
:1016D000E0E10C94140AFC01E60FF71F9C01225074
:1016E0003109E217F30708F49DC0D901CD91DC91CF
:1016F0001197C617D70798F0C530D10530F3CE0142
:1017000004978617970708F3C61BD70B2297C19338
:10171000D1936D937C93CF010E94CF0AD6CF5B010A
:10172000AC1ABD0A4C018C0E9D1EA0910803B0910D
:101730000903512C412CF12CE12C109731F58091AB
:101740000603909107038815990509F05CC04616B9
:10175000570608F058C08091000190910101009750
:1017600041F48DB79EB74091040150910501841B4F
:10177000950BE817F90708F055C0F0930703E093BD
:101780000603F90171836083A0CF8D919C9111971D
:1017900012966C90129713967C901397A815B90522
:1017A00059F56C0142E0C40ED11CCA14DB0420F1CF
:1017B000AC014A195B09DA011296159780F0628232
:1017C000738251834083D9016D937C93E114F104BA
:1017D00071F0D7011396FC93EE93129776CF229671
:1017E0008C0F9D1FF90191838083F301EFCFF0935C
:1017F0000903E093080369CF4816590608F42C0141
:101800007D01D3019ACFCB010E94330A7C0100975E
:1018100049F0AE01B8010E94150CC8010E94CF0A20
:10182000870153CF10E000E050CFFB01DC0102C084
:1018300001900D9241505040D8F70895FB01DC0112
:101840008D91019080190110D9F3990B0895FB0136
:10185000DC0101900D920020E1F7089510E0CDE544
:10186000D0E004C0FE010E942D0A2196CE35D1079A
:06187000C9F7F894FFCF58
:1018760000000A038000000040001400540000002D
:1018860000002A018A00B7007701E800C600DA00E6
:1018960000000000F802CB020E04A102C402B1024D
:1018A600A20200000000D2048A000E043A02576524
:1018B6006C636F6D65212121006900496E69746949
:1018C600616C697A696E672E2E2E2E2E2E00496E59
:1018D6006974436F6D706C6574652020202020202C
:1018E6000057616974696E672E2E2E2E2E2E00000B
:00000001FF
