:020000040000FA
:100000000C9454010C9485010C9485010C94850189
:100010000C9485010C9485010C9485010C94850148
:100020000C9485010C94220B0C94220B0C94220B43
:100030000C9485010C9485010C9485010C94850128
:100040000C9485010C9485010C9485010C94850118
:100050000C9485010C9485010C9485010C94D80AAC
:100060000C9485010C94A20A0C94780A0C948501D6
:100070000C9485010C9485010C9485010C948501E8
:100080000C9485010C9485010C9485010C948501D8
:100090000C94420A0C94180A0C9485010C942C0BB5
:1000A0000C9485010C9485010C9485010C948501B8
:1000B0000C9485010C9485010C9485010C948501A8
:1000C0000C9485010C9485010C9485010C94850198
:1000D0000C9485010C9485010C9485010C94850188
:1000E0000C9485010C94E3030C94FA030C94CA134A
:1000F0000C94D7030C9470020C9419030C94930580
:100100000C9416040C94A3050C9412040C94DF03B5
:100110000C9400070C9466030C94BD050C94F60334
:100120000C94B5020C94B6050C9479020C94FB0760
:100130000C9404040C942C050C94500C0C9408049E
:100140000C94EA050C94C9020C9471020C944304BB
:100150000C94FE030C94D1030C94B4040C94EC03A3
:100160000C94DB030C9411040C94E6030C940C0423
:100170000C94D7020C9494050C94A6020C94F003F2
:100180000C94740400002100240027002A002D0094
:100190003000330001010000040107010A010000E2
:1001A0002200250028002B002E003100340002011F
:1001B0000000050108010B010000200023002600BB
:1001C00029002C002F00320000010000030106016D
:1001D00009010505050507050808080802020202CD
:1001E0000A0A0808040404040101010101010101D3
:1001F0000303030303030303040707070C0C0C0C9E
:100200000C0C0C0C02020202060606060606060686
:100210000B0B0B0B0B0B0B0B010210202008081013
:100220002040102040800201020108040201010266
:10023000040810204080804020100804020180043F
:10024000020180402010080402010804020101029A
:1002500004081020408001020408102040800000A3
:100260000A0B02090C0D0E08070304010000000030
:10027000000000000000000000000000000000007E
:10028000000000000000000000001211100000003B
:10029000000000000000000000000000000000005E
:1002A00000000000500CCA1311241FBECFEFD1E292
:1002B000DEBFCDBF00E00CBF27E0A2EFB3E001C07E
:1002C0001D92A933B207E1F713E0A0E0B2E0EEE23D
:1002D000F1E300E00BBF02C007900D92A23FB1070F
:1002E000D9F711E0C3E5D1E000E006C0219701098C
:1002F000802FFE010E945E16C235D10780E00807FC
:10030000A9F70E94580E0C9485180C940000FC016B
:10031000A089B18982E08C93A485B5851C92A685BD
:10032000B7858FEC8C93108EA489B58986E08C9369
:10033000A289B3898C9180618C93A289B3898C91B5
:1003400088608C93A289B3898C9180688C93028891
:10035000F389E02D80818F7D8083089596E0899FC9
:10036000D0011124A654B94F90967C936E935F9759
:1003700091E091969C939197E0912707F09128073F
:1003800090912607992339F0309751F0811108C0D8
:100390008091D6061994309719F05C968C91FACF1B
:1003A0000895CF92DF92EF92FF920F931F9396E002
:1003B000899FF0011124E654F94F11A2278D30A135
:1003C0002130310551F178F02230310509F451C066
:1003D0002330310509F452C01F910F91FF90EF9027
:1003E000DF90CF9008956623B9F361E070E00E943A
:1003F000AE012FB7F8948091B7049091B804A09102
:10040000B904B091BA042FBF8093120790931307D9
:10041000A0931407B0931507DFCF9FB7F894C0904F
:10042000B704D090B804E090B904F090BA049FBF2C
:1004300000911207109113072091140730911507AE
:10044000C01AD10AE20AF30A009124071091250785
:1004500030E020E00C151D052E053F0550F462E04C
:1004600070E01F910F91FF90EF90DF90CF900C9470
:10047000AE016111B1CF63E070E0F3CF70E060E0F6
:10048000F0CFCF92DF92EF92FF9210920806609128
:100490000B0670910C0680910D0690910E060E943D
:1004A000FE1328E23BE64EE65EE40E948A156B01ED
:1004B0007C016091090670910A0690E080E00E943C
:1004C000FE139B01AC01C701B6010E941E152091CD
:1004D0000F0621119058FF90EF90DF90CF90089574
:1004E00008950895DC01ED91FC910190F081E02DDB
:1004F0001994AF92BF92CF92DF92EF92FF920F9337
:100500001F93CF93DF936C017B018B01040F151FA9
:10051000EB015E01AE18BF08C017D10759F0699111
:10052000D601ED91FC910190F081E02DC601199565
:10053000892B79F7C501DF91CF911F910F91FF9022
:10054000EF90DF90CF90BF90AF900895FC01538D56
:10055000448D252F30E0842F90E0821B930B54179D
:1005600010F0CF96089501970895FC01918D828D2A
:10057000981761F0A28DAE0FBF2FB11D5D968C91C3
:10058000928D9F5F9F73928F90E008958FEF9FEF02
:100590000895FC01918D828D981731F0828DE80FBE
:1005A000F11D858D90E008958FEF9FEF0895FC0178
:1005B000918D228D892F90E0805C9F4F821B910945
:1005C0008F73992708958BEB94E00E94D70221E066
:1005D000892B09F420E0822F089588E595E00E9498
:1005E000D70221E0892B09F420E0822F0895FC0135
:1005F000A48DA80FB92FB11DA35ABF4F2C91848D84
:1006000090E001968F739927848FA689B7892C93E0
:10061000A089B1898C91837080648C93938D848D33
:10062000981306C00288F389E02D80818F7D808336
:100630000895EF92FF920F931F93CF93DF93EC01F6
:1006400081E0888F9B8D8C8D98131AC0E889F98979
:10065000808185FF15C09FB7F894EE89FF8960837C
:10066000E889F98980818370806480839FBF81E0FD
:1006700090E0DF91CF911F910F91FF90EF9008953F
:10068000F62E0B8D10E00F5F1F4F0F731127E02E1A
:100690008C8D8E110CC00FB607FCFACFE889F98952
:1006A000808185FFF5CFCE010E94F702F1CFEB8D5F
:1006B000EC0FFD2FF11DE35AFF4FF0829FB7F89426
:1006C0000B8FEA89FB8980818062CFCFCF93DF9344
:1006D000EC01888D8823B9F0AA89BB89E889F9895A
:1006E0008C9185FD03C0808186FD0DC00FB607FC8F
:1006F000F7CF8C9185FFF2CF808185FFEDCFCE01C2
:100700000E94F702E9CFDF91CF91089580E090E059
:10071000892B29F00E94ED0281110E94000080E0E7
:1007200090E0892B29F00E94E30281110E940000D1
:1007300080E090E0892B49F080E090E0892B29F05F
:100740000E94000081110E94000080E090E0892B4F
:1007500049F080E090E0892B29F00E94000081118F
:100760000C94000008958150823108F05AC0E82F9F
:10077000F0E08827E154FC4F8F4F0C945E16DF03A6
:10078000E303D103D703DB031104E603EC03F00317
:10079000F603FA03FE030404080411040C04120413
:1007A0001604809180008F77809380000895809157
:1007B00080008F7DF9CF80918000877FF5CF84B551
:1007C0008F7784BD089584B58F7DFBCF8091B00075
:1007D0008F778093B00008958091B0008F7DF9CF1E
:1007E000809190008F778093900008958091900081
:1007F0008F7DF9CF80919000877FF5CF8091A00009
:100800008F778093A00008958091A0008F7DF9CF0D
:100810008091A000877FF5CF809120018F77809312
:1008200020010895809120018F7DF9CF80912001D2
:10083000877FF5CFCF93DF93282F30E0F901E25A7D
:10084000FD4F8491F901E85EFD4FD491F901EE521C
:10085000FE4FC491CC23A1F081110E94B303EC2F71
:10086000F0E0EE0FFF1FE854FE4FA591B491EC911C
:10087000ED2381E090E009F480E0DF91CF910895CD
:1008800080E090E0FACF862F0C941A041F93CF9348
:10089000DF93282F30E0F901E25AFD4F8491F901EE
:1008A000E85EFD4FD491F901EE52FE4FC491CC2386
:1008B000A9F0162F81110E94B303EC2FF0E0EE0F88
:1008C000FF1FE256FE4FA591B4918FB7F894EC91BB
:1008D000111108C0D095DE23DC938FBFDF91CF913B
:1008E0001F910895DE2BF8CF862F642F0C944604B9
:1008F000CF93DF9390E0FC01E85EFD4F24918E5290
:100900009E4FFC0184918823C9F090E0880F991FC5
:10091000FC01EC57FE4FA591B491FC01E256FE4F4D
:10092000C591D49161110DC09FB7F8948C91209519
:1009300082238C938881282328839FBFDF91CF91C6
:100940000895623051F49FB7F8943C91822F8095BE
:1009500083238C93E8812E2BEFCF8FB7F894EC9103
:100960002E2B2C938FBFEACF862F642F0C94780404
:10097000863308F0865320917B00982F9870277F4C
:10098000922B90937B008770806480937C00809191
:100990007A00806480937A0080917A0086FDFCCF93
:1009A000809178009091790008953FB7F8948091F4
:1009B000A7049091A804A091A904B091AA0426B517
:1009C000A89B05C02F3F19F00196A11DB11D3FBF87
:1009D000BA2FA92F982F8827BC01CD01620F711D56
:1009E000811D911D42E0660F771F881F991F4A9550
:1009F000D1F708958F929F92AF92BF92CF92DF92DC
:100A0000EF92FF924B015C010E94D5046B017C01C7
:100A10000E94D5046C197D098E099F09683E7340B8
:100A200081059105A8F321E0821A9108A108B10877
:100A300088EEC80E83E0D81EE11CF11C81149104DD
:100A4000A104B10429F7FF90EF90DF90CF90BF9001
:100A5000AF909F908F900895089520913304260FB2
:100A60003327331F21323105ECF420917E04FC0141
:100A700090E080E0243069F082E00895A091330492
:100A80002191AC014D5E5B4FA40FB52FB11D2C938E
:100A90000196861798F380913304680F60933304AE
:100AA00080E0089581E0089510927E0481E08093B3
:100AB0007D041092580461E084E10E94460461E0E4
:100AC00085E10E944604E9EBF0E080818E7F80831F
:100AD00080818D7F808388E48093B80085E4809353
:100AE000BC000895CF93DF9391E090931204882384
:100AF000B9F0C091B800D091BA008091BC008A7B57
:100B00008093BC0060E084E10E94460460E085E1DF
:100B10000E9446040E945405D093BA00C093B800C6
:100B2000DF91CF9108950895E091B2048091B104CE
:100B3000E81730F4F0E0EE50FC4F808190E008952B
:100B40008FEF9FEF08959091B2048091B1042FEF41
:100B50003FEF981748F4E92FF0E0EE50FC4F20816A
:100B600030E09F5F9093B204C90108958091B10471
:100B70009091B204891B990B0895CF92DF92EF9266
:100B8000FF920F931F93CF93DF937C01CB018A01D8
:100B900020918404222389F0EB016B01C40ED51E41
:100BA000CC15DD0569F06991D701ED91FC910190BB
:100BB000F081E02DC7011995F3CF642F0E942D0518
:100BC000C801DF91CF911F910F91FF90EF90DF90BF
:100BD000CF900895CF93DF931F92CDB7DEB769838F
:100BE000209184042223F9F02091AF04203258F0A0
:100BF00021E030E0FC013383228390E080E00F901D
:100C0000DF91CF9108958091B004E82FF0E0EB5789
:100C1000FB4F998190838F5F8093B0048093AF04E2
:100C200081E090E0ECCF61E0CE0101960E942D05BD
:100C3000F7CFCF92DF92EF92FF920F931F93CF9354
:100C4000DF93FC01C48121E020938404C093A504B8
:100C50001092B0041092AF048385682B85EF95E065
:100C60000E94EA05D091AF04D13208F092C00E94F0
:100C7000D5046B017C0180917E04811165C082E006
:100C800080937E0481E080937D048FEF80937C04C9
:100C900010927B04D0937A04A5E8B4E0EAE5F4E08E
:100CA00080E0D81385C01092590480915904CC0F6C
:100CB000C82BC093590480915804813009F07CC03E
:100CC000109258040E94D5046B017C018091590454
:100CD0008093BB008091800490918104A091820454
:100CE000B0918304892B8A2B8B2B99F00E94D50419
:100CF000009180041091810420918204309183043A
:100D00006C197D098E099F090617170728073907EF
:100D1000E0F18091BC0083FDD9CF85EC8093BC00CD
:100D20000E94D5046B017C0180917E04823009F41D
:100D300045C080917C048F3F61F180917C048032BA
:100D400041F180917C0425C08091800490918104C0
:100D5000A0918204B0918304892B8A2B8B2B09F4F8
:100D60008ACF0E94D50400918004109181042091C3
:100D70008204309183046C197D098E099F0906173E
:100D800017072807390708F076CF80917F040E9463
:100D900072051092B0041092AF0410928404DF9197
:100DA000CF911F910F91FF90EF90DF90CF9008951A
:100DB0009D9191938F5F75CF85EEB0CF8091800428
:100DC00090918104A0918204B0918304892B8A2B95
:100DD0008B2B09F4A9CF0E94D504009180041091B7
:100DE000810420918204309183046C197D098E095D
:100DF0009F09061717072807390708F095CFC5CFB1
:100E000090E080E00895CF92DF92EF92FF920F93EF
:100E10001F93CF93DF937C018B01D12CC12CC01683
:100E2000D106ECF4F701C681D781F7018081918169
:100E3000C817D90784F061E08C2F0E94460463E054
:100E400070E080E090E00E94FA0460E08C2F0E9445
:100E500046042197EACFFFEFCF1ADF0AE0CF1195C2
:100E600001951109F70111870087DF91CF911F913B
:100E70000F91FF90EF90DF90CF900895CF92DF9287
:100E8000EF92FF920F931F93CF93DF938C016B012F
:100E9000F12CE12CF801EC14FD04E4F4C081D181C3
:100EA000F801868197818C179D0784F061E08C2F73
:100EB0000E94460463E070E080E090E00E94FA0443
:100EC00060E08C2F0E9446042196EACFFFEFEF1AD4
:100ED000FF0AE0CFD186C086DF91CF911F910F919D
:100EE000FF90EF90DF90CF9008950F931F93CF93D3
:100EF000DF938C01FC01C081D181F801868197814B
:100F00008C179D0734F061E08C2F0E9478042196A5
:100F1000F4CFDF91CF911F910F9108950F931F93FD
:100F2000CF938C01C62F0E9419066C2F6460C801F4
:100F30000E9419066C2F6B7FC8010E94190683EC72
:100F400090E00197F1F7CF911F910F9108950F93C2
:100F50001F93CF93DF938C01D62FC42F607F642B18
:100F60000E948E0780E1D89FB00111246C2BC8012C
:100F7000DF91CF911F910F910C948E07CF93DF9348
:100F800000D000D01F921F92CDB7DEB798E0E9E104
:100F9000F2E0DE01119601900D929A95E1F79091A1
:100FA0003107961710F46FEF690F262F30E0220FEC
:100FB000331F41E050E04C0F5D1F240F351FF90136
:100FC0006081680F606840E089E297E028960FB67C
:100FD000F894DEBF0FBECDBFDF91CF910C94A70771
:100FE00040E061E089E297E00E94A7078BE39FE180
:100FF0000197F1F7089541E00E94A70781E090E092
:101000000895FB0101900020E9F73197AF01461BDD
:10101000570BDC01ED91FC910280F381E02D1994D6
:101020008F929F92AF92BF92EF92FF920F931F9376
:10103000CF93DF93CDB7DEB7A1970FB6F894DEBF9D
:101040000FBECDBF7C01FA01CB0119A2223008F4FA
:101050002AE08E010F5D1F4F822E912CB12CA12C06
:10106000BF01A50194010E943C16F901CA016A3032
:101070000CF5605DD8016E938D01232B242B252B5D
:1010800079F790E080E0109721F0BD01C7010E9440
:101090000108A1960FB6F894DEBF0FBECDBFDF9159
:1010A000CF911F910F91FF90EF90BF90AF909F90C5
:1010B0008F900895695CDECFCF93DF93BC0188E504
:1010C00095E00E940108EC016BE572E088E595E08F
:1010D0000E9401088C0F9D1FDF91CF9108952F92E0
:1010E0003F924F925F926F927F928F929F92AF92B8
:1010F000BF92CF92DF92EF92FF921F93CF93DF9335
:10110000EC016A017B01722EAB019601CB01B601A5
:101110000E9437166EE572E0811126C04601570124
:10112000E894B7F82FEF3FEF4FE75FE7C501B40151
:101130000E94371681110CC02FEF3FEF4FE75FE79A
:10114000C501B4010E94F91362E672E0181664F05A
:101150002FEF3FEF4FE75FE4C701B6010E94321661
:101160001816B4F466E672E0CE01DF91CF911F91BC
:10117000FF90EF90DF90CF90BF90AF909F908F90B7
:101180007F906F905F904F903F902F900C9401084C
:101190002FEF3FEF4FE75FECC701B6010E94F91355
:1011A00087FDE0CF20E030E0A901C701B6010E9431
:1011B000F913312C212C87FF09C06DE2CE010E946A
:1011C00072021C01F7FAF094F7F8F09410E060E076
:1011D00070E080E09FE3711641F020E030E040E2F3
:1011E00051E40E948A151F5FF6CFA70196010E9465
:1011F0001E152B013C010E9403164B015C012AE0E5
:10120000BC01A401CE010E9410087C01E20CF31C79
:101210001123C1F1C501B4010E94FE139B01AC0171
:10122000C301B2010E941D154B015C016EE2CE01AB
:101230000E947202E80EF91E115020F120E030E009
:1012400040E251E4C501B4010E945F142B013C014E
:101250000E9403164B01B12CA12C2AE0B501A40178
:10126000CE010E941008E80EF91EC501B4010E94CB
:10127000FE139B01AC01C301B2010E941D154B017D
:101280005C01DACFC701DF91CF911F91FF90EF9002
:10129000DF90CF90BF90AF909F908F907F906F9096
:1012A0005F904F903F902F9008950F931F93CF938F
:1012B000DF93EC0122E00E946F088C016BE572E085
:1012C000CE010E940108800F911FDF91CF911F91E5
:1012D0000F9108950C9401080F931F93CF93DF9300
:1012E000EC0188819981009759F02A813B8126176A
:1012F000370730F081E0DF91CF911F910F91089572
:101300008B016F5F7F4F0E948B17009759F0998375
:1013100088831B830A832C813D81232B59F7FC0191
:101320001082E8CF80E0E7CFCF93DF93EC01198202
:1013300018821B821A821D821C8270E060E00E946B
:101340006C092881398181110FC02115310519F0EF
:10135000C9010E940217198218821D821C821B82F9
:101360001A82DF91CF9108951D821C826DE572E093
:10137000C901DF91CF910C947E18CF93DF93EC01DC
:1013800070E060E00E946C092881398181110FC0F2
:101390002115310519F0C9010E940217198218821E
:1013A0001D821C821B821A82DF91CF9108951D82BB
:1013B0001C826DE572E0C901DF91CF910C947E181B
:1013C00085ED8093BC008091800490918104A09170
:1013D0008204B09183040796A11DB11D23E0B69548
:1013E000A795979587952A95D1F72091BC0024FD64
:1013F00003C010927E0408954091800450918104AE
:101400006091820470918304452B462B472B69F32E
:101410000097A105B10541F02AE22A95F1F700C035
:101420000197A109B109E1CF80917F040C94720565
:101430001F920F920FB60F9211240BB60F922F939B
:101440003F934F935F936F937F938F939F93AF934C
:10145000BF93EF93FF938BEB94E00E94F702FF9111
:10146000EF91BF91AF919F918F917F916F915F911C
:101470004F913F912F910F900BBE0F900FBE0F9089
:101480001F9018951F920F920FB60F9211240BB652
:101490000F922F938F939F93EF93FF93E091CB0441
:1014A000F091CC048081E091D104F091D20482FDCE
:1014B0001DC090818091D4048F5F8F732091D504DB
:1014C000821741F0E091D404F0E0E554FB4F958F92
:1014D0008093D404FF91EF919F918F912F910F9062
:1014E0000BBE0F900FBE0F901F9018958081F2CF0A
:1014F0001F920F920FB60F9211240BB60F922F93DB
:101500003F934F935F936F937F938F939F93AF938B
:10151000BF93EF93FF9388E595E00E94F702FF9158
:10152000EF91BF91AF919F918F917F916F915F915B
:101530004F913F912F910F900BBE0F900FBE0F90C8
:101540001F9018951F920F920FB60F9211240BB691
:101550000F922F938F939F93EF93FF93E0916805E2
:10156000F09169058081E0916E05F0916F0582FD33
:101570001DC09081809171058F5F8F7320917205DE
:10158000821741F0E0917105F0E0E85AFA4F958F2B
:1015900080937105FF91EF919F918F912F910F9003
:1015A0000BBE0F900FBE0F901F9018958081F2CF49
:1015B0001F920F920FB60F9211242F933F938F9388
:1015C0009F93AF93BF938091B7049091B804A0917B
:1015D000B904B091BA043091A60423E0230F2D374B
:1015E00058F50196A11DB11D2093A6048093B70460
:1015F0009093B804A093B904B093BA048091A7045F
:101600009091A804A091A904B091AA040196A11DEB
:10161000B11D8093A7049093A804A093A904B0934C
:10162000AA04BF91AF919F918F913F912F910F90FD
:101630000FBE0F901F90189526E8230F0296A11D4C
:10164000B11DD2CF1F920F920FB60F9211240F909F
:101650000FBE0F901F9018951F920F920FB60F920A
:1016600011240BB60F922F933F934F935F936F9379
:101670007F938F939F93AF93BF93EF93FF9380914B
:10168000B900887F803609F44DC008F040C0883228
:1016900009F4A9C028F5803109F49DC0C8F4882355
:1016A00009F4FBC0883009F496C0FF91EF91BF9117
:1016B000AF919F918F917F916F915F914F913F91EA
:1016C0002F910F900BBE0F900FBE0F901F9018958B
:1016D000883109F488C0803241F780937C0414C0BB
:1016E000803409F49DC040F48033B9F38833E9F6BF
:1016F00080937C0485ECB0C0803509F485C08835C2
:1017000009F496C0883489F60E94E009CECF883962
:1017100009F48CC038F5883729F050F4883611F078
:10172000803719F683E080937E041092550457C0E9
:10173000883809F47BC0803919F0803809F0B5CFBA
:1017400080915504803208F071C0E091550481E029
:101750008E0F809355048091BB00F0E0EB5CFB4F53
:1017600080833DC0803B39F0E0F4803A09F479C0D1
:10177000883A09F09ACF84E080937E041092340472
:1017800010923304E091AD04F091AE04199580916C
:10179000330481110FC081E080933304109213044D
:1017A00009C0803C09F4A6CF883C09F4A3CF883B4C
:1017B00009F07BCFE091340481E08E0F80933404F4
:1017C000F0E0ED5EFB4F80818093BB00909134048C
:1017D0008091330429C0809159048093BB0085EC2B
:1017E0008093BC0062CF90917B0480917A0498171B
:1017F00058F5E0917B0481E08E0F80937B04F0E04C
:10180000E65AFB4F8081E9CFE0917B0481E08E0FA7
:1018100080937B048091BB00F0E0E65AFB4F80830D
:1018200090917B0480917A049817C8F285E8D8CF0C
:10183000E0917B0481E08E0F80937B048091BB005C
:10184000F0E0E65AFB4F808380917D0481115CCFEC
:1018500081E08093580484EA8093BC0010927E0457
:1018600024CF85EC8093BC0010927E0480915504B7
:10187000803230F4E0915504F0E0EB5CFB4F1082D5
:101880006091550470E0E091AB04F091AC0485E305
:1018900094E019951092550408CF10927C0434CF2F
:1018A000CF93DF931092BE041092BD0488EE93E0B4
:1018B000A0E0B0E08093BF049093C004A093C10463
:1018C000B093C20425E232E03093BC042093BB0401
:1018D0004DEC50E05093C8044093C7044CEC50E0EA
:1018E0005093CA044093C90448EC50E05093CC0490
:1018F0004093CB0449EC50E05093CE044093CD0488
:101900004AEC50E05093D0044093CF044EEC50E0AA
:101910005093D2044093D1041092D4041092D50471
:101920001092D6041092D70410925B0510925A05BB
:1019300080935C0590935D05A0935E05B0935F0571
:10194000309359052093580525EC30E03093650518
:101950002093640524EC30E03093670520936605FE
:1019600020EC30E0309369052093680521EC30E0ED
:1019700030936B0520936A0522EC30E030936D05BF
:1019800020936C0526EC30E030936F0520936E05B4
:1019900010927105109272051092730510927405E1
:1019A0001092F8051092F7058093F9059093FA05C7
:1019B000A093FB05B093FC0587E392E09093F605B6
:1019C0008093F50510922C0710922B0783E592E087
:1019D00090932A078093290787E280932D0784E15B
:1019E0008093320784E0809333071092340710927B
:1019F000BC061092C0061092BF061092C10689E480
:101A000092E09093BB068093BA06E6EDF6E0108272
:101A1000148213821582369687E0E231F807B9F70F
:101A200083E092E090931D0780931C0780E092E092
:101A300090931F0780931E0784E08093200783E024
:101A40008093210787E092E090931B0780931A0709
:101A5000CAE0D0E0D0932307C093220784EF91E03F
:101A60009093250780932407109228071092270748
:101A70001092160710921707109218071092190764
:101A8000109226078AE090E00E946616FC01D1833E
:101A9000C0838BE090E0938382838CE090E0958319
:101AA00084838DE090E097838683F093B906E0937A
:101AB000B8068AE090E00E946616FC0186E090E09D
:101AC0009183808387E090E09383828388E090E035
:101AD0009583848389E090E097838683F093B706AB
:101AE000E093B6068AE090E00E946616FC0182E070
:101AF00090E09183808383E090E09383828384E00D
:101B000090E09583848385E090E097838683F093CB
:101B1000B506E093B40610920706109208061092DC
:101B20000A061092090610920B0610920C061092EB
:101B30000D0610920E0610920F06109211061092CA
:101B400010061092120610921306109214061092AC
:101B5000150610921606109218061092170610928B
:101B6000190610921A0610921B0610921C0610926B
:101B70001D0610921F0610921E061092200610924B
:101B8000210610922206109223061092240610922B
:101B9000290610922A0610922B0610922C061092FB
:101BA0002D0610922E0610923706109238061092CB
:101BB000390610923A0610923B0610923C0610929B
:101BC00045061092460610924B0610924C06109253
:101BD0004D0610924E061092530610925406109223
:101BE000590610925A0610925B0610925C061092EB
:101BF00061061092620610926706109268061092B3
:101C0000690610926A0610926F0610927006109282
:101C1000750610927606109277061092780610924A
:101C20007D0610927E061092830610928406109212
:101C300085061092860610928B0610928C0682E022
:101C400080939C0610929D0610929E0610929F060D
:101C50001092A1061092A0061092A3061092A2065E
:101C60001092A4061092A5061092A6061092A7063E
:101C70001092A8061092A9061092AA061092AB061E
:101C80001092AC061092AD061092AE061092AF06FE
:101C90001092B0061092B1061092B2061092B306DE
:101CA00010928D0681E096E0DF91CF910C9494091B
:101CB000CF93DF9300D000D01F921F92CDB7DEB735
:101CC000789484B5826084BD84B5816084BD85B517
:101CD000826085BD85B5816085BD80916E00816023
:101CE00080936E00109281008091810082608093C9
:101CF00081008091810081608093810080918000CB
:101D00008160809380008091B10084608093B100F5
:101D10008091B00081608093B000809191008260DA
:101D200080939100809191008160809391008091D7
:101D300090008160809390008091A10082608093E8
:101D4000A1008091A10081608093A1008091A000FA
:101D500081608093A00080912101826080932101A5
:101D60008091210181608093210180912001816017
:101D70008093200180917A00846080937A00809122
:101D80007A00826080937A0080917A0081608093EB
:101D90007A0080917A00806880937A001092C10066
:101DA00088E595E00E9487018BEB94E00E94870113
:101DB0001092B2041092B1041092B0041092AF04C9
:101DC0000E94540580E792E09093AE048093AD04A6
:101DD00081E792E09093AC048093AB0410922E07BD
:101DE00080913307823018F098E090932E0780930B
:101DF000310762E370E080E090E00E94FA046091B5
:101E0000340789E297E00E94190668EE73E080E0EB
:101E100090E00E94FA0460E389E297E00E948E0756
:101E20000BE416E4C8010197F1F760E389E297E05B
:101E30000E948E07C8010197F1F760E389E297E0FD
:101E40000E948E0783E592E00197F1F760E289E254
:101E500097E00E948E0760912E07606240E089E261
:101E600097E00E94A70784E080932F0740E06CE092
:101E700089E297E00E94A7070E94F00782E0809322
:101E8000300740E066E089E297E00E94A70740E063
:101E900062E089E297E00E94A7078BE39FE1019748
:101EA000F1F788E08093340760E089E297E00E94D0
:101EB000190660E080E00E94BE076AE672E089E2EF
:101EC00097E00E946A0961E080E00E94BE0765E732
:101ED00072E089E297E00E946A0962E080E00E9475
:101EE000BE076AE872E089E297E00E946A09809181
:101EF000B8069091B9060E9475078091B606909138
:101F0000B7060E9475078091B4069091B5060E94AD
:101F10007507412C512C3201439488E595E00E94CD
:101F2000D702181619060CF030C488E595E00E9417
:101F3000B50289831A8200910506109106060F5F8B
:101F40001F4FB80181E096E00E946C09882399F048
:101F500020910106309102068091050690910606B7
:101F6000BE016F5F7F4F820F931F0E947E181093F8
:101F70000606009305066AE070E080E090E00E94AB
:101F8000FA048091050690910606892B09F4CCC1CC
:101F9000009101061091020665E972E0C8010E94F5
:101FA0007518892B09F0EDC00E94F00760E080E011
:101FB0000E94BE0767E972E089E297E00E946A0921
:101FC00063E080E00E94BE0768EA72E089E297E081
:101FD0000E946A0962E080E00E94BE0764EB72E042
:101FE00089E297E00E946A0986E30E94B804BC0176
:101FF000990F880B990B0E94001420E030E040E814
:102000005AE30E945F1420E030E04AEF53E40E945C
:102010005F14AB01BC014093B3045093B4046093CC
:10202000B5047093B60422E089E297E00E946F083D
:1020300061E080E00E94BE0763EC72E089E297E015
:102040000E946A090E944102AB01BC0122E089E2C0
:1020500097E00E946F0829E23CE54FE05EE3609163
:10206000B3047091B4048091B5049091B6040E94B9
:102070008A150E94FC158091B8069091B9060E94BD
:102080003E070091B6061091B7060E94410229E270
:102090003CE54FE05EE30E948A150E94FC15C801F2
:1020A0000E943E070091B4061091B50661E070E011
:1020B000C8010E943E0761E070E0C8010E9403076A
:1020C00063E080E00E94BE076DEC72E089E297E079
:1020D0000E946A0962E080E00E94BE076DED72E036
:1020E00089E297E00E946A094091B3045091B404D8
:1020F0006091B5047091B60422E089E297E00E94F5
:102100006F0861E080E00E94BE0763EC72E089E244
:1021100097E00E946A090E944102AB01BC0122E0E3
:1021200089E297E00E946F086DEE72E088E595E025
:102130000E946A094091B3045091B4046091B504BF
:102140007091B60488E595E00E9455096BEF72E046
:1021500088E595E00E946A090E944102AB01BC013A
:1021600088E595E00E94550988E093E00E945C08AC
:102170008CE592E00E945C0881E096E00E94BD0937
:10218000D3C063E473E0C8010E947518892B09F07D
:10219000F5C00E94F00760E080E00E94BE0765E4A1
:1021A00073E089E297E00E946A0961E080E00E94A2
:1021B000BE0766E573E089E297E00E946A090E9423
:1021C0004102AB01BC0189E297E00E9455096BEF27
:1021D00072E088E595E00E946A090E944102AB0125
:1021E000BC0188E595E00E94550962E080E00E940C
:1021F000BE0762E673E089E297E00E946A0986E31F
:102200000E94B804BC01990F880B990B0E9400141E
:1022100020E030E040E85AE30E945F1420E030E024
:102220004AEF53E40E945F140E94FC156B01770F84
:10223000EE08FF082AE0B701A601F7FE0DC06DE227
:1022400089E297E00E94720244275527BA014C198F
:102250005D096E097F092AE089E297E00E94100873
:102260006FE673E088E595E00E946A092AE0B7010D
:10227000A601F7FE0DC06DE288E595E00E947202AE
:1022800044275527BA014C195D096E097F092AE0D8
:1022900088E595E00E9410086BE572E088E595E01E
:1022A0000E940108C701B6010E9400146B017C0165
:1022B0008090B3049090B404A090B504B090B6049C
:1022C000A50194010E943216A501940187FD33C037
:1022D000C701B6010E941D150E94FC15072E000CB7
:1022E000880B990B0E94001429E23CE54FE05EE365
:1022F0000E948A150E94FC158091B8069091B9063B
:102300000E943E07C092B304D092B404E092B50498
:10231000F092B60481E096E00E94BD0968EE73E099
:1023200080E090E00E94FA0464EF71E080E090E0C9
:102330000E94FA04F2CDC701B6010E94F91387FF8B
:10234000E9CFA7019601C501B4010E941D150E94A5
:10235000FC15072E000C880B990B0E94001429E233
:102360003CE54FE05EE30E948A150E94FC158091D7
:10237000B8069091B9060E940307C4CF6FEE73E0D0
:10238000C8010E947518892B09F0DEC10E94F00770
:1023900060E080E00E94BE076EE773E089E297E0AC
:1023A0000E946A098EE793E00E945C0861E080E089
:1023B0000E94BE076FE873E089E297E00E946A0915
:1023C000A090B406B090B506CE0101960E94940983
:1023D00051E0509326078FB7F8944091B70450917D
:1023E000B8046091B9047091BA048FBF8091160748
:1023F00090911707A0911807B0911907481B590B26
:102400006A0B7B0B8091220790912307B0E0A0E03C
:1024100084179507A607B707D8F610E08091200724
:10242000181760F4E0911C07F0911D07E10FF11DF2
:1024300062E080810E9478041F5FF0CF312C809190
:102440002107381608F061C0E32CF12CE0911E073B
:10245000F0911F07EE0DFF1D61E080810E9478045E
:10246000E0911E07F0911F07EE0DFF1D60E08081D7
:102470000E944604D301C201032C04C0880F991F97
:10248000AA1FBB1F0A94D2F74C016C01C094D094D0
:10249000212C80912007281608F5022D10E0E091EC
:1024A0001C07F0911D07E00FF11F80810E941A04A4
:1024B0000C5F1F4F000F111FF801E654F94F892BD5
:1024C00041F4808191818829992991838083239483
:1024D000E0CF808191818C219D21F7CFE0911E0773
:1024E000F0911F07EE0DFF1D61E080810E94460400
:1024F00080911E0790911F07E80EF91E60E0F7011A
:1025000080810E94780433949ACF0AEB16E0780118
:10251000F701878D90A1892B31F4148E8FEF9FEFF7
:10252000968F858F11A296E0E90EF11CE6EFF6E09A
:10253000EE15FF0569F7D12C80912007D81608F019
:1025400053C0C12C8D2C912C880C991CC4018E5326
:10255000994F4C0120912107C21608F043C0F401A5
:10256000608171810C2C02C0769567950A94E2F720
:10257000D29E900111242C0D311DEAEBF6E080E093
:10258000458D568D2417350709F402C18F5F3696A5
:102590008A30B1F760FF24C0EAEBF6E090E080E01B
:1025A000448D411118C0E0911A07F0911B07E20F0A
:1025B000F31F408156E0589FF001599FF00D112400
:1025C000E654F94F448F368F258F10A2178E61E0A5
:1025D0000E94D10105C0019636968A30910501F717
:1025E000C394B8CFD394A8CF80E0F80191A1911102
:1025F000892F0A5F1F4F0E151F05B9F79FB7F89473
:102600004091B7045091B8046091B9047091BA0434
:102610009FBF409316075093170760931807709356
:102620001907882309F4D4CE8091DB06882309F4A6
:10263000CFCE8091D9069091DA06019709F0C8CEE5
:10264000F090D606FF2009F4C3CEF3E2FF1240C09B
:1026500067E973E088E595E00E946A094D815E8133
:1026600069817A8188E595E00E9479026BE572E0E4
:1026700088E595E00E940108E980FA80C7010E9480
:10268000D3138C01E114F10419F0C7010E94021761
:10269000B801110F880B990B0E94001429E23CE548
:1026A0004FE05EE30E948A150E94FC15C5010E945E
:1026B0003E0761E080E00E94BE076DE973E089E2B9
:1026C00097E00E946A098DE993E00E945C082CCE95
:1026D000FF8218860D811E810F5F1F4FB801CE014A
:1026E00001960E946C09882369F029813A818D81C5
:1026F0009E81BE01695F7F4F820F931F0E947E18EB
:102700001E830D835AE2F51212C061E087E00E9439
:10271000BE0769EA73E089E297E00E946A09CE0188
:1027200001960E94BD0961E087E00E94BE0761E05A
:1027300087E00E94BE074D815E8169817A8189E2CE
:1027400097E00E94790244CE0E94F00760E080E0AA
:102750000E94BE076AEB73E089E297E00E946A0973
:1027600061E080E00E94BE076DEC73E089E297E0D3
:102770000E946A0962E080E00E94BE076FED73E08C
:1027800089E297E00E946A09F7CC0E948603C5CBD4
:1027900061701ECF8091010690910206009711F0A2
:1027A0000C9402170895FC0188279927E894219139
:1027B0002032E9F3293010F02E30C8F32B3241F0EB
:1027C0002D3239F4689404C00E94F113820F911DD8
:1027D000219120532A30C0F31EF4909581959F4F8C
:1027E00008957AE0979F902D879F802D910D112459
:1027F00008950E943B1408F481E00895E89409C00C
:1028000097FB3EF490958095709561957F4F8F4F23
:102810009F4F9923A9F0F92F96E9BB279395F69539
:10282000879577956795B795F111F8CFFAF4BB0FB7
:1028300011F460FF1BC06F5F7F4F8F4F9F4F16C01B
:10284000882311F096E911C0772321F09EE8872FA5
:10285000762F05C0662371F096E8862F70E060E061
:102860002AF09A95660F771F881FDAF7880F9695DA
:10287000879597F90895990F0008550FAA0BE0E87E
:10288000FEEF16161706E807F907C0F01216130632
:10289000E407F50798F0621B730B840B950B39F472
:1028A0000A2661F0232B242B252B21F408950A26D8
:1028B00009F4A140A6958FEF811D811D08950E9406
:1028C00072140C94E3140E94D51438F00E94DC14A6
:1028D00020F0952311F00C94CC140C94D2141124F4
:1028E0000C9417150E94F41470F3959FC1F3950F83
:1028F00050E0551F629FF001729FBB27F00DB11D84
:10290000639FAA27F00DB11DAA1F649F6627B00D13
:10291000A11D661F829F2227B00DA11D621F739FFC
:10292000B00DA11D621F839FA00D611D221F749F0A
:102930003327A00D611D231F849F600D211D822F51
:10294000762F6A2F11249F5750409AF0F1F0882378
:102950004AF0EE0FFF1FBB1F661F771F881F9150A5
:102960005040A9F79E3F510580F00C94CC140C9474
:1029700017155F3FE4F3983ED4F3869577956795F6
:10298000B795F795E7959F5FC1F7FE2B880F911DCF
:102990009695879597F9089597F99F6780E870E075
:1029A00060E008959FEF80EC089500240A941616C5
:1029B000170618060906089500240A94121613062D
:1029C000140605060895092E0394000C11F48823BB
:1029D00052F0BB0F40F4BF2B11F460FF04C06F5FD7
:1029E0007F4F8F4F9F4F089557FD9058440F551FAD
:1029F00059F05F3F71F04795880F97FB991F61F081
:102A00009F3F79F087950895121613061406551FF7
:102A1000F2CF4695F1DF08C0161617061806991F63
:102A2000F1CF86957105610508940895E894BB2758
:102A300066277727CB0197F908955058BB27AA2717
:102A40000E9435150C94E3140E94D51438F00E94AE
:102A5000DC1420F039F49F3F19F426F40C94D214BE
:102A60000EF4E095E7FB0C94CC14E92F0E94F414CB
:102A700058F3BA17620773078407950720F079F4B3
:102A8000A6F50C9416150EF4E0950B2EBA2FA02D7A
:102A90000B01B90190010C01CA01A0011124FF270B
:102AA000591B99F0593F50F4503E68F11A16F04006
:102AB000A22F232F342F4427585FF3CF4695379505
:102AC0002795A795F0405395C9F77EF41F16BA0BCA
:102AD000620B730B840BBAF09150A1F0FF0FBB1F78
:102AE000661F771F881FC2F70EC0BA0F621F731FC1
:102AF000841F48F4879577956795B795F7959E3F1E
:102B000008F0B0CF9395880F08F09927EE0F9795AE
:102B1000879508950E949E150C94E3140E94DC147E
:102B200058F00E94D51440F029F45F3F29F00C942E
:102B3000CC1451110C9417150C94D2140E94F41457
:102B400068F39923B1F3552391F3951B550BBB27DC
:102B5000AA2762177307840738F09F5F5F4F220F21
:102B6000331F441FAA1FA9F335D00E2E3AF0E0E818
:102B700032D091505040E695001CCAF72BD0FE2F62
:102B800029D0660F771F881FBB1F261737074807F6
:102B9000AB07B0E809F0BB0B802DBF01FF279358AE
:102BA0005F4F3AF09E3F510578F00C94CC140C9492
:102BB00017155F3FE4F3983ED4F3869577956795B4
:102BC000B795F7959F5FC9F7880F911D96958795E3
:102BD00097F90895E1E0660F771F881FBB1F621702
:102BE00073078407BA0720F0621B730B840BBA0BC0
:102BF000EE1F88F7E09508950E9403166894B111BE
:102C00000C94171508950E94FC1488F09F5798F0B3
:102C1000B92F9927B751B0F0E1F0660F771F881FE1
:102C2000991F1AF0BA95C9F714C0B13091F00E94FB
:102C30001615B1E008950C941615672F782F882784
:102C4000B85F39F0B93FCCF3869577956795B39522
:102C5000D9F73EF490958095709561957F4F8F4F91
:102C60009F4F08950E943B1408F48FEF08950E942F
:102C70003B14880B990B0895A1E21A2EAA1BBB1BCB
:102C8000FD010DC0AA1FBB1FEE1FFF1FA217B30738
:102C9000E407F50720F0A21BB30BE40BF50B661F4E
:102CA000771F881F991F1A9469F760957095809512
:102CB00090959B01AC01BD01CF010895EE0FFF1F60
:102CC000881F8BBF0790F691E02D19940F931F93E7
:102CD000CF93DF938230910510F482E090E0E09191
:102CE0003707F091380730E020E0B0E0A0E03097FF
:102CF00099F42115310509F44AC0281B390B2430F9
:102D00003105D8F58A819B816115710589F1FB0137
:102D100093838283FE0111C040815181028113811E
:102D200048175907E0F04817590799F4109761F0D0
:102D300012960C93129713961C933296CF01DF9143
:102D4000CF911F910F910895009337071093380783
:102D5000F4CF2115310551F04217530738F0A9017E
:102D6000DB019A01BD01DF01F801C1CFEF01F9CF0D
:102D70009093380780933707CDCFFE01E20FF31F02
:102D8000819391932250310939832883D7CF2091A1
:102D9000350730913607232B41F4209115023091ED
:102DA0001602309336072093350720911302309195
:102DB00014022115310541F42DB73EB74091170299
:102DC00050911802241B350BE0913507F09136071E
:102DD000E217F307A0F42E1B3F0B2817390778F0F2
:102DE000AC014E5F5F4F2417350748F04E0F5F1F51
:102DF0005093360740933507819391939FCFF0E02E
:102E0000E0E09CCFCF93DF930097E9F0FC0132978D
:102E100013821282A0913707B0913807ED0130E09C
:102E200020E01097A1F420813181820F931F20911F
:102E30003507309136072817390709F061C0F0933C
:102E40003607E0933507DF91CF910895EA01CE1759
:102E5000DF07E8F54A815B819E0141155105B1F715
:102E6000E901FB83EA8349915991C40FD51FEC17FF
:102E7000FD0761F4808191810296840F951FE9011D
:102E800099838883828193819B838A83F0E0E0E049
:102E900012968D919C9113970097B9F52D913C91C5
:102EA0001197CD010296820F931F20913507309123
:102EB00036072817390739F6309751F51092380739
:102EC00010923707B0933607A0933507BCCFD38352
:102ED000C28340815181840F951FC817D90761F4BF
:102EE0004E5F5F4F88819981480F591F51834083FE
:102EF0008A819B81938382832115310509F0B0CFAC
:102F0000F0933807E09337079ECFFD01DC01C0CF77
:102F100013821282D7CF4F925F926F927F928F92DD
:102F20009F92AF92BF92CF92DF92EF92FF920F9358
:102F30001F93CF93DF938C01009799F4CB01DF911E
:102F4000CF911F910F91FF90EF90DF90CF90BF90A6
:102F5000AF909F908F907F906F905F904F900C9468
:102F60006616FC01E60FF71F9C0122503109E2179B
:102F7000F30708F4AEC0D901CD91DC911197C617C3
:102F8000D70720F1C530D10578F0CE010497861718
:102F9000970750F0C61BD70B2297C193D1936D931F
:102FA0007C93CF010E940217C801DF91CF911F913E
:102FB0000F91FF90EF90DF90CF90BF90AF909F90D8
:102FC0008F907F906F905F904F9008955B01AC1A47
:102FD000BD0A4C018C0E9D1EA0913707B091380799
:102FE000512C412CF12CE12C109731F580913507B3
:102FF000909136078815990509F05CC0461657066A
:1030000008F058C08091130290911402009741F487
:103010008DB79EB74091170250911802841B950BF3
:10302000E817F90708F055C0F0933607E093350725
:10303000F90171836083B8CF8D919C91119712969D
:103040006C90129713967C901397A815B90559F5B3
:103050006C0142E0C40ED11CCA14DB0420F1AC01A7
:103060004A195B09DA011296159780F06282738221
:1030700051834083D9016D937C93E114F10471F085
:10308000D7011396FC93EE9312978ECF22968C0F56
:103090009D1FF90191838083F301EFCFF0933807EF
:1030A000E093370781CF4816590608F42C017D01BB
:1030B000D3019ACFCB010E9466167C01009749F09C
:1030C000AE01B8010E946C18C8010E940217870166
:1030D0006BCF10E000E068CFFB01DC0102C0019083
:1030E0000D9241505040D8F70895FB01DC018D91BD
:1030F000019080190110D9F3990B0895FB01DC01AF
:1031000001900D920020E1F7089511E0C3E5D1E0B0
:1031100000E006C0802FFE010E945E162196011D70
:10312000C435D10780E00807A9F7F894FFCF1A1B30
:103130001C191817163132333435363738392A30DE
:1031400023000039078000000040001400540000F4
:1031500000000019037902A6026603D702B502C96E
:103160000200000000EA05BD0500079305B605A3AF
:1031700005940500000000B404740443040000003A
:1031800000FB07790200072C050D0A006E616E0036
:10319000696E66006F76660057656C636F6D6521BA
:1031A000212100475053206973206163746976615F
:1031B00074696E672E2E2E0057616974696E672ED2
:1031C0002E2E00630053656C6620546573742026B0
:1031D00020496E6974004D6F746F72206368656377
:1031E0006B005465737420474D2D53656E736F7279
:1031F00000546573742047505320004D6F746F72F4
:1032000020636865636B20204F4B00546573742006
:10321000474D2D53656E736F7220002D20474D2D45
:1032200053656E736F723A20002D206C617469745F
:103230007564653A20005468652070726F63657329
:1032400073206F662073656C662D546573742061FE
:103250006E6420696E697469616C697A6174696F02
:103260006E206861732066696E69736865642120E9
:10327000006D0053656C662D6164617074696F6EDA
:103280002E2E2E00456C65766174696F6E3A2000B3
:103290006465666C656374696F6E3A20002D204426
:1032A00065666C656374696F6E3A20005472616381
:1032B0006B696E6720537461722E2E2E00696E70DA
:1032C00075743A20002D48413A200046696E6973B2
:1032D000686564212121002020202020202020203A
:1032E00020202020202020002D63203A53656C668A
:1032F000205465737426496E6974002D6D203A530D
:10330000656C662D6164617074696F6E002D72204A
:103310003A547261636B696E672053746172000086
:020000040003F7
:10E000000D9489F10D94B2F10D94B2F10D94B2F129
:10E010000D94B2F10D94B2F10D94B2F10D94B2F1F0
:10E020000D94B2F10D94B2F10D94B2F10D94B2F1E0
:10E030000D94B2F10D94B2F10D94B2F10D94B2F1D0
:10E040000D94B2F10D94B2F10D94B2F10D94B2F1C0
:10E050000D94B2F10D94B2F10D94B2F10D94B2F1B0
:10E060000D94B2F10D94B2F10D94B2F10D94B2F1A0
:10E070000D94B2F10D94B2F10D94B2F10D94B2F190
:10E080000D94B2F10D94B2F10D94B2F10D94B2F180
:10E090000D94B2F10D94B2F10D94B2F10D94B2F170
:10E0A0000D94B2F10D94B2F10D94B2F10D94B2F160
:10E0B0000D94B2F10D94B2F10D94B2F10D94B2F150
:10E0C0000D94B2F10D94B2F10D94B2F10D94B2F140
:10E0D0000D94B2F10D94B2F10D94B2F10D94B2F130
:10E0E0000D94B2F141546D656761323536300041AF
:10E0F000726475696E6F206578706C6F72657220DE
:10E1000073746B3530305632206279204D4C530099
:10E11000426F6F746C6F616465723E004875683F52
:10E1200000436F6D70696C6564206F6E203D200048
:10E130004350552054797065202020203D20005FF9
:10E140005F4156525F415243485F5F3D2000415658
:10E1500052204C696243205665723D20004743437C
:10E160002056657273696F6E203D20004350552024
:10E1700049442020202020203D20004C6F7720663D
:10E18000757365202020203D20004869676820665F
:10E190007573652020203D200045787420667573D6
:10E1A00065202020203D20004C6F636B2066757336
:10E1B000652020203D20004D617220203720323024
:10E1C000313300312E362E3800342E332E350056A2
:10E1D00023202020414444522020206F7020636F70
:10E1E00064652020202020696E73747275637469E1
:10E1F0006F6E2061646472202020496E74657272B3
:10E20000757074006E6F20766563746F7200726A49
:10E210006D702020006A6D70200057686174207056
:10E220006F72743A00506F7274206E6F7420737541
:10E2300070706F72746564004D7573742062652030
:10E2400061206C6574746572002000577269747483
:10E25000696E672045450052656164696E672045B7
:10E26000450045452065727220636E743D00504F35
:10E27000525400303D5A65726F2061646472003FF1
:10E280003D43505520737461747300403D454550C3
:10E29000524F4D207465737400423D426C696E6B41
:10E2A000204C454400453D44756D70204545505215
:10E2B0004F4D00463D44756D7020464C415348001B
:10E2C000483D48656C70004C3D4C69737420492F83
:10E2D0004F20506F72747300513D51756974005234
:10E2E0003D44756D702052414D00563D73686F7707
:10E2F00020696E7465727275707420566563746FF0
:10E30000727300593D506F727420626C696E6B00BD
:10E310002A0011241FBECFEFD1E2DEBFCDBF01E046
:10E320000CBF12E0A0E0B2E0EEE1FDEF03E00BBFB6
:10E3300002C007900D92A030B107D9F712E0A0E01B
:10E34000B2E001C01D92AE30B107E1F70F9460F367
:10E350000D948DFE01E20EBF0FEF0DBF11241FBE05
:10E360000D9460F30D9400F020E030E040ED57E0B4
:10E3700005C0FA013197F1F72F5F3F4F2817390792
:10E38000C0F308959C01260F311DC901A0E0B0E043
:10E390002F5F3F4FABBFFC018791882361F08093D3
:10E3A000C6008091C00086FFFCCF8091C0008064D1
:10E3B0008093C000EACF08958DE08093C6008091DD
:10E3C000C00086FFFCCF8091C00080648093C000B5
:10E3D0008AE08093C6008091C00086FFFCCF8091C8
:10E3E000C00080648093C00008950F94C2F10F9420
:10E3F000DCF10895FC019081992359F09093C600B7
:10E400008091C00086FFFCCF8091C0008064809323
:10E41000C0003196992379F70895282F982F929567
:10E420009F70892F805D8A3308F0895F8093C600D2
:10E430008091C00086FFFCCF8091C00080648093F3
:10E44000C000822F8F70982F905D9A3308F0995FEB
:10E450009093C6008091C00086FFFCCF8091C000E1
:10E4600080648093C00008959C01FB01853691056E
:10E470001CF46330710594F0C90164E670E00F94F8
:10E480002EFE605D7F4F6093C6008091C00086FFC6
:10E49000FCCF8091C00080648093C0002B30310598
:10E4A00014F43297B4F0C90164E670E00F942EFEC4
:10E4B0006AE070E00F942EFE605D7F4F6093C600AF
:10E4C0008091C00086FFFCCF8091C0008064809363
:10E4D000C000C9016AE070E00F942EFEC0968093E0
:10E4E000C6008091C00086FFFCCF8091C000806490
:10E4F0008093C00008951F93182F8EE692EE60E07F
:10E500000F94C2F11093C6008091C00086FFFCCF2B
:10E510008091C00080648093C0000F94DCF11F9153
:10E5200008952F923F924F925F926F927F928F92B7
:10E530009F92AF92BF92CF92DF92EF92FF920F9392
:10E540001F93DF93CF93CDB7DEB762970FB6F894E2
:10E55000DEBF0FBECDBF382E622ECA01DB015C01CB
:10E560006D01772420E2222E2E010894411C511CBB
:10E570008BC081E0A81680E0B80681E0C80680E084
:10E58000D80628F0C601AA27BB270F940DF2BB2797
:10E59000AD2D9C2D8B2D0F940DF28A2D0F940DF225
:10E5A0002092C6008091C00086FFFCCF8091C00001
:10E5B00080648093C0009DE29093C6008091C0006B
:10E5C00086FFFCCF8091C00080648093C0002092C1
:10E5D000C6008091C00086FFFCCF8091C00080649F
:10E5E0008093C00019828601750188249924A1E0D6
:10E5F0003A1651F03A1620F0B2E03B1661F409C029
:10E600000BBFF701779007C0C7010F9477FE782EF4
:10E6100002C0F7017080872D0F940DF22092C60082
:10E620008091C00086FFFCCF8091C0008064809301
:10E63000C000872D8052F401EF70F0708F3520F408
:10E64000E40DF51D708204C0E40DF51D8EE280839B
:10E650000894E11CF11C011D111D0894811C911CE2
:10E6600090E18916910409F0C2CF80E190E0A0E02A
:10E67000B0E0A80EB91ECA1EDB1E198AC2010F9493
:10E68000FAF10F94DCF16A94662009F072CF629679
:10E690000FB6F894DEBF0FBECDBFCF91DF911F91B3
:10E6A0000F91FF90EF90DF90CF90BF90AF909F9031
:10E6B0008F907F906F905F904F903F902F90089534
:10E6C0002F923F924F925F926F927F928F929F9282
:10E6D000AF92BF92CF92DF92EF92FF920F931F9370
:10E6E000DF93CF93CDB7DEB7CD53D1400FB6F894BB
:10E6F000DEBF0FBECDBF01E20EBF0FEF0DBF94B75F
:10E70000F894A89514BE80916000886180936000A1
:10E7100010926000789493FF05C0E0910002F091A0
:10E7200001021995279A2F9A8091C00082608093E8
:10E73000C00080E18093C40088E18093C1000000A4
:10E74000EE24FF24870144E0A42EB12CCC24DD2448
:10E7500024C0C5010197F1F70894E11CF11C011DCB
:10E76000111D21E2E2162EE4F20620E0020720E06D
:10E77000120718F031E0C32ED12CC801B70127ECE5
:10E780003BE140E050E00F9441FE611571058105C9
:10E79000910519F485B1805885B98091C00087FD35
:10E7A00003C0C114D104A9F2A6014F5F5F4FC25E3E
:10E7B000DE4F59834883CE51D140C25EDE4F8881FF
:10E7C0009981CE51D140019711F00D9410FEC05D9A
:10E7D000DE4F19821882C053D14060E0C15DDE4F28
:10E7E0001882CF52D14088249924C35DDE4F19820C
:10E7F0001882CD52D140C05EDE4F188219821A8233
:10E800001B82C052D140CE5CDE4F188219821A8220
:10E810001B82C253D140EE24FF2487010BBFF701B6
:10E8200007911691C45CDE4F19830883CC53D14005
:10E830000D940BFEC25EDE4F28813981CE51D1404E
:10E840002130310509F52091C600C25EDE4F1982E4
:10E850001882CE51D14022C02F5F3F4F4F4F5F4FA4
:10E86000213082E138078AE7480780E0580780F0C6
:10E87000C45CDE4FE881F981CC53D140EF5FFF4F9C
:10E8800019F0EE27FF27099420E030E040E050E047
:10E890008091C00087FFE0CF2091C600C35DDE4FAE
:10E8A00048815981CD52D1404F5F5F4FC35DDE4FEC
:10E8B00059834883CD52D140213209F063C64A3092
:10E8C000510508F05FC60894811C911C53E0851621
:10E8D000910409F059C600E010E018C081E280936D
:10E8E000C6008091C00086FFFCCF8091C00080648C
:10E8F0008093C0002F5F3F4F2931310579F70F9486
:10E90000DCF10F5F1F4F0530110519F020E030E0FA
:10E91000E5CF10920A0210920B0210920C02109294
:10E920000D02109206021092070210920802109235
:10E930000902109202021092030210920402109235
:10E9400005028FEE90EE60E00F94F5F180E191EE1C
:10E9500060E00F94C2F18091C00087FFFCCF9091DE
:10E96000C600903608F09F759032B8F09093C600BC
:10E970008091C00086FFFCCF8091C00080648093AE
:10E98000C000A0E2A093C6008091C00086FFFCCF2B
:10E990008091C00080648093C000983409F4D7C18E
:10E9A0009934B8F4923409F459C1933458F490333B
:10E9B00019F1903308F4E3C59F33A1F1903409F0C5
:10E9C000DEC5BDC0953409F470C1963409F0D7C5D1
:10E9D00098C1923509F42BC2933538F49C3409F46C
:10E9E000F5C1913509F0CBC518C2963509F445C279
:10E9F000993509F0C4C567C483E792EE62E00F94CD
:10EA0000F5F110920602109207021092080210927D
:10EA1000090210920A0210920B0210920C0210923C
:10EA20000D0213C18FE792EE62E00F94F5F18FEEC5
:10EA300090EE60E00F94F5F181E291EE60E00F94CA
:10EA4000C2F187EB91EE60E00F94F5F180E391EE77
:10EA500060E00F94C2F184EE90EE60E00F94F5F167
:10EA60008FE391EE60E00F94C2F186E090E061E008
:10EA700070E00F9434F20F94DCF18DE591EE60E0DC
:10EA80000F94C2F189EC91EE60E00F94F5F18EE401
:10EA900091EE60E00F94C2F183EC91EE60E00F9490
:10EAA000F5F18CE691EE60E00F94C2F18EE10F94E7
:10EAB0000DF288E90F940DF281E00F940DF20F949E
:10EAC000DCF18BE791EE60E00F94C2F119E0E0E039
:10EAD000F0E010935700E4918E2F0F940DF20F94F5
:10EAE000DCF18AE891EE60E00F94C2F1E3E0F0E03F
:10EAF00010935700E4918E2F0F940DF20F94DCF1D8
:10EB000089E991EE60E00F94C2F1E2E0F0E0109349
:10EB10005700E4918E2F0F940DF20F94DCF188EAE8
:10EB200091EE60E00F94C2F1E1E0F0E01093570045
:10EB30001491812F0F940DF20F94DCF107CF8BE825
:10EB400092EE62E00F94F5F18BE492EE60E00F94A8
:10EB5000F5F10F94DCF100E010E019C0C8016F2D51
:10EB60000F947FFEFF2031F489E492EE60E00F9471
:10EB7000C2F10BC0F092C6008091C00086FFFCCFAE
:10EB80008091C00080648093C0000F5F1F4FC80158
:10EB900081519F41A0E0B0E0ABBFFC01F790BAE229
:10EBA000FB1621F0E2E000301E07C1F60F94DCF105
:10EBB0000F94DCF187E592EE60E00F94F5F10F948D
:10EBC000DCF1CC24DD2400E010E01EC0C8010F946D
:10EBD00077FEF82E882331F489E492EE60E00F94FA
:10EBE000C2F10BC08093C6008091C00086FFFCCFAD
:10EBF0008091C00080648093C000FE1419F00894D6
:10EC0000C11CD11C0F5F1F4FC80181519F41A0E063
:10EC1000B0E0ABBFFC01E790FAE2EF1621F022E092
:10EC20000030120799F60F94DCF10F94DCF182E6C4
:10EC300092EE60E00F94C2F1C60161E070E00F94C3
:10EC400034F20F94DCF10F94DCF110920202109276
:10EC50000302109204021092050278CE89E992EE26
:10EC600062E00F94F5F1279A2F9A16C02F9880E052
:10EC700090E0E0EDF7E03197F1F7019684369105E9
:10EC8000C1F72F9A80E090E0E0EDF7E03197F1F7DF
:10EC9000019684369105C1F78091C00087FFE6CFC9
:10ECA0008091C00087FFFCCF64C485EA92EE62E0E9
:10ECB0000F94F5F140910202509103026091040219
:10ECC0007091050281E020E10F9491F2809102029F
:10ECD00090910302A0910402B091050280509F4FD1
:10ECE000AF4FBF4F8093020290930302A0930402A0
:10ECF000B093050280509041A040B04008F426CE69
:10ED0000A4CF83EB92EE62E00F94F5F140910602FE
:10ED100050910702609108027091090280E020E1A1
:10ED20000F9491F28091060290910702A09108023F
:10ED3000B091090280509F4FAF4FBF4F80930602A2
:10ED400090930702A0930802B0930902FFCD80ECD4
:10ED500092EE62E00F94F5F183E792EE60E00F949B
:10ED6000F5F18FE792EE60E00F94F5F18BE892EE0B
:10ED700060E00F94F5F189E992EE60E00F94F5F10F
:10ED800085EA92EE60E00F94F5F183EB92EE60E09D
:10ED90000F94F5F180EC92EE60E00F94F5F187ECC2
:10EDA00092EE60E00F94F5F188ED92EE60E00F9442
:10EDB000F5F18FED92EE60E00F94F5F18AEE92EEB0
:10EDC00060E00F94F5F183E093EEBDCD87EC92EE19
:10EDD00062E00F94F5F181E40F947BF282E40F94EA
:10EDE0007BF283E40F947BF284E40F947BF285E45E
:10EDF0000F947BF286E40F947BF287E40F947BF20E
:10EE000088E40F947BF28AE40F947BF28BE40F94F6
:10EE10007BF28CE40F947BF299CD88ED92EE62E068
:10EE20000F94F5F1772473948824992409C48FED05
:10EE300092EE62E00F94F5F140910A0250910B02BC
:10EE400060910C0270910D0282E020E10F9491F22A
:10EE500080910A0290910B02A0910C02B0910D02D8
:10EE600080509F4FAF4FBF4F80930A0290930B0289
:10EE7000A0930C02B0930D0269CD8AEE92EE62E08F
:10EE80000F94F5F184EE90EE60E00F94F5F18FECC5
:10EE900091EE60E00F94F5F1662477244301CC5D98
:10EEA000DE4F19821882C452D140D401C301B695F5
:10EEB000A79597958795CA5DDE4F88839983AA8326
:10EEC000BB83C652D140CC5DDE4FA881B981C4520C
:10EED000D1401196CC5DDE4FB983A883C452D14096
:10EEE000CD0162E070E00F9434F2B0E2B093C6005E
:10EEF0008091C00086FFFCCF8091C0008064809329
:10EF0000C000EDE2E093C6008091C00086FFFCCF18
:10EF10008091C00080648093C000F0E2F093C6004E
:10EF20008091C00086FFFCCF8091C00080648093F8
:10EF3000C000CA5DDE4FE880F9800A811B81C6529D
:10EF4000D140BB27A12F902F8F2D0F940DF2CA5DBA
:10EF5000DE4F8881C652D1400F940DF2B0E2FB2EF5
:10EF6000F092C6008091C00086FFFCCF8091C00067
:10EF700080648093C0000DE30093C6008091C000C0
:10EF800086FFFCCF8091C00080648093C00010E2B7
:10EF90001093C6008091C00086FFFCCF8091C00016
:10EFA00080648093C0008BBEF3012791C65DDE4F65
:10EFB0002883CA52D140A22EBB24CC24DD2408943D
:10EFC000611C711C811C911C8BBEF3018791282E42
:10EFD0003324442455240894611C711C811C911C09
:10EFE0008BBEF3013791C55DDE4F3883CB52D140E4
:10EFF0000894611C711C811C911C8BBEF30147910C
:10F00000C45DDE4F4883CC52D140ADEFEA2EAFEF66
:10F01000FA2EAFEF0A2FAFEF1A2F6E0C7F1C801E57
:10F02000911E142D032DF22CEE24EA0CFB1C0C1D5A
:10F030001D1D0F940DF220E22093C6008091C000A8
:10F0400086FFFCCF8091C00080648093C000C65DC5
:10F05000DE4F8881CA52D1400F940DF230E23093D6
:10F06000C6008091C00086FFFCCF8091C000806404
:10F070008093C000C45DDE4F8881CC52D1400F9494
:10F080000DF240E24093C6008091C00086FFFCCFA5
:10F090008091C00080648093C000C55DDE4F888190
:10F0A000CB52D1400F940DF250E25093C6008091A4
:10F0B000C00086FFFCCF8091C00080648093C000B8
:10F0C0008FEFE8168FEFF80680E0080780E018075A
:10F0D00031F484E092EE60E00F94C2F1DFC0D80119
:10F0E000C7018070907CA070B0708050904CA040A0
:10F0F000B040D1F52FEF3FE340E050E0E222F322B1
:10F1000004231523CA5DDE4FA880B980CA80DB8046
:10F11000C652D140AE0CBF1CC01ED11EAA0CBB1CD7
:10F12000CC1CDD1C8EE092EE60E00F94C2F1BB2798
:10F13000A12F902F8F2D0F940DF28E2D0F940DF285
:10F1400030E23093C6008091C00086FFFCCF8091F2
:10F15000C00080648093C0004EE34093C60080915D
:10F16000C00086FFFCCF87C08EE09EEFA0E0B0E03D
:10F17000E822F9220A231B239CE0E91694E9F90608
:10F1800090E0090790E0190709F088C0C45DDE4FE0
:10F19000A881CC52D140EA2EFF2400E010E0102FCD
:10F1A0000F2DFE2CEE24C55DDE4FB881CB52D14031
:10F1B000EB0EF11C011D111DD601C501817090706F
:10F1C000A070B070DC0199278827E80EF91E0A1F8D
:10F1D0001B1F20EF30E040E050E0A222B322C42207
:10F1E000D52241E1AA0CBB1CCC1CDD1C4A95D1F7F1
:10F1F000EA0CFB1C0C1D1D1D81E090E0A0E0B0E0BE
:10F20000282239224A225B2235E1220C331C441C7D
:10F21000551C3A95D1F7E20CF31C041D151D57013E
:10F220006801AA0CBB1CCC1CDD1C85E192EE60E0E1
:10F230000F94C2F1C801AA27BB270F940DF2BB2778
:10F24000A12F902F8F2D0F940DF28E2D0F940DF274
:10F2500090E29093C6008091C00086FFFCCF809121
:10F26000C00080648093C000AEE3A093C60080918C
:10F27000C00086FFFCCF8091C00080648093C000F6
:10F28000C601AA27BB270F940DF2BB27AD2D9C2DDD
:10F290008B2D0F940DF28A2D0F940DF20F94DCF14B
:10F2A000CC5DDE4FE881F981C452D140F99709F471
:10F2B0004DCBF4E0EF2EF12C012D112D6E0C7F1CA7
:10F2C000801E911EF2CD83E093EE62E00F94F5F183
:10F2D0008AE192EE60E00F94C2F18091C00087FF56
:10F2E000FCCF1091C6001F751093C6008091C0001E
:10F2F00086FFFCCF8091C00080648093C0000F9493
:10F30000DCF1812F81548A3108F036C1163409F4BA
:10F3100095C0173490F4133409F44EC0143430F40B
:10F320001134F1F0123409F01DC130C0143409F465
:10F3300059C0153409F016C16BC01A3409F4C4C0A1
:10F340001B3438F4173409F48FC0183409F00AC19B
:10F35000A1C01B3409F4D2C01C3409F003C1E8C0B9
:10F360008FEF81B90DC082B1809582B980E090E0C5
:10F37000E0EDF7E03197F1F70196883C9105C1F790
:10F380008091C00087FFEFCF12B8EFC08FEF84B934
:10F390000DC085B1809585B980E090E0E0EDF7E0A3
:10F3A0003197F1F70196883C9105C1F78091C00033
:10F3B00087FFEFCF15B8D9C08FEF87B90DC088B1DF
:10F3C000809588B980E090E0E0EDF7E03197F1F7C3
:10F3D0000196883C9105C1F78091C00087FFEFCF6F
:10F3E00018B8C3C08FEF8AB90DC08BB180958BB9A7
:10F3F00080E090E0E0EDF7E03197F1F70196883C8E
:10F400009105C1F78091C00087FFEFCF1BB8ADC059
:10F410008FEF8DB90DC08EB180958EB980E090E0F0
:10F42000E0EDF7E03197F1F70196883C9105C1F7DF
:10F430008091C00087FFEFCF1EB897C08FEF80BBD1
:10F440000DC081B3809581BB80E090E0E0EDF7E0F6
:10F450003197F1F70196883C9105C1F78091C00082
:10F4600087FFEFCF11BA81C08FEF83BB0DC084B38C
:10F47000809584BB80E090E0E0EDF7E03197F1F714
:10F480000196883C9105C1F78091C00087FFEFCFBE
:10F4900014BA6BC08FEF809301010FC080910201FD
:10F4A00080958093020180E090E0E0EDF7E03197F5
:10F4B000F1F70196883C9105C1F78091C00087FF64
:10F4C000EDCF1092020151C08FEF809304010FC065
:10F4D0008091050180958093050180E090E0E0ED4A
:10F4E000F7E03197F1F70196883C9105C1F78091DB
:10F4F000C00087FFEDCF1092050137C08FEF8093DA
:10F5000007010FC08091080180958093080180E079
:10F5100090E0E0EDF7E03197F1F70196883C910536
:10F52000C1F78091C00087FFEDCF109208011DC088
:10F530008FEF80930A010FC080910B01809580931B
:10F540000B0180E090E0E0EDF7E03197F1F70196F4
:10F55000883C9105C1F78091C00087FFEDCF1092E4
:10F560000B0103C085E292EEEEC98091C00087FFD7
:10F57000FCCF8091C600EAC988E392EEE4C98CE131
:10F5800091EEE1C988249924933011F1943028F444
:10F59000913089F09230B8F408C0953061F195301F
:10F5A000F0F0963009F048C043C02B3109F042C951
:10F5B00091E06BE13FC96227C15DDE4F2883CF52E6
:10F5C000D14092E037C9B22FA0E0622793E032C960
:10F5D000822F90E0A82BB92B622794E02BC92E3004
:10F5E00009F039C3622795E0C05DDE4F19821882A9
:10F5F000C053D1401FC9E1E0F0E0EC0FFD1FC05D3A
:10F60000DE4F08811981C053D140E00FF11F2083E4
:10F610000F5F1F4FC05DDE4F19830883C053D14079
:10F6200062270A171B0709F005C9D80196E002C92D
:10F63000261709F010C303C0973009F0FBC87724E0
:10F640009981933109F412C19431C8F4963009F4C8
:10F65000D8C0973050F4923009F406C1933009F4C1
:10F660006DC0913009F059C253C0913109F477C08F
:10F67000923108F0BBC0903109F04FC2F5C098310B
:10F6800009F487C0993150F4953109F4EFC09531F0
:10F6900008F4C6C1963109F040C2C2C19A3109F4DA
:10F6A0006CC09A3108F491C09B3109F45BC09D3164
:10F6B00009F033C29D81903359F48F81882311F46E
:10F6C0009EE11CC0813011F091E018C098E916C08D
:10F6D000892F807591F0903539F4E0E0F0E089E011
:10F6E0008093570094910AC0983539F4E3E0F0E034
:10F6F00089E080935700949101C090E01A821B82A8
:10F700008D818C831D829E831F8227E030E009C299
:10F710001A8288E08B8381E48C8386E58D8382E581
:10F720008E8389E48F8383E5888780E589878FE5E9
:10F730008A8782E38B872BE030E0F3C18A818139AD
:10F7400041F0823941F0803911F48FE005C080E04A
:10F7500003C082E001C08AE01A828B8344C0772410
:10F76000739482C08D81882311F48EE12CC0813086
:10F7700011F081E028C088E926C01A82E1E0F0E0BB
:10F7800089E08093570084918B831C8224E030E0D1
:10F79000C8C18B81803589F48C81883039F4E2E0EE
:10F7A000F0E089E08093570084910DC0E0E0F0E044
:10F7B00089E080935700849106C0E3E0F0E089E09F
:10F7C0008093570084911A82DFCF8D81836C99E0FA
:10F7D000E1E0F0E0082E90935700E89507B600FCB2
:10F7E000FDCF1A821B8223E030E09BC180EC8A832C
:10F7F000CE5CDE4F188219821A821B82C253D1401E
:10F800008EC18A8190E0A0E0B0E0582F44273327D2
:10F8100022278B8190E0A0E0B0E0DC0199278827C7
:10F82000282B392B4A2B5B2B8D8190E0A0E0B0E098
:10F83000282B392B4A2B5B2B8C8190E0A0E0B0E089
:10F84000BA2FA92F982F8827282B392B4A2B5B2BCF
:10F85000220F331F441F551FC05EDE4F288339839C
:10F860004A835B83C052D1401A8259C13A81C95C34
:10F87000DE4F3883C753D140CA5CDE4F1882C6536F
:10F88000D1408B81C82EDD24CA5CDE4F488159816E
:10F89000C653D140C42AD52A933109F082C0CE5C28
:10F8A000DE4F88819981AA81BB81C253D1408050AB
:10F8B000904CA340B04030F583E0CE5CDE4FE88052
:10F8C000F9800A811B81C253D140F70100935B008C
:10F8D00080935700E89507B600FCFDCFCE5CDE4F65
:10F8E000088119812A813B81C253D14000501F4FAA
:10F8F0002F4F3F4FCE5CDE4F088319832A833B8313
:10F90000C253D140C05EDE4F488159816A817B81FC
:10F91000C052D140DE011B9631E08C9111962C91A2
:10F9200011971296C75CDE4F2883C953D140C85C3B
:10F93000DE4F1882C853D14090E0C85CDE4FE881AA
:10F94000F981C853D1408E2B9F2B0C01FA01609393
:10F950005B0030935700E89511244E5F5F4F6F4F67
:10F960007F4F0EEFE02E0FEFF02ECE0CDF1CC114F8
:10F97000D10499F685E0C05EDE4F088119812A81A5
:10F980003B81C052D140F80120935B008093570027
:10F99000E89507B600FCFDCF81E180935700E8951C
:10F9A00035C0C05EDE4F88819981AA81BB81C0527B
:10F9B000D140B695A795979587957C018601ABE0D8
:10F9C000AA2EB12CAC0EBD1E0BC0D5016D915D01F0
:10F9D000C7010F947FFE0894E11CF11C01501040F8
:10F9E0000115110591F7A60160E070E0440F551F65
:10F9F000661F771FC05EDE4FE880F9800A811B8199
:10FA0000C052D1404E0D5F1D601F711F1A82C05E33
:10FA1000DE4F488359836A837B83C052D1407FC0C5
:10FA2000FA80C55CDE4FF882CB53D140C65CDE4F16
:10FA30001882CA53D1408B81C82EDD24C65CDE4FAC
:10FA400008811981CA53D140C02AD12A1A828981DA
:10FA5000BE016D5F7F4F843121F59601C05EDE4FA0
:10FA6000E880F9800A811B81C052D1400BBFF701A9
:10FA700087919691DB018C9311969C936E5F7F4FDB
:10FA8000D801C7010296A11DB11DC05EDE4F88835B
:10FA90009983AA83BB83C052D14022503040F1F6F3
:10FAA00036C0C05EDE4F288139814A815B81C052F9
:10FAB000D1400894C108D108760100E010E0089414
:10FAC000C11CD11C0894E11CF11C011D111DE20E8A
:10FAD000F31E041F151F21BDBB27A52F942F832FB5
:10FAE00082BD2F5F3F4F4F4F5F4FF89A80B5DB01CC
:10FAF0008D93BD012E153F054007510761F7C05E8C
:10FB0000DE4F288339834A835B83C052D1409601FC
:10FB10002D5F3F4FFB01108204C080EC8A8322E0FE
:10FB200030E08BE18093C6008091C00086FFFCCF5F
:10FB30008091C00080648093C000C15DDE4FF88179
:10FB4000CF52D140F093C6008091C00086FFFCCF19
:10FB50008091C00080648093C000432F3093C60022
:10FB60008091C00086FFFCCF8091C00080648093AC
:10FB7000C000922F2093C6008091C00086FFFCCF6A
:10FB80008091C00080648093C0008EE08093C600A6
:10FB90008091C00086FFFCCF8091C000806480937C
:10FBA000C00065E1C15DDE4FE880CF52D1406E25D7
:10FBB00069276427FE01319610C090819093C6009A
:10FBC0008091C00086FFFCCF31968091C000806498
:10FBD0008093C0006927215030402115310569F715
:10FBE0006093C6008091C00086FFFCCF8091C0006A
:10FBF00080648093C00085B1805885B9772081F4F6
:10FC0000C15DDE4F0881CF52D1400F5FC15DDE4F35
:10FC10000883CF52D14090E0A0E0B0E00D941AF4F8
:10FC200027982F9880E090E020ED37E0F901319798
:10FC3000F1F7019684369105C9F700008091C00064
:10FC40008D7F8093C00081E180935700E895EE2777
:10FC5000FF270994FFCF90E00D941AF497FB092E2B
:10FC600007260AD077FD04D02ED006D000201AF443
:10FC7000709561957F4F0895F6F7909581959F4F08
:10FC80000895A1E21A2EAA1BBB1BFD010DC0AA1FDD
:10FC9000BB1FEE1FFF1FA217B307E407F50720F0F5
:10FCA000A21BB30BE40BF50B661F771F881F991F70
:10FCB0001A9469F760957095809590959B01AC01B9
:10FCC000BD01CF010895AA1BBB1B51E107C0AA1FAC
:10FCD000BB1FA617B70710F0A61BB70B881F991FED
:10FCE0005A95A9F780959095BC01CD010895F99991
:10FCF000FECF92BD81BDF89A992780B50895262F31
:10FD0000F999FECF1FBA92BD81BD20BD0FB6F89400
:0EFD1000FA9AF99A0FBE01960895F894FFCF63
:00000001FF
