:020000040000FA
:100000000C94CC010C94FD010C94FD010C94FD01A9
:100010000C94FD010C94FD010C94FD010C94FD0168
:100020000C94FD010C94B60C0C94B60C0C94B60C0C
:100030000C94FD010C94FD010C94FD010C94FD0148
:100040000C94FD010C94FD010C94FD010C94FD0138
:100050000C94FD010C94FD010C94FD010C946C0CAE
:100060000C94FD010C94360C0C940C0C0C94FD01BA
:100070000C94FD010C94FD010C94FD010C94FD0108
:100080000C94FD010C94FD010C94FD010C94FD01F8
:100090000C94D60B0C94AC0B0C94FD010C94C00C7E
:1000A0000C94FD010C94FD010C94FD010C94FD01D8
:1000B0000C94FD010C94FD010C94FD010C94FD01C8
:1000C0000C94FD010C94FD010C94FD010C94FD01B8
:1000D0000C94FD010C94FD010C94FD010C94FD01A8
:1000E0000C94FD010C9445060C94ED030C947519C9
:1000F0000C9428040C9408040C9488130C94AD08F8
:100100000C9456130C946F060C945F040C945D13BE
:100110000C9467130C94B6020C94FB030C94A91373
:100120000C9495130C9421130C94A7020C942004A6
:100130000C940C040C94E40D0C9412040C949C1379
:100140000C9464130C9490040C9424040C94F30306
:100150000C949C060C9450130C94F7030C946806B2
:100160000C9479020C942D040C9482030C94FF03DC
:100170000C94D8020C947B130C9446060C94020445
:100180000C946E130C9416040C94CA020C941A036B
:100190000C9415130C9478020C9455060C94B61319
:1001A0000C94D0040C942E040C947A020C94B00598
:1001B0000C94B2070C941A040C9432040000210031
:1001C000240027002A002D00300033000101000028
:1001D000040107010A0100002200250028002B006D
:1001E0002E003100340002010000050108010B015E
:1001F000000020002300260029002C002F003200E0
:1002000000010000030106010901050505050705B8
:1002100008080808020202020A0A08080404040482
:1002200001010101010101010303030303030303AE
:10023000040707070C0C0C0C0C0C0C0C020202023D
:1002400006060606060606060B0B0B0B0B0B0B0B26
:1002500001021020200808102040102040800201D8
:1002600002010804020101020408102040808040BD
:1002700020100804020180040201804020100804BC
:10028000020108040201010204081020408001025A
:1002900004081020408000000A0B02090C0D0E0813
:1002A000070304010000000000000000000000003F
:1002B000000000000000000000000000000000003E
:1002C00000001211100000000000000000000000FB
:1002D0000000000000000000000000004E6F2047FA
:1002E000505320646174612072656365697665644A
:1002F0003A20636865636B20776972696E67004DA9
:100300006561737572696E672E2E2E003A003A0091
:1003100020002D002D002D2047505320646174656E
:100320002674696D653A20004D6561737572696E5A
:10033000672E2E2E00206B6D2F68002D20737065A8
:1003400065643A20002D206C6F636174696F6E3AAA
:10035000204D6561737572696E672E2E2E004D6596
:1003600061737572696E672E2E2E002D20616C747C
:1003700069747564653A20002D206C6F6E6769742E
:100380007564653A20002D206C617469747564652C
:100390003A200000E40D751911241FBECFEFD1E201
:1003A000DEBFCDBF00E00CBF27E0ACEEB3E001C084
:1003B0001D92A333B207E1F713E0A0E0B2E0EEE74D
:1003C000FDE300E00BBF02C007900D92AC3EB10709
:1003D000D9F711E0CBECD1E000E006C0219701098C
:1003E000802FFE010E946F1CCA3CD10780E00807E5
:1003F000A9F70E94EC0F0C94AD1E0C940000FC01B8
:10040000A089B18982E08C93A485B5851C92A685CC
:10041000B7858FEC8C93108EA489B58986E08C9378
:10042000A289B3898C9180618C93A289B3898C91C4
:1004300088608C93A289B3898C9180688C930288A0
:10044000F389E02D80818F7D8083089596E0899FD8
:10045000D0011124AC54B94F90967C936E935F9762
:1004600091E091969C939197E0912107F09122075A
:1004700090912007992339F0309751F0811108C0ED
:100480008091D0061994309719F05C968C91FACF30
:100490000895CF92DF92EF92FF9210920206609140
:1004A00005067091060680910706909108060E9445
:1004B000E51928E23BE64EE65EE40E948B1B6B01E9
:1004C0007C01609103067091040690E080E00E9438
:1004D000E5199B01AC01C701B6010E941F1B2091C9
:1004E000090621119058FF90EF90DF90CF9008956A
:1004F00008950895AF92BF92CF92DF92EF92FF924C
:100500000F931F93CF93DF936C017B018B01040F3B
:10051000151FEB015E01AE18BF08C017D10759F0D7
:100520006991D601ED91FC910190F081E02DC60119
:100530001995892B79F7C501DF91CF911F910F9103
:10054000FF90EF90DF90CF90BF90AF900895FC01A7
:10055000538D448D252F30E0842F90E0821B930B28
:10056000541710F0CF96089501970895FC01918DCE
:10057000828D981761F0A28DAE0FBF2FB11D5D96D1
:100580008C91928D9F5F9F73928F90E008958FEF73
:100590009FEF0895FC01918D828D981731F0828D27
:1005A000E80FF11D858D90E008958FEF9FEF08957E
:1005B000FC01918D228D892F90E0805C9F4F821BE2
:1005C00091098F739927089585EB94E00E94D802D2
:1005D00021E0892B09F420E0822F089582E595E03F
:1005E0000E94D80221E0892B09F420E0822F08958F
:1005F000FC01A48DA80FB92FB11DA35ABF4F2C9198
:10060000848D90E001968F739927848FA689B7898E
:100610002C93A089B1898C91837080648C93938D85
:10062000848D981306C00288F389E02D80818F7D28
:1006300080830895EF92FF920F931F93CF93DF93E0
:10064000EC0181E0888F9B8D8C8D98131AC0E8890E
:10065000F989808185FF15C09FB7F894EE89FF89DD
:100660006083E889F98980818370806480839FBF7B
:1006700081E090E0DF91CF911F910F91FF90EF907B
:100680000895F62E0B8D10E00F5F1F4F0F7311278B
:10069000E02E8C8D8E110CC00FB607FCFACFE889C6
:1006A000F989808185FFF5CFCE010E94F802F1CF54
:1006B000EB8DEC0FFD2FF11DE35AFF4FF0829FB73A
:1006C000F8940B8FEA89FB8980818062CFCF0F93EA
:1006D0001F93CF93DF938C01D0E0C0E0F801EC0FC3
:1006E000FD1F6491662341F082E595E00E941A03A4
:1006F000892B11F02196F2CFCE01DF91CF911F917E
:100700000F910895CF93DF93EC01888D8823B9F082
:10071000AA89BB89E889F9898C9185FD03C080810C
:1007200086FD0DC00FB607FCF7CF8C9185FFF2CF89
:10073000808185FFEDCFCE010E94F802E9CFDF91E5
:10074000CF91089580E090E0892B29F00E94EE027D
:1007500081110E94000080E090E0892B29F00E9426
:10076000E40281110E94000080E090E0892B49F0B2
:1007700080E090E0892B29F00E94000081110E9406
:10078000000080E090E0892B49F080E090E0892B28
:1007900029F00E94000081110C94000008958150FE
:1007A000823108F05AC0E82FF0E08827E552FC4F6C
:1007B0008F4F0C946F1CFB03FF03ED03F303F70350
:1007C0002D04020408040C04120416041A04200464
:1007D00024042D0428042E043204809180008F7795
:1007E000809380000895809180008F7DF9CF809163
:1007F0008000877FF5CF84B58F7784BD089584B559
:100800008F7DFBCF8091B0008F778093B0000895EB
:100810008091B0008F7DF9CF809190008F77809389
:1008200090000895809190008F7DF9CF8091900085
:10083000877FF5CF8091A0008F778093A0000895E7
:100840008091A0008F7DF9CF8091A000877FF5CFA8
:10085000809120018F77809320010895809120015D
:100860008F7DF9CF80912001877FF5CFCF93DF93E4
:10087000282F30E0F901EA56FD4F8491F901E05B41
:10088000FD4FD491F901E65FFD4FC491CC23A1F057
:1008900081110E94CF03EC2FF0E0EE0FFF1FE0511B
:1008A000FE4FA591B491EC91ED2381E090E009F425
:1008B00080E0DF91CF91089580E090E0FACF862F1D
:1008C0000C9436041F93CF93DF93282F30E0F90167
:1008D000EA56FD4F8491F901E05BFD4FD491F90197
:1008E000E65FFD4FC491CC23A9F0162F81110E9421
:1008F000CF03EC2FF0E0EE0FFF1FEA52FE4FA59161
:10090000B4918FB7F894EC91111108C0D095DE2303
:10091000DC938FBFDF91CF911F910895DE2BF8CF2D
:10092000862F642F0C946204CF93DF9390E0FC0138
:10093000E05BFD4F2491865F9D4FFC0184918823ED
:10094000C9F090E0880F991FFC01E454FE4FA59177
:10095000B491FC01EA52FE4FC591D49161110DC0D2
:100960009FB7F8948C91209582238C9388812823BB
:1009700028839FBFDF91CF910895623051F49FB7D4
:10098000F8943C91822F809583238C93E8812E2BC1
:10099000EFCF8FB7F894EC912E2B2C938FBFEACF2B
:1009A000862F642F0C949404863308F0865320918C
:1009B0007B00982F9870277F922B90937B008770F5
:1009C000806480937C0080917A00806480937A00B8
:1009D00080917A0086FDFCCF80917800909179001B
:1009E00008953FB7F8948091A5049091A604A09132
:1009F000A704B091A80426B5A89B05C02F3F19F005
:100A00000196A11DB11D3FBFBA2FA92F982F88278E
:100A1000BC01CD01620F711D811D911D42E0660F69
:100A2000771F881F991F4A95D1F708958F929F923B
:100A3000AF92BF92CF92DF92EF92FF924B015C0197
:100A40000E94F1046B017C010E94F1046C197D0984
:100A50008E099F09683E734081059105A8F321E046
:100A6000821A9108A108B10888EEC80E83E0D81E4A
:100A7000E11CF11C81149104A104B10429F7FF9039
:100A8000EF90DF90CF90BF90AF909F908F900895A0
:100A90002FB7F8946091A1047091A2048091A304EF
:100AA0009091A4042FBF08950F931F93CF93DF93CA
:100AB000C82FD62F86E0C89FF0011124EC54F94FBF
:100AC00011A2878D90A181309105F1F058F082300C
:100AD0009105F1F1039709F440C0DF91CF911F9187
:100AE0000F9108956623C9F361E070E08C2F0E9496
:100AF00026020E94480560930C0770930D078093AF
:100B00000E0790930F07E9CF0E94480500910C074C
:100B100010910D0720910E0730910F07AB01BC011A
:100B2000401B510B620B730B80911E0790911F07A6
:100B3000B0E0A0E084179507A607B70748F462E085
:100B400070E08C2FDF91CF911F910F910C942602B2
:100B500063E070E0D111C1CFF4CF70E060E0F1CF7D
:100B60000895CF93DF93EC018A859B85AC85BD8585
:100B70008E839F83A887B9870E9448056A837B83F9
:100B80008C839D8381E089838883DF91CF91089551
:100B9000CF93DF93EC018E819F81A885B9858A83ED
:100BA0009B83AC83BD830E9448056A877B878C87C3
:100BB0009D8781E089838883DF91CF91089520917B
:100BC0002D04260F3327331F21323105ECF42091F9
:100BD0007804FC0190E080E0243069F082E0089520
:100BE000A0912D042191AC01435F5B4FA40FB52F61
:100BF000B11D2C930196861798F380912D04680FF0
:100C000060932D0480E0089581E0089510927804A7
:100C100081E0809377041092520461E084E10E94A5
:100C2000620461E085E10E946204E9EBF0E080810A
:100C30008E7F808380818D7F808388E48093B8005D
:100C400085E48093BC000895CF93DF9391E0909367
:100C50000C048823B9F0C091B800D091BA008091FB
:100C6000BC008A7B8093BC0060E084E10E94620447
:100C700060E085E10E9462040E940606D093BA00FB
:100C8000C093B800DF91CF9108950895E091B0042A
:100C90008091AF04E81730F4F0E0E451FC4F80811C
:100CA00090E008958FEF9FEF08959091B0048091A8
:100CB000AF042FEF3FEF981748F4E92FF0E0E4512D
:100CC000FC4F208130E09F5F9093B004C9010895EC
:100CD0008091AF049091B004891B990B0895CF9235
:100CE000DF92EF92FF920F931F93CF93DF937C01DC
:100CF000CB018A0120917E04222389F0EB016B0154
:100D0000C40ED51ECC15DD0569F06991D701ED91B2
:100D1000FC910190F081E02DC7011995F3CF642F6C
:100D20000E94DF05C801DF91CF911F910F91FF90C5
:100D3000EF90DF90CF900895CF93DF931F92CDB7C0
:100D4000DEB7698320917E042223F9F02091AD045F
:100D5000203258F021E030E0FC013383228390E020
:100D600080E00F90DF91CF9108958091AE04E82F3D
:100D7000F0E0E158FB4F998190838F5F8093AE0440
:100D80008093AD0481E090E0ECCF61E0CE0101966C
:100D90000E94DF05F7CFCF92DF92EF92FF920F9381
:100DA0001F93CF93DF93FC01C48121E020937E0445
:100DB000C0939F041092AE041092AD048385682BFB
:100DC0008FEE95E00E949C06D091AD04D13208F0E0
:100DD00092C00E94F1046B017C0180917804811122
:100DE00065C082E08093780481E0809377048FEF80
:100DF0008093760410927504D0937404AFE7B4E046
:100E0000E4E5F4E080E0D81385C0109253048091AB
:100E10005304CC0FC82BC0935304809152048130EB
:100E200009F07CC0109252040E94F1046B017C0115
:100E3000809153048093BB0080917A0490917B044D
:100E4000A0917C04B0917D04892B8A2B8B2B99F087
:100E50000E94F10400917A0410917B0420917C049B
:100E600030917D046C197D098E099F0906171707BB
:100E700028073907E0F18091BC0083FDD9CF85ECCC
:100E80008093BC000E94F1046B017C018091780486
:100E9000823009F445C0809176048F3F61F18091E2
:100EA0007604803241F18091760425C080917A04E5
:100EB00090917B04A0917C04B0917D04892B8A2BB6
:100EC0008B2B09F48ACF0E94F10400917A041091CF
:100ED0007B0420917C0430917D046C197D098E097E
:100EE0009F09061717072807390708F076CF809162
:100EF00079040E9424061092AE041092AD04109260
:100F00007E04DF91CF911F910F91FF90EF90DF90C2
:100F1000CF9008959D9191938F5F75CF85EEB0CF5F
:100F200080917A0490917B04A0917C04B0917D041F
:100F3000892B8A2B8B2B09F4A9CF0E94F1040091F5
:100F40007A0410917B0420917C0430917D046C190B
:100F50007D098E099F09061717072807390708F02A
:100F600095CFC5CF90E080E00895CF92DF92EF92C9
:100F7000FF920F931F93CF93DF937C018B01D12CB2
:100F8000C12CC016D106ECF4F701C681D781F70158
:100F900080819181C817D90784F061E08C2F0E946D
:100FA000620463E070E080E090E00E94160560E07B
:100FB0008C2F0E9462042197EACFFFEFCF1ADF0A3D
:100FC000E0CF119501951109F70111870087DF9195
:100FD000CF911F910F91FF90EF90DF90CF900895E8
:100FE000CF92DF92EF92FF920F931F93CF93DF93F5
:100FF0008C016B01F12CE12CF801EC14FD04E4F4FC
:10100000C081D181F801868197818C179D0784F07A
:1010100061E08C2F0E94620463E070E080E090E069
:101020000E94160560E08C2F0E9462042196EACF90
:10103000FFEFEF1AFF0AE0CFD186C086DF91CF9194
:101040001F910F91FF90EF90DF90CF9008950F9335
:101050001F93CF93DF938C01FC01C081D181F801F4
:10106000868197818C179D0734F061E08C2F0E9458
:1010700094042196F4CFDF91CF911F910F910895A1
:101080000F931F93CF938C01C62F0E94CB066C2F1A
:101090006460C8010E94CB066C2F6B7FC8010E9460
:1010A000CB0683EC90E00197F1F7CF911F910F9160
:1010B00008950F931F93CF93DF938C01D62FC42FE6
:1010C000607F642B0E94400880E1D89FB00111240A
:1010D0006C2BC801DF91CF911F910F910C944008A8
:1010E000CF93DF9300D000D01F921F92CDB7DEB711
:1010F00098E0E9E1F2E0DE01119601900D929A95F7
:10110000E1F790912B07961710F46FEF690F262FD8
:1011100030E0220F331F41E050E04C0F5D1F240FE1
:10112000351FF9016081680F606840E083E297E055
:1011300028960FB6F894DEBF0FBECDBFDF91CF91DA
:101140000C94590840E061E083E297E00E9459085E
:101150008BE39FE10197F1F7089541E00E94590860
:1011600081E090E00895FB0101900020E9F73197BC
:10117000AF01461B570BDC01ED91FC910280F3811E
:10118000E02D19948F929F92AF92BF92EF92FF92AF
:101190000F931F93CF93DF93CDB7DEB7A1970FB611
:1011A000F894DEBF0FBECDBF7C01FA01CB0119A2BE
:1011B000223008F42AE08E010F5D1F4F822E912C01
:1011C000B12CA12CBF01A50194010E944D1CF90175
:1011D000CA016A300CF5605DD8016E938D01232B36
:1011E000242B252B79F790E080E0109721F0BD01AA
:1011F000C7010E94B308A1960FB6F894DEBF0FBED8
:10120000CDBFDF91CF911F910F91FF90EF90BF90D5
:10121000AF909F908F900895695CDECFBC0183E210
:1012200097E00C94B308CF93DF930E946703EC011F
:101230006BE572E082E595E00E94B3088C0F9D1F7C
:10124000DF91CF9108952F923F924F925F926F92CC
:101250007F928F929F92AF92BF92CF92DF92EF9246
:10126000FF921F93CF93DF93EC016A017B01722EF3
:10127000AB019601CB01B6010E94381C6EE572E00D
:10128000811126C046015701E894B7F82FEF3FEFD0
:101290004FE75FE7C501B4010E94381C81110CC003
:1012A0002FEF3FEF4FE75FE7C501B4010E94E01960
:1012B00062E672E0181664F02FEF3FEF4FE75FE44D
:1012C000C701B6010E94331C1816B4F466E672E03A
:1012D000CE01DF91CF911F91FF90EF90DF90CF90E3
:1012E000BF90AF909F908F907F906F905F904F9046
:1012F0003F902F900C94B3082FEF3FEF4FE75FEC38
:10130000C701B6010E94E01987FDE0CF20E030E080
:10131000A901C701B6010E94E019312C212C87FFD9
:101320000DC0E881F9810190F081E02D6DE2CE01E0
:1013300019951C01F7FAF094F7F8F09410E060E0CA
:1013400070E080E09FE3711641F020E030E040E281
:1013500051E40E948B1B1F5FF6CFA70196010E94EC
:101360001F1B2B013C010E94041C4B015C012AE065
:10137000BC01A401CE010E94C2087C01E20CF31C56
:101380001123E1F1C501B4010E94E5199B01AC01F3
:10139000C301B2010E941E1B4B015C01E881F9816F
:1013A0000190F081E02D6EE2CE011995E80EF91E54
:1013B000115020F120E030E040E251E4C501B401D9
:1013C0000E94461A2B013C010E94041C4B01B12CC7
:1013D000A12C2AE0B501A401CE010E94C208E80EAA
:1013E000F91EC501B4010E94E5199B01AC01C301BE
:1013F000B2010E941E1B4B015C01DACFC701DF91D5
:10140000CF911F91FF90EF90DF90CF90BF90AF9062
:101410009F908F907F906F905F904F903F902F9014
:101420000895CF93DF93AB01BC0122E082E595E004
:101430000E942309EC016BE572E082E595E00E94D1
:10144000B3088C0F9D1FDF91CF9108952F923F928B
:101450004F925F926F927F928F929F92AF92BF92C4
:10146000CF92DF92EF92FF920F931F93CF93DF9370
:10147000D82FC92F8B010E949C1924E630E040E050
:1014800050E00E944D1C49019B01AC0160E876E9E7
:1014900088E990E00E943D1C6B017C01F80191827B
:1014A0008082ED2FFC2F2191822F022E000C990BB0
:1014B000C0970A97C0F32E3239F51F0180E8882EB5
:1014C00086E9982E88E9A82EB12C9AE0492E512C55
:1014D000612C712CF101C1911F010C2E000CDD0B50
:1014E000E097CA30D10580F4C501B401A30192018F
:1014F0000E944D1C49015A01DE010E94771CC60E54
:10150000D71EE81EF91EE6CFA5E0B0E0A7019601C0
:101510000E94041B6F5F7F4F8F4F9F4F23E030E08F
:1015200040E050E00E944D1CF80122833383448345
:1015300055831682DF91CF911F910F91FF90EF900D
:10154000DF90CF90BF90AF909F908F907F906F90E3
:101550005F904F903F902F9008951F93CF93DF930C
:10156000EC0118811D3209F42196CE010E949C19CC
:101570009B01AC01A4E6B0E00E94041BAB01BC01DE
:10158000FE012991822F022E000C990BC0970A9719
:10159000B8F32E3231F58181082E000C990BC097DB
:1015A0008A309105F0F4AAE0A89F9001A99F300D20
:1015B0001124C901330FAA0BBB0B480F591F6A1F17
:1015C0007B1F8281082E000C990BC0978A309105F1
:1015D00040F4092E000CAA0BBB0B480F591F6A1FC1
:1015E0007B1F1D3239F470956095509541955F4F82
:1015F0006F4F7F4FCB01BA01DF91CF911F910895BB
:101600000F931F93CF93DF93EC018881998100970B
:1016100059F02A813B812617370730F081E0DF91AE
:10162000CF911F910F9108958B016F5F7F4F0E94A3
:10163000A41D009759F0998388831B830A832C810A
:101640003D81232B59F7FC011082E8CF80E0E7CFE2
:10165000CF93DF93EC01198218821B821A821D82BC
:101660001C8270E060E00E94000B288139818111AA
:101670000FC02115310519F0C9010E941B1D1982E7
:1016800018821D821C821B821A82DF91CF910895DD
:101690001D821C826DE572E0C901DF91CF910C942F
:1016A000971ECF93DF93EC0170E060E00E94000B87
:1016B0002881398181110FC02115310519F0C90127
:1016C0000E941B1D198218821D821C821B821A8295
:1016D000DF91CF9108951D821C826DE572E0C901F2
:1016E000DF91CF910C94971E85ED8093BC00809183
:1016F0007A0490917B04A0917C04B0917D040796BC
:10170000A11DB11D23E0B695A795979587952A95BC
:10171000D1F72091BC0024FD03C0109278040895F5
:1017200040917A0450917B0460917C0470917D0417
:10173000452B462B472B69F30097A105B10541F0D6
:101740002AE22A95F1F700C00197A109B109E1CF7A
:10175000809179040C9424061F920F920FB60F9279
:1017600011240BB60F922F933F934F935F936F9378
:101770007F938F939F93AF93BF93EF93FF9385EBEB
:1017800094E00E94F802FF91EF91BF91AF919F9179
:101790008F917F916F915F914F913F912F910F901A
:1017A0000BBE0F900FBE0F901F9018951F920F92B7
:1017B0000FB60F9211240BB60F922F938F939F9316
:1017C000EF93FF93E091C504F091C6048081E0910E
:1017D000CB04F091CC0482FD1DC090818091CE0499
:1017E0008F5F8F732091CF04821741F0E091CE0478
:1017F000F0E0EB54FB4F958F8093CE04FF91EF9177
:101800009F918F912F910F900BBE0F900FBE0F9055
:101810001F9018958081F2CF1F920F920FB60F92F2
:1018200011240BB60F922F933F934F935F936F93B7
:101830007F938F939F93AF93BF93EF93FF9382E533
:1018400095E00E94F802FF91EF91BF91AF919F91B7
:101850008F917F916F915F914F913F912F910F9059
:101860000BBE0F900FBE0F901F9018951F920F92F6
:101870000FB60F9211240BB60F922F938F939F9355
:10188000EF93FF93E0916205F09163058081E09111
:101890006805F091690582FD1DC0908180916B05FE
:1018A0008F5F8F7320916C05821741F0E0916B057B
:1018B000F0E0EE5AFA4F958F80936B05FF91EF9110
:1018C0009F918F912F910F900BBE0F900FBE0F9095
:1018D0001F9018958081F2CF1F920F920FB60F9232
:1018E00011242F933F938F939F93AF93BF93809136
:1018F000A1049091A204A091A304B091A4043091FA
:10190000A00423E0230F2D3758F50196A11DB11D2A
:101910002093A0048093A1049093A204A093A30415
:10192000B093A4048091A5049091A604A091A7046B
:10193000B091A8040196A11DB11D8093A5049093B8
:10194000A604A093A704B093A804BF91AF919F9160
:101950008F913F912F910F900FBE0F901F90189570
:1019600026E8230F0296A11DB11DD2CF1F920F9220
:101970000FB60F9211240F900FBE0F901F90189565
:101980001F920F920FB60F9211240BB60F922F9346
:101990003F934F935F936F937F938F939F93AF93F7
:1019A000BF93EF93FF938091B900887F803609F44D
:1019B0004DC008F040C0883209F4A9C028F5803134
:1019C00009F49DC0C8F4882309F4FBC0883009F4E9
:1019D00096C0FF91EF91BF91AF919F918F917F91B1
:1019E0006F915F914F913F912F910F900BBE0F9090
:1019F0000FBE0F901F901895883109F488C080326F
:101A000041F78093760414C0803409F49DC040F4FB
:101A10008033B9F38833E9F68093760485ECB0C05F
:101A2000803509F485C0883509F496C0883489F674
:101A30000E94740BCECF883909F48CC038F58837F2
:101A400029F050F4883611F0803719F683E080933E
:101A5000780410924F0457C0883809F47BC080394D
:101A600019F0803809F0B5CF80914F04803208F02A
:101A700071C0E0914F0481E08E0F80934F048091FC
:101A8000BB00F0E0E15DFB4F80833DC0803B39F05F
:101A9000E0F4803A09F479C0883A09F09ACF84E0FA
:101AA0008093780410922E0410922D04E091AB04E0
:101AB000F091AC04199580912D0481110FC081E043
:101AC00080932D0410920D0409C0803C09F4A6CF28
:101AD000883C09F4A3CF883B09F07BCFE0912E042A
:101AE00081E08E0F80932E04F0E0E35FFB4F808156
:101AF0008093BB0090912E0480912D0429C0809189
:101B000053048093BB0085EC8093BC0062CF90911E
:101B1000750480917404981758F5E091750481E07C
:101B20008E0F80937504F0E0EC5AFB4F8081E9CF73
:101B3000E091750481E08E0F809375048091BB0065
:101B4000F0E0EC5AFB4F808390917504809174040F
:101B50009817C8F285E8D8CFE091750481E08E0F20
:101B6000809375048091BB00F0E0EC5AFB4F8083BA
:101B70008091770481115CCF81E08093520484EAE4
:101B80008093BC001092780424CF85EC8093BC0035
:101B90001092780480914F04803230F4E0914F0429
:101BA000F0E0E15DFB4F108260914F0470E0E09146
:101BB000A904F091AA048FE294E0199510924F04C1
:101BC00008CF1092760434CFCF93DF931092B804ED
:101BD0001092B70488EE93E0A0E0B0E08093B904DF
:101BE0009093BA04A093BB04B093BC0425E232E006
:101BF0003093B6042093B5044DEC50E05093C204EA
:101C00004093C1044CEC50E05093C4044093C3048F
:101C100048EC50E05093C6044093C50449EC50E0B2
:101C20005093C8044093C7044AEC50E05093CA0450
:101C30004093C9044EEC50E05093CC044093CB0445
:101C40001092CE041092CF041092D0041092D104BE
:101C500010925505109254058093560590935705A0
:101C6000A0935805B093590530935305209352051E
:101C700025EC30E030935F0520935E0524EC30E0E6
:101C8000309361052093600520EC30E030936305CC
:101C90002093620521EC30E03093650520936405C4
:101CA00022EC30E0309367052093660526EC30E0A7
:101CB000309369052093680510926B0510926C05AE
:101CC00010926D0510926E051092F2051092F105BA
:101CD0008093F3059093F405A093F505B093F60572
:101CE00087E392E09093F0058093EF05109226072A
:101CF0001092250783E592E09093240780932307B1
:101D000087E28093270784E180932C0784E0809307
:101D10002D0710922E071092B6061092BA06109256
:101D2000B9061092BB0689E492E09093B5068093C1
:101D3000B406E0EDF6E01082148213821582369626
:101D400087E0EC30F807B9F783E092E0909317074B
:101D50008093160780E092E090931907809318070C
:101D600084E080931A0783E080931B0787E092E06A
:101D70009093150780931407CAE0D0E0D0931D0715
:101D8000C0931C0784EF91E090931F0780931E0778
:101D9000109222071092210710921007109211073B
:101DA0001092120710921307109220078AE090E019
:101DB0000E947F1CFC01D183C0838BE090E0938361
:101DC00082838CE090E0958384838DE090E097831C
:101DD0008683F093B306E093B2068AE090E00E9417
:101DE0007F1CFC0186E090E09183808387E090E097
:101DF0009383828388E090E09583848389E090E0F8
:101E000097838683F093B106E093B0068AE090E072
:101E10000E947F1CFC0182E090E09183808383E03C
:101E200090E09383828384E090E09583848385E0CF
:101E300090E097838683F093AF06E093AE0610920E
:101E400001061092020610920406109203061092E8
:101E500005061092060610920706109208061092C8
:101E6000090610920B0610920A0610920C061092A8
:101E70000D0610920E0610920F0610921006109288
:101E80001206109211061092130610921406109268
:101E90001506109216061092170610921906109247
:101EA000180610921A0610921B0610921C06109229
:101EB0001D0610921E061092230610922406109200
:101EC00025061092260610922706109228061092D8
:101ED0003106109232061092330610923406109298
:101EE00035061092360610923F0610924006109268
:101EF0004506109246061092470610924806109228
:101F00004D0610924E0610925306109254061092EF
:101F100055061092560610925B0610925C061092BF
:101F20006106109262061092630610926406109287
:101F3000690610926A0610926F061092700610924F
:101F4000710610927206109277061092780610921F
:101F50007D0610927E0610927F06109280061092E7
:101F600085061092860682E0809396061092970668
:101F7000109298061092990610929B0610929A065B
:101F800010929D0610929C0610929E0610929F063B
:101F90001092A0061092A1061092A2061092A3061B
:101FA0001092A4061092A5061092A6061092A706FB
:101FB0001092A8061092A9061092AA061092AB06DB
:101FC0001092AC061092AD06109287068BEF95E04A
:101FD000DF91CF910C94280BCF93DF9300D000D0EA
:101FE0001F921F92CDB7DEB7789484B5826084BD0E
:101FF00084B5816084BD85B5826085BD85B581600D
:1020000085BD80916E00816080936E00109281008A
:102010008091810082608093810080918100816045
:102020008093810080918000816080938000809106
:10203000B10084608093B1008091B0008160809392
:10204000B000809191008260809391008091910016
:1020500081608093910080919000816080939000D6
:102060008091A10082608093A1008091A100816095
:102070008093A1008091A00081608093A000809156
:1020800021018260809321018091210181608093F0
:1020900021018091200181608093200180917A004C
:1020A000846080937A0080917A00826080937A00C5
:1020B00080917A00816080937A0080917A008068B4
:1020C00080937A001092C10082E595E00E94FF01A2
:1020D00085EB94E00E94FF011092B0041092AF04CF
:1020E0001092AE041092AD040E94060688E792E0BA
:1020F0009093AC048093AB0489E792E09093AA0498
:102100008093A9041092280780912D07823018F03F
:1021100098E09093280780932B0762E370E080E0BB
:1021200090E00E94160560912E0783E297E00E94DE
:10213000CB0668EE73E080E090E00E94160560E355
:1021400083E297E00E9440080BE416E4C80101977F
:10215000F1F760E383E297E00E944008C80101972D
:10216000F1F760E383E297E00E94400883E592E0A4
:102170000197F1F760E283E297E00E9440086091E6
:102180002807606240E083E297E00E94590884E0FB
:102190008093290740E06CE083E297E00E945908B1
:1021A0000E94A20882E080932A0740E066E083E272
:1021B00097E00E94590840E062E083E297E00E94C5
:1021C00059088BE39FE10197F1F788E080932E0790
:1021D00060E083E297E00E94CB0660E080E00E942E
:1021E00070088AE692E00E940E0961E080E00E9499
:1021F000700885E792E00E940E0962E080E00E948C
:1022000070088AE892E00E940E098091B2069091CF
:10221000B3060E9427088091B0069091B1060E94F3
:1022200027088091AE069091AF060E94270842E0F1
:10223000342E01E054E6852E912CA12CB12C60E1C6
:10224000462E67E2562E612C712C85EB94E00E949D
:10225000D802181619060CF0C9C685EB94E00E9446
:10226000B602182F80919E0690919F06A091A0061D
:10227000B091A1060196A11DB11D80939E06909379
:102280009F06A093A006B093A106143209F47BC266
:10229000E091980615320CF0BEC01A3019F01D30CE
:1022A00009F07EC2EF3008F033C1F0E0E957F94F92
:1022B0001082D0908606DD2009F42CC1209187067B
:1022C000822F022E000C990B3FEB320F363008F0B4
:1022D000AEC0C7978295807F90918806292F092EDE
:1022E000000C330B4FEB490F463008F0A8C02753C2
:1022F0003109820F909185068913F7C08091AA0653
:102300009091AB06A091AC06B091AD060196A11DCF
:10231000B11D8093AA069093AB06A093AC06B09330
:10232000AD0680919906882399F08091A20690913C
:10233000A306A091A406B091A5060196A11DB11D0A
:102340008093A2069093A306A093A406B093A5063B
:10235000F0909606FF2009F47BC021E0F21234C011
:1023600083E296E00E94C80581E396E00E94C805DA
:1023700080919906882341F187E0E1E1F6E0A3E04E
:10238000B6E001900D928A95E1F787E0E8E1F6E08A
:10239000AAE0B6E001900D928A95E1F70E94480507
:1023A00060931F0670932006809321069093220667
:1023B000F0920206F09201068FE396E00E94B105CA
:1023C0008DE496E00E94B105E0909C06F0909D0699
:1023D000E114F10409F4FBC5E0919C06F0919D061F
:1023E00066A177A1F70186A197A10E948E1E892B75
:1023F00009F0EDC5B701C70140960E94971E0E94E3
:102400004805F70160A371A382A393A305A304A3C6
:10241000E2A4F3A4DDCF1A3209F444CF1C3209F050
:10242000BFC1809185068127809385063BCF2156C9
:10243000263018F4875591094DCFC0974BCF915650
:10244000963018F42755310954CF2053310951CF14
:1024500081E396E00E94C80580919906882321F1C6
:1024600087E0E1E1F6E0A3E0B6E001900D928A9505
:10247000E1F787E0E8E1F6E0AAE0B6E001900D922E
:102480008A95E1F70E94480560931F067093200625
:102490008093210690932206009302060093010682
:1024A0008BE596E00E94B1058091730690917406C9
:1024B000A0917506B091760680936F069093700692
:1024C000A0937106B09372060E94480560936B0654
:1024D00070936C0680936D0690936E0600936A0667
:1024E0000093690687E796E06DCF8091A6069091EC
:1024F000A706A091A806B091A9060196A11DB11D3D
:102500008093A6069093A706A093A806B093A90669
:10251000D12C5DC580919706811144C065E972E0B8
:1025200087E896E00E948E1E892B41F06BE972E0ED
:1025300087E896E00E948E1E892BF1F400939606A0
:1025400080919A0690919B0690939D0680939C069D
:10255000E0909C06F0909D06E114F104C9F267E852
:1025600076E0F70186A197A10E948E1E97FF28C5ED
:10257000F70182A593A5E8CF61EA72E087E896E0CB
:102580000E948E1E892B41F067EA72E087E896E090
:102590000E948E1E892B19F410929606D1CF30928C
:1025A0009606CECFE0919606E23009F44AC09091AB
:1025B0008706992309F445C020E2E29FF001112427
:1025C000E82B3197E932F10508F03BC08827E45148
:1025D000FD4E8F4F0C946F1C151356135D1364132F
:1025E000671395139C13A913B613211321132113F9
:1025F000211321132113211321132113211321133B
:10260000211321132113211321132113211321132A
:1026100021132113211321131513501356135D1386
:10262000641367136E137B13881387E896E00E9488
:10263000AD0A6093370670933806809339069093FD
:102640003A06E0909C06F0909D06D0909706E11423
:10265000F10409F45DCFE0919C06F0919D0666A11E
:1026600077A1F70186A197A10E948E1E892B09F000
:102670004FCFF70120A531A58D2D90E0821793074C
:102680000CF446CF2817390739F440E150E067E8E9
:1026900076E0C7010E949E1EF701E2A4F3A4D5CF05
:1026A00081E0913409F445C080E043C061E176E007
:1026B00087E896E00E94260AC4CF81E0933509F0AE
:1026C00080E080931706BDCF68E176E0F1CF81E02E
:1026D000973509F080E080931E06B3CF87E896E037
:1026E0000E94AD0A6093490670934A0680934B0698
:1026F00090934C06A6CF87E896E00E94AD0A6093BF
:102700005706709358068093590690935A0699CFAE
:1027100087E896E00E949C196093290670932A0628
:1027200080932B0690932C068CCF81E091330CF490
:10273000BBCF8093990685CF87E896E00E949C19CD
:102740006093730670937406809375069093760673
:1027500078CF87E896E00E94AD0A60938106709377
:10276000820680938306909384066BCF87E896E079
:102770000E94AD0A609365067093660680936706B3
:10278000909368065ECF109298061092970610926A
:10279000850630929606109286061092990626C4F7
:1027A000EE3040F481E08E0F80939806F0E0E95718
:1027B000F94F108380918606811118C48091850697
:1027C00018271093850612C480910106882309F406
:1027D0004CC186E893E00E9467030E9449020E9470
:1027E000110A88E793E00E94670310920206609145
:1027F0000C0670910D0680910E0690910F060E94B6
:10280000E51928E23BE64EE65EE40E948B1B6B0175
:102810007C0160910A0670910B0690E080E00E94B6
:10282000E5199B01AC01C701B6010E941F1B209155
:102830001006211190580E94110A8BE693E00E9425
:10284000670380915B06882309F40AC110925C0635
:1028500060916106709162068091630690916406B2
:102860000E94E71920E030E048EC52E40E948B1B04
:102870000E94110A8BE393E00E94670380913F0658
:10288000882309F4F5C010924006609145067091C6
:10289000460680914706909148060E94E71926E572
:1028A0003EE04DEE5FE30E94461A20E030E048EC47
:1028B00052E40E948B1BAB01BC0122E082E595E053
:1028C0000E94230985E393E00E94130986E193E0C7
:1028D0000E94670380912306882309F4CCC080916D
:1028E0003106882309F4C7C010922406609125069A
:1028F000709126068091270690912806A5019401E3
:102900000E944D1C6053784FAB0170E060E02AE0FC
:1029100082E595E00E94C20884E193E00E9467038B
:102920001092240660912506709126068091270654
:1029300090912806A50194010E944D1CCA01B9017D
:10294000A50194010E944D1CAB01BC012AE082E567
:1029500095E00E94C20882E193E00E946703109212
:102960002406609125067091260680912706909195
:102970002806A30192010E944D1CBA01A901552706
:10298000662777272AE082E595E00E94C20880E169
:1029900093E00E94670310923206609133067091B3
:1029A0003406809135069091360620E432E44FE0FB
:1029B00050E00E944D1CBA01A901552766277727D0
:1029C0002AE082E595E00E94C2088EE093E00E9432
:1029D000670310923206609133067091340680913D
:1029E000350690913606A30192010E944D1CCA0142
:1029F000B901A50194010E944D1CAB01BC012AE064
:102A000082E595E00E94C2088CE093E00E94670393
:102A1000109232066091330670913406809135062B
:102A200090913606A50194010E944D1CCA01B9017E
:102A3000A50194010E944D1CAB01BC012AE082E576
:102A400095E00E94C2086BE572E082E595E00E9485
:102A5000B3086BE572E082E595E00E94B308C6C258
:102A60008EE593E00E94130905CF85E493E0FACF49
:102A700088E293E029CF8FEF92E00E941309E9CF1B
:102A800069E473E0C8010E948E1E892B09F0C0C062
:102A90000E94A20860E080E00E9470088BE493E04E
:102AA0000E940E0961E080E00E9470088CE593E0CE
:102AB0000E940E090E944902AB01BC0122E083E2A0
:102AC00097E00E94230962E080E00E94700888E697
:102AD00093E00E940E0986E30E94D404BC01990F82
:102AE000880B990B0E94E71920E030E040E85AE398
:102AF0000E94461A20E030E04AEF53E40E94461A52
:102B00000E94FD1B6B01770FEE08FF082AE0B7015A
:102B1000A601F7FE0EC041E06DE283E297E00E945D
:102B2000590844275527BA014C195D096E097F09D8
:102B30002AE083E297E00E94C208C701B6010E9422
:102B4000E7196B017C018090B1049090B204A090D1
:102B5000B304B090B404A50194010E94331CA501F4
:102B6000940187FD29C0C701B6010E941E1B0E9467
:102B7000FD1B072E000C880B990B0E94E71929E218
:102B80003CE54FE05EE30E948B1B0E94FD1B8091A1
:102B9000B2069091B3060E94F007C092B104D092A1
:102BA000B204E092B304F092B40464EF71E080E008
:102BB00090E00E94160599C2C701B6010E94E01973
:102BC00087FF1DC0A7019601C501B4010E941E1B0D
:102BD0000E94FD1B072E000C880B990B0E94E71921
:102BE00029E23CE54FE05EE30E948B1B0E94FD1B47
:102BF0008091B2069091B3060E94B507CECF63E0F4
:102C000080E00E94700885E793E00E940E09CDCF16
:102C10006CE773E0C8010E948E1E892B09F0B2C1D7
:102C20000E94A20860E080E00E9470088FE793E0B5
:102C30000E940E0961E080E00E94700880E993E044
:102C40000E940E09A090AE06B090AF06CE0101968C
:102C50000E94280B21E0209320070E944805009144
:102C60001007109111072091120730911307AB0143
:102C7000BC01401B510B620B730B80911C079091A0
:102C80001D07B0E0A0E084179507A607B70710F767
:102C900010E080911A07181760F4E0911607F09180
:102CA0001707E10FF11D62E080810E9494041F5F0D
:102CB000F0CF312C80911B07381608F061C0E32C4F
:102CC000F12CE0911807F0911907EE0DFF1D61E05E
:102CD00080810E949404E0911807F0911907EE0D8D
:102CE000FF1D60E080810E946204D301C201032CB9
:102CF00004C0880F991FAA1FBB1F0A94D2F74C016A
:102D00006C01C094D094212C80911A07281608F5E4
:102D1000022D10E0E0911607F0911707E00FF11F68
:102D200080810E9436040C5F1F4F000F111FF801B5
:102D3000EC54F94F892B41F480819181882999299C
:102D4000918380832394E0CF808191818C219D2188
:102D5000F7CFE0911807F0911907EE0DFF1D61E024
:102D600080810E9462048091180790911907E80EF3
:102D7000F91E60E0F70180810E94940433949ACF99
:102D800004EB16E0F801878D90A1892B31F4148EA5
:102D90008FEF9FEF968F858F11A2369696E0E03FDA
:102DA000F90789F7D12C80911A07D81608F053C07B
:102DB000C12CED2CF12CEE0CFF1CF701E454F94F63
:102DC0007F0120911B07C21608F043C0F701608104
:102DD00071810C2C02C0769567950A94E2F7D29E19
:102DE000900111242C0D311DE4EBF6E080E0458DBF
:102DF000568D2417350709F476C28F5F36968A30D0
:102E0000B1F760FF24C0E4EBF6E090E080E0448D91
:102E1000411118C0E0911407F0911507E20FF31F5C
:102E2000408156E0589FF001599FF00D1124EC5459
:102E3000F94F448F368F258F10A2178E61E00E94C4
:102E4000540505C0019636968A30910501F7C39462
:102E5000B8CFD394A8CFF12CF80181A18111F82E1D
:102E60000A5F1F4FF6E0003F1F07B1F70E944805B9
:102E700060931007709311078093120790931307C4
:102E8000FF2009F4E7CE8091D506882309F4E2CE2D
:102E90008091D3069091D406019709F0DBCEF09093
:102EA000D006FF2009F4D6CE4D815E8123E2F212D6
:102EB00030C069817A8182E595E00E947A026BE5F3
:102EC00072E082E595E00E94B308E980FA80C701CC
:102ED0000E947E198C01E114F10419F0C7010E94CF
:102EE0001B1DB801110F880B990B0E94E71929E2ED
:102EF0003CE54FE05EE30E948B1B0E94FD1BC50179
:102F00000E94F00761E080E00E94700888E993E089
:102F10007CCEFF8218868A010F5F1F4FB801CE0159
:102F200001960E94000B882369F029813A818D81E6
:102F30009E81BE01695F7F4F820F931F0E94971E83
:102F40001E830D835AE2F51210C061E087E00E94F3
:102F5000700884EA93E00E940E09CE0101960E9457
:102F6000510B61E087E00E94700861E087E00E94F9
:102F700070084D815E8169817A8183E297E00E94C9
:102F80007A0268CE0E94A20860E080E00E94700889
:102F900085EB93E00E940E0961E080E00E947008DA
:102FA00088EC93E00E940E0962E080E00E947008C5
:102FB0008AED93E00E940E0991C10E94A20395C080
:102FC000892B09F4A5CA10929D0610929C06809147
:102FD00097068F5F809397061092980681E01A32C9
:102FE00009F080E080938606D110EECB0E94480560
:102FF000693873418105910580F080919E0690911A
:103000009F06A091A006B091A1060A97A105B1055F
:1030100020F48CED92E00E9413090E94490220E006
:1030200030E0A9010E94E019882309F40EC960E08C
:1030300080E00E9470088DEA92E00E940E0961E033
:1030400080E00E94700881EC92E00E940E090E94CC
:103050004902AB01BC0122E083E297E00E94230910
:1030600081EB93E00E940E0962E080E00E9470080C
:103070008EEC92E00E940E091092020660910C06FE
:1030800070910D0680910E0690910F060E94E51931
:1030900028E23BE64EE65EE40E948B1B6B017C015E
:1030A00060910A0670910B0690E080E00E94E5199D
:1030B0009B01AC01C701B6010E941F1BAB01BC0103
:1030C000809110068111705822E083E297E00E94FF
:1030D000230962E080E00E9470088CED92E00E947B
:1030E0000E09412C512C3201439482E595E00E9457
:1030F000D802181619060CF060CF82E595E00E9400
:10310000B60289831A820091FF05109100060F5FB5
:103110001F4FB8018BEF95E00E94000B882399F0B8
:103120002091FB053091FC058091FF0590910006F0
:10313000BE016F5F7F4F820F931F0E94971E1093F7
:1031400000060093FF056AE070E080E090E00E94D6
:1031500016058091FF0590910006892B09F425CD75
:103160000091FB051091FC0561EF72E0C8010E941F
:103170008E1E892B09F084CC0E94A20860E080E0BA
:103180000E94700883EF92E00E940E0963E080E0E5
:103190000E94700884E093E00E940E0962E080E0E3
:1031A0000E94700880E193E00E940E0986E30E946D
:1031B000D404BC01990F880B990B0E94E71920E0F9
:1031C00030E040E85AE30E94461A20E030E04AEF3F
:1031D00053E40E94461AAB01BC014093B1045093E2
:1031E000B2046093B3047093B40422E083E297E0E6
:1031F0000E94230961E080E00E9470088FE193E063
:103200000E940E090E944902AB01BC0122E083E248
:1032100097E00E94230929E23CE54FE05EE36091DC
:10322000B1047091B2048091B3049091B4040E94EF
:103230008B1B0E94FD1B8091B2069091B3060E94E9
:10324000F0070091B0061091B1060E94490229E2F0
:103250003CE54FE05EE30E948B1B0E94FD1BC80112
:103260000E94F0070091AE061091AF0661E070E099
:10327000C8010E94F00761E070E0C8010E94B50734
:1032800063E080E00E94700889E293E00E940E09EA
:1032900062E080E00E94700889E393E00E940E09DA
:1032A0004091B1045091B2046091B3047091B404A0
:1032B00022E083E297E00E94230961E080E00E941F
:1032C00070088FE193E00E940E090E944902AB0151
:1032D000BC0122E083E297E00E9423098BEF95E096
:1032E0000E94510B62CC6170AACD8091FB05909138
:1032F000FC05009711F00C941B1D0895FC01882714
:103300009927E89421912032E9F3293010F02E30EA
:10331000C8F32B3241F02D3239F4689404C00E9476
:10332000D819820F911D219120532A30C0F31EF429
:10333000909581959F4F08951F93FC0199278827A9
:10334000BC01E89411911032E9F3193010F01E30ED
:10335000C8F31B3251F01D3249F4689406C00E9434
:10336000C319610F711D811D911D119110531A30E8
:10337000B0F33EF490958095709561957F4F8F4F97
:103380009F4F1F910895592F482F372F262F660FD3
:10339000771F881F991F660F771F881F991F620F5D
:1033A000731F841F951F660F771F881F991F08952D
:1033B0007AE0979F902D879F802D910D112408957D
:1033C0000E94221A08F481E00895E89409C097FB4E
:1033D0003EF490958095709561957F4F8F4F9F4FEC
:1033E0009923A9F0F92F96E9BB279395F695879530
:1033F00077956795B795F111F8CFFAF4BB0F11F4F3
:1034000060FF1BC06F5F7F4F8F4F9F4F16C0882399
:1034100011F096E911C0772321F09EE8872F762FCF
:1034200005C0662371F096E8862F70E060E02AF010
:103430009A95660F771F881FDAF7880F96958795FC
:1034400097F90895990F0008550FAA0BE0E8FEEFD1
:1034500016161706E807F907C0F012161306E40758
:10346000F50798F0621B730B840B950B39F40A2651
:1034700061F0232B242B252B21F408950A2609F42F
:10348000A140A6958FEF811D811D08950E94591AB4
:103490000C94CA1A0E94BC1A38F00E94C31A20F079
:1034A000952311F00C94B31A0C94B91A11240C94AE
:1034B000FE1A0E94DB1A70F3959FC1F3950F50E03E
:1034C000551F629FF001729FBB27F00DB11D639FD6
:1034D000AA27F00DB11DAA1F649F6627B00DA11D7C
:1034E000661F829F2227B00DA11D621F739FB00D22
:1034F000A11D621F839FA00D611D221F749F332792
:10350000A00D611D231F849F600D211D822F762F2A
:103510006A2F11249F5750409AF0F1F088234AF007
:10352000EE0FFF1FBB1F661F771F881F9150504073
:10353000A9F79E3F510580F00C94B31A0C94FE1A23
:103540005F3FE4F3983ED4F3869577956795B795FA
:10355000F795E7959F5FC1F7FE2B880F911D969514
:10356000879597F9089597F99F6780E870E060E084
:1035700008959FEF80EC089500240A94161617060C
:1035800018060906089500240A9412161306140654
:1035900005060895092E0394000C11F4882352F0B7
:1035A000BB0F40F4BF2B11F460FF04C06F5F7F4F6F
:1035B0008F4F9F4F089557FD9058440F551F59F056
:1035C0005F3F71F04795880F97FB991F61F09F3F10
:1035D00079F087950895121613061406551FF2CF39
:1035E0004695F1DF08C0161617061806991FF1CF89
:1035F00086957105610508940895E894BB276627B0
:103600007727CB0197F908950E940F1BA59F900D76
:10361000B49F900DA49F800D911D11240895A29F29
:10362000B001B39FC001A39F700D811D1124911D96
:10363000B29F700D811D1124911D08955058BB2714
:10364000AA270E94361B0C94CA1A0E94BC1A38F092
:103650000E94C31A20F039F49F3F19F426F40C9409
:10366000B91A0EF4E095E7FB0C94B31AE92F0E9407
:10367000DB1A58F3BA17620773078407950720F01F
:1036800079F4A6F50C94FD1A0EF4E0950B2EBA2FE2
:10369000A02D0B01B90190010C01CA01A001112458
:1036A000FF27591B99F0593F50F4503E68F11A1604
:1036B000F040A22F232F342F4427585FF3CF469595
:1036C00037952795A795F0405395C9F77EF41F16B7
:1036D000BA0B620B730B840BBAF09150A1F0FF0F81
:1036E000BB1F661F771F881FC2F70EC0BA0F621F6D
:1036F000731F841F48F4879577956795B795F7955D
:103700009E3F08F0B0CF9395880F08F09927EE0FF1
:103710009795879508950E949F1B0C94CA1A0E9442
:10372000C31A58F00E94BC1A40F029F45F3F29F0F8
:103730000C94B31A51110C94FE1A0C94B91A0E94ED
:10374000DB1A68F39923B1F3552391F3951B550BBD
:10375000BB27AA2762177307840738F09F5F5F4F64
:10376000220F331F441FAA1FA9F335D00E2E3AF0A3
:10377000E0E832D091505040E695001CCAF72BD0BB
:10378000FE2F29D0660F771F881FBB1F261737070C
:103790004807AB07B0E809F0BB0B802DBF01FF273E
:1037A00093585F4F3AF09E3F510578F00C94B31A4E
:1037B0000C94FE1A5F3FE4F3983ED4F38695779518
:1037C0006795B795F7959F5FC9F7880F911D9695F7
:1037D000879597F90895E1E0660F771F881FBB1F53
:1037E000621773078407BA0720F0621B730B840B00
:1037F000BA0BEE1F88F7E09508950E94041C6894A8
:10380000B1110C94FE1A08950E94E31A88F09F5794
:1038100098F0B92F9927B751B0F0E1F0660F771FF4
:10382000881F991F1AF0BA95C9F714C0B13091F0EA
:103830000E94FD1AB1E008950C94FD1A672F782FAD
:103840008827B85F39F0B93FCCF3869577956795AF
:10385000B395D9F73EF490958095709561957F4F1B
:103860008F4F9F4F08950E94221A08F48FEF0895FA
:103870000E94221A880B990B0895DB018F939F9366
:103880000E94041BBF91AF91A29F800D911DA39F29
:10389000900DB29F900D11240895A1E21A2EAA1B3B
:1038A000BB1BFD010DC0AA1FBB1FEE1FFF1FA217F0
:1038B000B307E407F50720F0A21BB30BE40BF50BED
:1038C000661F771F881F991F1A9469F76095709576
:1038D000809590959B01AC01BD01CF010895EE0F3D
:1038E000FF1F881F8BBF0790F691E02D1994B7FF3B
:1038F0000C94041B0E94041B821B930B08950F93CE
:103900001F93CF93DF938230910510F482E090E013
:10391000E0913107F091320730E020E0B0E0A0E024
:10392000309799F42115310509F44AC0281B390B49
:1039300024303105D8F58A819B816115710589F1A3
:10394000FB0193838283FE0111C04081518102817A
:10395000138148175907E0F04817590799F4109751
:1039600061F012960C93129713961C933296CF0126
:10397000DF91CF911F910F9108950093310710931C
:103980003207F4CF2115310551F04217530738F0B3
:10399000A901DB019A01BD01DF01F801C1CFEF01EF
:1039A000F9CF9093320780933107CDCFFE01E20F1C
:1039B000F31F819391932250310939832883D7CF04
:1039C00020912F0730913007232B41F420911502CD
:1039D000309116023093300720932F072091130265
:1039E000309114022115310541F42DB73EB74091B5
:1039F000170250911802241B350BE0912F07F0910C
:103A00003007E217F307A0F42E1B3F0B28173907E6
:103A100078F0AC014E5F5F4F2417350748F04E0F2A
:103A20005F1F5093300740932F07819391939FCF4F
:103A3000F0E0E0E09CCFCF93DF930097E9F0FC014A
:103A4000329713821282A0913107B0913207ED01B3
:103A500030E020E01097A1F420813181820F931F84
:103A600020912F07309130072817390709F061C0DE
:103A7000F0933007E0932F07DF91CF910895EA018B
:103A8000CE17DF07E8F54A815B819E01411551059C
:103A9000B1F7E901FB83EA8349915991C40FD51F1E
:103AA000EC17FD0761F4808191810296840F951FC8
:103AB000E90199838883828193819B838A83F0E0E3
:103AC000E0E012968D919C9113970097B9F52D9196
:103AD0003C911197CD010296820F931F20912F07E1
:103AE000309130072817390739F6309751F5109281
:103AF000320710923107B0933007A0932F07BCCF45
:103B0000D383C28340815181840F951FC817D90781
:103B100061F44E5F5F4F88819981480F591F51832F
:103B200040838A819B81938382832115310509F02B
:103B3000B0CFF0933207E09331079ECFFD01DC0157
:103B4000C0CF13821282D7CF4F925F926F927F9233
:103B50008F929F92AF92BF92CF92DF92EF92FF929D
:103B60000F931F93CF93DF938C01009799F4CB01B0
:103B7000DF91CF911F910F91FF90EF90DF90CF9049
:103B8000BF90AF909F908F907F906F905F904F907D
:103B90000C947F1CFC01E60FF71F9C012250310999
:103BA000E217F30708F4AEC0D901CD91DC9111976B
:103BB000C617D70720F1C530D10578F0CE0104979C
:103BC0008617970750F0C61BD70B2297C193D19346
:103BD0006D937C93CF010E941B1DC801DF91CF9193
:103BE0001F910F91FF90EF90DF90CF90BF90AF901B
:103BF0009F908F907F906F905F904F9008955B01A2
:103C0000AC1ABD0A4C018C0E9D1EA0913107B091DB
:103C10003207512C412CF12CE12C109731F5809179
:103C20002F07909130078815990509F05CC046165A
:103C3000570608F058C08091130290911402009723
:103C400041F48DB79EB74091170250911802841B22
:103C5000950BE817F90708F055C0F0933007E0938B
:103C60002F07F90171836083B8CF8D919C911197D3
:103C700012966C90129713967C901397A815B9051D
:103C800059F56C0142E0C40ED11CCA14DB0420F1CA
:103C9000AC014A195B09DA011296159780F062822D
:103CA000738251834083D9016D937C93E114F104B5
:103CB00071F0D7011396FC93EE9312978ECF229654
:103CC0008C0F9D1FF90191838083F301EFCFF09357
:103CD0003207E093310781CF4816590608F42C01CA
:103CE0007D01D3019ACFCB010E947F1C7C010097FC
:103CF00049F0AE01B8010E94851EC8010E941B1D3B
:103D000087016BCF10E000E068CFFB01DC0102C04F
:103D100001900D9241505040D8F70895FB01DC010D
:103D20008D91019080190110D9F3990B0895FB0131
:103D3000DC0101900D920020E1F70895FB01DC0108
:103D40004150504048F001900D920020C9F701C049
:103D50001D9241505040E0F7089511E0CBECD1E0C6
:103D600000E006C0802FFE010E946F1C2196011DFD
:103D7000CC3CD10780E00807A9F7F894FFCF1A1BC5
:103D80001C191817163132333435363738392A3082
:103D9000230000330780000000400014005400009E
:103DA0000000001A037A02A7028203D802B602CAF0
:103DB00002000000009C066F06B207450668065523
:103DC00006460600000000D00490045F04000000D6
:103DD00000AD087A02B207B0050D0A006E616E00F0
:103DE000696E66006F76660057656C636F6D65215E
:103DF0002121004750532069732061637469766103
:103E000074696E672E2E2E0057616974696E672E75
:103E10002E2E004750524D4300474E524D4300470F
:103E20005047474100474E47474100475053206D98
:103E30006F64756C65206973207265616479002D0B
:103E4000206C617469747564653A20002D206C6F74
:103E50006E6769747564653A200057616974696EAC
:103E60006720666F7220636F6D6D616E64730063AF
:103E70000053656C662054657374202620496E6972
:103E800074004D6F746F7220636865636B005465D6
:103E9000737420474D2D53656E736F7200546573B4
:103EA000742047505320004D6F746F722063686513
:103EB000636B20204F4B005465737420474D2D5386
:103EC000656E736F7220006D0053656C662D6164C2
:103ED000617074696F6E2E2E2E00656C657661744C
:103EE000696F6E3A20006465666C656374696F6E15
:103EF0003A20002E2E2E2E2E2E006D72005472614E
:103F0000636B696E6720537461722E2E2E00696E8A
:103F10007075743A200046696E6973686564212182
:103F200021002020202020202020202020202020B0
:103F30002020002D63203A53656C6620546573740D
:103F400026496E6974002D6D203A53656C662D61AB
:103F500064617074696F6E002D72203A54726163EF
:0A3F60006B696E67205374617200F4
:020000040003F7
:10E000000D9489F10D94B2F10D94B2F10D94B2F129
:10E010000D94B2F10D94B2F10D94B2F10D94B2F1F0
:10E020000D94B2F10D94B2F10D94B2F10D94B2F1E0
:10E030000D94B2F10D94B2F10D94B2F10D94B2F1D0
:10E040000D94B2F10D94B2F10D94B2F10D94B2F1C0
:10E050000D94B2F10D94B2F10D94B2F10D94B2F1B0
:10E060000D94B2F10D94B2F10D94B2F10D94B2F1A0
:10E070000D94B2F10D94B2F10D94B2F10D94B2F190
:10E080000D94B2F10D94B2F10D94B2F10D94B2F180
:10E090000D94B2F10D94B2F10D94B2F10D94B2F170
:10E0A0000D94B2F10D94B2F10D94B2F10D94B2F160
:10E0B0000D94B2F10D94B2F10D94B2F10D94B2F150
:10E0C0000D94B2F10D94B2F10D94B2F10D94B2F140
:10E0D0000D94B2F10D94B2F10D94B2F10D94B2F130
:10E0E0000D94B2F141546D656761323536300041AF
:10E0F000726475696E6F206578706C6F72657220DE
:10E1000073746B3530305632206279204D4C530099
:10E11000426F6F746C6F616465723E004875683F52
:10E1200000436F6D70696C6564206F6E203D200048
:10E130004350552054797065202020203D20005FF9
:10E140005F4156525F415243485F5F3D2000415658
:10E1500052204C696243205665723D20004743437C
:10E160002056657273696F6E203D20004350552024
:10E1700049442020202020203D20004C6F7720663D
:10E18000757365202020203D20004869676820665F
:10E190007573652020203D200045787420667573D6
:10E1A00065202020203D20004C6F636B2066757336
:10E1B000652020203D20004D617220203720323024
:10E1C000313300312E362E3800342E332E350056A2
:10E1D00023202020414444522020206F7020636F70
:10E1E00064652020202020696E73747275637469E1
:10E1F0006F6E2061646472202020496E74657272B3
:10E20000757074006E6F20766563746F7200726A49
:10E210006D702020006A6D70200057686174207056
:10E220006F72743A00506F7274206E6F7420737541
:10E2300070706F72746564004D7573742062652030
:10E2400061206C6574746572002000577269747483
:10E25000696E672045450052656164696E672045B7
:10E26000450045452065727220636E743D00504F35
:10E27000525400303D5A65726F2061646472003FF1
:10E280003D43505520737461747300403D454550C3
:10E29000524F4D207465737400423D426C696E6B41
:10E2A000204C454400453D44756D70204545505215
:10E2B0004F4D00463D44756D7020464C415348001B
:10E2C000483D48656C70004C3D4C69737420492F83
:10E2D0004F20506F72747300513D51756974005234
:10E2E0003D44756D702052414D00563D73686F7707
:10E2F00020696E7465727275707420566563746FF0
:10E30000727300593D506F727420626C696E6B00BD
:10E310002A0011241FBECFEFD1E2DEBFCDBF01E046
:10E320000CBF12E0A0E0B2E0EEE1FDEF03E00BBFB6
:10E3300002C007900D92A030B107D9F712E0A0E01B
:10E34000B2E001C01D92AE30B107E1F70F9460F367
:10E350000D948DFE01E20EBF0FEF0DBF11241FBE05
:10E360000D9460F30D9400F020E030E040ED57E0B4
:10E3700005C0FA013197F1F72F5F3F4F2817390792
:10E38000C0F308959C01260F311DC901A0E0B0E043
:10E390002F5F3F4FABBFFC018791882361F08093D3
:10E3A000C6008091C00086FFFCCF8091C0008064D1
:10E3B0008093C000EACF08958DE08093C6008091DD
:10E3C000C00086FFFCCF8091C00080648093C000B5
:10E3D0008AE08093C6008091C00086FFFCCF8091C8
:10E3E000C00080648093C00008950F94C2F10F9420
:10E3F000DCF10895FC019081992359F09093C600B7
:10E400008091C00086FFFCCF8091C0008064809323
:10E41000C0003196992379F70895282F982F929567
:10E420009F70892F805D8A3308F0895F8093C600D2
:10E430008091C00086FFFCCF8091C00080648093F3
:10E44000C000822F8F70982F905D9A3308F0995FEB
:10E450009093C6008091C00086FFFCCF8091C000E1
:10E4600080648093C00008959C01FB01853691056E
:10E470001CF46330710594F0C90164E670E00F94F8
:10E480002EFE605D7F4F6093C6008091C00086FFC6
:10E49000FCCF8091C00080648093C0002B30310598
:10E4A00014F43297B4F0C90164E670E00F942EFEC4
:10E4B0006AE070E00F942EFE605D7F4F6093C600AF
:10E4C0008091C00086FFFCCF8091C0008064809363
:10E4D000C000C9016AE070E00F942EFEC0968093E0
:10E4E000C6008091C00086FFFCCF8091C000806490
:10E4F0008093C00008951F93182F8EE692EE60E07F
:10E500000F94C2F11093C6008091C00086FFFCCF2B
:10E510008091C00080648093C0000F94DCF11F9153
:10E5200008952F923F924F925F926F927F928F92B7
:10E530009F92AF92BF92CF92DF92EF92FF920F9392
:10E540001F93DF93CF93CDB7DEB762970FB6F894E2
:10E55000DEBF0FBECDBF382E622ECA01DB015C01CB
:10E560006D01772420E2222E2E010894411C511CBB
:10E570008BC081E0A81680E0B80681E0C80680E084
:10E58000D80628F0C601AA27BB270F940DF2BB2797
:10E59000AD2D9C2D8B2D0F940DF28A2D0F940DF225
:10E5A0002092C6008091C00086FFFCCF8091C00001
:10E5B00080648093C0009DE29093C6008091C0006B
:10E5C00086FFFCCF8091C00080648093C0002092C1
:10E5D000C6008091C00086FFFCCF8091C00080649F
:10E5E0008093C00019828601750188249924A1E0D6
:10E5F0003A1651F03A1620F0B2E03B1661F409C029
:10E600000BBFF701779007C0C7010F9477FE782EF4
:10E6100002C0F7017080872D0F940DF22092C60082
:10E620008091C00086FFFCCF8091C0008064809301
:10E63000C000872D8052F401EF70F0708F3520F408
:10E64000E40DF51D708204C0E40DF51D8EE280839B
:10E650000894E11CF11C011D111D0894811C911CE2
:10E6600090E18916910409F0C2CF80E190E0A0E02A
:10E67000B0E0A80EB91ECA1EDB1E198AC2010F9493
:10E68000FAF10F94DCF16A94662009F072CF629679
:10E690000FB6F894DEBF0FBECDBFCF91DF911F91B3
:10E6A0000F91FF90EF90DF90CF90BF90AF909F9031
:10E6B0008F907F906F905F904F903F902F90089534
:10E6C0002F923F924F925F926F927F928F929F9282
:10E6D000AF92BF92CF92DF92EF92FF920F931F9370
:10E6E000DF93CF93CDB7DEB7CD53D1400FB6F894BB
:10E6F000DEBF0FBECDBF01E20EBF0FEF0DBF94B75F
:10E70000F894A89514BE80916000886180936000A1
:10E7100010926000789493FF05C0E0910002F091A0
:10E7200001021995279A2F9A8091C00082608093E8
:10E73000C00080E18093C40088E18093C1000000A4
:10E74000EE24FF24870144E0A42EB12CCC24DD2448
:10E7500024C0C5010197F1F70894E11CF11C011DCB
:10E76000111D21E2E2162EE4F20620E0020720E06D
:10E77000120718F031E0C32ED12CC801B70127ECE5
:10E780003BE140E050E00F9441FE611571058105C9
:10E79000910519F485B1805885B98091C00087FD35
:10E7A00003C0C114D104A9F2A6014F5F5F4FC25E3E
:10E7B000DE4F59834883CE51D140C25EDE4F8881FF
:10E7C0009981CE51D140019711F00D9410FEC05D9A
:10E7D000DE4F19821882C053D14060E0C15DDE4F28
:10E7E0001882CF52D14088249924C35DDE4F19820C
:10E7F0001882CD52D140C05EDE4F188219821A8233
:10E800001B82C052D140CE5CDE4F188219821A8220
:10E810001B82C253D140EE24FF2487010BBFF701B6
:10E8200007911691C45CDE4F19830883CC53D14005
:10E830000D940BFEC25EDE4F28813981CE51D1404E
:10E840002130310509F52091C600C25EDE4F1982E4
:10E850001882CE51D14022C02F5F3F4F4F4F5F4FA4
:10E86000213082E138078AE7480780E0580780F0C6
:10E87000C45CDE4FE881F981CC53D140EF5FFF4F9C
:10E8800019F0EE27FF27099420E030E040E050E047
:10E890008091C00087FFE0CF2091C600C35DDE4FAE
:10E8A00048815981CD52D1404F5F5F4FC35DDE4FEC
:10E8B00059834883CD52D140213209F063C64A3092
:10E8C000510508F05FC60894811C911C53E0851621
:10E8D000910409F059C600E010E018C081E280936D
:10E8E000C6008091C00086FFFCCF8091C00080648C
:10E8F0008093C0002F5F3F4F2931310579F70F9486
:10E90000DCF10F5F1F4F0530110519F020E030E0FA
:10E91000E5CF10920A0210920B0210920C02109294
:10E920000D02109206021092070210920802109235
:10E930000902109202021092030210920402109235
:10E9400005028FEE90EE60E00F94F5F180E191EE1C
:10E9500060E00F94C2F18091C00087FFFCCF9091DE
:10E96000C600903608F09F759032B8F09093C600BC
:10E970008091C00086FFFCCF8091C00080648093AE
:10E98000C000A0E2A093C6008091C00086FFFCCF2B
:10E990008091C00080648093C000983409F4D7C18E
:10E9A0009934B8F4923409F459C1933458F490333B
:10E9B00019F1903308F4E3C59F33A1F1903409F0C5
:10E9C000DEC5BDC0953409F470C1963409F0D7C5D1
:10E9D00098C1923509F42BC2933538F49C3409F46C
:10E9E000F5C1913509F0CBC518C2963509F445C279
:10E9F000993509F0C4C567C483E792EE62E00F94CD
:10EA0000F5F110920602109207021092080210927D
:10EA1000090210920A0210920B0210920C0210923C
:10EA20000D0213C18FE792EE62E00F94F5F18FEEC5
:10EA300090EE60E00F94F5F181E291EE60E00F94CA
:10EA4000C2F187EB91EE60E00F94F5F180E391EE77
:10EA500060E00F94C2F184EE90EE60E00F94F5F167
:10EA60008FE391EE60E00F94C2F186E090E061E008
:10EA700070E00F9434F20F94DCF18DE591EE60E0DC
:10EA80000F94C2F189EC91EE60E00F94F5F18EE401
:10EA900091EE60E00F94C2F183EC91EE60E00F9490
:10EAA000F5F18CE691EE60E00F94C2F18EE10F94E7
:10EAB0000DF288E90F940DF281E00F940DF20F949E
:10EAC000DCF18BE791EE60E00F94C2F119E0E0E039
:10EAD000F0E010935700E4918E2F0F940DF20F94F5
:10EAE000DCF18AE891EE60E00F94C2F1E3E0F0E03F
:10EAF00010935700E4918E2F0F940DF20F94DCF1D8
:10EB000089E991EE60E00F94C2F1E2E0F0E0109349
:10EB10005700E4918E2F0F940DF20F94DCF188EAE8
:10EB200091EE60E00F94C2F1E1E0F0E01093570045
:10EB30001491812F0F940DF20F94DCF107CF8BE825
:10EB400092EE62E00F94F5F18BE492EE60E00F94A8
:10EB5000F5F10F94DCF100E010E019C0C8016F2D51
:10EB60000F947FFEFF2031F489E492EE60E00F9471
:10EB7000C2F10BC0F092C6008091C00086FFFCCFAE
:10EB80008091C00080648093C0000F5F1F4FC80158
:10EB900081519F41A0E0B0E0ABBFFC01F790BAE229
:10EBA000FB1621F0E2E000301E07C1F60F94DCF105
:10EBB0000F94DCF187E592EE60E00F94F5F10F948D
:10EBC000DCF1CC24DD2400E010E01EC0C8010F946D
:10EBD00077FEF82E882331F489E492EE60E00F94FA
:10EBE000C2F10BC08093C6008091C00086FFFCCFAD
:10EBF0008091C00080648093C000FE1419F00894D6
:10EC0000C11CD11C0F5F1F4FC80181519F41A0E063
:10EC1000B0E0ABBFFC01E790FAE2EF1621F022E092
:10EC20000030120799F60F94DCF10F94DCF182E6C4
:10EC300092EE60E00F94C2F1C60161E070E00F94C3
:10EC400034F20F94DCF10F94DCF110920202109276
:10EC50000302109204021092050278CE89E992EE26
:10EC600062E00F94F5F1279A2F9A16C02F9880E052
:10EC700090E0E0EDF7E03197F1F7019684369105E9
:10EC8000C1F72F9A80E090E0E0EDF7E03197F1F7DF
:10EC9000019684369105C1F78091C00087FFE6CFC9
:10ECA0008091C00087FFFCCF64C485EA92EE62E0E9
:10ECB0000F94F5F140910202509103026091040219
:10ECC0007091050281E020E10F9491F2809102029F
:10ECD00090910302A0910402B091050280509F4FD1
:10ECE000AF4FBF4F8093020290930302A0930402A0
:10ECF000B093050280509041A040B04008F426CE69
:10ED0000A4CF83EB92EE62E00F94F5F140910602FE
:10ED100050910702609108027091090280E020E1A1
:10ED20000F9491F28091060290910702A09108023F
:10ED3000B091090280509F4FAF4FBF4F80930602A2
:10ED400090930702A0930802B0930902FFCD80ECD4
:10ED500092EE62E00F94F5F183E792EE60E00F949B
:10ED6000F5F18FE792EE60E00F94F5F18BE892EE0B
:10ED700060E00F94F5F189E992EE60E00F94F5F10F
:10ED800085EA92EE60E00F94F5F183EB92EE60E09D
:10ED90000F94F5F180EC92EE60E00F94F5F187ECC2
:10EDA00092EE60E00F94F5F188ED92EE60E00F9442
:10EDB000F5F18FED92EE60E00F94F5F18AEE92EEB0
:10EDC00060E00F94F5F183E093EEBDCD87EC92EE19
:10EDD00062E00F94F5F181E40F947BF282E40F94EA
:10EDE0007BF283E40F947BF284E40F947BF285E45E
:10EDF0000F947BF286E40F947BF287E40F947BF20E
:10EE000088E40F947BF28AE40F947BF28BE40F94F6
:10EE10007BF28CE40F947BF299CD88ED92EE62E068
:10EE20000F94F5F1772473948824992409C48FED05
:10EE300092EE62E00F94F5F140910A0250910B02BC
:10EE400060910C0270910D0282E020E10F9491F22A
:10EE500080910A0290910B02A0910C02B0910D02D8
:10EE600080509F4FAF4FBF4F80930A0290930B0289
:10EE7000A0930C02B0930D0269CD8AEE92EE62E08F
:10EE80000F94F5F184EE90EE60E00F94F5F18FECC5
:10EE900091EE60E00F94F5F1662477244301CC5D98
:10EEA000DE4F19821882C452D140D401C301B695F5
:10EEB000A79597958795CA5DDE4F88839983AA8326
:10EEC000BB83C652D140CC5DDE4FA881B981C4520C
:10EED000D1401196CC5DDE4FB983A883C452D14096
:10EEE000CD0162E070E00F9434F2B0E2B093C6005E
:10EEF0008091C00086FFFCCF8091C0008064809329
:10EF0000C000EDE2E093C6008091C00086FFFCCF18
:10EF10008091C00080648093C000F0E2F093C6004E
:10EF20008091C00086FFFCCF8091C00080648093F8
:10EF3000C000CA5DDE4FE880F9800A811B81C6529D
:10EF4000D140BB27A12F902F8F2D0F940DF2CA5DBA
:10EF5000DE4F8881C652D1400F940DF2B0E2FB2EF5
:10EF6000F092C6008091C00086FFFCCF8091C00067
:10EF700080648093C0000DE30093C6008091C000C0
:10EF800086FFFCCF8091C00080648093C00010E2B7
:10EF90001093C6008091C00086FFFCCF8091C00016
:10EFA00080648093C0008BBEF3012791C65DDE4F65
:10EFB0002883CA52D140A22EBB24CC24DD2408943D
:10EFC000611C711C811C911C8BBEF3018791282E42
:10EFD0003324442455240894611C711C811C911C09
:10EFE0008BBEF3013791C55DDE4F3883CB52D140E4
:10EFF0000894611C711C811C911C8BBEF30147910C
:10F00000C45DDE4F4883CC52D140ADEFEA2EAFEF66
:10F01000FA2EAFEF0A2FAFEF1A2F6E0C7F1C801E57
:10F02000911E142D032DF22CEE24EA0CFB1C0C1D5A
:10F030001D1D0F940DF220E22093C6008091C000A8
:10F0400086FFFCCF8091C00080648093C000C65DC5
:10F05000DE4F8881CA52D1400F940DF230E23093D6
:10F06000C6008091C00086FFFCCF8091C000806404
:10F070008093C000C45DDE4F8881CC52D1400F9494
:10F080000DF240E24093C6008091C00086FFFCCFA5
:10F090008091C00080648093C000C55DDE4F888190
:10F0A000CB52D1400F940DF250E25093C6008091A4
:10F0B000C00086FFFCCF8091C00080648093C000B8
:10F0C0008FEFE8168FEFF80680E0080780E018075A
:10F0D00031F484E092EE60E00F94C2F1DFC0D80119
:10F0E000C7018070907CA070B0708050904CA040A0
:10F0F000B040D1F52FEF3FE340E050E0E222F322B1
:10F1000004231523CA5DDE4FA880B980CA80DB8046
:10F11000C652D140AE0CBF1CC01ED11EAA0CBB1CD7
:10F12000CC1CDD1C8EE092EE60E00F94C2F1BB2798
:10F13000A12F902F8F2D0F940DF28E2D0F940DF285
:10F1400030E23093C6008091C00086FFFCCF8091F2
:10F15000C00080648093C0004EE34093C60080915D
:10F16000C00086FFFCCF87C08EE09EEFA0E0B0E03D
:10F17000E822F9220A231B239CE0E91694E9F90608
:10F1800090E0090790E0190709F088C0C45DDE4FE0
:10F19000A881CC52D140EA2EFF2400E010E0102FCD
:10F1A0000F2DFE2CEE24C55DDE4FB881CB52D14031
:10F1B000EB0EF11C011D111DD601C501817090706F
:10F1C000A070B070DC0199278827E80EF91E0A1F8D
:10F1D0001B1F20EF30E040E050E0A222B322C42207
:10F1E000D52241E1AA0CBB1CCC1CDD1C4A95D1F7F1
:10F1F000EA0CFB1C0C1D1D1D81E090E0A0E0B0E0BE
:10F20000282239224A225B2235E1220C331C441C7D
:10F21000551C3A95D1F7E20CF31C041D151D57013E
:10F220006801AA0CBB1CCC1CDD1C85E192EE60E0E1
:10F230000F94C2F1C801AA27BB270F940DF2BB2778
:10F24000A12F902F8F2D0F940DF28E2D0F940DF274
:10F2500090E29093C6008091C00086FFFCCF809121
:10F26000C00080648093C000AEE3A093C60080918C
:10F27000C00086FFFCCF8091C00080648093C000F6
:10F28000C601AA27BB270F940DF2BB27AD2D9C2DDD
:10F290008B2D0F940DF28A2D0F940DF20F94DCF14B
:10F2A000CC5DDE4FE881F981C452D140F99709F471
:10F2B0004DCBF4E0EF2EF12C012D112D6E0C7F1CA7
:10F2C000801E911EF2CD83E093EE62E00F94F5F183
:10F2D0008AE192EE60E00F94C2F18091C00087FF56
:10F2E000FCCF1091C6001F751093C6008091C0001E
:10F2F00086FFFCCF8091C00080648093C0000F9493
:10F30000DCF1812F81548A3108F036C1163409F4BA
:10F3100095C0173490F4133409F44EC0143430F40B
:10F320001134F1F0123409F01DC130C0143409F465
:10F3300059C0153409F016C16BC01A3409F4C4C0A1
:10F340001B3438F4173409F48FC0183409F00AC19B
:10F35000A1C01B3409F4D2C01C3409F003C1E8C0B9
:10F360008FEF81B90DC082B1809582B980E090E0C5
:10F37000E0EDF7E03197F1F70196883C9105C1F790
:10F380008091C00087FFEFCF12B8EFC08FEF84B934
:10F390000DC085B1809585B980E090E0E0EDF7E0A3
:10F3A0003197F1F70196883C9105C1F78091C00033
:10F3B00087FFEFCF15B8D9C08FEF87B90DC088B1DF
:10F3C000809588B980E090E0E0EDF7E03197F1F7C3
:10F3D0000196883C9105C1F78091C00087FFEFCF6F
:10F3E00018B8C3C08FEF8AB90DC08BB180958BB9A7
:10F3F00080E090E0E0EDF7E03197F1F70196883C8E
:10F400009105C1F78091C00087FFEFCF1BB8ADC059
:10F410008FEF8DB90DC08EB180958EB980E090E0F0
:10F42000E0EDF7E03197F1F70196883C9105C1F7DF
:10F430008091C00087FFEFCF1EB897C08FEF80BBD1
:10F440000DC081B3809581BB80E090E0E0EDF7E0F6
:10F450003197F1F70196883C9105C1F78091C00082
:10F4600087FFEFCF11BA81C08FEF83BB0DC084B38C
:10F47000809584BB80E090E0E0EDF7E03197F1F714
:10F480000196883C9105C1F78091C00087FFEFCFBE
:10F4900014BA6BC08FEF809301010FC080910201FD
:10F4A00080958093020180E090E0E0EDF7E03197F5
:10F4B000F1F70196883C9105C1F78091C00087FF64
:10F4C000EDCF1092020151C08FEF809304010FC065
:10F4D0008091050180958093050180E090E0E0ED4A
:10F4E000F7E03197F1F70196883C9105C1F78091DB
:10F4F000C00087FFEDCF1092050137C08FEF8093DA
:10F5000007010FC08091080180958093080180E079
:10F5100090E0E0EDF7E03197F1F70196883C910536
:10F52000C1F78091C00087FFEDCF109208011DC088
:10F530008FEF80930A010FC080910B01809580931B
:10F540000B0180E090E0E0EDF7E03197F1F70196F4
:10F55000883C9105C1F78091C00087FFEDCF1092E4
:10F560000B0103C085E292EEEEC98091C00087FFD7
:10F57000FCCF8091C600EAC988E392EEE4C98CE131
:10F5800091EEE1C988249924933011F1943028F444
:10F59000913089F09230B8F408C0953061F195301F
:10F5A000F0F0963009F048C043C02B3109F042C951
:10F5B00091E06BE13FC96227C15DDE4F2883CF52E6
:10F5C000D14092E037C9B22FA0E0622793E032C960
:10F5D000822F90E0A82BB92B622794E02BC92E3004
:10F5E00009F039C3622795E0C05DDE4F19821882A9
:10F5F000C053D1401FC9E1E0F0E0EC0FFD1FC05D3A
:10F60000DE4F08811981C053D140E00FF11F2083E4
:10F610000F5F1F4FC05DDE4F19830883C053D14079
:10F6200062270A171B0709F005C9D80196E002C92D
:10F63000261709F010C303C0973009F0FBC87724E0
:10F640009981933109F412C19431C8F4963009F4C8
:10F65000D8C0973050F4923009F406C1933009F4C1
:10F660006DC0913009F059C253C0913109F477C08F
:10F67000923108F0BBC0903109F04FC2F5C098310B
:10F6800009F487C0993150F4953109F4EFC09531F0
:10F6900008F4C6C1963109F040C2C2C19A3109F4DA
:10F6A0006CC09A3108F491C09B3109F45BC09D3164
:10F6B00009F033C29D81903359F48F81882311F46E
:10F6C0009EE11CC0813011F091E018C098E916C08D
:10F6D000892F807591F0903539F4E0E0F0E089E011
:10F6E0008093570094910AC0983539F4E3E0F0E034
:10F6F00089E080935700949101C090E01A821B82A8
:10F700008D818C831D829E831F8227E030E009C299
:10F710001A8288E08B8381E48C8386E58D8382E581
:10F720008E8389E48F8383E5888780E589878FE5E9
:10F730008A8782E38B872BE030E0F3C18A818139AD
:10F7400041F0823941F0803911F48FE005C080E04A
:10F7500003C082E001C08AE01A828B8344C0772410
:10F76000739482C08D81882311F48EE12CC0813086
:10F7700011F081E028C088E926C01A82E1E0F0E0BB
:10F7800089E08093570084918B831C8224E030E0D1
:10F79000C8C18B81803589F48C81883039F4E2E0EE
:10F7A000F0E089E08093570084910DC0E0E0F0E044
:10F7B00089E080935700849106C0E3E0F0E089E09F
:10F7C0008093570084911A82DFCF8D81836C99E0FA
:10F7D000E1E0F0E0082E90935700E89507B600FCB2
:10F7E000FDCF1A821B8223E030E09BC180EC8A832C
:10F7F000CE5CDE4F188219821A821B82C253D1401E
:10F800008EC18A8190E0A0E0B0E0582F44273327D2
:10F8100022278B8190E0A0E0B0E0DC0199278827C7
:10F82000282B392B4A2B5B2B8D8190E0A0E0B0E098
:10F83000282B392B4A2B5B2B8C8190E0A0E0B0E089
:10F84000BA2FA92F982F8827282B392B4A2B5B2BCF
:10F85000220F331F441F551FC05EDE4F288339839C
:10F860004A835B83C052D1401A8259C13A81C95C34
:10F87000DE4F3883C753D140CA5CDE4F1882C6536F
:10F88000D1408B81C82EDD24CA5CDE4F488159816E
:10F89000C653D140C42AD52A933109F082C0CE5C28
:10F8A000DE4F88819981AA81BB81C253D1408050AB
:10F8B000904CA340B04030F583E0CE5CDE4FE88052
:10F8C000F9800A811B81C253D140F70100935B008C
:10F8D00080935700E89507B600FCFDCFCE5CDE4F65
:10F8E000088119812A813B81C253D14000501F4FAA
:10F8F0002F4F3F4FCE5CDE4F088319832A833B8313
:10F90000C253D140C05EDE4F488159816A817B81FC
:10F91000C052D140DE011B9631E08C9111962C91A2
:10F9200011971296C75CDE4F2883C953D140C85C3B
:10F93000DE4F1882C853D14090E0C85CDE4FE881AA
:10F94000F981C853D1408E2B9F2B0C01FA01609393
:10F950005B0030935700E89511244E5F5F4F6F4F67
:10F960007F4F0EEFE02E0FEFF02ECE0CDF1CC114F8
:10F97000D10499F685E0C05EDE4F088119812A81A5
:10F980003B81C052D140F80120935B008093570027
:10F99000E89507B600FCFDCF81E180935700E8951C
:10F9A00035C0C05EDE4F88819981AA81BB81C0527B
:10F9B000D140B695A795979587957C018601ABE0D8
:10F9C000AA2EB12CAC0EBD1E0BC0D5016D915D01F0
:10F9D000C7010F947FFE0894E11CF11C01501040F8
:10F9E0000115110591F7A60160E070E0440F551F65
:10F9F000661F771FC05EDE4FE880F9800A811B8199
:10FA0000C052D1404E0D5F1D601F711F1A82C05E33
:10FA1000DE4F488359836A837B83C052D1407FC0C5
:10FA2000FA80C55CDE4FF882CB53D140C65CDE4F16
:10FA30001882CA53D1408B81C82EDD24C65CDE4FAC
:10FA400008811981CA53D140C02AD12A1A828981DA
:10FA5000BE016D5F7F4F843121F59601C05EDE4FA0
:10FA6000E880F9800A811B81C052D1400BBFF701A9
:10FA700087919691DB018C9311969C936E5F7F4FDB
:10FA8000D801C7010296A11DB11DC05EDE4F88835B
:10FA90009983AA83BB83C052D14022503040F1F6F3
:10FAA00036C0C05EDE4F288139814A815B81C052F9
:10FAB000D1400894C108D108760100E010E0089414
:10FAC000C11CD11C0894E11CF11C011D111DE20E8A
:10FAD000F31E041F151F21BDBB27A52F942F832FB5
:10FAE00082BD2F5F3F4F4F4F5F4FF89A80B5DB01CC
:10FAF0008D93BD012E153F054007510761F7C05E8C
:10FB0000DE4F288339834A835B83C052D1409601FC
:10FB10002D5F3F4FFB01108204C080EC8A8322E0FE
:10FB200030E08BE18093C6008091C00086FFFCCF5F
:10FB30008091C00080648093C000C15DDE4FF88179
:10FB4000CF52D140F093C6008091C00086FFFCCF19
:10FB50008091C00080648093C000432F3093C60022
:10FB60008091C00086FFFCCF8091C00080648093AC
