:100000000C94BF010C94F0010C94F0010C94F001DD
:100010000C94F0010C94F0010C94F0010C94F0019C
:100020000C94F0010C94B90C0C94B90C0C94B90C10
:100030000C94F0010C94F0010C94F0010C94F0017C
:100040000C94F0010C94F0010C94F0010C94F0016C
:100050000C94F0010C94F0010C94F0010C946F0CD2
:100060000C94F0010C94390C0C940F0C0C94F001CE
:100070000C94F0010C94F0010C94F0010C94F0013C
:100080000C94F0010C94F0010C94F0010C94F0012C
:100090000C94D90B0C94AF0B0C94F0010C94C30C82
:1000A0000C94F0010C94F0010C94F0010C94F0010C
:1000B0000C94F0010C94F0010C94F0010C94F001FC
:1000C0000C94F0010C94F0010C94F0010C94F001EC
:1000D0000C94F0010C94F0010C94F0010C94F001DC
:1000E0000C94F0010C9438060C94E0030C94B019B5
:1000F0000C941B040C94FB030C94A0080C949E130A
:100100000C9459130C9462060C9452040C94A5138D
:100110000C94A9020C94EE030C9466130C949A02AE
:100120000C9491130C94B2130C9413040C94BF13FD
:100130000C94FF030C945F130C94E70D0C940504CE
:100140000C9484130C9470130C9483040C94170473
:100150000C942A130C94E6030C948F060C94EA0377
:100160000C945B060C946C020C9420040C947503A4
:100170000C94F2030C94CB020C941E130C943906CD
:100180000C94F5030C946D130C9409040C94BD02AB
:100190000C940D030C946B020C9448060C94C3044D
:1001A0000C9421040C946D020C94A3050C94771309
:1001B0000C94A5070C940D040C9425040000210058
:1001C000240027002A002D00300033000101000028
:1001D000040107010A0100002200250028002B006D
:1001E0002E003100340002010000050108010B015E
:1001F000000020002300260029002C002F003200E0
:1002000000010000030106010901050505050705B8
:1002100008080808020202020A0A08080404040482
:1002200001010101010101010303030303030303AE
:10023000040707070C0C0C0C0C0C0C0C020202023D
:1002400006060606060606060B0B0B0B0B0B0B0B26
:1002500001021020200808102040102040800201D8
:1002600002010804020101020408102040808040BD
:1002700020100804020180040201804020100804BC
:10028000020108040201010204081020408001025A
:1002900004081020408000000A0B02090C0D0E0813
:1002A000070304010000000000000000000000003F
:1002B000000000000000000000000000000000003E
:1002C00000001211100000000000000000000000FB
:1002D0000000000000000000000000004E6F2047FA
:1002E000505320646174612072656365697665644A
:1002F0003A20636865636B20776972696E67004DA9
:100300006561737572696E672E2E2E003A003A0091
:1003100020002D002D002D2047505320646174656E
:100320002674696D653A20004D6561737572696E5A
:10033000672E2E2E00206B6D2F68002D20737065A8
:1003400065643A20002D206C6F636174696F6E3AAA
:10035000204D6561737572696E672E2E2E002D20FB
:100360006C6F6E6769747564653A20002D206C614E
:100370007469747564653A200000E70DB0191124A2
:100380001FBECFEFD1E2DEBFCDBF00E00CBF27E044
:10039000AEE5B4E001C01D92A53AB207E1F714E062
:1003A000A0E0B2E0E4EFFDE300E00BBF02C0079085
:1003B0000D92AE35B107D9F711E0CEEBD1E000E0F8
:1003C00006C021970109802FFE010E94AA1CCD3B87
:1003D000D10780E00807A9F70E94EF0F0C94E81EF0
:1003E0000C940000FC01A089B18982E08C93A48563
:1003F000B5851C92A685B7858FEC8C93108EA48949
:10040000B58986E08C93A289B3898C9180618C93A5
:10041000A289B3898C9188608C93A289B3898C91CD
:1004200080688C930288F389E02D80818F7D8083A2
:10043000089596E0899FD0011124AA5DB84F909647
:100440007C936E935F9791E091969C939197E09146
:100450009307F091940790919207992339F0309780
:1004600051F0811108C0809142071994309719F01A
:100470005C968C91FACF0895CF92DF92EF92FF9223
:1004800010927406609177067091780680917906D3
:1004900090917A060E94201A28E23BE64EE65EE43E
:1004A0000E94C61B6B017C016091750670917606F7
:1004B00090E080E00E94201A9B01AC01C701B601C8
:1004C0000E945A1B20917B0621119058FF90EF90BB
:1004D000DF90CF90089508950895AF92BF92CF9284
:1004E000DF92EF92FF920F931F93CF93DF936C01F4
:1004F0007B018B01040F151FEB015E01AE18BF08D5
:10050000C017D10759F06991D601ED91FC91019086
:10051000F081E02DC6011995892B79F7C501DF918E
:10052000CF911F910F91FF90EF90DF90CF90BF90F0
:10053000AF900895FC01538D448D252F30E0842F1A
:1005400090E0821B930B541710F0CF9608950197FB
:100550000895FC01918D828D981761F0A28DAE0FE8
:10056000BF2FB11D5D968C91928D9F5F9F73928F6F
:1005700090E008958FEF9FEF0895FC01918D828D9B
:10058000981731F0828DE80FF11D858D90E0089568
:100590008FEF9FEF0895FC01918D228D892F90E0C0
:1005A000805C9F4F821B91098F739927089587E282
:1005B00095E00E94CB0221E0892B09F420E0822FF4
:1005C000089584EC95E00E94CB0221E0892B09F488
:1005D00020E0822F0895FC01A48DA80FB92FB11D32
:1005E000A35ABF4F2C91848D90E001968F73992769
:1005F000848FA689B7892C93A089B1898C91837047
:1006000080648C93938D848D981306C00288F3893F
:10061000E02D80818F7D80830895EF92FF920F936C
:100620001F93CF93DF93EC0181E0888F9B8D8C8D9E
:1006300098131AC0E889F989808185FF15C09FB792
:10064000F894EE89FF896083E889F9898081837055
:10065000806480839FBF81E090E0DF91CF911F9104
:100660000F91FF90EF900895F62E0B8D10E00F5F25
:100670001F4F0F731127E02E8C8D8E110CC00FB6FB
:1006800007FCFACFE889F989808185FFF5CFCE0193
:100690000E94EB02F1CFEB8DEC0FFD2FF11DE35A21
:1006A000FF4FF0829FB7F8940B8FEA89FB89808116
:1006B0008062CFCF0F931F93CF93DF938C01D0E055
:1006C000C0E0F801EC0FFD1F6491662341F084EC5B
:1006D00095E00E940D03892B11F02196F2CFCE01F7
:1006E000DF91CF911F910F910895CF93DF93EC018C
:1006F000888D8823B9F0AA89BB89E889F9898C910A
:1007000085FD03C0808186FD0DC00FB607FCF7CFC5
:100710008C9185FFF2CF808185FFEDCFCE010E94C5
:10072000EB02E9CFDF91CF91089580E090E0892B33
:1007300029F00E94E10281110E94000080E090E017
:10074000892B29F00E94D70281110E94000080E0CD
:1007500090E0892B49F080E090E0892B29F00E94FD
:10076000000081110E94000080E090E0892B49F098
:1007700080E090E0892B29F00E94000081110C9408
:10078000000008958150823108F05AC0E82FF0E04F
:100790008827E253FC4F8F4F0C94AA1CEE03F20300
:1007A000E003E603EA032004F503FB03FF0305046B
:1007B00009040D041304170420041B042104250458
:1007C000809180008F7780938000089580918000D1
:1007D0008F7DF9CF80918000877FF5CF84B58F77AB
:1007E00084BD089584B58F7DFBCF8091B0008F7755
:1007F0008093B00008958091B0008F7DF9CF8091F3
:1008000090008F77809390000895809190008F7D65
:10081000F9CF80919000877FF5CF8091A0008F77EE
:100820008093A00008958091A0008F7DF9CF8091E2
:10083000A000877FF5CF809120018F7780932001E2
:100840000895809120018F7DF9CF80912001877FCD
:10085000F5CFCF93DF93282F30E0F901EA56FD4F13
:100860008491F901E05BFD4FD491F901E65FFD4F02
:10087000C491CC23A1F081110E94C203EC2FF0E0BF
:10088000EE0FFF1FE051FE4FA591B491EC91ED23C7
:1008900081E090E009F480E0DF91CF91089580E05D
:1008A00090E0FACF862F0C9429041F93CF93DF9307
:1008B000282F30E0F901EA56FD4F8491F901E05B01
:1008C000FD4FD491F901E65FFD4FC491CC23A9F00F
:1008D000162F81110E94C203EC2FF0E0EE0FFF1FD4
:1008E000EA52FE4FA591B4918FB7F894EC91111193
:1008F00008C0D095DE23DC938FBFDF91CF911F918D
:100900000895DE2BF8CF862F642F0C945504CF93D7
:10091000DF9390E0FC01E05BFD4F2491865F9D4FEB
:10092000FC0184918823C9F090E0880F991FFC0195
:10093000E454FE4FA591B491FC01EA52FE4FC591DB
:10094000D49161110DC09FB7F8948C9120958223AA
:100950008C938881282328839FBFDF91CF910895AE
:10096000623051F49FB7F8943C91822F8095832395
:100970008C93E8812E2BEFCF8FB7F894EC912E2B30
:100980002C938FBFEACF862F642F0C948704863375
:1009900008F0865320917B00982F9870277F922B28
:1009A00090937B008770806480937C0080917A00B4
:1009B000806480937A0080917A0086FDFCCF8091DC
:1009C00078009091790008953FB7F89480911705C9
:1009D00090911805A0911905B0911A0526B5A89B0C
:1009E00005C02F3F19F00196A11DB11D3FBFBA2FC1
:1009F000A92F982F8827BC01CD01620F711D811D81
:100A0000911D42E0660F771F881F991F4A95D1F705
:100A100008958F929F92AF92BF92CF92DF92EF9202
:100A2000FF924B015C010E94E4046B017C010E9477
:100A3000E4046C197D098E099F09683E73408105A5
:100A40009105A8F321E0821A9108A108B10888EE67
:100A5000C80E83E0D81EE11CF11C81149104A1048E
:100A6000B10429F7FF90EF90DF90CF90BF90AF9047
:100A70009F908F9008952FB7F8946091130570910F
:100A8000140580911505909116052FBF08950F93B9
:100A90001F93CF93DF93C82FD62F86E0C89FF00116
:100AA0001124EA5DF84F11A2878D90A18130910544
:100AB000F1F058F082309105F1F1039709F440C04C
:100AC000DF91CF911F910F9108956623C9F361E0E3
:100AD00070E08C2F0E9419020E943B0560937E07F4
:100AE00070937F078093800790938107E9CF0E94DE
:100AF0003B0500917E0710917F0720918007309180
:100B00008107AB01BC01401B510B620B730B809141
:100B1000900790919107B0E0A0E084179507A60791
:100B2000B70748F462E070E08C2FDF91CF911F91FE
:100B30000F910C94190263E070E0D111C1CFF4CF92
:100B400070E060E0F1CF0895CF93DF93EC018A85E8
:100B50009B85AC85BD858E839F83A887B9870E94BE
:100B60003B056A837B838C839D8381E089838883B3
:100B7000DF91CF910895CF93DF93EC018E819F8118
:100B8000A885B9858A839B83AC83BD830E943B057E
:100B90006A877B878C879D8781E089838883DF9143
:100BA000CF91089520919F04260F3327331F2132C0
:100BB0003105ECF42091EA04FC0190E080E024305F
:100BC00069F082E00895A0919F042191AC01415801
:100BD0005B4FA40FB52FB11D2C930196861798F388
:100BE00080919F04680F60939F0480E0089581E0E6
:100BF00008951092EA0481E08093E9041092C404FD
:100C000061E084E10E94550461E085E10E945504A1
:100C1000E9EBF0E080818E7F808380818D7F80830F
:100C200088E48093B80085E48093BC000895CF9356
:100C3000DF9391E090937E048823B9F0C091B800CF
:100C4000D091BA008091BC008A7B8093BC0060E0A8
:100C500084E10E94550460E085E10E9455040E94F1
:100C6000F905D093BA00C093B800DF91CF910895F1
:100C70000895E091220580912105E81730F4F0E015
:100C8000E25AFB4F808190E008958FEF9FEF089527
:100C900090912205809121052FEF3FEF981748F49E
:100CA000E92FF0E0E25AFB4F208130E09F5F909304
:100CB0002205C90108958091210590912205891B83
:100CC000990B0895CF92DF92EF92FF920F931F93AB
:100CD000CF93DF937C01CB018A012091F004222382
:100CE00089F0EB016B01C40ED51ECC15DD0569F052
:100CF0006991D701ED91FC910190F081E02DC70140
:100D00001995F3CF642F0E94D205C801DF91CF91CE
:100D10001F910F91FF90EF90DF90CF900895CF93A8
:100D2000DF931F92CDB7DEB769832091F0042223B1
:100D3000F9F020911F05203258F021E030E0FC014D
:100D40003383228390E080E00F90DF91CF9108956C
:100D500080912005E82FF0E0EF50FB4F99819083C0
:100D60008F5F8093200580931F0581E090E0ECCF9A
:100D700061E0CE0101960E94D205F7CFCF92DF92BB
:100D8000EF92FF920F931F93CF93DF93FC01C481E7
:100D900021E02093F004C0931105109220051092D9
:100DA0001F058385682B81E696E00E948F06D0910F
:100DB0001F05D13208F092C00E94E4046B017C014F
:100DC0008091EA04811165C082E08093EA0481E0A9
:100DD0008093E9048FEF8093E8041092E704D093A6
:100DE000E604A1EFB4E0E6ECF4E080E0D81385C0BF
:100DF0001092C5048091C504CC0FC82BC093C504C4
:100E00008091C404813009F07CC01092C4040E9417
:100E1000E4046B017C018091C5048093BB00809148
:100E2000EC049091ED04A091EE04B091EF04892BB5
:100E30008A2B8B2B99F00E94E4040091EC04109112
:100E4000ED042091EE043091EF046C197D098E09B8
:100E50009F090617170728073907E0F18091BC00A2
:100E600083FDD9CF85EC8093BC000E94E4046B0124
:100E70007C018091EA04823009F445C08091E80445
:100E80008F3F61F18091E804803241F18091E80464
:100E900025C08091EC049091ED04A091EE04B091F6
:100EA000EF04892B8A2B8B2B09F48ACF0E94E40450
:100EB0000091EC041091ED042091EE043091EF04C8
:100EC0006C197D098E099F0906171707280739072E
:100ED00008F076CF8091EB040E941706109220054F
:100EE00010921F051092F004DF91CF911F910F9186
:100EF000FF90EF90DF90CF9008959D9191938F5F39
:100F000075CF85EEB0CF8091EC049091ED04A09167
:100F1000EE04B091EF04892B8A2B8B2B09F4A9CF17
:100F20000E94E4040091EC041091ED042091EE0481
:100F30003091EF046C197D098E099F090617170778
:100F40002807390708F095CFC5CF90E080E00895D5
:100F5000CF92DF92EF92FF920F931F93CF93DF9385
:100F60007C018B01D12CC12CC016D106ECF4F70109
:100F7000C681D781F70180819181C817D90784F094
:100F800061E08C2F0E94550463E070E080E090E007
:100F90000E94090560E08C2F0E9455042197EACF3A
:100FA000FFEFCF1ADF0AE0CF119501951109F70184
:100FB00011870087DF91CF911F910F91FF90EF90E4
:100FC000DF90CF900895CF92DF92EF92FF920F9330
:100FD0001F93CF93DF938C016B01F12CE12CF8016F
:100FE000EC14FD04E4F4C081D181F801868197817D
:100FF0008C179D0784F061E08C2F0E94550463E0FC
:1010000070E080E090E00E94090560E08C2F0E9473
:1010100055042196EACFFFEFEF1AFF0AE0CFD18601
:10102000C086DF91CF911F910F91FF90EF90DF90DD
:10103000CF9008950F931F93CF93DF938C01FC0102
:10104000C081D181F801868197818C179D0734F08A
:1010500061E08C2F0E9487042196F4CFDF91CF911D
:101060001F910F9108950F931F93CF938C01C62F5B
:101070000E94BE066C2F6460C8010E94BE066C2FE1
:101080006B7FC8010E94BE0683EC90E00197F1F7E8
:10109000CF911F910F9108950F931F93CF93DF93DB
:1010A0008C01D62FC42F607F642B0E94330880E10F
:1010B000D89FB00111246C2BC801DF91CF911F91F3
:1010C0000F910C943308CF93DF9300D000D01F9280
:1010D0001F92CDB7DEB798E0E9E1F2E0DE011196AC
:1010E00001900D929A95E1F790919D07961710F453
:1010F0006FEF690F262F30E0220F331F41E050E0E1
:101100004C0F5D1F240F351FF9016081680F606867
:1011100040E085E997E028960FB6F894DEBF0FBE51
:10112000CDBFDF91CF910C944C0840E061E085E9A0
:1011300097E00E944C088BE39FE10197F1F7089537
:1011400041E00E944C0881E090E00895FB0101908D
:101150000020E9F73197AF01461B570BDC01ED91F9
:10116000FC910280F381E02D1994CF93DF930E94CC
:101170005A03EC016BE572E084EC95E00E94A6084E
:101180008C0F9D1FDF91CF9108958F929F92AF9208
:10119000BF92EF92FF920F931F93CF93DF93CDB740
:1011A000DEB7A1970FB6F894DEBF0FBECDBF7C01AE
:1011B000FA01CB0119A2223008F42AE08E010F5D5A
:1011C0001F4F822E912CB12CA12CBF01A50194019F
:1011D0000E94881CF901CA016A300CF5605DD801D3
:1011E0006E938D01232B242B252B79F790E080E043
:1011F000109721F0BD01C7010E94A608A1960FB665
:10120000F894DEBF0FBECDBFDF91CF911F910F913C
:10121000FF90EF90BF90AF909F908F900895695C82
:10122000DECFCF93DF93BC0184EC95E00E94A6084B
:10123000EC016BE572E084EC95E00E94A6088C0F4F
:101240009D1FDF91CF9108952F923F924F925F9211
:101250006F927F928F929F92AF92BF92CF92DF92C6
:10126000EF92FF921F93CF93DF93EC016A017B0112
:10127000722EAB019601CB01B6010E94731C6EE584
:1012800072E0811126C046015701E894B7F82FEFAC
:101290003FEF4FE75FE7C501B4010E94731C811166
:1012A0000CC02FEF3FEF4FE75FE7C501B4010E948D
:1012B0001B1A62E672E0181664F02FEF3FEF4FE75B
:1012C0005FE4C701B6010E946E1C1816B4F466E60E
:1012D00072E0CE01DF91CF911F91FF90EF90DF90F0
:1012E000CF90BF90AF909F908F907F906F905F90C6
:1012F0004F903F902F900C94A6082FEF3FEF4FE7B1
:101300005FECC701B6010E941B1A87FDE0CF20E009
:1013100030E0A901C701B6010E941B1A312C212C13
:1013200087FF0DC0E881F9810190F081E02D6DE229
:10133000CE0119951C01F7FAF094F7F8F09410E03B
:1013400060E070E080E09FE3711641F020E030E063
:1013500040E251E40E94C61B1F5FF6CFA701960131
:101360000E945A1B2B013C010E943F1C4B015C0157
:101370002AE0BC01A401CE010E94C5087C01E20C58
:10138000F31C1123E1F1C501B4010E94201A9B0155
:10139000AC01C301B2010E94591B4B015C01E88101
:1013A000F9810190F081E02D6EE2CE011995E80EF1
:1013B000F91E115020F120E030E040E251E4C50177
:1013C000B4010E94811A2B013C010E943F1C4B0179
:1013D000B12CA12C2AE0B501A401CE010E94C508C0
:1013E000E80EF91EC501B4010E94201A9B01AC0150
:1013F000C301B2010E94591B4B015C01DACFC70146
:10140000DF91CF911F91FF90EF90DF90CF90BF9031
:10141000AF909F908F907F906F905F904F903F9094
:101420002F900895CF93DF93AB01BC0122E084ECB1
:1014300095E00E942409EC016BE572E084EC95E0F4
:101440000E94A6088C0F9D1FDF91CF9108950C94E8
:10145000A6082F923F924F925F926F927F928F9247
:101460009F92AF92BF92CF92DF92EF92FF920F9333
:101470001F93CF93DF93D82FC92F8B010E94D719C9
:1014800024E630E040E050E00E94881C49019B01C6
:10149000AC0160E876E988E990E00E94781C6B0175
:1014A0007C01F80191828082ED2FFC2F2191822F07
:1014B000022E000C990BC0970A97C0F32E3239F513
:1014C0001F0180E8882E86E9982E88E9A82EB12C85
:1014D0009AE0492E512C612C712CF101C1911F0110
:1014E0000C2E000CDD0BE097CA30D10580F4C5014D
:1014F000B401A30192010E94881C49015A01DE0136
:101500000E94B21CC60ED71EE81EF91EE6CFA5E04B
:10151000B0E0A70196010E943F1B6F5F7F4F8F4F86
:101520009F4F23E030E040E050E00E94881CF8012B
:1015300022833383448355831682DF91CF911F9199
:101540000F91FF90EF90DF90CF90BF90AF909F9062
:101550008F907F906F905F904F903F902F90089565
:101560001F93CF93DF93EC0118811D3209F421966C
:10157000CE010E94D7199B01AC01A4E6B0E00E9405
:101580003F1BAB01BC01FE012991822F022E000CF2
:10159000990BC0970A97B8F32E3231F58181082E46
:1015A000000C990BC0978A309105F0F4AAE0A89F2F
:1015B0009001A99F300D1124C901330FAA0BBB0B59
:1015C000480F591F6A1F7B1F8281082E000C990B40
:1015D000C0978A30910540F4092E000CAA0BBB0B72
:1015E000480F591F6A1F7B1F1D3239F47095609593
:1015F000509541955F4F6F4F7F4FCB01BA01DF91FF
:10160000CF911F9108950F931F93CF93DF93EC0118
:1016100088819981009759F02A813B8126173707E5
:1016200030F081E0DF91CF911F910F9108958B01F0
:101630006F5F7F4F0E94DF1D009759F09983888369
:101640001B830A832C813D81232B59F7FC011082D7
:10165000E8CF80E0E7CFCF93DF93EC0119821882C7
:101660001B821A821D821C8270E060E00E94030BC4
:101670002881398181110FC02115310519F0C90167
:101680000E94561D198218821D821C821B821A829A
:10169000DF91CF9108951D821C826DE572E0C90132
:1016A000DF91CF910C94D21ECF93DF93EC0170E0C9
:1016B00060E00E94030B2881398181110FC0211540
:1016C000310519F0C9010E94561D198218821D8228
:1016D0001C821B821A82DF91CF9108951D821C8289
:1016E0006DE572E0C901DF91CF910C94D21E85EDBA
:1016F0008093BC008091EC049091ED04A091EE04E5
:10170000B091EF040796A11DB11D23E0B695A795F2
:10171000979587952A95D1F72091BC0024FD03C0A9
:101720001092EA0408954091EC045091ED04609108
:10173000EE047091EF04452B462B472B69F300977D
:10174000A105B10541F02AE22A95F1F700C0019701
:10175000A109B109E1CF8091EB040C9417061F9207
:101760000F920FB60F9211240BB60F922F933F9347
:101770004F935F936F937F938F939F93AF93BF9399
:10178000EF93FF9387E295E00E94EB02FF91EF91C8
:10179000BF91AF919F918F917F916F915F914F9189
:1017A0003F912F910F900BBE0F900FBE0F901F9087
:1017B00018951F920F920FB60F9211240BB60F922D
:1017C0002F938F939F93EF93FF93E0913705F091C1
:1017D00038058081E0913D05F0913E0582FD1DC0F8
:1017E0009081809140058F5F8F7320914105821712
:1017F00041F0E0914005F0E0E95DFA4F958F80936C
:101800004005FF91EF919F918F912F910F900BBE0B
:101810000F900FBE0F901F9018958081F2CF1F92EE
:101820000F920FB60F9211240BB60F922F933F9386
:101830004F935F936F937F938F939F93AF93BF93D8
:10184000EF93FF9384EC95E00E94EB02FF91EF9100
:10185000BF91AF919F918F917F916F915F914F91C8
:101860003F912F910F900BBE0F900FBE0F901F90C6
:1018700018951F920F920FB60F9211240BB60F926C
:101880002F938F939F93EF93FF93E091D405F09163
:10189000D5058081E091DA05F091DB0582FD1DC060
:1018A00090818091DD058F5F8F732091DE05821717
:1018B00041F0E091DD05F0E0EC53FA4F958F809315
:1018C000DD05FF91EF919F918F912F910F900BBEAE
:1018D0000F900FBE0F901F9018958081F2CF1F922E
:1018E0000F920FB60F9211242F933F938F939F93D4
:1018F000AF93BF938091130590911405A0911505A6
:10190000B09116053091120523E0230F2D3758F5BD
:101910000196A11DB11D209312058093130590938C
:101920001405A0931505B0931605809117059091A5
:101930001805A0911905B0911A050196A11DB11DB8
:101940008093170590931805A0931905B0931A0575
:10195000BF91AF919F918F913F912F910F900FBEAB
:101960000F901F90189526E8230F0296A11DB11D18
:10197000D2CF1F920F920FB60F9211240F900FBE6D
:101980000F901F9018951F920F920FB60F9211246F
:101990000BB60F922F933F934F935F936F937F9369
:1019A0008F939F93AF93BF93EF93FF938091B90071
:1019B000887F803609F44DC008F040C0883209F4B1
:1019C000A9C028F5803109F49DC0C8F4882309F422
:1019D000FBC0883009F496C0FF91EF91BF91AF91A1
:1019E0009F918F917F916F915F914F913F912F9137
:1019F0000F900BBE0F900FBE0F901F90189588315F
:101A000009F488C0803241F78093E80414C0803420
:101A100009F49DC040F48033B9F38833E9F680932C
:101A2000E80485ECB0C0803509F485C0883509F438
:101A300096C0883489F60E94770BCECF883909F496
:101A40008CC038F5883729F050F4883611F080378B
:101A500019F683E08093EA041092C10457C08838D5
:101A600009F47BC0803919F0803809F0B5CF809136
:101A7000C104803208F071C0E091C10481E08E0F92
:101A80008093C1048091BB00F0E0EF55FB4F808351
:101A90003DC0803B39F0E0F4803A09F479C0883ADF
:101AA00009F09ACF84E08093EA041092A004109287
:101AB0009F04E0911D05F0911E05199580919F04EA
:101AC00081110FC081E080939F0410927F0409C0B0
:101AD000803C09F4A6CF883C09F4A3CF883B09F0E9
:101AE0007BCFE091A00481E08E0F8093A004F0E012
:101AF000E158FB4F80818093BB009091A0048091BE
:101B00009F0429C08091C5048093BB0085EC80931D
:101B1000BC0062CF9091E7048091E604981758F5D5
:101B2000E091E70481E08E0F8093E704F0E0EA5350
:101B3000FB4F8081E9CFE091E70481E08E0F809335
:101B4000E7048091BB00F0E0EA53FB4F8083909163
:101B5000E7048091E6049817C8F285E8D8CFE091B1
:101B6000E70481E08E0F8093E7048091BB00F0E0F2
:101B7000EA53FB4F80838091E90481115CCF81E0BF
:101B80008093C40484EA8093BC001092EA0424CFBA
:101B900085EC8093BC001092EA048091C1048032ED
:101BA00030F4E091C104F0E0EF55FB4F10826091FA
:101BB000C10470E0E0911B05F0911C0581EA94E0FE
:101BC00019951092C10408CF1092E80434CFCF9336
:101BD000DF9310922A051092290588EE93E0A0E089
:101BE000B0E080932B0590932C05A0932D05B09326
:101BF0002E0525E232E030932805209327054DEC91
:101C000050E050933405409333054CEC50E0509332
:101C100036054093350548EC50E050933805409325
:101C2000370549EC50E050933A05409339054AECAA
:101C300050E050933C0540933B054EEC50E05093F0
:101C40003E0540933D0510924005109241051092CB
:101C50004205109243051092C7051092C605809365
:101C6000C8059093C905A093CA05B093CB053093DE
:101C7000C5052093C40525EC30E03093D1052093B1
:101C8000D00524EC30E03093D3052093D20520EC2E
:101C900030E03093D5052093D40521EC30E030932B
:101CA000D7052093D60522EC30E03093D905209358
:101CB000D80526EC30E03093DB052093DA0510924E
:101CC000DD051092DE051092DF051092E0051092FE
:101CD0006406109263068093650690936606A0934F
:101CE0006706B093680687E392E09093620680935C
:101CF0006106109298071092970783E592E09093FF
:101D000096078093950787E28093990784E18093F3
:101D10009E0784E080939F071092A00710922807E7
:101D200010922C0710922B0710922D0789E492E055
:101D30009093270780932607E2E4F7E0108214824D
:101D400013821582369687E0EE37F807B9F783E0FD
:101D500092E0909389078093880780E092E09093C7
:101D60008B0780938A0784E080938C0783E08093BD
:101D70008D0787E092E09093870780938607CAE0FB
:101D8000D0E0D0938F07C0938E0784EF91E09093BB
:101D900091078093900710929407109293071092E6
:101DA0008207109283071092840710928507109281
:101DB00092078AE090E00E94BA1CFC01D183C083A4
:101DC0008BE090E0938382838CE090E09583848322
:101DD0008DE090E097838683F0932507E0932407B6
:101DE0008AE090E00E94BA1CFC0186E090E09183BA
:101DF000808387E090E09383828388E090E09583FE
:101E0000848389E090E097838683F0932307E093AF
:101E100022078AE090E00E94BA1CFC0182E090E078
:101E20009183808383E090E09383828384E090E0D9
:101E30009583848385E090E097838683F0932107E0
:101E4000E0932007109273061092740610927606A3
:101E50001092750610927706109278061092790605
:101E600010927A0610927B0610927D0610927C06E4
:101E700010927E0610927F061092800610928106C4
:101E800010928206109284061092830610928506A4
:101E90001092860610928706109288061092890684
:101EA00010928B0610928A0610928C0610928D0664
:101EB00010928E0610928F06109290061092950640
:101EC0001092960610929706109298061092990614
:101ED00010929A061092A3061092A4061092A506DC
:101EE0001092A6061092A7061092A8061092B106AC
:101EF0001092B2061092B7061092B8061092B90668
:101F00001092BA061092BF061092C0061092C50633
:101F10001092C6061092C7061092C8061092CD06FF
:101F20001092CE061092D3061092D4061092D506C7
:101F30001092D6061092DB061092DC061092E10693
:101F40001092E2061092E3061092E4061092E9065F
:101F50001092EA061092EF061092F0061092F10627
:101F60001092F2061092F7061092F80682E0809323
:101F700008071092090710920A0710920B07109297
:101F80000D0710920C0710920F0710920E07109277
:101F90001007109211071092120710921307109257
:101FA0001407109215071092160710921707109237
:101FB00018071092190710921A0710921B07109217
:101FC0001C0710921D0710921E0710921F071092F7
:101FD000F9068DE696E0DF91CF910C942B0BCF9311
:101FE000DF9300D000D01F921F92CDB7DEB7789458
:101FF00084B5826084BD84B5816084BD85B582600E
:1020000085BD85B5816085BD80916E0081608093BE
:102010006E00109281008091810082608093810027
:102020008091810081608093810080918000816037
:10203000809380008091B10084608093B100809192
:10204000B00081608093B0008091910082608093A5
:102050009100809191008160809391008091900027
:102060008160809390008091A10082608093A100A4
:102070008091A10081608093A1008091A000816087
:102080008093A00080912101826080932101809142
:1020900021018160809321018091200181608093E2
:1020A000200180917A00846080937A0080917A0088
:1020B000826080937A0080917A00816080937A00B8
:1020C00080917A00806880937A001092C10084EC3D
:1020D00095E00E94F20187E295E00E94F2011092E1
:1020E0002205109221051092200510921F050E94D2
:1020F000F9058BE692E090931E0580931D058CE612
:1021000092E090931C0580931B0510929A07809192
:102110009F07823018F098E090939A0780939D076C
:1021200062E370E080E090E00E9409056091A00702
:1021300085E997E00E94BE0668EE73E080E090E0DB
:102140000E94090560E385E997E00E9433080BE4EB
:1021500016E4C8010197F1F760E385E997E00E9472
:102160003308C8010197F1F760E385E997E00E9421
:10217000330883E592E00197F1F760E285E997E0A3
:102180000E94330860919A07606240E085E997E019
:102190000E944C0884E080939B0740E06CE085E956
:1021A00097E00E944C080E94950882E080939C076B
:1021B00040E066E085E997E00E944C0840E062E07C
:1021C00085E997E00E944C088BE39FE10197F1F7C6
:1021D00088E08093A00760E085E997E00E94BE0652
:1021E00060E080E00E9463086AE672E085E997E0BB
:1021F0000E94270A61E080E00E94630865E772E0C0
:1022000085E997E00E94270A62E080E00E94630867
:102210006AE872E085E997E00E94270A8091240726
:10222000909125070E941A08809122079091230718
:102230000E941A0880912007909121070E941A0895
:1022400042E0342E01E054E6852E912CA12CB12CD5
:1022500060E1462E67E2562E612C712C87E295E0F4
:102260000E94CB02181619060CF0BDC687E295E055
:102270000E94A902182F8091100790911107A09138
:102280001207B09113070196A11DB11D809310078D
:1022900090931107A0931207B0931307143209F417
:1022A0007BC2E0910A0715320CF0BEC01A3019F05B
:1022B0001D3009F07EC2EF3008F033C1F0E0E75086
:1022C000F94F1082D090F806DD2009F42CC120913E
:1022D000F906822F022E000C990B3FEB320F36309D
:1022E00008F0AEC0C7978295807F9091FA06292F9B
:1022F000092E000C330B4FEB490F463008F0A8C0F5
:1023000027533109820F9091F7068913F7C0809106
:102310001C0790911D07A0911E07B0911F07019601
:10232000A11DB11D80931C0790931D07A0931E074C
:10233000B0931F0780910B07882399F080911407B1
:1023400090911507A0911607B09117070196A11D4E
:10235000B11D8093140790931507A0931607B093AF
:102360001707F0900807FF2009F47BC021E0F21264
:1023700034C085E996E00E94BB0583EA96E00E949E
:10238000BB0580910B07882341F187E0E3E8F6E085
:10239000A5E7B6E001900D928A95E1F787E0EAE8BB
:1023A000F6E0ACE7B6E001900D928A95E1F70E9465
:1023B0003B056093910670939206809393069093E9
:1023C0009406F0927406F092730681EB96E00E94F8
:1023D000A4058FEB96E00E94A405E0900E07F09014
:1023E0000F07E114F10409F4EFC5E0910E07F09135
:1023F0000F0766A177A1F70186A197A10E94C91EC8
:10240000892B09F0E1C5B701C70140960E94D21E91
:102410000E943B05F70160A371A382A393A305A3C8
:1024200004A3E2A4F3A4DDCF1A3209F444CF1C3292
:1024300009F0BFC18091F70681278093F7063BCF53
:102440002156263018F4875591094DCFC0974BCFB0
:102450009156963018F42755310954CF205331093D
:1024600051CF83EA96E00E94BB0580910B07882339
:1024700021F187E0E3E8F6E0A5E7B6E001900D92F0
:102480008A95E1F787E0EAE8F6E0ACE7B6E001908C
:102490000D928A95E1F70E943B0560939106709337
:1024A000920680939306909394060093740600938B
:1024B00073068DEC96E00E94A4058091E50690914C
:1024C000E606A091E706B091E8068093E1069093B6
:1024D000E206A093E306B093E4060E943B056093F6
:1024E000DD067093DE068093DF069093E00600938E
:1024F000DC060093DB0689EE96E06DCF809118072D
:1025000090911907A0911A07B0911B070196A11D80
:10251000B11D8093180790931907A0931A07B093E1
:102520001B07D12C51C580910907811144C065E971
:1025300072E089EF96E00E94C91E892B41F06BE999
:1025400072E089EF96E00E94C91E892BF1F4009396
:10255000080780910C0790910D0790930F078093C7
:102560000E07E0900E07F0900F07E114F104C9F296
:1025700069EF76E0F70186A197A10E94C91E97FF37
:102580001CC5F70182A593A5E8CF61EA72E089EF47
:1025900096E00E94C91E892B41F067EA72E089EF3C
:1025A00096E00E94C91E892B19F410920807D1CF1A
:1025B00030920807CECFE0910807E23009F44AC014
:1025C0009091F906992309F445C020E2E29FF001B9
:1025D0001124E82B3197E932F10508F03BC0882738
:1025E000EB50FD4E8F4F0C94AA1C1E135F13661305
:1025F0006D1370139E13A513B213BF132A132A135E
:102600002A132A132A132A132A132A132A132A13E2
:102610002A132A132A132A132A132A132A132A13D2
:102620002A132A132A132A132A131E1359135F136A
:1026300066136D13701377138413911389EF96E06B
:102640000E94B00A6093A9067093AA068093AB0615
:102650009093AC06E0900E07F0900F07D09009071A
:10266000E114F10409F45DCFE0910E07F0910F073A
:1026700066A177A1F70186A197A10E94C91E892BA7
:1026800009F04FCFF70120A531A58D2D90E08217DD
:1026900093070CF446CF2817390739F440E150E08E
:1026A00069EF76E0C7010E94D91EF701E2A4F3A406
:1026B000D5CF81E0913409F445C080E043C063E8A0
:1026C00076E089EF96E00E94290AC4CF81E0933535
:1026D00009F080E080938906BDCF6AE876E0F1CF0B
:1026E00081E0973509F080E080939006B3CF89EFC1
:1026F00096E00E94B00A6093BB067093BC0680937C
:10270000BD069093BE06A6CF89EF96E00E94B00A60
:102710006093C9067093CA068093CB069093CC064B
:1027200099CF89EF96E00E94D71960939B0670932A
:102730009C0680939D0690939E068CCF81E09133FA
:102740000CF4BBCF80930B0785CF89EF96E00E94F6
:10275000D7196093E5067093E6068093E706909399
:10276000E80678CF89EF96E00E94B00A6093F306FE
:102770007093F4068093F5069093F6066BCF89EF7D
:1027800096E00E94B00A6093D7067093D8068093B3
:10279000D9069093DA065ECF10920A0710920907C5
:1027A0001092F706309208071092F80610920B0765
:1027B0001AC4EE3040F481E08E0F80930A07F0E0F7
:1027C000E750F94F10838091F80681110CC4809175
:1027D000F70618271093F70606C48091730688231E
:1027E00009F42AC18CE693E00E945A030E943C023D
:1027F0000E94120A8EE593E00E945A03109274061A
:1028000060917E0670917F0680918006909181068E
:102810000E94201A28E23BE64EE65EE40E94C61BB8
:102820006B017C0160917C0670917D0690E080E0F8
:102830000E94201A9B01AC01C701B6010E945A1BDD
:1028400020918206211190580E94120A8BE393E096
:102850000E945A038091B106882309F4F2C01092B5
:10286000B2066091B7067091B8068091B906909152
:10287000BA060E94221A26E53EE04DEE5FE30E9472
:10288000811A20E030E048EC52E40E94C61BAB0104
:10289000BC0122E084EC95E00E94240985E393E0EA
:1028A0000E94B50886E193E00E945A038091950644
:1028B000882309F4C9C08091A306882309F4C4C001
:1028C00010929606609197067091980680919906ED
:1028D00090919A06A50194010E94881C6053784F3C
:1028E000AB0170E060E02AE084EC95E00E94C5084E
:1028F00084E193E00E945A03109296066091970635
:10290000709198068091990690919A06A50194017C
:102910000E94881CCA01B901A50194010E94881C6B
:10292000AB01BC012AE084EC95E00E94C50882E17D
:1029300093E00E945A031092960660919706709158
:1029400098068091990690919A06A30192010E949F
:10295000881CBA01A9015527662777272AE084EC4D
:1029600095E00E94C50880E193E00E945A0310920E
:10297000A4066091A5067091A6068091A706909185
:10298000A80620E432E44FE050E00E94881CBA011F
:10299000A9015527662777272AE084EC95E00E9455
:1029A000C5088EE093E00E945A031092A40660913D
:1029B000A5067091A6068091A7069091A806A3018E
:1029C00092010E94881CCA01B901A50194010E94CC
:1029D000881CAB01BC012AE084EC95E00E94C5088C
:1029E0008CE093E00E945A031092A4066091A50621
:1029F0007091A6068091A7069091A806A501940162
:102A00000E94881CCA01B901A50194010E94881C7A
:102A1000AB01BC012AE084EC95E00E94C5086BE59F
:102A200072E084EC95E00E94A6086BE572E084EC0D
:102A300095E00E94A608D7C285E493E00E94B508FD
:102A400005CF88E293E02CCF8FEF92E00E94B5088B
:102A5000ECCF6BEB73E0C8010E94C91E892B09F013
:102A6000C8C00E94950860E080E00E9463086DEB9A
:102A700073E085E997E00E94270A61E080E00E9408
:102A800063086EEC73E085E997E00E94270A0E94D4
:102A90003C02AB01BC0122E085E997E00E942409D9
:102AA00062E080E00E9463086AED73E085E997E0E8
:102AB0000E94270A86E30E94C704BC01990F880B75
:102AC000990B0E94221A20E030E040E85AE30E946D
:102AD000811A20E030E04AEF53E40E94811A0E94FC
:102AE000381C6B01770FEE08FF082AE0B701A6013A
:102AF000F7FE0EC041E06DE285E997E00E944C08C8
:102B000044275527BA014C195D096E097F092AE04F
:102B100085E997E00E94C508C701B6010E94221A04
:102B20006B017C018090230590902405A0902505E1
:102B3000B0902605A50194010E946E1CA501940188
:102B400087FD29C0C701B6010E94591B0E94381C8D
:102B5000072E000C880B990B0E94221A29E23CE5F3
:102B60004FE05EE30E94C61B0E94381C8091240740
:102B7000909125070E94E307C0922305D092240577
:102B8000E0922505F092260564EF71E080E090E088
:102B90000E940905B5C2C701B6010E941B1A87FF32
:102BA0001DC0A7019601C501B4010E94591B0E94D6
:102BB000381C072E000C880B990B0E94221A29E260
:102BC0003CE54FE05EE30E94C61B0E94381C8091EA
:102BD0002407909125070E94A807CECF63E080E0EC
:102BE0000E94630867EE73E085E997E00E94270A78
:102BF000CBCF6EEE73E0C8010E94C91E892B09F08D
:102C0000B8C10E94950860E080E00E94630861EF0F
:102C100073E085E997E00E94270A61E080E00E9466
:102C2000630862E074E085E997E00E94270AA090BB
:102C30002007B0902107CE0101960E942B0B21E0C6
:102C4000209392070E943B05009182071091830711
:102C50002091840730918507AB01BC01401B510BCB
:102C6000620B730B80918E0790918F07B0E0A0E00C
:102C700084179507A607B70710F710E080918C0717
:102C8000181760F4E0918807F0918907E10FF11DB2
:102C900062E080810E9487041F5FF0CF312C809119
:102CA0008D07381608F061C0E32CF12CE0918A07FB
:102CB000F0918B07EE0DFF1D61E080810E9487047B
:102CC000E0918A07F0918B07EE0DFF1D60E0808197
:102CD0000E945504D301C201032C04C0880F991F20
:102CE000AA1FBB1F0A94D2F74C016C01C094D09468
:102CF000212C80918C07281608F5022D10E0E09118
:102D00008807F0918907E00FF11F80810E94290454
:102D10000C5F1F4F000F111FF801EA5DF84F892B60
:102D200041F480819181882999299183808323941A
:102D3000E0CF808191818C219D21F7CFE0918A079E
:102D4000F0918B07EE0DFF1D61E080810E9455041C
:102D500080918A0790918B07E80EF91E60E0F701D9
:102D600080810E94870433949ACF06E217E0F8012D
:102D7000878D90A1892B31F4148E8FEF9FEF968F62
:102D8000858F11A2369697E0E236F90789F7D12CA4
:102D900080918C07D81608F053C0C12CED2CF12C73
:102DA000EE0CFF1CF701E25DF84F7F0120918D07CB
:102DB000C21608F043C0F701608171810C2C02C07B
:102DC000769567950A94E2F7D29E900111242C0D16
:102DD000311DE6E2F7E080E0458D568D241735077A
:102DE00009F4BCC28F5F36968A30B1F760FF24C009
:102DF000E6E2F7E090E080E0448D411118C0E091F8
:102E00008607F0918707E20FF31F408156E0589F35
:102E1000F001599FF00D1124EA5DF84F448F368F71
:102E2000258F10A2178E61E00E94470505C001960C
:102E300036968A30910501F7C394B8CFD394A8CFC2
:102E4000F12CF80181A18111F82E0A5F1F4FF7E0E4
:102E500002361F07B1F70E943B056093820770930B
:102E600083078093840790938507FF2009F4E7CEBA
:102E700080914707882309F4E2CE8091450790911D
:102E80004607019709F0DBCEF0904207FF2009F4D6
:102E9000D6CE4D815E8123E2F21230C069817A8103
:102EA00084EC95E00E946D026BE572E084EC95E0A5
:102EB0000E94A608E980FA80C7010E94B9198C0116
:102EC000E114F10419F0C7010E94561DB801110F59
:102ED000880B990B0E94221A29E23CE54FE05EE341
:102EE0000E94C61B0E94381CC5010E94E30761E0D6
:102EF00080E00E9463086AE074E076CEFF82188664
:102F00008A010F5F1F4FB801CE0101960E94030B8B
:102F1000882369F029813A818D819E81BE01695F94
:102F20007F4F820F931F0E94D21E1E830D835AE291
:102F3000F51212C061E087E00E94630866E174E068
:102F400085E997E00E94270ACE0101960E94540B62
:102F500061E087E00E94630861E087E00E94630807
:102F60004D815E8169817A8185E997E00E946D02D9
:102F700066CE0E94950860E080E00E94630867E2E8
:102F800074E085E997E00E94270A61E080E00E94F2
:102F900063086AE374E085E997E00E94270A62E02B
:102FA00080E00E9463086CE474E085E997E00E9489
:102FB000270ACFC10E949503A3C0892B09F4B1CA87
:102FC00010920F0710920E07809109078F5F809370
:102FD000090710920A0781E01A3209F080E0809315
:102FE000F806D110FACB0E943B0569387341810580
:102FF000910580F08091100790911107A091120720
:10300000B09113070A97A105B10520F48CED92E069
:103010000E94B5080E943C0220E030E0A9010E9415
:103020001B1A882309F41AC960E080E00E94630833
:103030006DEA72E085E997E00E94270A81EC92E050
:103040000E94110961E080E00E9463086AEE72E06C
:1030500085E997E00E94270A0E943C02AB01BC016F
:1030600022E085E997E00E94240963E274E085E9A3
:1030700097E00E94270A62E080E00E94630867EF01
:1030800072E085E997E00E94270A10927406609129
:103090007E0670917F0680918006909181060E9445
:1030A000201A28E23BE64EE65EE40E94C61B6B0156
:1030B0007C0160917C0670917D0690E080E00E942A
:1030C000201A9B01AC01C701B6010E945A1BAB013B
:1030D000BC01809182068111705822E085E997E059
:1030E0000E94240962E080E00E94630865E073E0CA
:1030F00085E997E00E94270A412C512C3201439424
:1031000084EC95E00E94CB02181619060CF052CF01
:1031100084EC95E00E94A90289831A8200917106CD
:10312000109172060F5F1F4FB8018DE696E00E9466
:10313000030B882399F020916D0630916E068091E3
:10314000710690917206BE016F5F7F4F820F931FD1
:103150000E94D21E10937206009371066AE070E01E
:1031600080E090E00E9409058091710690917206BE
:10317000892B09F409CD00916D0610916E066AE164
:1031800073E0C8010E94C91E892B09F062CC0E941D
:10319000950860E080E00E9463086CE173E085E9D7
:1031A00097E00E94270A63E080E00E9463086DE2D6
:1031B00073E085E997E00E94270A62E080E00E94C0
:1031C000630869E373E085E997E00E94270A86E3D4
:1031D0000E94C704BC01990F880B990B0E94221A08
:1031E00020E030E040E85AE30E94811A20E030E01D
:1031F0004AEF53E40E94811AAB01BC0140932305BE
:1032000050932405609325057093260522E085E9F7
:1032100097E00E94240961E080E00E94630868E46E
:1032200073E085E997E00E94270A0E943C02AB0107
:10323000BC0122E085E997E00E94240929E23CE5EF
:103240004FE05EE360912305709124058091250590
:10325000909126050E94C61B0E94381C809124076D
:10326000909125070E94E307009122071091230700
:103270000E943C0229E23CE54FE05EE30E94C61B4F
:103280000E94381CC8010E94E3070091200710919A
:10329000210761E070E0C8010E94E30761E070E08F
:1032A000C8010E94A80763E080E00E94630862E50D
:1032B00073E085E997E00E94270A62E080E00E94BF
:1032C000630862E673E085E997E00E94270A40916F
:1032D000230550912405609125057091260522E073
:1032E00085E997E00E94240961E080E00E9463087C
:1032F00068E473E085E997E00E94270A0E943C0297
:10330000AB01BC0122E085E997E00E94240962E755
:1033100073E084EC95E00E94270A60912305709188
:10332000240580912505909126050E94120A6AEED7
:1033300072E084EC95E00E94270A0E943C020E9401
:10334000120A80E893E00E9411098CE592E00E9445
:1033500011098DE696E00E94540B16CC617064CD85
:1033600080916D0690916E06009711F00C94561D99
:103370000895FC0188279927E89421912032E9F3E8
:10338000293010F02E30C8F32B3241F02D3239F4B1
:10339000689404C00E94131A820F911D219120533A
:1033A0002A30C0F31EF4909581959F4F08951F9386
:1033B000FC0199278827BC01E89411911032E9F3A8
:1033C000193010F01E30C8F31B3251F01D3249F491
:1033D000689406C00E94FE19610F711D811D911D28
:1033E000119110531A30B0F33EF49095809570957A
:1033F00061957F4F8F4F9F4F1F910895592F482FF1
:10340000372F262F660F771F881F991F660F771F8C
:10341000881F991F620F731F841F951F660F771FE8
:10342000881F991F08957AE0979F902D879F802D80
:10343000910D112408950E945D1A08F481E0089509
:10344000E89409C097FB3EF490958095709561953E
:103450007F4F8F4F9F4F9923A9F0F92F96E9BB27F4
:103460009395F695879577956795B795F111F8CF70
:10347000FAF4BB0F11F460FF1BC06F5F7F4F8F4FDB
:103480009F4F16C0882311F096E911C0772321F0D1
:103490009EE8872F762F05C0662371F096E8862F69
:1034A00070E060E02AF09A95660F771F881FDAF7C0
:1034B000880F9695879597F90895990F0008550FED
:1034C000AA0BE0E8FEEF16161706E807F907C0F0AA
:1034D00012161306E407F50798F0621B730B840BB2
:1034E000950B39F40A2661F0232B242B252B21F48C
:1034F00008950A2609F4A140A6958FEF811D811D2C
:1035000008950E94941A0C94051B0E94F71A38F033
:103510000E94FE1A20F0952311F00C94EE1A0C94E0
:10352000F41A11240C94391B0E94161B70F3959FFA
:10353000C1F3950F50E0551F629FF001729FBB27AA
:10354000F00DB11D639FAA27F00DB11DAA1F649F46
:103550006627B00DA11D661F829F2227B00DA11DF9
:10356000621F739FB00DA11D621F839FA00D611D7F
:10357000221F749F3327A00D611D231F849F600DA0
:10358000211D822F762F6A2F11249F5750409AF0C9
:10359000F1F088234AF0EE0FFF1FBB1F661F771F55
:1035A000881F91505040A9F79E3F510580F00C9420
:1035B000EE1A0C94391B5F3FE4F3983ED4F38695E2
:1035C00077956795B795F795E7959F5FC1F7FE2BC0
:1035D000880F911D9695879597F9089597F99F679C
:1035E00080E870E060E008959FEF80EC089500248B
:1035F0000A941616170618060906089500240A9458
:1036000012161306140605060895092E0394000CDD
:1036100011F4882352F0BB0F40F4BF2B11F460FF6C
:1036200004C06F5F7F4F8F4F9F4F089557FD905895
:10363000440F551F59F05F3F71F04795880F97FB76
:10364000991F61F09F3F79F0879508951216130630
:103650001406551FF2CF4695F1DF08C0161617065F
:103660001806991FF1CF8695710561050894089594
:10367000E894BB2766277727CB0197F908950E9426
:103680004A1BA59F900DB49F900DA49F800D911D86
:1036900011240895A29FB001B39FC001A39F700D94
:1036A000811D1124911DB29F700D811D1124911D4A
:1036B00008955058BB27AA270E94711B0C94051B24
:1036C0000E94F71A38F00E94FE1A20F039F49F3F4A
:1036D00019F426F40C94F41A0EF4E095E7FB0C941C
:1036E000EE1AE92F0E94161B58F3BA1762077307E8
:1036F0008407950720F079F4A6F50C94381B0EF496
:10370000E0950B2EBA2FA02D0B01B90190010C01F1
:10371000CA01A0011124FF27591B99F0593F50F409
:10372000503E68F11A16F040A22F232F342F442761
:10373000585FF3CF469537952795A795F040539559
:10374000C9F77EF41F16BA0B620B730B840BBAF029
:103750009150A1F0FF0FBB1F661F771F881FC2F794
:103760000EC0BA0F621F731F841F48F487957795A8
:103770006795B795F7959E3F08F0B0CF9395880F62
:1037800008F09927EE0F9795879508950E94DA1B08
:103790000C94051B0E94FE1A58F00E94F71A40F084
:1037A00029F45F3F29F00C94EE1A51110C94391B47
:1037B0000C94F41A0E94161B68F39923B1F3552355
:1037C00091F3951B550BBB27AA2762177307840734
:1037D00038F09F5F5F4F220F331F441FAA1FA9F3CA
:1037E00035D00E2E3AF0E0E832D091505040E695B8
:1037F000001CCAF72BD0FE2F29D0660F771F881F19
:10380000BB1F261737074807AB07B0E809F0BB0B0B
:10381000802DBF01FF2793585F4F3AF09E3F51051F
:1038200078F00C94EE1A0C94391B5F3FE4F3983E49
:10383000D4F3869577956795B795F7959F5FC9F708
:10384000880F911D9695879597F90895E1E0660F89
:10385000771F881FBB1F621773078407BA0720F002
:10386000621B730B840BBA0BEE1F88F7E09508956B
:103870000E943F1C6894B1110C94391B08950E945A
:103880001E1B88F09F5798F0B92F9927B751B0F0B9
:10389000E1F0660F771F881F991F1AF0BA95C9F7D4
:1038A00014C0B13091F00E94381BB1E008950C941F
:1038B000381B672F782F8827B85F39F0B93FCCF3D2
:1038C000869577956795B395D9F73EF49095809551
:1038D000709561957F4F8F4F9F4F08950E945D1A9D
:1038E00008F48FEF08950E945D1A880B990B0895D4
:1038F000DB018F939F930E943F1BBF91AF91A29FCB
:10390000800D911DA39F900DB29F900D11240895DD
:10391000A1E21A2EAA1BBB1BFD010DC0AA1FBB1FD3
:10392000EE1FFF1FA217B307E407F50720F0A21B45
:10393000B30BE40BF50B661F771F881F991F1A94B2
:1039400069F760957095809590959B01AC01BD01DC
:10395000CF010895EE0FFF1F881F8BBF0790F691D0
:10396000E02D1994B7FF0C943F1B0E943F1B821B54
:10397000930B08950F931F93CF93DF93823091059C
:1039800010F482E090E0E091A307F091A40730E00A
:1039900020E0B0E0A0E0309799F42115310509F45A
:1039A0004AC0281B390B24303105D8F58A819B8108
:1039B0006115710589F1FB0193838283FE0111C0BA
:1039C000408151810281138148175907E0F048175F
:1039D000590799F4109761F012960C931297139669
:1039E0001C933296CF01DF91CF911F910F910895D3
:1039F0000093A3071093A407F4CF2115310551F0CC
:103A00004217530738F0A901DB019A01BD01DF011C
:103A1000F801C1CFEF01F9CF9093A4078093A307DA
:103A2000CDCFFE01E20FF31F819391932250310914
:103A300039832883D7CF2091A1073091A207232B68
:103A400041F420911502309116023093A207209381
:103A5000A10720911302309114022115310541F480
:103A60002DB73EB74091170250911802241B350B19
:103A7000E091A107F091A207E217F307A0F42E1B33
:103A80003F0B2817390778F0AC014E5F5F4F2417C2
:103A9000350748F04E0F5F1F5093A2074093A107D0
:103AA000819391939FCFF0E0E0E09CCFCF93DF93A1
:103AB0000097E9F0FC01329713821282A091A307CC
:103AC000B091A407ED0130E020E01097A1F420812F
:103AD0003181820F931F2091A1073091A2072817EF
:103AE000390709F061C0F093A207E093A107DF91C5
:103AF000CF910895EA01CE17DF07E8F54A815B818F
:103B00009E0141155105B1F7E901FB83EA83499113
:103B10005991C40FD51FEC17FD0761F48081918185
:103B20000296840F951FE90199838883828193818E
:103B30009B838A83F0E0E0E012968D919C9113972D
:103B40000097B9F52D913C911197CD010296820F06
:103B5000931F2091A1073091A2072817390739F642
:103B6000309751F51092A4071092A307B093A207C3
:103B7000A093A107BCCFD383C28340815181840F1E
:103B8000951FC817D90761F44E5F5F4F88819981EF
:103B9000480F591F518340838A819B81938382837D
:103BA0002115310509F0B0CFF093A407E093A307E6
:103BB0009ECFFD01DC01C0CF13821282D7CF4F927E
:103BC0005F926F927F928F929F92AF92BF92CF92AD
:103BD000DF92EF92FF920F931F93CF93DF938C01AD
:103BE000009799F4CB01DF91CF911F910F91FF9036
:103BF000EF90DF90CF90BF90AF909F908F907F908D
:103C00006F905F904F900C94BA1CFC01E60FF71F69
:103C10009C0122503109E217F30708F4AEC0D90124
:103C2000CD91DC911197C617D70720F1C530D1058A
:103C300078F0CE0104978617970750F0C61BD70B74
:103C40002297C193D1936D937C93CF010E94561D0F
:103C5000C801DF91CF911F910F91FF90EF90DF90FE
:103C6000CF90BF90AF909F908F907F906F905F901C
:103C70004F9008955B01AC1ABD0A4C018C0E9D1E3D
:103C8000A091A307B091A407512C412CF12CE12C59
:103C9000109731F58091A1079091A2078815990599
:103CA00009F05CC04616570608F058C08091130210
:103CB00090911402009741F48DB79EB7409117027E
:103CC00050911802841B950BE817F90708F055C0AE
:103CD000F093A207E093A107F90171836083B8CF45
:103CE0008D919C91119712966C90129713967C90DF
:103CF0001397A815B90559F56C0142E0C40ED11C03
:103D0000CA14DB0420F1AC014A195B09DA011296EE
:103D1000159780F06282738251834083D9016D933D
:103D20007C93E114F10471F0D7011396FC93EE93A8
:103D300012978ECF22968C0F9D1FF901918380835D
:103D4000F301EFCFF093A407E093A30781CF4816C8
:103D5000590608F42C017D01D3019ACFCB010E94B2
:103D6000BA1C7C01009749F0AE01B8010E94C01E48
:103D7000C8010E94561D87016BCF10E000E068CF9C
:103D8000FB01DC0102C001900D9241505040D8F778
:103D90000895FB01DC018D91019080190110D9F388
:103DA000990B0895FB01DC0101900D920020E1F7D1
:103DB0000895FB01DC014150504048F001900D9204
:103DC0000020C9F701C01D9241505040E0F708950E
:103DD00011E0CEEBD1E000E006C0802FFE010E9492
:103DE000AA1C2196011DCF3BD10780E00807A9F747
:043DF000F894FFCF75
:103DF4001A1B1C1918171631323334353637383933
:103E04002A30230000A5078000000040001400545D
:103E140000000000000D036D029A027503CB02A995
:103E240002BD02000000008F066206A50738065B8B
:103E3400064806390600000000C304830452040047
:103E4400000000A0086D02A507A3050D0A006E611D
:103E54006E00696E66006F76660057656C636F6D01
:103E640065212121004750532069732061637469DF
:103E7400766174696E672E2E2E0057616974696EBF
:103E8400672E2E2E004750524D4300474E524D434D
:103E940000475047474100474E474741004750536A
:103EA400206D6F64756C6520697320726561647937
:103EB4000054686520475053206D6F64756C65200D
:103EC40069732061637469766174656420737563D2
:103ED4006365737366756C6C79002D206C6174690D
:103EE400747564653A20002D206C6F6E6769747573
:103EF40064653A200057616974696E6720666F7261
:103F040020636F6D6D616E647300630053656C664E
:103F14002054657374202620496E6974004D6F74B3
:103F24006F7220636865636B005465737420474D3A
:103F34002D53656E736F720054657374204750532C
:103F440020004D6F746F7220636865636B20204F8F
:103F54004B005465737420474D2D53656E736F7217
:103F640020002D20474D2D53656E736F723A20004B
:103F74005468652070726F63657373206F66207375
:103F8400656C662D5465737420616E6420696E6976
:103F94007469616C697A6174696F6E2068617320F9
:103FA40066696E69736865642120006D0053656CF1
:103FB400662D6164617074696F6E2E2E2E00656CBF
:103FC40065766174696F6E3A20006465666C65633A
:103FD40074696F6E3A20002E2E2E2E2E2E006D72D6
:103FE40000547261636B696E6720537461722E2E84
:103FF4002E00696E7075743A200046696E697368A4
:104004006564212121002020202020202020202040
:10401400202020202020002D63203A53656C662048
:104024005465737426496E6974002D6D203A536586
:104034006C662D6164617074696F6E002D72203A34
:0E404400547261636B696E6720537461720081
:00000001FF
