:020000040000FA
:100000000C94B9010C94EA010C94EA010C94EA01F5
:100010000C94EA010C94EA010C94EA010C94EA01B4
:100020000C94EA010C94950C0C94950C0C94950C82
:100030000C94EA010C94EA010C94EA010C94EA0194
:100040000C94EA010C94EA010C94EA010C94EA0184
:100050000C94EA010C94EA010C94EA010C94270B2D
:100060000C94EA010C94F10A0C94C70A0C94EA016E
:100070000C94EA010C94EA010C94EA010C94EA0154
:100080000C94EA010C94EA010C94EA010C94EA0144
:100090000C94910A0C94670A0C94EA010C94710B6D
:1000A0000C94EA010C94EA010C94EA010C94EA0124
:1000B0000C94EA010C94EA010C94EA010C94EA0114
:1000C0000C94EA010C94EA010C94EA010C94EA0104
:1000D0000C94EA010C94EA010C94EA010C94EA01F4
:1000E0000C94EA010C9448050C94C5110C94280456
:1000F0000C9441050C9432040C94B9110C941E0517
:100100000C9475050C941E040C948B060C943C0402
:100110000C9444040C940B120C9417040C9473026A
:100120000C941F050C940F040C94FA110C94AF025C
:100130000C9440150C947B030C9436040C94081218
:100140000C94F8030C944D120C944E040C942E0550
:100150000C9472020C94A0020C9439120C9471024B
:100160000C942C120C94FD030C941B040C9412128E
:100170000C949F0C0C9401120C942E040C94C3024A
:100180000C9413030C941F120C94B7040C94D1021A
:100190000C9440120C9424040C945A120C94AE0744
:1001A0000C9440040C9413040C94F4110C944A0421
:1001B00000002100240027002A002D003000330019
:1001C00001010000040107010A01000022002500CE
:1001D00028002B002E003100340002010000050130
:1001E00008010B01050505050705080808080202B6
:1001F00002020A0A080804040404010101010101C1
:1002000001010303030303030303040707070C0CA3
:100210000C0C0C0C0C0C020202020606060606066A
:1002200006060B0B0B0B0B0B0B0B0102102020080F
:100230000810204010204080020102010804020141
:1002400001020408102040808040201008040201B0
:100250008004020180402010080402010804020109
:100260000102040810204080010204081020408090
:1002700000000A0B02090C0D0E0807030401000020
:10028000000000000000000000000000000000006E
:10029000000000000000000000000000121110002B
:1002A000000000000000000000000000000000004E
:1002B0000000000000004E6F20475053206461741E
:1002C000612072656365697665643A206368656379
:1002D0006B20776972696E67004D6561737572692D
:1002E0006E672E2E2E003A003A0020002D002D00C1
:1002F0002D2047505320646174652674696D653AFA
:1003000020004D6561737572696E672E2E2E002078
:100310006B6D2F68002D2073706565643A20002D89
:10032000206C6F636174696F6E3A204D65617375FF
:1003300072696E672E2E2E004D6561737572696E3F
:10034000672E2E2E002D20616C7469747564653AD9
:1003500020002D206C6F6E6769747564653A20000B
:100360002D206C617469747564653A2000009F0CDF
:10037000401511241FBECFEFD1E2DEBFCDBF00E09C
:100380000CBF25E0A0E1B3E001C01D92A43EB2077E
:10039000E1F713E0A0E0B2E0EAEBF4E300E00BBF2A
:1003A00002C007900D92A031B107D9F711E0C8EB58
:1003B000D1E000E006C021970109802FFE010E94D4
:1003C0000D18C73BD10780E00807A9F70E94890EE6
:1003D0000C944B1A0C940000FC01A089B18982E0B6
:1003E0008C93A485B5851C92A685B7858FEC8C93DC
:1003F000108EA489B58986E08C93A289B3898C91EB
:1004000080618C93A289B3898C9188608C93A28936
:10041000B3898C9180688C930288F389E02D808168
:100420008F7D80830895CF92DF92EF92FF9210929A
:100430001C056091260570912705809128059091F3
:1004400029050E948A1528E23BE64EE65EE40E94FA
:1004500030176B017C01609124057091250590E0B7
:1004600080E00E948A159B01AC01C701B6010E9481
:10047000C41620912A0521119058FF90EF90DF902B
:10048000CF900895CF92DF92EF92FF9210921C05C9
:1004900060911F05709120058091210590912205A2
:1004A0000E948A1528E23BE64EE65EE40E94301781
:1004B0006B017C0160911D0570911E0590E080E04C
:1004C0000E948A159B01AC01C701B6010E94C416A7
:1004D0002091230521119058FF90EF90DF90CF904D
:1004E000089508950895AF92BF92CF92DF92EF9250
:1004F000FF920F931F93CF93DF936C017B018B01CE
:10050000040F151FEB015E01AE18BF08C017D1071D
:1005100059F06991D601ED91FC910190F081E02DA7
:10052000C6011995892B79F7C501DF91CF911F91EC
:100530000F91FF90EF90DF90CF90BF90AF90089514
:10054000FC01538D448D252F30E0842F90E0821BD9
:10055000930B541710F0CF96089501970895FC015E
:10056000918D828D981761F0A28DAE0FBF2FB11DB6
:100570005D968C91928D9F5F9F73928F90E008950E
:100580008FEF9FEF0895FC01918D828D981731F0C8
:10059000828DE80FF11D858D90E008958FEF9FEF1C
:1005A0000895FC01918D228D892F90E0805C9F4FF2
:1005B000821B91098F739927089585ED93E00E941E
:1005C000D10221E0892B09F420E0822F089582E7EF
:1005D00094E00E94D10221E0892B09F420E0822FCF
:1005E0000895FC01A48DA80FB92FB11DA35ABF4FC8
:1005F0002C91848D90E001968F739927848FA68922
:10060000B7892C93A089B1898C91837080648C9375
:10061000938D848D981306C00288F389E02D808124
:100620008F7D80830895EF92FF920F931F93CF9356
:10063000DF93EC0181E0888F9B8D8C8D98131AC01D
:10064000E889F989808185FF15C09FB7F894EE8904
:10065000FF896083E889F989808183708064808361
:100660009FBF81E090E0DF91CF911F910F91FF90AC
:10067000EF900895F62E0B8D10E00F5F1F4F0F7354
:100680001127E02E8C8D8E110CC00FB607FCFACF0F
:10069000E889F989808185FFF5CFCE010E94F102BA
:1006A000F1CFEB8DEC0FFD2FF11DE35AFF4FF082E0
:1006B0009FB7F8940B8FEA89FB8980818062CFCF46
:1006C0000F931F93CF93DF938C01D0E0C0E0F8012C
:1006D000EC0FFD1F6491662341F082E794E00E94D5
:1006E0001303892B11F02196F2CFCE01DF91CF9128
:1006F0001F910F910895CF93DF93EC01888D88238C
:10070000B9F0AA89BB89E889F9898C9185FD03C074
:10071000808186FD0DC00FB607FCF7CF8C9185FF59
:10072000F2CF808185FFEDCFCE010E94F102E9CFAB
:10073000DF91CF91089580E090E0892B29F00E940D
:10074000E70281110E94000080E090E0892B29F0EF
:100750000E94DD0281110E94000080E090E0892B60
:1007600049F080E090E0892B29F00E94000081117F
:100770000E94000080E090E0892B49F080E090E04A
:10078000892B29F00E94000081110C94000008952B
:10079000282F30E0F901E059FD4F9491F901E65D11
:1007A000FD4F44912C513E4FF9012491222309F42D
:1007B00035C0992311F191509231F8F4E92FF0E00E
:1007C0008827EA51FC4F8F4F0C940D1817041B0417
:1007D000F8030F041304FD031E04240428042E044C
:1007E000320436043C044004FD0344044A044E042D
:1007F000809180008F7780938000E22FF0E0EE0FF1
:10080000FF1FE653FE4FA591B4918FB7F894EC917A
:10081000611148C040954E234C938FBF089580913D
:1008200080008F7DE8CF80918000877FE4CF84B502
:100830008F7784BDE2CF84B58F7DFBCF8091B000F0
:100840008F778093B000D9CF8091B0008F7DF9CFA2
:10085000809190008F7780939000CFCF809190000F
:100860008F7DF9CF80919000877FF5CF8091A00098
:100870008F778093A000C1CF8091A0008F7DF9CFAA
:100880008091A000877FF5CF809120018F778093A2
:100890002001B3CF809120018F7DF9CF809120017D
:1008A000877FF5CF4E2BB8CF3FB7F8948091C9031F
:1008B0009091CA03A091CB03B091CC0326B5A89B1D
:1008C00005C02F3F19F00196A11DB11D3FBFBA2FE2
:1008D000A92F982F8827BC01CD01620F711D811DA2
:1008E000911D42E0660F771F881F991F4A95D1F727
:1008F00008958F929F92AF92BF92CF92DF92EF9224
:10090000FF924B015C010E9454046B017C010E9428
:1009100054046C197D098E099F09683E7340810556
:100920009105A8F321E0821A9108A108B10888EE88
:10093000C80E83E0D81EE11CF11C81149104A104AF
:10094000B10429F7FF90EF90DF90CF90BF90AF9068
:100950009F908F9008952FB7F8946091C503709180
:10096000C6038091C7039091C8032FBF08950895CF
:1009700020915303260F3327331F21323105ECF426
:1009800020919C03FC0190E080E0243069F082E03B
:100990000895A09153032191AC014D5C5C4FA40FCD
:1009A000B52FB11D2C930196861798F380915303B0
:1009B000680F6093530380E0089581E008951092DA
:1009C0009C0381E080939B031092760361E084E1B5
:1009D0000E94C80361E085E10E94C803E9EBF0E0F2
:1009E00080818E7F808380818D7F808388E4809367
:1009F000B80085E48093BC000895CF93DF9391E025
:100A0000909332038823B9F0C091B800D091BA0016
:100A10008091BC008A7B8093BC0060E084E10E94EE
:100A2000C80360E085E10E94C8030E94DF04D09300
:100A3000BA00C093B800DF91CF9108950895E09176
:100A4000D4038091D303E81730F4F0E0EE5EFC4F5E
:100A5000808190E008958FEF9FEF08959091D403E7
:100A60008091D3032FEF3FEF981748F4E92FF0E080
:100A7000EE5EFC4F208130E09F5F9093D403C9016C
:100A800008958091D3039091D403891B990B089505
:100A9000CF92DF92EF92FF920F931F93CF93DF934A
:100AA0007C01CB018A012091A203222389F0EB0172
:100AB0006B01C40ED51ECC15DD0569F06991D70117
:100AC000ED91FC910190F081E02DC7011995F3CFD4
:100AD000642F0E94B804C801DF91CF911F910F913C
:100AE000FF90EF90DF90CF900895CF93DF931F9208
:100AF000CDB7DEB769832091A2032223F9F02091BC
:100B0000D103203258F021E030E0FC01338322830E
:100B100090E080E00F90DF91CF9108958091D20313
:100B2000E82FF0E0ED55FC4F998190838F5F809323
:100B3000D2038093D10381E090E0ECCF61E0CE015D
:100B400001960E94B804F7CFCF92DF92EF92FF9206
:100B50000F931F93CF93DF93FC01C48121E0209377
:100B6000A203C093C3031092D2031092D1038385D2
:100B7000682B8FE095E00E947505D091D103D132AA
:100B800008F092C00E9454046B017C0180919C0388
:100B9000811165C082E080939C0381E080939B0378
:100BA0008FEF80939A0310929903D0939803A3EA4E
:100BB000B3E0E8E7F3E080E0D81385C01092770354
:100BC00080917703CC0FC82BC09377038091760375
:100BD000813009F07CC0109276030E9454046B01AE
:100BE0007C01809177038093BB0080919E0390915C
:100BF0009F03A091A003B091A103892B8A2B8B2B7B
:100C000099F00E94540400919E0310919F0320913B
:100C1000A0033091A1036C197D098E099F09061765
:100C2000170728073907E0F18091BC0083FDD9CF71
:100C300085EC8093BC000E9454046B017C01809180
:100C40009C03823009F445C080919A038F3F61F183
:100C500080919A03803241F180919A0325C080915E
:100C60009E0390919F03A091A003B091A103892BB3
:100C70008A2B8B2B09F48ACF0E94540400919E0387
:100C800010919F032091A0033091A1036C197D095D
:100C90008E099F09061717072807390708F076CF2E
:100CA00080919D030E94FD041092D2031092D10303
:100CB0001092A203DF91CF911F910F91FF90EF90BF
:100CC000DF90CF9008959D9191938F5F75CF85EEC2
:100CD000B0CF80919E0390919F03A091A003B0910B
:100CE000A103892B8A2B8B2B09F4A9CF0E945404D2
:100CF00000919E0310919F032091A0033091A103C6
:100D00006C197D098E099F090617170728073907EF
:100D100008F095CFC5CF90E080E00895CF93DF93A2
:100D2000EC018A859B85AC85BD858E839F83A887D2
:100D3000B9870E94AB046A837B838C839D8381E0A7
:100D400089838883DF91CF910895CF93DF93EC015E
:100D50008E819F81A885B9858A839B83AC83BD835F
:100D60000E94AB046A877B878C879D8781E089839B
:100D70008883DF91CF910895FC0140815181FC016E
:100D8000268137812417350714F19A013327F90199
:100D9000E65DFD4F64912C513E4FF90124912223D1
:100DA00099F030E0220F331FF901E055FE4FA59175
:100DB000B491F901E653FE4F259134912FB7F89481
:100DC000EC91E62BEC932FBF4F5F5F4FD8CF089588
:100DD000CF92DF92EF92FF920F931F93CF93DF9307
:100DE0007C016B0110E000E0F701C681D781F701BB
:100DF00080819181C817D90784F061E08C2F0E940F
:100E0000C80363E070E080E090E00E94790460E055
:100E10008C2F0E94C8032197EACF0F5F1F4FC01687
:100E2000D10611F7DF91CF911F910F91FF90EF90B5
:100E3000DF90CF900895CF92DF92EF92FF920F93C1
:100E40001F93CF93DF937C016B0110E000E0F7016B
:100E5000C081D181F701868197818C179D0784F02D
:100E600061E08C2F0E94C80363E070E080E090E0B6
:100E70000E94790460E08C2F0E94C8032196EACF7B
:100E80000F5F1F4FC016D10611F7DF91CF911F9151
:100E90000F91FF90EF90DF90CF9008950F931F93E5
:100EA000CF938C01C62F0E94A4056C2F6460C801EB
:100EB0000E94A4056C2F6B7FC8010E94A40583ECDF
:100EC00090E00197F1F7CF911F910F9108950F9343
:100ED0001F93CF93DF938C01D62FC42F607F642B99
:100EE0000E944E0780E1D89FB00111246C2BC801ED
:100EF000DF91CF911F910F910C944E07CF93DF9309
:100F000000D000D01F921F92CDB7DEB798E0E6E088
:100F1000F2E0DE01119601900D929A95E1F7909121
:100F2000DC05981710F48FEF890F90E0880F991F58
:100F300021E030E02C0F3D1F820F931FFC016081E8
:100F4000606840E084ED95E028960FB6F894DEBF27
:100F50000FBECDBFDF91CF910C94670741E00E9497
:100F6000670781E090E00895FB0101900020E9F718
:100F70003197AF01461B570BDC01ED91FC910280CC
:100F8000F381E02D1994CF93DF930E946003EC016D
:100F90006EE372E082E794E00E94B4078C0F9D1F1D
:100FA000DF91CF9108958F929F92AF92BF92EF926F
:100FB000FF920F931F93CF93DF93CDB7DEB7A19727
:100FC0000FB6F894DEBF0FBECDBF7C01FA01CB0196
:100FD00019A2223008F42AE08E010F5D1F4F822EE5
:100FE000912CB12CA12CBF01A50194010E94EB17FB
:100FF000F901CA016A300CF5605DD8016E938D016C
:10100000232B242B252B79F790E080E0109721F0FB
:10101000BD01C7010E94B407A1960FB6F894DEBFC8
:101020000FBECDBFDF91CF911F910F91FF90EF9039
:10103000BF90AF909F908F900895695CDECFBC0108
:1010400084ED95E00C94B4072F923F924F925F92FB
:101050006F927F928F929F92AF92BF92CF92DF92C8
:10106000EF92FF921F93CF93DF93EC016A017B0114
:10107000722EAB019601CB01B6010E94D61761E436
:1010800072E0811126C046015701E894B7F82FEFAE
:101090003FEF4FE75FE7C501B4010E94D61781110A
:1010A0000CC02FEF3FEF4FE75FE7C501B4010E948F
:1010B000851565E472E0181664F02FEF3FEF4FE7F7
:1010C0005FE4C701B6010E94D1171816B4F469E4B1
:1010D00072E0CE01DF91CF911F91FF90EF90DF90F2
:1010E000CF90BF90AF909F908F907F906F905F90C8
:1010F0004F903F902F900C94B4072FEF3FEF4FE7A6
:101100005FECC701B6010E94851587FDE0CF20E0A6
:1011100030E0A901C701B6010E948515312C212CB0
:1011200087FF0DC0E881F9810190F081E02D6DE22B
:10113000CE0119951C01F7FAF094F7F8F09410E03D
:1011400060E070E080E09FE3711641F020E030E065
:1011500040E251E40E9430171F5FF6CFA7019601CD
:101160000E94C4162B013C010E94A2174B015C0196
:101170002AE0BC01A401CE010E94D3077C01E20C4D
:10118000F31C1123E1F1C501B4010E948A159B01F2
:10119000AC01C301B2010E94C3164B015C01E8819E
:1011A000F9810190F081E02D6EE2CE011995E80EF3
:1011B000F91E115020F120E030E040E251E4C50179
:1011C000B4010E94EB152B013C010E94A2174B01B8
:1011D000B12CA12C2AE0B501A401CE010E94D307B5
:1011E000E80EF91EC501B4010E948A159B01AC01ED
:1011F000C301B2010E94C3164B015C01DACFC701E3
:10120000DF91CF911F91FF90EF90DF90CF90BF9033
:10121000AF909F908F907F906F905F904F903F9096
:101220002F900895CF93DF93AB01BC0122E082E7BA
:1012300094E00E942408EC016EE372E082E794E0FF
:101240000E94B4078C0F9D1FDF91CF910895CF931B
:10125000DF93EC018091CE059091CF05009759F076
:101260002091D0053091D1052C173D0720F081E069
:10127000DF91CF910895BE016F5F7F4F0E944219A9
:10128000009789F09093CF058093CE05D093D10538
:10129000C093D0052091D2053091D305232B39F787
:1012A000FC011082E4CF80E0E3CF2F923F924F9277
:1012B0005F926F927F928F929F92AF92BF92CF92E6
:1012C000DF92EF92FF920F931F93CF93DF93D82F6C
:1012D000C92F8B010E94491524E630E040E050E020
:1012E0000E94EB1749019B01AC0160E876E988E9AF
:1012F00090E00E94DB176B017C01F80191828082F3
:10130000ED2FFC2F2191822F022E000C990BC097FC
:101310000A97C0F32E3239F51F0180E8882E86E93E
:10132000982E88E9A82EB12C9AE0492E512C612CD8
:10133000712CF101C1911F010C2E000CDD0BE09707
:10134000CA30D10580F4C501B401A30192010E9405
:10135000EB1749015A01DE010E941518C60ED71E6F
:10136000E81EF91EE6CFA5E0B0E0A70196010E94B5
:10137000A9166F5F7F4F8F4F9F4F23E030E040E013
:1013800050E00E94EB17F801228333834483558396
:101390001682DF91CF911F910F91FF90EF90DF9018
:1013A000CF90BF90AF909F908F907F906F905F9005
:1013B0004F903F902F9008951F93CF93DF93EC01B0
:1013C00018811D3209F42196CE010E9449159B0116
:1013D000AC01A4E6B0E00E94A916AB01BC01FE017D
:1013E0002991822F022E000C990BC0970A97B8F30F
:1013F0002E3231F58181082E000C990BC0978A306E
:101400009105F0F4AAE0A89F9001A99F300D112446
:10141000C901330FAA0BBB0B480F591F6A1F7B1F53
:101420008281082E000C990BC0978A30910540F4F8
:10143000092E000CAA0BBB0B480F591F6A1F7B1FFC
:101440001D3239F470956095509541955F4F6F4FFF
:101450007F4FCB01BA01DF91CF911F91089585EDA8
:101460008093BC0080919E0390919F03A091A00364
:10147000B091A1030796A11DB11D23E0B695A795D4
:10148000979587952A95D1F72091BC0024FD03C03C
:1014900010929C03089540919E0350919F03609188
:1014A000A0037091A103452B462B472B69F30097AE
:1014B000A105B10541F02AE22A95F1F700C0019794
:1014C000A109B109E1CF80919D030C94FD041F9205
:1014D0000F920FB60F9211240BB60F922F933F93DA
:1014E0004F935F936F937F938F939F93AF93BF932C
:1014F000EF93FF9385ED93E00E94F102FF91EF914E
:10150000BF91AF919F918F917F916F915F914F911B
:101510003F912F910F900BBE0F900FBE0F901F9019
:1015200018951F920F920FB60F9211240BB60F92BF
:101530002F938F939F93EF93FF93E091E503F091A7
:10154000E6038081E091EB03F091EC0382FD1DC086
:1015500090818091EE038F5F8F732091EF0382174C
:1015600041F0E091EE03F0E0EB52FC4F958F809359
:10157000EE03FF91EF919F918F912F910F900BBEF2
:101580000F900FBE0F901F9018958081F2CF1F9281
:101590000F920FB60F9211240BB60F922F933F9319
:1015A0004F935F936F937F938F939F93AF93BF936B
:1015B000EF93FF9382E794E00E94F102FF91EF9195
:1015C000BF91AF919F918F917F916F915F914F915B
:1015D0003F912F910F900BBE0F900FBE0F901F9059
:1015E00018951F920F920FB60F9211240BB60F92FF
:1015F0002F938F939F93EF93FF93E0918204F09149
:1016000083048081E0918804F091890482FD1DC0EB
:10161000908180918B048F5F8F7320918C0482174F
:1016200041F0E0918B04F0E0EE58FB4F958F8093F2
:101630008B04FF91EF919F918F912F910F900BBE93
:101640000F900FBE0F901F9018958081F2CF1F92C0
:101650000F920FB60F9211242F933F938F939F9366
:10166000AF93BF938091C5039091C603A091C70328
:10167000B091C8033091C40323E0230F2D3758F5F0
:101680000196A11DB11D2093C4038093C5039093BF
:10169000C603A093C703B093C8038091C903909178
:1016A000CA03A091CB03B091CC030196A11DB11D3B
:1016B0008093C9039093CA03A093CB03B093CC0348
:1016C000BF91AF919F918F913F912F910F900FBE3E
:1016D0000F901F90189526E8230F0296A11DB11DAB
:1016E000D2CF1F920F920FB60F9211240BB60F920A
:1016F0002F933F934F935F936F937F938F939F931A
:10170000AF93BF93EF93FF938091B900887F8036AA
:1017100009F44DC008F040C0883209F4A9C028F58A
:10172000803109F49DC0C8F4882309F4FBC08830D7
:1017300009F496C0FF91EF91BF91AF919F918F9166
:101740007F916F915F914F913F912F910F900BBEC1
:101750000F900FBE0F901F901895883109F488C024
:10176000803241F780939A0314C0803409F49DC0FD
:1017700040F48033B9F38833E9F680939A0385EC1B
:10178000B0C0803509F485C0883509F496C0883426
:1017900089F60E942F0ACECF883909F48CC038F51B
:1017A000883729F050F4883611F0803719F683E035
:1017B00080939C031092750357C0883809F47BC04E
:1017C000803919F0803809F0B5CF809175038032E7
:1017D00008F071C0E091750381E08E0F809375036E
:1017E0008091BB00F0E0EB5AFC4F80833DC0803B12
:1017F00039F0E0F4803A09F479C0883A09F09ACFD8
:1018000084E080939C031092540310925303E09160
:10181000CF03F091D00319958091530381110FC02C
:1018200081E0809353031092330309C0803C09F494
:10183000A6CF883C09F4A3CF883B09F07BCFE09189
:10184000540381E08E0F80935403F0E0ED5CFC4F75
:1018500080818093BB00909154038091530329C0F1
:10186000809177038093BB0085EC8093BC0062CFAE
:101870009091990380919803981758F5E0919903F6
:1018800081E08E0F80939903F0E0E858FC4F80814F
:10189000E9CFE091990381E08E0F809399038091C5
:1018A000BB00F0E0E858FC4F808390919903809151
:1018B00098039817C8F285E8D8CFE091990381E0A2
:1018C0008E0F809399038091BB00F0E0E858FC4FA5
:1018D000808380919B0381115CCF81E080937603AC
:1018E00084EA8093BC0010929C0324CF85EC809303
:1018F000BC0010929C0380917503803230F4E0911B
:101900007503F0E0EB5AFC4F10826091750370E0B4
:10191000E091CD03F091CE0385E593E01995109207
:10192000750308CF10929A0334CF1F920F920FB60F
:101930000F9211240F900FBE0F901F9018951092C8
:10194000D8031092D70388EE93E0A0E0B0E0809334
:10195000D9039093DA03A093DB03B093DC0322E175
:1019600032E03093D6032093D5034DEC50E05093F2
:10197000E2034093E1034CEC50E05093E4034093C6
:10198000E30348EC50E05093E6034093E50349EC51
:1019900050E05093E8034093E7034AEC50E0509343
:1019A000EA034093E9034EEC50E05093EC0340937C
:1019B000EB031092EE031092EF031092F0031092DB
:1019C000F10310927504109274048093760490933E
:1019D0007704A0937804B093790430937304209330
:1019E000720425EC30E030937F0420937E0424ECD5
:1019F00030E0309381042093800420EC30E0309379
:101A000083042093820421EC30E0309385042093FA
:101A1000840422EC30E0309387042093860426EC83
:101A200030E0309389042093880410928B04109244
:101A30008C0410928D0410928E0410921205109254
:101A400011058093130590931405A0931505B09389
:101A5000160584E292E09093100580930F05109292
:101A6000D7051092D60586E392E09093D505809332
:101A7000D40587E28093D80584E18093DD0584E076
:101A80008093DE051092DF051092CF051092CE05EF
:101A90001092D1051092D0051092D3051092D20564
:101AA00090E080E00E9427092091CE053091CF057B
:101AB000811125C12115310519F0C9010E94B918FC
:101AC0001092CF051092CE051092D3051092D20538
:101AD0001092D1051092D00588E090E00E941D1868
:101AE000FC018AE090E0918380838BE090E0938317
:101AF00082838CE090E0958384838DE090E09783EF
:101B00008683F093CD05E093CC0588E090E00E94B9
:101B10001D18FC0186E090E09183808387E090E0CF
:101B20009383828388E090E09583848389E090E0CA
:101B300097838683F093CB05E093CA0588E090E015
:101B40000E941D18FC0182E090E09183808383E075
:101B500090E09383828384E090E09583848385E0A2
:101B600090E097838683F093C905E093C8051092AF
:101B70001B0510921C0510921E0510921D05109257
:101B80001F05109220051092210510922205109237
:101B90002305109225051092240510922605109217
:101BA0002705109228051092290510922A051092F7
:101BB0002C0510922B0510922D0510922E051092D7
:101BC0002F051092300510923105109233051092B6
:101BD0003205109234051092350510923605109298
:101BE00037051092380510923D0510923E0510926F
:101BF0003F05109240051092410510924205109247
:101C00004B0510924C0510924D0510924E05109206
:101C10004F05109250051092590510925A051092D6
:101C20005F05109260051092610510926205109296
:101C300067051092680510926D0510926E0510925E
:101C40006F0510927005109275051092760510922E
:101C50007B0510927C0510927D0510927E051092F6
:101C60008305109284051092890510928A051092BE
:101C70008B0510928C05109291051092920510928E
:101C80009705109298051092990510929A05109256
:101C90009F051092A00582E08093B0051092B105D7
:101CA0001092B2051092B3051092B5051092B405CA
:101CB0001092B7051092B6051092B8051092B905AA
:101CC0001092BA051092BB051092BC051092BD058A
:101CD0001092BE051092BF051092C0051092C1056A
:101CE0001092C2051092C3051092C4051092C5054A
:101CF0001092C6051092C7051092A1050895109282
:101D0000D3051092D20560E472E0C9010E94351A31
:101D1000E3CECF93DF931F921F92CDB7DEB77894B7
:101D200084B5826084BD84B5816084BD85B58260E0
:101D300085BD85B5816085BD80916E008160809391
:101D40006E001092810080918100826080938100FA
:101D5000809181008160809381008091800081600A
:101D6000809380008091B10084608093B100809165
:101D7000B00081608093B000809191008260809378
:101D800091008091910081608093910080919000FA
:101D90008160809390008091A10082608093A10077
:101DA0008091A10081608093A1008091A00081605A
:101DB0008093A00080912101826080932101809115
:101DC00021018160809321018091200181608093B5
:101DD000200180917A00846080937A0080917A005B
:101DE000826080937A0080917A00816080937A008B
:101DF00080917A00806880937A001092C10082E717
:101E000094E00E94EC0185ED93E00E94EC011092B9
:101E1000D4031092D3031092D2031092D1030E94E4
:101E2000DF0481E792E09093D0038093CF0382E7B1
:101E300092E09093CE038093CD031092D9058091C8
:101E4000DE05823018F098E09093D9058093DC0588
:101E500062E370E080E090E00E9479046091DF0529
:101E600084ED95E00E94A40568EE73E080E090E0C8
:101E70000E94790460E384ED95E00E944E070BE434
:101E800016E4C8010197F1F760E384ED95E00E9444
:101E90004E07C8010197F1F760E384ED95E00E94D9
:101EA0004E0783E592E00197F1F760E284ED95E05B
:101EB0000E944E076091D905606240E084ED95E094
:101EC0000E94670784E08093DA0540E06CE084EDCF
:101ED00095E00E94670740E061E084ED95E00E9494
:101EE00067070BE31FE1C8010197F1F782E08093D8
:101EF000DB0540E066E084ED95E00E94670740E086
:101F000062E084ED95E00E946707C8010197F1F750
:101F100088E08093DF0560E084ED95E00E94A405F1
:101F200080E00E947E078DE492E00E941F0881E01D
:101F30000E947E0788E592E00E941F080091CC0570
:101F40001091CD05C8010E94BC068091CA059091F0
:101F5000CB050E94BC068091C8059091C9050E94DE
:101F6000BC0660E270E0C8010E941B0760E270E0FE
:101F7000C8010E94E80622E0C22E01E034E6832E6A
:101F8000912CA12CB12C40E1442E47E2542E612C1F
:101F9000712C85ED93E00E94D102181619060CF001
:101FA000E7C485ED93E00E94AF02182F8091B80539
:101FB0009091B905A091BA05B091BB050196A11DFC
:101FC000B11D8093B8059093B905A093BA05B0935D
:101FD000BB05143209F47BC2E091B20515320CF056
:101FE000BEC01A3019F01D3009F07EC2EF3008F083
:101FF00033C1F0E0EF55FA4F1082D090A005DD20FC
:1020000009F42CC12091A105822F022E000C990BFE
:102010003FEB320F363008F0AEC0C7978295807F15
:102020009091A205292F092E000C330B4FEB490F7D
:10203000463008F0A8C027533109820F90919F05C0
:102040008913F7C08091C4059091C505A091C6057C
:10205000B091C7050196A11DB11D8093C405909351
:10206000C505A093C605B093C7058091B305882325
:1020700099F08091BC059091BD05A091BE05B091ED
:10208000BF050196A11DB11D8093BC059093BD05B0
:10209000A093BE05B093BF05F090B005FF2009F4F2
:1020A0007BC021E0F21234C08DE395E00E94A506CA
:1020B0008BE495E00E94A5068091B305882341F149
:1020C00087E0EBE2F5E0ADE1B5E001900D928A9595
:1020D000E1F787E0E2E3F5E0A4E2B5E001900D92DC
:1020E0008A95E1F70E94AB046093390570933A0535
:1020F00080933B0590933C05F0921C05F0921B05E4
:1021000089E595E00E948E0687E695E00E948E069E
:10211000E090B605F090B705E114F10409F419C494
:10212000E091B605F091B70566A177A1F70186A108
:1021300097A10E942C1A892B09F00BC4B701C70183
:1021400040960E94351A0E94AB04F70160A371A368
:1021500082A393A305A304A3E2A4F3A4DDCF1A32C0
:1021600009F444CF1C3209F0BFC180919F0581273B
:1021700080939F053BCF2156263018F4875591094F
:102180004DCFC0974BCF9156963018F42755310953
:1021900054CF2053310951CF8BE495E00E94A5061E
:1021A0008091B305882321F187E0EBE2F5E0ADE112
:1021B000B5E001900D928A95E1F787E0E2E3F5E062
:1021C000A4E2B5E001900D928A95E1F70E94AB047C
:1021D0006093390570933A0580933B0590933C05D5
:1021E00000931C0500931B0585E795E00E948E0671
:1021F00080918D0590918E05A0918F05B0919005ED
:102200008093890590938A05A0938B05B0938C05E4
:102210000E94AB04609385057093860580938705C3
:1022200090938805009384050093830581E995E0E8
:102230006DCF8091C0059091C105A091C205B0916C
:10224000C3050196A11DB11D8093C0059093C105E2
:10225000A093C205B093C305D12C7BC38091B10577
:10226000811144C06DE672E081EA95E00E942C1A6B
:10227000892B41F063E772E081EA95E00E942C1A15
:10228000892BF1F40093B0058091B4059091B505C8
:102290009093B7058093B605E090B605F090B7052A
:1022A000E114F104C9F261EA75E0F70186A197A192
:1022B0000E942C1A97FF46C3F70182A593A5E8CF89
:1022C00069E772E081EA95E00E942C1A892B41F0BF
:1022D0006FE772E081EA95E00E942C1A892B19F4CD
:1022E0001092B005D1CFC092B005CECFE091B0052D
:1022F000E23009F44AC09091A105992309F445C040
:1023000020E2E29FF0011124E82B3197E932F10538
:1023100008F03BC08827E057FE4E8F4F0C940D18F5
:10232000B911FA11011208120B12391240124D1292
:102330005A12C511C511C511C511C511C511C51157
:10234000C511C511C511C511C511C511C511C511DD
:10235000C511C511C511C511C511C511C511C511CD
:10236000B911F411FA11011208120B1212121F12F4
:102370002C1281EA95E00E94DC096093510570936C
:1023800052058093530590935405E090B605F09064
:10239000B705D090B105E114F10409F45DCFE091E7
:1023A000B605F091B70566A177A1F70186A197A1BF
:1023B0000E942C1A892B09F04FCFF70120A531A5D7
:1023C0008D2D90E0821793070CF446CF281739071C
:1023D00039F440E150E061EA75E0C7010E943C1A1F
:1023E000F701E2A4F3A4D5CF81E0913409F445C00C
:1023F00080E043C06BE275E081EA95E00E945509F8
:10240000C4CF81E0933509F080E080933105BDCFE2
:1024100062E375E0F1CF81E0973509F080E08093C9
:102420003805B3CF81EA95E00E94DC09609363052B
:10243000709364058093650590936605A6CF81EA45
:1024400095E00E94DC09609371057093720580939A
:1024500073059093740599CF81EA95E00E94491520
:10246000609343057093440580934505909346051A
:102470008CCF81E091330CF4BBCF8093B30585CF33
:1024800081EA95E00E94491560938D0570938E0551
:1024900080938F059093900578CF81EA95E00E9414
:1024A000DC0960939B0570939C0580939D05909338
:1024B0009E056BCF81EA95E00E94DC0960937F0561
:1024C0007093800580938105909382055ECF109272
:1024D000B2051092B10510929F05C092B0051092FE
:1024E000A0051092B30544C2EE3040F481E08E0F97
:1024F0008093B205F0E0EF55FA4F10838091A0056C
:10250000811136C280919F05182710939F0530C214
:1025100080911B05882309F428C180E693E00E947E
:1025200060030E9442020E94120982E593E00E9429
:1025300060030E9413020E94120985E493E00E9446
:10254000600380917505882309F40AC1109276050D
:1025500060917B0570917C0580917D0590917E0551
:102560000E948C1520E030E048EC52E40E943017C5
:102570000E94120985E193E00E9460038091590551
:10258000882309F4F5C010925A0560915F05709197
:10259000600580916105909162050E948C1526E589
:1025A0003EE04DEE5FE30E94EB1520E030E048ECAA
:1025B00052E40E943017AB01BC0122E082E794E0B4
:1025C0000E9424088FE093E00E94C30780EF92E00E
:1025D0000E94600380913D05882309F4CCC080915E
:1025E0004B05882309F4C7C010923E0560913F0552
:1025F000709140058091410590914205A50194019B
:102600000E94EB176053784FAB0170E060E02AE066
:1026100082E794E00E94D3078EEE92E00E9460036E
:1026200010923E0560913F057091400580914105F3
:1026300090914205A50194010E94EB17CA01B901CE
:10264000A50194010E94EB17AB01BC012AE082E7CF
:1026500094E00E94D3078CEE92E00E9460031092F7
:102660003E0560913F057091400580914105909134
:102670004205A30192010E94EB17BA01A901552757
:10268000662777272AE082E794E00E94D3078AEE44
:1026900092E00E94600310924C0560914D0570918C
:1026A0004E0580914F059091500520E432E44FE0B3
:1026B00050E00E94EB17BA01A9015527662777273A
:1026C0002AE082E794E00E94D30788EE92E00E941D
:1026D000600310924C0560914D0570914E058091FC
:1026E0004F0590915005A30192010E94EB17CA017A
:1026F000B901A50194010E94EB17AB01BC012AE0CE
:1027000082E794E00E94D30786EE92E00E94600385
:1027100010924C0560914D0570914E0580914F05CA
:1027200090915005A50194010E94EB17CA01B901CF
:10273000A50194010E94EB17AB01BC012AE082E7DE
:1027400094E00E94D3076EE372E082E794E00E9477
:10275000B4076EE372E082E794E00E94B40708C118
:1027600088E393E00E94C30705CF8FE193E0FACF9F
:1027700082E093E029CF89ED92E00E94C307E9CF80
:102780008091D2059091D305892B09F4ABC068EBF9
:1027900072E08091CE059091CF050E942C1A892B72
:1027A00009F0A9C040E061E084ED95E00E94670770
:1027B000C7010197F1F780E00E947E078AEB92E063
:1027C0000E941F0881E00E947E078AEC92E00E942E
:1027D0001F0882E00E947E0786ED92E00E941F089B
:1027E00083E00E947E0785EE92E00E941F08009120
:1027F000CC051091CD0560E072E0C8010E941B0776
:1028000060E072E0C8010E94E8060091CA051091DC
:10281000CB0560E072E0C8010E941B0760E072E037
:10282000C8010E94E8060091C8051091C90560E042
:1028300072E0C8010E941B0760E072E0C8010E94BC
:10284000E80681E00E947E078FEE92E00E941F085A
:1028500080917B00877F80937B00D0927C00809169
:102860007A00806480937A0080917A0086FDFCCFA4
:10287000009178001091790082E00E947E078FEF2E
:1028800092E00E941F08B801110F880B990B0E945B
:102890008C1520E030E040E85AE30E94EB1520E080
:1028A00030E04AEF53E40E94EB15AB01BC0122E09B
:1028B00084ED95E00E94240883E00E947E0785EE67
:1028C00092E00E941F080E941302AB01BC0122E0AB
:1028D00084ED95E00E94240860E271EA87E090E0D0
:1028E0000E94790464EF71E080E090E00E94790436
:1028F0000E949B0392C090E080E00E9427092091F3
:10290000CE053091CF05811113C02115310519F085
:10291000C9010E94B9181092CF051092CE051092ED
:10292000D3051092D2051092D1051092D005DACFBE
:102930001092D3051092D20560E472E0C9010E94A2
:10294000351AD0CF892B09F487CC1092B705109295
:10295000B6058091B1058F5F8093B1051092B205E5
:1029600081E01A3209F080E08093A005D110D0CD2B
:102970000E94AB04693873418105910580F0809114
:10298000B8059091B905A091BA05B091BB050A9719
:10299000A105B10520F486EB92E00E94C30782E016
:1029A0000E947E070E94420220E030E0A9010E94BE
:1029B0008515882309F4EDCA80E00E947E0785E82A
:1029C00092E00E941F0881E00E947E0789E992E060
:1029D0000E941F080E944202AB01BC0122E084ED6C
:1029E00095E00E94240886EA92E00E941F0882E097
:1029F0000E947E078AEA92E00E941F080E9413024A
:102A0000AB01BC0122E084ED95E00E9424088BE339
:102A1000E82E8FE1F82E90E4D92E82E794E00E9410
:102A2000D102181619060CF0ABCE82E794E00E9492
:102A3000AF0289831A820091D2051091D3050F5FEE
:102A40001F4FC8010E942709882399F02091CE05C5
:102A50003091CF058091D2059091D305BE016F5F73
:102A60007F4F820F931F0E94351A1093D305009356
:102A7000D2056AE070E080E090E00E947904CDCF5A
:102A80008091CE059091CF05009711F00C94B91864
:102A900008951F93FC0199278827BC01E8941191A0
:102AA0001032E9F3193010F01E30C8F31B3251F028
:102AB0001D3249F4689406C00E947015610F711DA3
:102AC000811D911D119110531A30B0F33EF4909571
:102AD0008095709561957F4F8F4F9F4F1F910895FF
:102AE000592F482F372F262F660F771F881F991FC2
:102AF000660F771F881F991F620F731F841F951F12
:102B0000660F771F881F991F08950E94C71508F444
:102B100081E00895E89409C097FB3EF49095809574
:102B2000709561957F4F8F4F9F4F9923A9F0F92F93
:102B300096E9BB279395F695879577956795B79511
:102B4000F111F8CFFAF4BB0F11F460FF1BC06F5FF7
:102B50007F4F8F4F9F4F16C0882311F096E911C009
:102B6000772321F09EE8872F762F05C0662371F02A
:102B700096E8862F70E060E02AF09A95660F771F3E
:102B8000881FDAF7880F9695879597F90895990F1A
:102B90000008550FAA0BE0E8FEEF16161706E80727
:102BA000F907C0F012161306E407F50798F0621B48
:102BB000730B840B950B39F40A2661F0232B242B1D
:102BC000252B21F408950A2609F4A140A6958FEF3C
:102BD000811D811D08950E94FE150C946F160E94A0
:102BE000611638F00E94681620F0952311F00C94BD
:102BF00058160C945E1611240C94A3160E9480168D
:102C000070F3959FC1F3950F50E0551F629FF0013F
:102C1000729FBB27F00DB11D639FAA27F00DB11D58
:102C2000AA1F649F6627B00DA11D661F829F2227E1
:102C3000B00DA11D621F739FB00DA11D621F839F68
:102C4000A00D611D221F749F3327A00D611D231F3E
:102C5000849F600D211D822F762F6A2F11249F578C
:102C600050409AF0F1F088234AF0EE0FFF1FBB1F8F
:102C7000661F771F881F91505040A9F79E3F51054E
:102C800080F00C9458160C94A3165F3FE4F3983E22
:102C9000D4F3869577956795B795F795E7959F5FF8
:102CA000C1F7FE2B880F911D9695879597F908958A
:102CB00097F99F6780E870E060E008959FEF80ECEF
:102CC000089500240A941616170618060906089592
:102CD00000240A9412161306140605060895092EF8
:102CE0000394000C11F4882352F0BB0F40F4BF2B67
:102CF00011F460FF04C06F5F7F4F8F4F9F4F0895A7
:102D000057FD9058440F551F59F05F3F71F047959C
:102D1000880F97FB991F61F09F3F79F08795089581
:102D2000121613061406551FF2CF4695F1DF08C0A0
:102D3000161617061806991FF1CF869571056105BD
:102D400008940895E894BB2766277727CB0197F965
:102D500008950E94B416A59F900DB49F900DA49F56
:102D6000800D911D11240895A29FB001B39FC00151
:102D7000A39F700D811D1124911DB29F700D811DA7
:102D80001124911D08955058BB27AA270E94DB16D5
:102D90000C946F160E94611638F00E94681620F09D
:102DA00039F49F3F19F426F40C945E160EF4E09566
:102DB000E7FB0C945816E92F0E94801658F3BA17B7
:102DC000620773078407950720F079F4A6F50C9441
:102DD000A2160EF4E0950B2EBA2FA02D0B01B9010F
:102DE00090010C01CA01A0011124FF27591B99F081
:102DF000593F50F4503E68F11A16F040A22F232F8D
:102E0000342F4427585FF3CF469537952795A795DC
:102E1000F0405395C9F77EF41F16BA0B620B730B83
:102E2000840BBAF09150A1F0FF0FBB1F661F771FF4
:102E3000881FC2F70EC0BA0F621F731F841F48F4A9
:102E4000879577956795B795F7959E3F08F0B0CF32
:102E50009395880F08F09927EE0F97958795089519
:102E60000E9444170C946F160E94681658F00E9436
:102E7000611640F029F45F3F29F00C945816511167
:102E80000C94A3160C945E160E94801668F3992386
:102E9000B1F3552391F3951B550BBB27AA27621756
:102EA0007307840738F09F5F5F4F220F331F441F63
:102EB000AA1FA9F335D00E2E3AF0E0E832D0915097
:102EC0005040E695001CCAF72BD0FE2F29D0660F84
:102ED000771F881FBB1F261737074807AB07B0E8C7
:102EE00009F0BB0B802DBF01FF2793585F4F3AF0CD
:102EF0009E3F510578F00C9458160C94A3165F3F32
:102F0000E4F3983ED4F3869577956795B795F79552
:102F10009F5FC9F7880F911D9695879597F908953A
:102F2000E1E0660F771F881FBB1F621773078407D6
:102F3000BA0720F0621B730B840BBA0BEE1F88F7E5
:102F4000E09508950E94881688F09F5798F0B92F51
:102F50009927B751B0F0E1F0660F771F881F991FCE
:102F60001AF0BA95C9F714C0B13091F00E94A216B8
:102F7000B1E008950C94A216672F782F8827B85FC8
:102F800039F0B93FCCF3869577956795B395D9F726
:102F90003EF490958095709561957F4F8F4F9F4F30
:102FA00008950E94C71508F48FEF08950E94C71571
:102FB000880B990B0895DB018F939F930E94A916AC
:102FC000BF91AF91A29F800D911DA39F900DB29FC5
:102FD000900D11240895A1E21A2EAA1BBB1BFD011E
:102FE0000DC0AA1FBB1FEE1FFF1FA217B307E407E8
:102FF000F50720F0A21BB30BE40BF50B661F771F40
:10300000881F991F1A9469F760957095809590951F
:103010009B01AC01BD01CF010895EE0FFF1F881F7A
:103020008BBF0790F691E02D1994B7FF0C94A91669
:103030000E94A916821B930B08950F931F93CF93A1
:10304000DF938230910510F482E090E0E091E20598
:10305000F091E30530E020E0B0E0A0E0309799F493
:103060002115310509F44AC0281B390B24303105DC
:10307000D8F58A819B816115710589F1FB019383E4
:103080008283FE0111C04081518102811381481762
:103090005907E0F04817590799F4109761F0129614
:1030A0000C93129713961C933296CF01DF91CF9118
:1030B0001F910F9108950093E2051093E305F4CF5B
:1030C0002115310551F04217530738F0A901DB01F2
:1030D0009A01BD01DF01F801C1CFEF01F9CF909353
:1030E000E3058093E205CDCFFE01E20FF31F81934C
:1030F00091932250310939832883D7CF2091E0055D
:103100003091E105232B41F420910202309103021A
:103110003093E1052093E0052091000230910102F7
:103120002115310541F42DB73EB74091040250916D
:103130000502241B350BE091E005F091E105E21753
:10314000F307A0F42E1B3F0B2817390778F0AC01CA
:103150004E5F5F4F2417350748F04E0F5F1F5093A7
:10316000E1054093E005819391939FCFF0E0E0E08B
:103170009CCFCF93DF930097E9F0FC013297138245
:103180001282A091E205B091E305ED0130E020E06C
:103190001097A1F420813181820F931F2091E005C7
:1031A0003091E1052817390709F061C0F093E10576
:1031B000E093E005DF91CF910895EA01CE17DF0794
:1031C000E8F54A815B819E0141155105B1F7E9019E
:1031D000FB83EA8349915991C40FD51FEC17FD0772
:1031E00061F4808191810296840F951FE901998392
:1031F0008883828193819B838A83F0E0E0E012964A
:103200008D919C9113970097B9F52D913C91119751
:10321000CD010296820F931F2091E0053091E105C8
:103220002817390739F6309751F51092E3051092B7
:10323000E205B093E105A093E005BCCFD383C28340
:1032400040815181840F951FC817D90761F44E5FE3
:103250005F4F88819981480F591F518340838A812C
:103260009B81938382832115310509F0B0CFF093C0
:10327000E305E093E2059ECFFD01DC01C0CF1382A0
:103280001282D7CF4F925F926F927F928F929F92CE
:10329000AF92BF92CF92DF92EF92FF920F931F9364
:1032A000CF93DF938C01009799F4CB01DF91CF91FD
:1032B0001F910F91FF90EF90DF90CF90BF90AF9054
:1032C0009F908F907F906F905F904F900C941D18FF
:1032D000FC01E60FF71F9C0122503109E217F307AA
:1032E00008F4AEC0D901CD91DC911197C617D7076C
:1032F00020F1C530D10578F0CE01049786179707E5
:1033000050F0C61BD70B2297C193D1936D937C933A
:10331000CF010E94B918C801DF91CF911F910F9181
:10332000FF90EF90DF90CF90BF90AF909F908F90E5
:103330007F906F905F904F9008955B01AC1ABD0A2B
:103340004C018C0E9D1EA091E205B091E305512C1D
:10335000412CF12CE12C109731F58091E0059091F2
:10336000E1058815990509F05CC04616570608F076
:1033700058C08091000290910102009741F48DB7EE
:103380009EB74091040250910502841B950BE817EB
:10339000F90708F055C0F093E105E093E005F90165
:1033A00071836083B8CF8D919C91119712966C9028
:1033B000129713967C901397A815B90559F56C01CF
:1033C00042E0C40ED11CCA14DB0420F1AC014A193E
:1033D0005B09DA011296159780F06282738251833D
:1033E0004083D9016D937C93E114F10471F0D7010E
:1033F0001396FC93EE9312978ECF22968C0F9D1FFF
:10340000F90191838083F301EFCFF093E305E0931B
:10341000E20581CF4816590608F42C017D01D3013D
:103420009ACFCB010E941D187C01009749F0AE0194
:10343000B8010E94231AC8010E94B91887016BCFF6
:1034400010E000E068CFFB01DC0102C001900D92AA
:1034500041505040D8F70895FB01DC018D91019057
:1034600080190110D9F3990B0895FB01DC0101903B
:103470000D920020E1F70895FB01DC01415050401E
:1034800048F001900D920020C9F701C01D924150F3
:103490005040E0F7089511E0C8EBD1E000E006C02D
:1034A000802FFE010E940D182196011DC93BD107F6
:1034B00080E00807A9F7F894FFCF0000E40580003A
:1034C00000004000140054000000000013037302C9
:1034D000A0027B03D102AF02C30200000000750509
:1034E00048058B061E0541052E051F05000000003E
:1034F000AE0773028B06B7040D0A006E616E006999
:103500006E66006F76660057656C636F6D6521218E
:103510002100475053206973206163746976617498
:10352000696E672E2E2E004750524D4300474E5273
:103530004D4300475047474100474E4747410047EA
:103540005053206D6F64756C6520697320726561DE
:103550006479002D206C617469747564653A20008B
:10356000202020002D206C6F6E6769747564653AA9
:103570002000630053656C6620546573742E2E2EF4
:103580002E2E2E004D6F746F7220636865636B0082
:103590005465737420474D2D53656E736F720054DC
:1035A0006573742047505320004D6F746F72206311
:1035B0006865636B20204F4B005465737420474D42
:0A35C0002D53656E736F722000003A
:020000040003F7
:10E000000D9489F10D94B2F10D94B2F10D94B2F129
:10E010000D94B2F10D94B2F10D94B2F10D94B2F1F0
:10E020000D94B2F10D94B2F10D94B2F10D94B2F1E0
:10E030000D94B2F10D94B2F10D94B2F10D94B2F1D0
:10E040000D94B2F10D94B2F10D94B2F10D94B2F1C0
:10E050000D94B2F10D94B2F10D94B2F10D94B2F1B0
:10E060000D94B2F10D94B2F10D94B2F10D94B2F1A0
:10E070000D94B2F10D94B2F10D94B2F10D94B2F190
:10E080000D94B2F10D94B2F10D94B2F10D94B2F180
:10E090000D94B2F10D94B2F10D94B2F10D94B2F170
:10E0A0000D94B2F10D94B2F10D94B2F10D94B2F160
:10E0B0000D94B2F10D94B2F10D94B2F10D94B2F150
:10E0C0000D94B2F10D94B2F10D94B2F10D94B2F140
:10E0D0000D94B2F10D94B2F10D94B2F10D94B2F130
:10E0E0000D94B2F141546D656761323536300041AF
:10E0F000726475696E6F206578706C6F72657220DE
:10E1000073746B3530305632206279204D4C530099
:10E11000426F6F746C6F616465723E004875683F52
:10E1200000436F6D70696C6564206F6E203D200048
:10E130004350552054797065202020203D20005FF9
:10E140005F4156525F415243485F5F3D2000415658
:10E1500052204C696243205665723D20004743437C
:10E160002056657273696F6E203D20004350552024
:10E1700049442020202020203D20004C6F7720663D
:10E18000757365202020203D20004869676820665F
:10E190007573652020203D200045787420667573D6
:10E1A00065202020203D20004C6F636B2066757336
:10E1B000652020203D20004D617220203720323024
:10E1C000313300312E362E3800342E332E350056A2
:10E1D00023202020414444522020206F7020636F70
:10E1E00064652020202020696E73747275637469E1
:10E1F0006F6E2061646472202020496E74657272B3
:10E20000757074006E6F20766563746F7200726A49
:10E210006D702020006A6D70200057686174207056
:10E220006F72743A00506F7274206E6F7420737541
:10E2300070706F72746564004D7573742062652030
:10E2400061206C6574746572002000577269747483
:10E25000696E672045450052656164696E672045B7
:10E26000450045452065727220636E743D00504F35
:10E27000525400303D5A65726F2061646472003FF1
:10E280003D43505520737461747300403D454550C3
:10E29000524F4D207465737400423D426C696E6B41
:10E2A000204C454400453D44756D70204545505215
:10E2B0004F4D00463D44756D7020464C415348001B
:10E2C000483D48656C70004C3D4C69737420492F83
:10E2D0004F20506F72747300513D51756974005234
:10E2E0003D44756D702052414D00563D73686F7707
:10E2F00020696E7465727275707420566563746FF0
:10E30000727300593D506F727420626C696E6B00BD
:10E310002A0011241FBECFEFD1E2DEBFCDBF01E046
:10E320000CBF12E0A0E0B2E0EEE1FDEF03E00BBFB6
:10E3300002C007900D92A030B107D9F712E0A0E01B
:10E34000B2E001C01D92AE30B107E1F70F9460F367
:10E350000D948DFE01E20EBF0FEF0DBF11241FBE05
:10E360000D9460F30D9400F020E030E040ED57E0B4
:10E3700005C0FA013197F1F72F5F3F4F2817390792
:10E38000C0F308959C01260F311DC901A0E0B0E043
:10E390002F5F3F4FABBFFC018791882361F08093D3
:10E3A000C6008091C00086FFFCCF8091C0008064D1
:10E3B0008093C000EACF08958DE08093C6008091DD
:10E3C000C00086FFFCCF8091C00080648093C000B5
:10E3D0008AE08093C6008091C00086FFFCCF8091C8
:10E3E000C00080648093C00008950F94C2F10F9420
:10E3F000DCF10895FC019081992359F09093C600B7
:10E400008091C00086FFFCCF8091C0008064809323
:10E41000C0003196992379F70895282F982F929567
:10E420009F70892F805D8A3308F0895F8093C600D2
:10E430008091C00086FFFCCF8091C00080648093F3
:10E44000C000822F8F70982F905D9A3308F0995FEB
:10E450009093C6008091C00086FFFCCF8091C000E1
:10E4600080648093C00008959C01FB01853691056E
:10E470001CF46330710594F0C90164E670E00F94F8
:10E480002EFE605D7F4F6093C6008091C00086FFC6
:10E49000FCCF8091C00080648093C0002B30310598
:10E4A00014F43297B4F0C90164E670E00F942EFEC4
:10E4B0006AE070E00F942EFE605D7F4F6093C600AF
:10E4C0008091C00086FFFCCF8091C0008064809363
:10E4D000C000C9016AE070E00F942EFEC0968093E0
:10E4E000C6008091C00086FFFCCF8091C000806490
:10E4F0008093C00008951F93182F8EE692EE60E07F
:10E500000F94C2F11093C6008091C00086FFFCCF2B
:10E510008091C00080648093C0000F94DCF11F9153
:10E5200008952F923F924F925F926F927F928F92B7
:10E530009F92AF92BF92CF92DF92EF92FF920F9392
:10E540001F93DF93CF93CDB7DEB762970FB6F894E2
:10E55000DEBF0FBECDBF382E622ECA01DB015C01CB
:10E560006D01772420E2222E2E010894411C511CBB
:10E570008BC081E0A81680E0B80681E0C80680E084
:10E58000D80628F0C601AA27BB270F940DF2BB2797
:10E59000AD2D9C2D8B2D0F940DF28A2D0F940DF225
:10E5A0002092C6008091C00086FFFCCF8091C00001
:10E5B00080648093C0009DE29093C6008091C0006B
:10E5C00086FFFCCF8091C00080648093C0002092C1
:10E5D000C6008091C00086FFFCCF8091C00080649F
:10E5E0008093C00019828601750188249924A1E0D6
:10E5F0003A1651F03A1620F0B2E03B1661F409C029
:10E600000BBFF701779007C0C7010F9477FE782EF4
:10E6100002C0F7017080872D0F940DF22092C60082
:10E620008091C00086FFFCCF8091C0008064809301
:10E63000C000872D8052F401EF70F0708F3520F408
:10E64000E40DF51D708204C0E40DF51D8EE280839B
:10E650000894E11CF11C011D111D0894811C911CE2
:10E6600090E18916910409F0C2CF80E190E0A0E02A
:10E67000B0E0A80EB91ECA1EDB1E198AC2010F9493
:10E68000FAF10F94DCF16A94662009F072CF629679
:10E690000FB6F894DEBF0FBECDBFCF91DF911F91B3
:10E6A0000F91FF90EF90DF90CF90BF90AF909F9031
:10E6B0008F907F906F905F904F903F902F90089534
:10E6C0002F923F924F925F926F927F928F929F9282
:10E6D000AF92BF92CF92DF92EF92FF920F931F9370
:10E6E000DF93CF93CDB7DEB7CD53D1400FB6F894BB
:10E6F000DEBF0FBECDBF01E20EBF0FEF0DBF94B75F
:10E70000F894A89514BE80916000886180936000A1
:10E7100010926000789493FF05C0E0910002F091A0
:10E7200001021995279A2F9A8091C00082608093E8
:10E73000C00080E18093C40088E18093C1000000A4
:10E74000EE24FF24870144E0A42EB12CCC24DD2448
:10E7500024C0C5010197F1F70894E11CF11C011DCB
:10E76000111D21E2E2162EE4F20620E0020720E06D
:10E77000120718F031E0C32ED12CC801B70127ECE5
:10E780003BE140E050E00F9441FE611571058105C9
:10E79000910519F485B1805885B98091C00087FD35
:10E7A00003C0C114D104A9F2A6014F5F5F4FC25E3E
:10E7B000DE4F59834883CE51D140C25EDE4F8881FF
:10E7C0009981CE51D140019711F00D9410FEC05D9A
:10E7D000DE4F19821882C053D14060E0C15DDE4F28
:10E7E0001882CF52D14088249924C35DDE4F19820C
:10E7F0001882CD52D140C05EDE4F188219821A8233
:10E800001B82C052D140CE5CDE4F188219821A8220
:10E810001B82C253D140EE24FF2487010BBFF701B6
:10E8200007911691C45CDE4F19830883CC53D14005
:10E830000D940BFEC25EDE4F28813981CE51D1404E
:10E840002130310509F52091C600C25EDE4F1982E4
:10E850001882CE51D14022C02F5F3F4F4F4F5F4FA4
:10E86000213082E138078AE7480780E0580780F0C6
:10E87000C45CDE4FE881F981CC53D140EF5FFF4F9C
:10E8800019F0EE27FF27099420E030E040E050E047
:10E890008091C00087FFE0CF2091C600C35DDE4FAE
:10E8A00048815981CD52D1404F5F5F4FC35DDE4FEC
:10E8B00059834883CD52D140213209F063C64A3092
:10E8C000510508F05FC60894811C911C53E0851621
:10E8D000910409F059C600E010E018C081E280936D
:10E8E000C6008091C00086FFFCCF8091C00080648C
:10E8F0008093C0002F5F3F4F2931310579F70F9486
:10E90000DCF10F5F1F4F0530110519F020E030E0FA
:10E91000E5CF10920A0210920B0210920C02109294
:10E920000D02109206021092070210920802109235
:10E930000902109202021092030210920402109235
:10E9400005028FEE90EE60E00F94F5F180E191EE1C
:10E9500060E00F94C2F18091C00087FFFCCF9091DE
:10E96000C600903608F09F759032B8F09093C600BC
:10E970008091C00086FFFCCF8091C00080648093AE
:10E98000C000A0E2A093C6008091C00086FFFCCF2B
:10E990008091C00080648093C000983409F4D7C18E
:10E9A0009934B8F4923409F459C1933458F490333B
:10E9B00019F1903308F4E3C59F33A1F1903409F0C5
:10E9C000DEC5BDC0953409F470C1963409F0D7C5D1
:10E9D00098C1923509F42BC2933538F49C3409F46C
:10E9E000F5C1913509F0CBC518C2963509F445C279
:10E9F000993509F0C4C567C483E792EE62E00F94CD
:10EA0000F5F110920602109207021092080210927D
:10EA1000090210920A0210920B0210920C0210923C
:10EA20000D0213C18FE792EE62E00F94F5F18FEEC5
:10EA300090EE60E00F94F5F181E291EE60E00F94CA
:10EA4000C2F187EB91EE60E00F94F5F180E391EE77
:10EA500060E00F94C2F184EE90EE60E00F94F5F167
:10EA60008FE391EE60E00F94C2F186E090E061E008
:10EA700070E00F9434F20F94DCF18DE591EE60E0DC
:10EA80000F94C2F189EC91EE60E00F94F5F18EE401
:10EA900091EE60E00F94C2F183EC91EE60E00F9490
:10EAA000F5F18CE691EE60E00F94C2F18EE10F94E7
:10EAB0000DF288E90F940DF281E00F940DF20F949E
:10EAC000DCF18BE791EE60E00F94C2F119E0E0E039
:10EAD000F0E010935700E4918E2F0F940DF20F94F5
:10EAE000DCF18AE891EE60E00F94C2F1E3E0F0E03F
:10EAF00010935700E4918E2F0F940DF20F94DCF1D8
:10EB000089E991EE60E00F94C2F1E2E0F0E0109349
:10EB10005700E4918E2F0F940DF20F94DCF188EAE8
:10EB200091EE60E00F94C2F1E1E0F0E01093570045
:10EB30001491812F0F940DF20F94DCF107CF8BE825
:10EB400092EE62E00F94F5F18BE492EE60E00F94A8
:10EB5000F5F10F94DCF100E010E019C0C8016F2D51
:10EB60000F947FFEFF2031F489E492EE60E00F9471
:10EB7000C2F10BC0F092C6008091C00086FFFCCFAE
:10EB80008091C00080648093C0000F5F1F4FC80158
:10EB900081519F41A0E0B0E0ABBFFC01F790BAE229
:10EBA000FB1621F0E2E000301E07C1F60F94DCF105
:10EBB0000F94DCF187E592EE60E00F94F5F10F948D
:10EBC000DCF1CC24DD2400E010E01EC0C8010F946D
:10EBD00077FEF82E882331F489E492EE60E00F94FA
:10EBE000C2F10BC08093C6008091C00086FFFCCFAD
:10EBF0008091C00080648093C000FE1419F00894D6
:10EC0000C11CD11C0F5F1F4FC80181519F41A0E063
:10EC1000B0E0ABBFFC01E790FAE2EF1621F022E092
:10EC20000030120799F60F94DCF10F94DCF182E6C4
:10EC300092EE60E00F94C2F1C60161E070E00F94C3
:10EC400034F20F94DCF10F94DCF110920202109276
:10EC50000302109204021092050278CE89E992EE26
:10EC600062E00F94F5F1279A2F9A16C02F9880E052
:10EC700090E0E0EDF7E03197F1F7019684369105E9
:10EC8000C1F72F9A80E090E0E0EDF7E03197F1F7DF
:10EC9000019684369105C1F78091C00087FFE6CFC9
:10ECA0008091C00087FFFCCF64C485EA92EE62E0E9
:10ECB0000F94F5F140910202509103026091040219
:10ECC0007091050281E020E10F9491F2809102029F
:10ECD00090910302A0910402B091050280509F4FD1
:10ECE000AF4FBF4F8093020290930302A0930402A0
:10ECF000B093050280509041A040B04008F426CE69
:10ED0000A4CF83EB92EE62E00F94F5F140910602FE
:10ED100050910702609108027091090280E020E1A1
:10ED20000F9491F28091060290910702A09108023F
:10ED3000B091090280509F4FAF4FBF4F80930602A2
:10ED400090930702A0930802B0930902FFCD80ECD4
:10ED500092EE62E00F94F5F183E792EE60E00F949B
:10ED6000F5F18FE792EE60E00F94F5F18BE892EE0B
:10ED700060E00F94F5F189E992EE60E00F94F5F10F
:10ED800085EA92EE60E00F94F5F183EB92EE60E09D
:10ED90000F94F5F180EC92EE60E00F94F5F187ECC2
:10EDA00092EE60E00F94F5F188ED92EE60E00F9442
:10EDB000F5F18FED92EE60E00F94F5F18AEE92EEB0
:10EDC00060E00F94F5F183E093EEBDCD87EC92EE19
:10EDD00062E00F94F5F181E40F947BF282E40F94EA
:10EDE0007BF283E40F947BF284E40F947BF285E45E
:10EDF0000F947BF286E40F947BF287E40F947BF20E
:10EE000088E40F947BF28AE40F947BF28BE40F94F6
:10EE10007BF28CE40F947BF299CD88ED92EE62E068
:10EE20000F94F5F1772473948824992409C48FED05
:10EE300092EE62E00F94F5F140910A0250910B02BC
:10EE400060910C0270910D0282E020E10F9491F22A
:10EE500080910A0290910B02A0910C02B0910D02D8
:10EE600080509F4FAF4FBF4F80930A0290930B0289
:10EE7000A0930C02B0930D0269CD8AEE92EE62E08F
:10EE80000F94F5F184EE90EE60E00F94F5F18FECC5
:10EE900091EE60E00F94F5F1662477244301CC5D98
:10EEA000DE4F19821882C452D140D401C301B695F5
:10EEB000A79597958795CA5DDE4F88839983AA8326
:10EEC000BB83C652D140CC5DDE4FA881B981C4520C
:10EED000D1401196CC5DDE4FB983A883C452D14096
:10EEE000CD0162E070E00F9434F2B0E2B093C6005E
:10EEF0008091C00086FFFCCF8091C0008064809329
:10EF0000C000EDE2E093C6008091C00086FFFCCF18
:10EF10008091C00080648093C000F0E2F093C6004E
:10EF20008091C00086FFFCCF8091C00080648093F8
:10EF3000C000CA5DDE4FE880F9800A811B81C6529D
:10EF4000D140BB27A12F902F8F2D0F940DF2CA5DBA
:10EF5000DE4F8881C652D1400F940DF2B0E2FB2EF5
:10EF6000F092C6008091C00086FFFCCF8091C00067
:10EF700080648093C0000DE30093C6008091C000C0
:10EF800086FFFCCF8091C00080648093C00010E2B7
:10EF90001093C6008091C00086FFFCCF8091C00016
:10EFA00080648093C0008BBEF3012791C65DDE4F65
:10EFB0002883CA52D140A22EBB24CC24DD2408943D
:10EFC000611C711C811C911C8BBEF3018791282E42
:10EFD0003324442455240894611C711C811C911C09
:10EFE0008BBEF3013791C55DDE4F3883CB52D140E4
:10EFF0000894611C711C811C911C8BBEF30147910C
:10F00000C45DDE4F4883CC52D140ADEFEA2EAFEF66
:10F01000FA2EAFEF0A2FAFEF1A2F6E0C7F1C801E57
:10F02000911E142D032DF22CEE24EA0CFB1C0C1D5A
:10F030001D1D0F940DF220E22093C6008091C000A8
:10F0400086FFFCCF8091C00080648093C000C65DC5
:10F05000DE4F8881CA52D1400F940DF230E23093D6
:10F06000C6008091C00086FFFCCF8091C000806404
:10F070008093C000C45DDE4F8881CC52D1400F9494
:10F080000DF240E24093C6008091C00086FFFCCFA5
:10F090008091C00080648093C000C55DDE4F888190
:10F0A000CB52D1400F940DF250E25093C6008091A4
:10F0B000C00086FFFCCF8091C00080648093C000B8
:10F0C0008FEFE8168FEFF80680E0080780E018075A
:10F0D00031F484E092EE60E00F94C2F1DFC0D80119
:10F0E000C7018070907CA070B0708050904CA040A0
:10F0F000B040D1F52FEF3FE340E050E0E222F322B1
:10F1000004231523CA5DDE4FA880B980CA80DB8046
:10F11000C652D140AE0CBF1CC01ED11EAA0CBB1CD7
:10F12000CC1CDD1C8EE092EE60E00F94C2F1BB2798
:10F13000A12F902F8F2D0F940DF28E2D0F940DF285
:10F1400030E23093C6008091C00086FFFCCF8091F2
:10F15000C00080648093C0004EE34093C60080915D
:10F16000C00086FFFCCF87C08EE09EEFA0E0B0E03D
:10F17000E822F9220A231B239CE0E91694E9F90608
:10F1800090E0090790E0190709F088C0C45DDE4FE0
:10F19000A881CC52D140EA2EFF2400E010E0102FCD
:10F1A0000F2DFE2CEE24C55DDE4FB881CB52D14031
:10F1B000EB0EF11C011D111DD601C501817090706F
:10F1C000A070B070DC0199278827E80EF91E0A1F8D
:10F1D0001B1F20EF30E040E050E0A222B322C42207
:10F1E000D52241E1AA0CBB1CCC1CDD1C4A95D1F7F1
:10F1F000EA0CFB1C0C1D1D1D81E090E0A0E0B0E0BE
:10F20000282239224A225B2235E1220C331C441C7D
:10F21000551C3A95D1F7E20CF31C041D151D57013E
:10F220006801AA0CBB1CCC1CDD1C85E192EE60E0E1
:10F230000F94C2F1C801AA27BB270F940DF2BB2778
:10F24000A12F902F8F2D0F940DF28E2D0F940DF274
:10F2500090E29093C6008091C00086FFFCCF809121
:10F26000C00080648093C000AEE3A093C60080918C
:10F27000C00086FFFCCF8091C00080648093C000F6
:10F28000C601AA27BB270F940DF2BB27AD2D9C2DDD
:10F290008B2D0F940DF28A2D0F940DF20F94DCF14B
:10F2A000CC5DDE4FE881F981C452D140F99709F471
:10F2B0004DCBF4E0EF2EF12C012D112D6E0C7F1CA7
:10F2C000801E911EF2CD83E093EE62E00F94F5F183
:10F2D0008AE192EE60E00F94C2F18091C00087FF56
:10F2E000FCCF1091C6001F751093C6008091C0001E
:10F2F00086FFFCCF8091C00080648093C0000F9493
:10F30000DCF1812F81548A3108F036C1163409F4BA
:10F3100095C0173490F4133409F44EC0143430F40B
:10F320001134F1F0123409F01DC130C0143409F465
:10F3300059C0153409F016C16BC01A3409F4C4C0A1
:10F340001B3438F4173409F48FC0183409F00AC19B
:10F35000A1C01B3409F4D2C01C3409F003C1E8C0B9
:10F360008FEF81B90DC082B1809582B980E090E0C5
:10F37000E0EDF7E03197F1F70196883C9105C1F790
:10F380008091C00087FFEFCF12B8EFC08FEF84B934
:10F390000DC085B1809585B980E090E0E0EDF7E0A3
:10F3A0003197F1F70196883C9105C1F78091C00033
:10F3B00087FFEFCF15B8D9C08FEF87B90DC088B1DF
:10F3C000809588B980E090E0E0EDF7E03197F1F7C3
:10F3D0000196883C9105C1F78091C00087FFEFCF6F
:10F3E00018B8C3C08FEF8AB90DC08BB180958BB9A7
:10F3F00080E090E0E0EDF7E03197F1F70196883C8E
:10F400009105C1F78091C00087FFEFCF1BB8ADC059
:10F410008FEF8DB90DC08EB180958EB980E090E0F0
:10F42000E0EDF7E03197F1F70196883C9105C1F7DF
:10F430008091C00087FFEFCF1EB897C08FEF80BBD1
:10F440000DC081B3809581BB80E090E0E0EDF7E0F6
:10F450003197F1F70196883C9105C1F78091C00082
:10F4600087FFEFCF11BA81C08FEF83BB0DC084B38C
:10F47000809584BB80E090E0E0EDF7E03197F1F714
:10F480000196883C9105C1F78091C00087FFEFCFBE
:10F4900014BA6BC08FEF809301010FC080910201FD
:10F4A00080958093020180E090E0E0EDF7E03197F5
:10F4B000F1F70196883C9105C1F78091C00087FF64
:10F4C000EDCF1092020151C08FEF809304010FC065
:10F4D0008091050180958093050180E090E0E0ED4A
:10F4E000F7E03197F1F70196883C9105C1F78091DB
:10F4F000C00087FFEDCF1092050137C08FEF8093DA
:10F5000007010FC08091080180958093080180E079
:10F5100090E0E0EDF7E03197F1F70196883C910536
:10F52000C1F78091C00087FFEDCF109208011DC088
:10F530008FEF80930A010FC080910B01809580931B
:10F540000B0180E090E0E0EDF7E03197F1F70196F4
:10F55000883C9105C1F78091C00087FFEDCF1092E4
:10F560000B0103C085E292EEEEC98091C00087FFD7
:10F57000FCCF8091C600EAC988E392EEE4C98CE131
:10F5800091EEE1C988249924933011F1943028F444
:10F59000913089F09230B8F408C0953061F195301F
:10F5A000F0F0963009F048C043C02B3109F042C951
:10F5B00091E06BE13FC96227C15DDE4F2883CF52E6
:10F5C000D14092E037C9B22FA0E0622793E032C960
:10F5D000822F90E0A82BB92B622794E02BC92E3004
:10F5E00009F039C3622795E0C05DDE4F19821882A9
:10F5F000C053D1401FC9E1E0F0E0EC0FFD1FC05D3A
:10F60000DE4F08811981C053D140E00FF11F2083E4
:10F610000F5F1F4FC05DDE4F19830883C053D14079
:10F6200062270A171B0709F005C9D80196E002C92D
:10F63000261709F010C303C0973009F0FBC87724E0
:10F640009981933109F412C19431C8F4963009F4C8
:10F65000D8C0973050F4923009F406C1933009F4C1
:10F660006DC0913009F059C253C0913109F477C08F
:10F67000923108F0BBC0903109F04FC2F5C098310B
:10F6800009F487C0993150F4953109F4EFC09531F0
:10F6900008F4C6C1963109F040C2C2C19A3109F4DA
:10F6A0006CC09A3108F491C09B3109F45BC09D3164
:10F6B00009F033C29D81903359F48F81882311F46E
:10F6C0009EE11CC0813011F091E018C098E916C08D
:10F6D000892F807591F0903539F4E0E0F0E089E011
:10F6E0008093570094910AC0983539F4E3E0F0E034
:10F6F00089E080935700949101C090E01A821B82A8
:10F700008D818C831D829E831F8227E030E009C299
:10F710001A8288E08B8381E48C8386E58D8382E581
:10F720008E8389E48F8383E5888780E589878FE5E9
:10F730008A8782E38B872BE030E0F3C18A818139AD
:10F7400041F0823941F0803911F48FE005C080E04A
:10F7500003C082E001C08AE01A828B8344C0772410
:10F76000739482C08D81882311F48EE12CC0813086
:10F7700011F081E028C088E926C01A82E1E0F0E0BB
:10F7800089E08093570084918B831C8224E030E0D1
:10F79000C8C18B81803589F48C81883039F4E2E0EE
:10F7A000F0E089E08093570084910DC0E0E0F0E044
:10F7B00089E080935700849106C0E3E0F0E089E09F
:10F7C0008093570084911A82DFCF8D81836C99E0FA
:10F7D000E1E0F0E0082E90935700E89507B600FCB2
:10F7E000FDCF1A821B8223E030E09BC180EC8A832C
:10F7F000CE5CDE4F188219821A821B82C253D1401E
:10F800008EC18A8190E0A0E0B0E0582F44273327D2
:10F8100022278B8190E0A0E0B0E0DC0199278827C7
:10F82000282B392B4A2B5B2B8D8190E0A0E0B0E098
:10F83000282B392B4A2B5B2B8C8190E0A0E0B0E089
:10F84000BA2FA92F982F8827282B392B4A2B5B2BCF
:10F85000220F331F441F551FC05EDE4F288339839C
:10F860004A835B83C052D1401A8259C13A81C95C34
:10F87000DE4F3883C753D140CA5CDE4F1882C6536F
:10F88000D1408B81C82EDD24CA5CDE4F488159816E
:10F89000C653D140C42AD52A933109F082C0CE5C28
:10F8A000DE4F88819981AA81BB81C253D1408050AB
:10F8B000904CA340B04030F583E0CE5CDE4FE88052
:10F8C000F9800A811B81C253D140F70100935B008C
:10F8D00080935700E89507B600FCFDCFCE5CDE4F65
:10F8E000088119812A813B81C253D14000501F4FAA
:10F8F0002F4F3F4FCE5CDE4F088319832A833B8313
:10F90000C253D140C05EDE4F488159816A817B81FC
:10F91000C052D140DE011B9631E08C9111962C91A2
:10F9200011971296C75CDE4F2883C953D140C85C3B
:10F93000DE4F1882C853D14090E0C85CDE4FE881AA
:10F94000F981C853D1408E2B9F2B0C01FA01609393
:10F950005B0030935700E89511244E5F5F4F6F4F67
:10F960007F4F0EEFE02E0FEFF02ECE0CDF1CC114F8
:10F97000D10499F685E0C05EDE4F088119812A81A5
:10F980003B81C052D140F80120935B008093570027
:10F99000E89507B600FCFDCF81E180935700E8951C
:10F9A00035C0C05EDE4F88819981AA81BB81C0527B
:10F9B000D140B695A795979587957C018601ABE0D8
:10F9C000AA2EB12CAC0EBD1E0BC0D5016D915D01F0
:10F9D000C7010F947FFE0894E11CF11C01501040F8
:10F9E0000115110591F7A60160E070E0440F551F65
:10F9F000661F771FC05EDE4FE880F9800A811B8199
:10FA0000C052D1404E0D5F1D601F711F1A82C05E33
:10FA1000DE4F488359836A837B83C052D1407FC0C5
:10FA2000FA80C55CDE4FF882CB53D140C65CDE4F16
:10FA30001882CA53D1408B81C82EDD24C65CDE4FAC
:10FA400008811981CA53D140C02AD12A1A828981DA
:10FA5000BE016D5F7F4F843121F59601C05EDE4FA0
:10FA6000E880F9800A811B81C052D1400BBFF701A9
:10FA700087919691DB018C9311969C936E5F7F4FDB
:10FA8000D801C7010296A11DB11DC05EDE4F88835B
:10FA90009983AA83BB83C052D14022503040F1F6F3
:10FAA00036C0C05EDE4F288139814A815B81C052F9
:10FAB000D1400894C108D108760100E010E0089414
:10FAC000C11CD11C0894E11CF11C011D111DE20E8A
:10FAD000F31E041F151F21BDBB27A52F942F832FB5
:10FAE00082BD2F5F3F4F4F4F5F4FF89A80B5DB01CC
:10FAF0008D93BD012E153F054007510761F7C05E8C
:10FB0000DE4F288339834A835B83C052D1409601FC
:10FB10002D5F3F4FFB01108204C080EC8A8322E0FE
:10FB200030E08BE18093C6008091C00086FFFCCF5F
:10FB30008091C00080648093C000C15DDE4FF88179
:10FB4000CF52D140F093C6008091C00086FFFCCF19
:10FB50008091C00080648093C000432F3093C60022
:10FB60008091C00086FFFCCF8091C00080648093AC
:10FB7000C000922F2093C6008091C00086FFFCCF6A
:10FB80008091C00080648093C0008EE08093C600A6
:10FB90008091C00086FFFCCF8091C000806480937C
:10FBA000C00065E1C15DDE4FE880CF52D1406E25D7
:10FBB00069276427FE01319610C090819093C6009A
:10FBC0008091C00086FFFCCF31968091C000806498
:10FBD0008093C0006927215030402115310569F715
:10FBE0006093C6008091C00086FFFCCF8091C0006A
:10FBF00080648093C00085B1805885B9772081F4F6
:10FC0000C15DDE4F0881CF52D1400F5FC15DDE4F35
:10FC10000883CF52D14090E0A0E0B0E00D941AF4F8
:10FC200027982F9880E090E020ED37E0F901319798
:10FC3000F1F7019684369105C9F700008091C00064
:10FC40008D7F8093C00081E180935700E895EE2777
:10FC5000FF270994FFCF90E00D941AF497FB092E2B
:10FC600007260AD077FD04D02ED006D000201AF443
:10FC7000709561957F4F0895F6F7909581959F4F08
:10FC80000895A1E21A2EAA1BBB1BFD010DC0AA1FDD
:10FC9000BB1FEE1FFF1FA217B307E407F50720F0F5
:10FCA000A21BB30BE40BF50B661F771F881F991F70
:10FCB0001A9469F760957095809590959B01AC01B9
:10FCC000BD01CF010895AA1BBB1B51E107C0AA1FAC
:10FCD000BB1FA617B70710F0A61BB70B881F991FED
:10FCE0005A95A9F780959095BC01CD010895F99991
:10FCF000FECF92BD81BDF89A992780B50895262F31
:10FD0000F999FECF1FBA92BD81BD20BD0FB6F89400
:0EFD1000FA9AF99A0FBE01960895F894FFCF63
:00000001FF
