:100000000C9454010C9485010C9485010C94850189
:100010000C9485010C9485010C9485010C94850148
:100020000C9485010C94060C0C94060C0C94060C94
:100030000C9485010C9485010C9485010C94850128
:100040000C9485010C9485010C9485010C94850118
:100050000C9485010C9485010C9485010C94980AEC
:100060000C9485010C94620A0C94380A0C94850156
:100070000C9485010C9485010C9485010C948501E8
:100080000C9485010C9485010C9485010C948501D8
:100090000C94020A0C94D8090C9485010C94E20A81
:1000A0000C9485010C9485010C9485010C948501B8
:1000B0000C9485010C9485010C9485010C948501A8
:1000C0000C9485010C9485010C9485010C94850198
:1000D0000C9485010C9485010C9485010C94850188
:1000E0000C9485010C94D4030C94EF120C947002C0
:1000F0000C949F020C940B040C94FD030C94E903E4
:100100000C94F7030C9425050C94DC030C947202F8
:100110000C94DF030C94AD040C94EF030C94D00208
:100120000C94CA030C94E3050C94F9060C94B605E0
:100130000C948C050C94F3030C94100C0C94010497
:100140000C949C050C945F030C9471020C94E503D1
:100150000C943C040C948D050C940A040C94D0036C
:100160000C9412030C94C2020C94AE020C946D0415
:100170000C94AF050C9405040C94F4070C94D8036C
:100180000C940F0400002100240027002A002D00F9
:100190003000330001010000040107010A010000E2
:1001A0002200250028002B002E003100340002011F
:1001B0000000050108010B010000200023002600BB
:1001C00029002C002F00320000010000030106016D
:1001D00009010505050507050808080802020202CD
:1001E0000A0A0808040404040101010101010101D3
:1001F0000303030303030303040707070C0C0C0C9E
:100200000C0C0C0C02020202060606060606060686
:100210000B0B0B0B0B0B0B0B010210202008081013
:100220002040102040800201020108040201010266
:10023000040810204080804020100804020180043F
:10024000020180402010080402010804020101029A
:1002500004081020408001020408102040800000A3
:100260000A0B02090C0D0E08070304010000000030
:10027000000000000000000000000000000000007E
:10028000000000000000000000001211100000003B
:10029000000000000000000000000000000000005E
:1002A00000000000100CEF1211241FBECFEFD1E2AE
:1002B000DEBFCDBF00E00CBF26E0A0E9B3E001C087
:1002C0001D92A73DB207E1F713E0A0E0B2E0E8E736
:1002D000FFE200E00BBF02C007900D92A039B1070A
:1002E000D9F711E0C3E5D1E000E006C0219701098C
:1002F000802FFE010E948315C235D10780E00807D8
:10030000A9F70E941F0E0C94AA170C940000FC0180
:10031000A089B18982E08C93A485B5851C92A685BD
:10032000B7858FEC8C93108EA489B58986E08C9369
:10033000A289B3898C9180618C93A289B3898C91B5
:1003400088608C93A289B3898C9180688C93028891
:10035000F389E02D80818F7D8083089596E0899FC9
:10036000D0011124AE5AB94F90967C936E935F974B
:1003700091E091969C939197E091BF06F091C00611
:100380009091BE06992339F0309751F0811108C041
:1003900080916E061994309719F05C968C91FACF83
:1003A0000895CF92DF92EF92FF920F931F9396E002
:1003B000899FF0011124EE5AF94F11A2278D30A127
:1003C0002130310551F178F02230310509F451C066
:1003D0002330310509F452C01F910F91FF90EF9027
:1003E000DF90CF9008956623B9F361E070E00E943A
:1003F000AE012FB7F8948091550490915604A091C6
:100400005704B09158042FBF8093AA069093AB066F
:10041000A093AC06B093AD06DFCF9FB7F894C09021
:100420005504D0905604E0905704F09058049FBFB4
:100430000091AA061091AB062091AC063091AD0652
:10044000C01AD10AE20AF30A0091BC061091BD0657
:1004500030E020E00C151D052E053F0550F462E04C
:1004600070E01F910F91FF90EF90DF90CF900C9470
:10047000AE016111B1CF63E070E0F3CF70E060E0F6
:10048000F0CFCF92DF92EF92FF921092A005609191
:10049000A3057091A4058091A5059091A6050E94E1
:1004A000231328E23BE64EE65EE40E94AF146B01A4
:1004B0007C016091A1057091A20590E080E00E940E
:1004C00023139B01AC01C701B6010E944314209184
:1004D000A70521119058FF90EF90DF90CF900895DD
:1004E00008950895AF92BF92CF92DF92EF92FF925C
:1004F0000F931F93CF93DF936C017B018B01040F4C
:10050000151FEB015E01AE18BF08C017D10759F0E7
:100510006991D601ED91FC910190F081E02DC60129
:100520001995892B79F7C501DF91CF911F910F9113
:10053000FF90EF90DF90CF90BF90AF900895FC01B7
:10054000538D448D252F30E0842F90E0821B930B38
:10055000541710F0CF96089501970895FC01918DDE
:10056000828D981761F0A28DAE0FBF2FB11D5D96E1
:100570008C91928D9F5F9F73928F90E008958FEF83
:100580009FEF0895FC01918D828D981731F0828D37
:10059000E80FF11D858D90E008958FEF9FEF08958E
:1005A000FC01918D228D892F90E0805C9F4F821BF2
:1005B00091098F739927089589E594E00E94D002EC
:1005C00021E0892B09F420E0822F089586EF94E042
:1005D0000E94D00221E0892B09F420E0822F0895A7
:1005E000FC01A48DA80FB92FB11DA35ABF4F2C91A8
:1005F000848D90E001968F739927848FA689B7899F
:100600002C93A089B1898C91837080648C93938D95
:10061000848D981306C00288F389E02D80818F7D38
:1006200080830895EF92FF920F931F93CF93DF93F0
:10063000EC0181E0888F9B8D8C8D98131AC0E8891E
:10064000F989808185FF15C09FB7F894EE89FF89ED
:100650006083E889F98980818370806480839FBF8B
:1006600081E090E0DF91CF911F910F91FF90EF908B
:100670000895F62E0B8D10E00F5F1F4F0F7311279B
:10068000E02E8C8D8E110CC00FB607FCFACFE889D6
:10069000F989808185FFF5CFCE010E94F002F1CF6C
:1006A000EB8DEC0FFD2FF11DE35AFF4FF0829FB74A
:1006B000F8940B8FEA89FB8980818062CFCFCF933A
:1006C000DF93EC01888D8823B9F0AA89BB89E8897A
:1006D000F9898C9185FD03C0808186FD0DC00FB620
:1006E00007FCF7CF8C9185FFF2CF808185FFEDCF9E
:1006F000CE010E94F002E9CFDF91CF91089580E012
:1007000090E0892B29F00E94E60281110E940000EE
:1007100080E090E0892B29F00E94DC0281110E9488
:10072000000080E090E0892B49F080E090E0892B88
:1007300029F00E94000081110E94000080E090E0FA
:10074000892B49F080E090E0892B29F00E9400007D
:1007500081110C94000008958150823108F05AC034
:10076000E82FF0E08827E854FC4F8F4F0C94831556
:10077000D803DC03CA03D003D4030A04DF03E50370
:10078000E903EF03F303F703FD0301040A0405047F
:100790000B040F04809180008F7780938000089570
:1007A000809180008F7DF9CF80918000877FF5CF89
:1007B00084B58F7784BD089584B58F7DFBCF8091FC
:1007C000B0008F778093B00008958091B0008F7D46
:1007D000F9CF809190008F77809390000895809159
:1007E00090008F7DF9CF80919000877FF5CF809129
:1007F000A0008F778093A00008958091A0008F7D46
:10080000F9CF8091A000877FF5CF809120018F776D
:10081000809320010895809120018F7DF9CF8091F0
:100820002001877FF5CFCF93DF93282F30E0F901A8
:10083000E25AFD4F8491F901E85EFD4FD491F90130
:10084000EE52FE4FC491CC23A1F081110E94AC0363
:10085000EC2FF0E0EE0FFF1FE854FE4FA591B4918E
:10086000EC91ED2381E090E009F480E0DF91CF91FD
:10087000089580E090E0FACF862F0C9413041F9324
:10088000CF93DF93282F30E0F901E25AFD4F849196
:10089000F901E85EFD4FD491F901EE52FE4FC4918B
:1008A000CC23A9F0162F81110E94AC03EC2FF0E0AD
:1008B000EE0FFF1FE256FE4FA591B4918FB7F8944B
:1008C000EC91111108C0D095DE23DC938FBFDF912E
:1008D000CF911F910895DE2BF8CF862F642F0C94B3
:1008E0003F04CF93DF9390E0FC01E85EFD4F24913D
:1008F0008E529E4FFC0184918823C9F090E0880FAE
:10090000991FFC01EC57FE4FA591B491FC01E256F2
:10091000FE4FC591D49161110DC09FB7F8948C9191
:10092000209582238C938881282328839FBFDF9181
:10093000CF910895623051F49FB7F8943C91822F83
:10094000809583238C93E8812E2BEFCF8FB7F8947B
:10095000EC912E2B2C938FBFEACF862F642F0C9413
:100960007104863308F0865320917B00982F98708D
:10097000277F922B90937B008770806480937C000C
:1009800080917A00806480937A0080917A0086FD5D
:10099000FCCF809178009091790008953FB7F8944A
:1009A0008091450490914604A0914704B091480479
:1009B00026B5A89B05C02F3F19F00196A11DB11DBA
:1009C0003FBFBA2FA92F982F8827BC01CD01620FF6
:1009D000711D811D911D42E0660F771F881F991FB1
:1009E0004A95D1F708958F929F92AF92BF92CF927E
:1009F000DF92EF92FF924B015C010E94CE046B01EB
:100A00007C010E94CE046C197D098E099F09683E05
:100A1000734081059105A8F321E0821A9108A1088D
:100A2000B10888EEC80E83E0D81EE11CF11C8114C9
:100A30009104A104B10429F7FF90EF90DF90CF90CB
:100A4000BF90AF909F908F90089508952091D30309
:100A5000260F3327331F21323105ECF420911C047B
:100A6000FC0190E080E0243069F082E00895A091DC
:100A7000D3032191AC014D545C4FA40FB52FB11D90
:100A80002C930196861798F38091D303680F609397
:100A9000D30380E0089581E0089510921C0481E062
:100AA00080931B041092F60361E084E10E943F04EE
:100AB00061E085E10E943F04E9EBF0E080818E7FF8
:100AC000808380818D7F808388E48093B80085E473
:100AD0008093BC000895CF93DF9391E09093B2038D
:100AE0008823B9F0C091B800D091BA008091BC00C1
:100AF0008A7B8093BC0060E084E10E943F0460E058
:100B000085E10E943F040E944D05D093BA00C09336
:100B1000B800DF91CF9108950895E091500480913D
:100B20004F04E81730F4F0E0EE56FC4F808190E07F
:100B300008958FEF9FEF08959091500480914F0496
:100B40002FEF3FEF981748F4E92FF0E0EE56FC4FF7
:100B5000208130E09F5F90935004C90108958091F7
:100B60004F0490915004891B990B0895CF92DF9206
:100B7000EF92FF920F931F93CF93DF937C01CB01F2
:100B80008A0120912204222389F0EB016B01C40E1B
:100B9000D51ECC15DD0569F06991D701ED91FC9169
:100BA0000190F081E02DC7011995F3CF642F0E94C9
:100BB0002605C801DF91CF911F910F91FF90EF9013
:100BC000DF90CF900895CF93DF931F92CDB7DEB71C
:100BD0006983209122042223F9F020914D042032D0
:100BE00058F021E030E0FC013383228390E080E084
:100BF0000F90DF91CF91089580914E04E82FF0E09F
:100C0000ED5DFB4F998190838F5F80934E048093BD
:100C10004D0481E090E0ECCF61E0CE0101960E94AE
:100C20002605F7CFCF92DF92EF92FF920F931F939B
:100C3000CF93DF93FC01C48121E020932204C09371
:100C4000430410924E0410924D048385682B83E96F
:100C500095E00E94E305D0914D04D13208F092C096
:100C60000E94CE046B017C0180911C04811165C03F
:100C700082E080931C0481E080931B048FEF8093BB
:100C80001A0410921904D0931804A3E2B4E0E8EF18
:100C9000F3E080E0D81385C01092F7038091F7034A
:100CA000CC0FC82BC093F7038091F603813009F075
:100CB0007CC01092F6030E94CE046B017C018091EF
:100CC000F7038093BB0080911E0490911F04A091B4
:100CD0002004B0912104892B8A2B8B2B99F00E9440
:100CE000CE0400911E0410911F0420912004309125
:100CF00021046C197D098E099F090617170728071B
:100D00003907E0F18091BC0083FDD9CF85EC809359
:100D1000BC000E94CE046B017C0180911C048230D7
:100D200009F445C080911A048F3F61F180911A0443
:100D3000803241F180911A0425C080911E04909167
:100D40001F04A0912004B0912104892B8A2B8B2BA6
:100D500009F48ACF0E94CE0400911E0410911F0452
:100D600020912004309121046C197D098E099F097E
:100D7000061717072807390708F076CF80911D045A
:100D80000E946B0510924E0410924D0410922204A2
:100D9000DF91CF911F910F91FF90EF90DF90CF9057
:100DA00008959D9191938F5F75CF85EEB0CF80911F
:100DB0001E0490911F04A0912004B0912104892B5E
:100DC0008A2B8B2B09F4A9CF0E94CE0400911E041C
:100DD00010911F0420912004309121046C197D0989
:100DE0008E099F09061717072807390708F095CFBE
:100DF000C5CF90E080E008950F931F93CF93DF93CA
:100E00008C01FC01C081D181F801868197818C170A
:100E10009D0734F061E08C2F0E9471042196F4CF7D
:100E2000DF91CF911F910F910895CF92DF92EF92B2
:100E3000FF920F931F93CF93DF937C018B01D12CF3
:100E4000C12CC016D106ECF4F701C681D781F70199
:100E500080819181C817D90784F061E08C2F0E94AE
:100E60003F0463E070E080E090E00E94F30460E003
:100E70008C2F0E943F042197EACFFFEFCF1ADF0AA1
:100E8000E0CF119501951109F70111870087DF91D6
:100E9000CF911F910F91FF90EF90DF90CF90089529
:100EA000CF92DF92EF92FF920F931F93CF93DF9336
:100EB0008C016B01F12CE12CF801EC14FD04E4F43D
:100EC000C081D181F801868197818C179D0784F0BC
:100ED00061E08C2F0E943F0463E070E080E090E0CE
:100EE0000E94F30460E08C2F0E943F042196EACF19
:100EF000FFEFEF1AFF0AE0CFD186C086DF91CF91D6
:100F00001F910F91FF90EF90DF90CF9008950F9376
:100F10001F93CF938C01C62F0E9412066C2F646022
:100F2000C8010E9412066C2F6B7FC8010E94120636
:100F300083EC90E00197F1F7CF911F910F91089505
:100F40000F931F93CF93DF938C01D62FC42F607F15
:100F5000642B0E94870780E1D89FB00111246C2B7D
:100F6000C801DF91CF911F910F910C948707CF9308
:100F7000DF9300D000D01F921F92CDB7DEB798E06C
:100F8000E9E1F2E0DE01119601900D929A95E1F708
:100F90009091CF06961710F46FEF690F262F30E06F
:100FA000220F331F41E050E04C0F5D1F240F351F0F
:100FB000F9016081680F606840E087EC96E0289650
:100FC0000FB6F894DEBF0FBECDBFDF91CF910C946A
:100FD000A00740E061E087EC96E00E94A0078BE369
:100FE0009FE10197F1F7089541E00E94A00781E099
:100FF00090E00895FB0101900020E9F73197AF01DF
:10100000461B570BDC01ED91FC910280F381E02D32
:1010100019948F929F92AF92BF920F931F93CF9389
:10102000DF93CDB7DEB7A1970FB6F894DEBF0FBE42
:10103000CDBF19A2423008F44AE08E010F5D1F4F68
:10104000842E912CB12CA12CA50194010E94611534
:10105000E62FB901CA01EA3004F5E05DD801EE934C
:101060008D01232B242B252B79F790E080E010971E
:1010700029F0BD0187EC96E00E94FA07A1960FB611
:10108000F894DEBF0FBECDBFDF91CF911F910F91BE
:10109000BF90AF909F908F900895E95CDFCFBC0127
:1010A00087EC96E00C94FA074F925F926F927F92D2
:1010B0008F929F92AF92BF92CF92DF92EF92FF9268
:1010C000CF93DF936B017C01AC019B010E945C1507
:1010D0006BE572E0811126C046015701E894B7F82C
:1010E0002FEF3FEF4FE75FE7C501B4010E945C15AA
:1010F00081110CC02FEF3FEF4FE75FE7C501B4014F
:101100000E941E136FE572E0181664F02FEF3FEF98
:101110004FE75FE4C701B6010E9457151816A4F403
:1011200063E672E087EC96E0DF91CF91FF90EF905D
:10113000DF90CF90BF90AF909F908F907F906F90F7
:101140005F904F900C94FA072FEF3FEF4FE75FEC63
:10115000C701B6010E941E1387FDE2CF20E030E0F8
:10116000A901C701B6010E941E13D0E0C0E087FFAD
:101170000CC041E06DE287EC96E00E94A007F7FA10
:10118000F094F7F8F094C1E0D0E02AE037ED43EABC
:101190005BE3C701B6010E9443144B015C010E944E
:1011A00028156B017C010E9423139B01AC01C50132
:1011B000B4010E9442144B015C014AE0C701B60130
:1011C0000E9409087C01EC0EFD1E41E06EE287ECF6
:1011D00096E00E94A0078FEFE81AF80A20E030E0BE
:1011E00040E251E4C501B4010E9484132B013C018B
:1011F0000E9428154B01B12CA12C4AE0C501B40175
:101200000E940908E80EF91EC501B4010E942313CB
:101210009B01AC01C301B2010E94421420E030E006
:1012200040E251E40E9484130E94281590E080E07F
:101230004AE00E9409088E0D9F1DDF91CF91FF901B
:10124000EF90DF90CF90BF90AF909F908F907F9066
:101250006F905F904F9008950F931F93CF93DF93FC
:10126000EC0188819981009759F02A813B812617EA
:10127000370730F081E0DF91CF911F910F910895F2
:101280008B016F5F7F4F0E94B016009759F09983D2
:1012900088831B830A832C813D81232B59F7FC0112
:1012A0001082E8CF80E0E7CFCF93DF93EC01198283
:1012B00018821B821A821D821C8270E060E00E94EC
:1012C0002C092881398181110FC02115310519F0B0
:1012D000C9010E942716198218821D821C821B8256
:1012E0001A82DF91CF9108951D821C826BE373E017
:1012F000C901DF91CF910C94A317CF93DF93EC0139
:1013000070E060E00E942C092881398181110FC0B2
:101310002115310519F0C9010E942716198218827A
:101320001D821C821B821A82DF91CF9108951D823B
:101330001C826BE373E0C901DF91CF910C94A3177A
:1013400085ED8093BC0080911E0490911F04A091B4
:101350002004B09121040796A11DB11D23E0B6958C
:10136000A795979587952A95D1F72091BC0024FDE4
:1013700003C010921C04089540911E0450911F0454
:101380006091200470912104452B462B472B69F373
:101390000097A105B10541F02AE22A95F1F700C0B6
:1013A0000197A109B109E1CF80911D040C946B054F
:1013B0001F920F920FB60F9211240BB60F922F931C
:1013C0003F934F935F936F937F938F939F93AF93CD
:1013D000BF93EF93FF9389E594E00E94F002FF91A1
:1013E000EF91BF91AF919F918F917F916F915F919D
:1013F0004F913F912F910F900BBE0F900FBE0F900A
:101400001F9018951F920F920FB60F9211240BB6D2
:101410000F922F938F939F93EF93FF93E091690423
:10142000F0916A048081E0916F04F091700482FD74
:101430001DC09081809172048F5F8F73209173041F
:10144000821741F0E0917204F0E0E75AFB4F958F6C
:1014500080937204FF91EF919F918F912F910F9044
:101460000BBE0F900FBE0F901F9018958081F2CF8A
:101470001F920F920FB60F9211240BB60F922F935B
:101480003F934F935F936F937F938F939F93AF930C
:10149000BF93EF93FF9386EF94E00E94F002FF91D9
:1014A000EF91BF91AF919F918F917F916F915F91DC
:1014B0004F913F912F910F900BBE0F900FBE0F9049
:1014C0001F9018951F920F920FB60F9211240BB612
:1014D0000F922F938F939F93EF93FF93E0910605C5
:1014E000F09107058081E0910C05F0910D0582FDDA
:1014F0001DC0908180910F058F5F8F732091100523
:10150000821741F0E0910F05F0E0EA50FB4F958F14
:1015100080930F05FF91EF919F918F912F910F90E5
:101520000BBE0F900FBE0F901F9018958081F2CFC9
:101530001F920F920FB60F9211242F933F938F9308
:101540009F93AF93BF938091550490915604A091BF
:101550005704B09158043091440423E0230F2D37F1
:1015600058F50196A11DB11D2093440480935504A4
:1015700090935604A0935704B09358048091450467
:1015800090914604A0914704B09148040196A11D92
:10159000B11D8093450490934604A0934704B093F3
:1015A0004804BF91AF919F918F913F912F910F90E0
:1015B0000FBE0F901F90189526E8230F0296A11DCD
:1015C000B11DD2CF1F920F920FB60F9211240BB6FE
:1015D0000F922F933F934F935F936F937F938F93CC
:1015E0009F93AF93BF93EF93FF938091B900887F50
:1015F000803609F44DC008F040C0883209F4A9C013
:1016000028F5803109F49DC0C8F4882309F4FBC093
:10161000883009F496C0FF91EF91BF91AF919F91EF
:101620008F917F916F915F914F913F912F910F908B
:101630000BBE0F900FBE0F901F901895883109F4C4
:1016400088C0803241F780931A0414C0803409F4B2
:101650009DC040F48033B9F38833E9F680931A04CF
:1016600085ECB0C0803509F485C0883509F496C092
:10167000883489F60E94A009CECF883909F48CC03D
:1016800038F5883729F050F4883611F0803719F68C
:1016900083E080931C041092F50357C0883809F446
:1016A0007BC0803919F0803809F0B5CF8091F503FF
:1016B000803208F071C0E091F50381E08E0F8093D5
:1016C000F5038091BB00F0E0EB52FC4F80833DC0FE
:1016D000803B39F0E0F4803A09F479C0883A09F0A7
:1016E0009ACF84E080931C041092D4031092D30309
:1016F000E0914B04F0914C0419958091D303811132
:101700000FC081E08093D3031092B30309C0803CE3
:1017100009F4A6CF883C09F4A3CF883B09F07BCF1E
:10172000E091D40381E08E0F8093D403F0E0ED5478
:10173000FC4F80818093BB009091D4038091D303B0
:1017400029C08091F7038093BB0085EC8093BC0097
:1017500062CF9091190480911804981758F5E09180
:10176000190481E08E0F80931904F0E0E850FC4FDB
:101770008081E9CFE091190481E08E0F80931904F4
:101780008091BB00F0E0E850FC4F808390911904F9
:10179000809118049817C8F285E8D8CFE091190411
:1017A00081E08E0F809319048091BB00F0E0E85037
:1017B000FC4F808380911B0481115CCF81E080937A
:1017C000F60384EA8093BC0010921C0424CF85ECBD
:1017D0008093BC0010921C048091F503803230F499
:1017E000E091F503F0E0EB52FC4F10826091F503BD
:1017F00070E0E0914904F0914A0485ED93E0199579
:101800001092F50308CF10921A0434CF1F920F9252
:101810000FB60F9211240F900FBE0F901F901895C6
:10182000CF93DF9310925C0410925B0488EE93E0F8
:10183000A0E0B0E080935D0490935E04A0935F0409
:10184000B093600425E232E030935A0420935904A7
:101850004DEC50E050936604409365044CEC50E02E
:10186000509368044093670448EC50E050936A0436
:101870004093690449EC50E050936C0440936B042E
:101880004AEC50E050936E0440936D044EEC50E0EF
:101890005093700440936F0410927204109273047A
:1018A00010927404109275041092F9041092F804C6
:1018B0008093FA049093FB04A093FC04B093FD047E
:1018C0003093F7042093F60425EC30E030930305C1
:1018D0002093020524EC30E03093050520930405A5
:1018E00020EC30E0309307052093060521EC30E032
:1018F000309309052093080522EC30E030930B0566
:1019000020930A0526EC30E030930D0520930C055A
:1019100010920F05109210051092110510921205E9
:1019200010929605109295058093970590939805CF
:10193000A0939905B0939A0587E392E0909394055C
:10194000809393051092CA061092C90683E592E02F
:101950009093C8068093C70687E28093CB0684E104
:101960008093D00684E08093D1061092D20681EC59
:1019700096E00E9454091092540610925806109254
:1019800057061092590689E492E09093530680938B
:101990005206EEE6F6E01082148213821582369625
:1019A00086E0EA3AF807B9F783E092E09093B5064B
:1019B0008093B40680E092E09093B7068093B606D9
:1019C00084E08093B80683E08093B90687E092E0D4
:1019D0009093B3068093B206CAE0D0E0D093BB06E2
:1019E000C093BA0684EF91E09093BD068093BC0645
:1019F0001092C0061092BF061092AE061092AF066B
:101A00001092B0061092B1061092BE068AE090E0E5
:101A10000E948B15FC0111861086D183C0838BE058
:101A200090E0938382838CE090E0958384838DE0C3
:101A300090E097838683F0935106E09350068AE006
:101A400090E00E948B15FC011186108686E090E0E4
:101A50009183808387E090E09383828388E090E0A5
:101A60009583848389E090E097838683F0934F0683
:101A7000E0934E068AE090E00E948B15FC011186EF
:101A8000108682E090E09183808383E090E09383EE
:101A9000828384E090E09583848385E090E097835F
:101AA0008683F0934D06E0934C0610929F051092AA
:101AB000A0051092A2051092A1051092A305109204
:101AC000A4051092A5051092A6051092A7051092E4
:101AD000A9051092A8051092AA051092AB051092C4
:101AE000AC051092AD051092AE051092B0051092A3
:101AF000AF051092B1051092B2051092B305109285
:101B0000B4051092B5051092B7051092B605109263
:101B1000B8051092B9051092BA051092BB05109243
:101B2000BC051092C1051092C2051092C305109217
:101B3000C4051092C5051092C6051092CF051092EB
:101B4000D0051092D1051092D2051092D3051092B3
:101B5000D4051092DD051092DE051092E305109277
:101B6000E4051092E5051092E6051092EB0510923F
:101B7000EC051092F1051092F2051092F305109207
:101B8000F4051092F9051092FA051092FF051092D3
:101B9000000610920106109202061092070610929B
:101BA000080610920D0610920E0610920F06109263
:101BB0001006109215061092160610921B0610922F
:101BC0001C0610921D0610921E06109223061092FB
:101BD000240682E080933406109235061092360671
:101BE00010923706109239061092380610923B0672
:101BF00010923A0610923C0610923D0610923E0654
:101C000010923F0610924006109241061092420632
:101C10001092430610924406109245061092460612
:101C200010924706109248061092490610924A06F2
:101C300010924B0610922506DF91CF910895CF9315
:101C4000DF9300D000D01F921F92CDB7DEB77894FB
:101C500084B5826084BD84B5816084BD85B58260B1
:101C600085BD85B5816085BD80916E008160809362
:101C70006E001092810080918100826080938100CB
:101C800080918100816080938100809180008160DB
:101C9000809380008091B10084608093B100809136
:101CA000B00081608093B000809191008260809349
:101CB00091008091910081608093910080919000CB
:101CC0008160809390008091A10082608093A10048
:101CD0008091A10081608093A1008091A00081602B
:101CE0008093A000809121018260809321018091E6
:101CF0002101816080932101809120018160809386
:101D0000200180917A00846080937A0080917A002B
:101D1000826080937A0080917A00816080937A005B
:101D200080917A00806880937A001092C10086EFDB
:101D300094E00E94870189E594E00E948701109257
:101D4000500410924F0410924E0410924D040E94C1
:101D50004D0580E792E090934C0480934B0481E71B
:101D600092E090934A04809349041092CC068091AB
:101D7000D106823018F098E09093CC068093CF067D
:101D800062E370E080E090E00E94F3046091D2068C
:101D900087EC96E00E94120668EE73E080E090E027
:101DA0000E94F30460E387EC96E00E9487070BE44F
:101DB00016E4C8010197F1F760E387EC96E00E9412
:101DC0008707C8010197F1F760E387EC96E00E946E
:101DD000870783E592E00197F1F760E287EC96E0F0
:101DE0000E9487076091CC06606240E087EC96E035
:101DF0000E94A00784E08093CD0640E06CE087EC71
:101E000096E00E94A0070E94E90782E08093CE0638
:101E100040E066E087EC96E00E94A00740E062E0C8
:101E200087EC96E00E94A0078BE39FE10197F1F712
:101E300088E08093D20660E087EC96E00E9412066C
:101E400060E080E00E94B70787E692E00E944F08BA
:101E500061E080E00E94B70782E792E00E944F08AD
:101E600062E080E00E94B70787E892E00E944F0896
:101E700080915006909151060E94FC0680914E067A
:101E800090914F060E94FC0680914C0690914D0661
:101E90000E94FC06412C512C3201439486EF94E0C1
:101EA0000E94D002181619066CF586EF94E00E9485
:101EB000AE0289831A820091C5061091C6060F5F93
:101EC0001F4FB80181EC96E00E942C09882399F0FD
:101ED0002091C1063091C2068091C5069091C60638
:101EE000BE016F5F7F4F820F931F0E94A317109355
:101EF000C6060093C5066AE070E080E090E00E94AC
:101F0000F304CCCF8091C5069091C606892B09F4C5
:101F10003FC10091C1061091C20662E972E0C8019A
:101F20000E949A17892B09F0A5C00E94E90760E07A
:101F300080E00E94B70784E992E00E944F0863E0C6
:101F400080E00E94B70785EA92E00E944F0862E0B5
:101F500080E00E94B70781EB92E00E944F0886E381
:101F60000E94B104BC01990F880B990B0E942513A4
:101F700020E030E040E85AE30E94841320E030E0A3
:101F80004AEF53E40E948413609351047093520407
:101F900080935304909354040E94540861E080E0BD
:101FA0000E94B70780EC92E00E944F080E94410215
:101FB0000E94540829E23CE54FE05EE36091510441
:101FC0007091520480915304909154040E94AF1474
:101FD0000E94211580915006909151060E94500751
:101FE00000914E0610914F060E94410229E23CE505
:101FF0004FE05EE30E94AF140E942115C8010E94C9
:10200000500700914C0610914D0661E070E0C80148
:102010000E94500761E070E0C8010E94150763E06C
:1020200080E00E94B7078AEC92E00E944F0862E0CD
:1020300080E00E94B7078AED92E00E944F0860910D
:1020400051047091520480915304909154040E9461
:10205000540861E080E00E94B70780EC92E00E94A3
:102060004F080E9441020E94540881EC96E00E94B1
:102070007D098EC06AEE72E0C8010E949A17892B12
:1020800009F0BBC00E94E90760E080E00E94B7074A
:102090008CEE92E00E944F0861E080E00E94B7075A
:1020A0008DEF92E00E944F080E9441020E94540866
:1020B00062E080E00E94B70789E093E00E944F0849
:1020C00086E30E94B104BC01990F880B990B0E9412
:1020D000251320E030E040E85AE30E94841320E01A
:1020E00030E04AEF53E40E9484130E9421156B01F3
:1020F000770FEE08FF084AE0C701B601F7FE0EC0F1
:1021000041E06DE287EC96E00E94A0076627772702
:10211000CB016C197D098E099F094AE00E940908CC
:10212000C701B6010E9425136B017C018090510408
:1021300090905204A0905304B0905404A5019401CF
:102140000E945715A501940187FD2BC0C701B60158
:102150000E9442140E942115072E000C880B990B37
:102160000E94251329E23CE54FE05EE30E94AF1494
:102170000E94211580915006909151060E945007AF
:10218000C0925104D0925204E0925304F09254044D
:1021900064EF71E080E090E00E94F3040E947F030E
:1021A0007DCEC701B6010E941E1387FF1DC0A70187
:1021B0009601C501B4010E9442140E942115072E08
:1021C000000C880B990B0E94251329E23CE54FE097
:1021D0005EE30E94AF140E942115809150069091F9
:1021E00051060E941507CCCF63E080E00E94B7073C
:1021F00086E193E00E944F08CBCF6DE173E0C80108
:102200000E949A17892B09F0CDC10E94E90760E06E
:1022100080E00E94B70780E293E00E944F0861E0EF
:1022200080E00E94B70781E393E00E944F08A090EE
:102230004C06B0904D06CE0101960E94540951E023
:102240005093BE068FB7F8944091550450915604B0
:1022500060915704709158048FBF8091AE069091A1
:10226000AF06A091B006B091B106481B590B6A0B9E
:102270007B0B8091BA069091BB06B0E0A0E084177A
:102280009507A607B707D8F610E08091B80618178B
:1022900060F4E091B406F091B506E10FF11D62E043
:1022A00080810E9471041F5FF0CF312C8091B906AC
:1022B000381608F061C0E32CF12CE091B606F091DD
:1022C000B706EE0DFF1D61E080810E947104E09170
:1022D000B606F091B706EE0DFF1D60E080810E940A
:1022E0003F04D301C201032C04C0880F991FAA1F09
:1022F000BB1F0A94D2F74C016C01C094D094212CDE
:102300008091B806281608F5022D10E0E091B40679
:10231000F091B506E00FF11F80810E9413040C5F5D
:102320001F4F000F111FF801EE5AF94F892B41F48E
:102330008081918188299929918380832394E0CF9A
:10234000808191818C219D21F7CFE091B606F0919B
:10235000B706EE0DFF1D61E080810E943F04809171
:10236000B6069091B706E80EF91E60E0F70180818D
:102370000E94710433949ACF02E516E07801F701C8
:10238000878D90A1892B31F4148E8FEF9FEF968F5C
:10239000858F11A296E0E90EF11CEEE8F6E0EE154D
:1023A000FF0569F7D12C8091B806D81608F053C004
:1023B000C12C8D2C912C880C991CC401865A994FE4
:1023C0004C012091B906C21608F043C0F4016081A7
:1023D00071810C2C02C0769567950A94E2F7D29E23
:1023E000900111242C0D311DE2E5F6E080E0458DD1
:1023F000568D2417350709F4F0C08F5F36968A3062
:10240000B1F760FF24C0E2E5F6E090E080E0448DA3
:10241000411118C0E091B206F091B306E20FF31F2C
:10242000408156E0589FF001599FF00D1124EE5A5B
:10243000F94F448F368F258F10A2178E61E00E94CE
:10244000D10105C0019636968A30910501F7C394F3
:10245000B8CFD394A8CF80E0F80191A19111892F32
:102460000A5F1F4F0E151F05B9F79FB7F8944091EB
:1024700055045091560460915704709158049FBFC1
:102480004093AE065093AF066093B0067093B106CA
:10249000882309F4D4CE80917306882309F4CFCE23
:1024A0008091710690917206019709F0C8CEF09064
:1024B0006E06FF2009F4C3CE4D815E81F3E2FF1268
:1024C00030C069817A8186EF94E00E94720269E3EC
:1024D00073E086EF94E00E94FA07E980FA80C70172
:1024E0000E94F8128C01E114F10419F0C7010E9456
:1024F0002716B801110F880B990B0E94251329E2AA
:102500003CE54FE05EE30E94AF140E942115C50137
:102510000E94500761E080E00E94B7078CE393E0DF
:1025200069CEFF8218868A010F5F1F4FB801CE0166
:1025300001960E942C09882369F029813A818D81B6
:102540009E81BE01695F7F4F820F931F0E94A31778
:102550001E830D835AE2F51218C061E087E00E94E5
:10256000B70788E493E00E944F08CE0101960E94CD
:102570007D0961E087E00E94B7074D815E81698136
:102580007A8187EC96E00E94720261E087E00E9407
:10259000B7074D815E8169817A8187EC96E00E9460
:1025A00072024DCE0E94E90760E080E00E94B7070A
:1025B00089E593E00E944F0861E080E00E94B70740
:1025C0008CE693E00E944F0862E080E00E94B7072B
:1025D0008EE793E00E944F0848CD617030CF809124
:1025E000C1069091C206009711F00C942716089529
:1025F000FC0188279927E89421912032E9F32930BA
:1026000010F02E30C8F32B3241F02D3239F468949B
:1026100004C00E941613820F911D219120532A306D
:10262000C0F31EF4909581959F4F08957AE0979F8F
:10263000902D879F802D910D112408950E94601385
:1026400008F481E00895E89409C097FB3EF4909562
:102650008095709561957F4F8F4F9F4F9923A9F07B
:10266000F92F96E9BB279395F6958795779567950A
:10267000B795F111F8CFFAF4BB0F11F460FF1BC04E
:102680006F5F7F4F8F4F9F4F16C0882311F096E9E1
:1026900011C0772321F09EE8872F762F05C066238F
:1026A00071F096E8862F70E060E02AF09A95660F48
:1026B000771F881FDAF7880F9695879597F9089501
:1026C000990F0008550FAA0BE0E8FEEF1616170643
:1026D000E807F907C0F012161306E407F50798F0AB
:1026E000621B730B840B950B39F40A2661F0232BC4
:1026F000242B252B21F408950A2609F4A140A69540
:102700008FEF811D811D08950E9497130C9408146A
:102710000E94FA1338F00E94011420F0952311F062
:102720000C94F1130C94F71311240C943C140E9494
:10273000191470F3959FC1F3950F50E0551F629FD8
:10274000F001729FBB27F00DB11D639FAA27F00D0A
:10275000B11DAA1F649F6627B00DA11D661F829F31
:102760002227B00DA11D621F739FB00DA11D621F16
:10277000839FA00D611D221F749F3327A00D611D33
:10278000231F849F600D211D822F762F6A2F112415
:102790009F5750409AF0F1F088234AF0EE0FFF1F48
:1027A000BB1F661F771F881F91505040A9F79E3F9F
:1027B000510580F00C94F1130C943C145F3FE4F34A
:1027C000983ED4F3869577956795B795F795E795F5
:1027D0009F5FC1F7FE2B880F911D9695879597F9FE
:1027E000089597F99F6780E870E060E008959FEF93
:1027F00080EC089500240A94161617061806090698
:10280000089500240A941216130614060506089566
:10281000092E0394000C11F4882352F0BB0F40F4EE
:10282000BF2B11F460FF04C06F5F7F4F8F4F9F4F2E
:10283000089557FD9058440F551F59F05F3F71F0B0
:102840004795880F97FB991F61F09F3F79F0879517
:102850000895121613061406551FF2CF4695F1DFA0
:1028600008C0161617061806991FF1CF8695710530
:10287000610508940895E894BB2766277727CB0164
:1028800097F908955058BB27AA270E945A140C9410
:1028900008140E94FA1338F00E94011420F039F451
:1028A0009F3F19F426F40C94F7130EF4E095E7FB20
:1028B0000C94F113E92F0E94191458F3BA17620708
:1028C00073078407950720F079F4A6F50C943B1460
:1028D0000EF4E0950B2EBA2FA02D0B01B90190013B
:1028E0000C01CA01A0011124FF27591B99F0593F7F
:1028F00050F4503E68F11A16F040A22F232F342FC7
:102900004427585FF3CF469537952795A795F04014
:102910005395C9F77EF41F16BA0B620B730B840B29
:10292000BAF09150A1F0FF0FBB1F661F771F881FE1
:10293000C2F70EC0BA0F621F731F841F48F4879539
:1029400077956795B795F7959E3F08F0B0CF93952B
:10295000880F08F09927EE0F9795879508950E94A4
:10296000C3140C9408140E94011458F00E94FA1326
:1029700040F029F45F3F29F00C94F11351110C94AD
:102980003C140C94F7130E94191468F39923B1F3C3
:10299000552391F3951B550BBB27AA276217730785
:1029A000840738F09F5F5F4F220F331F441FAA1F19
:1029B000A9F335D00E2E3AF0E0E832D091505040D5
:1029C000E695001CCAF72BD0FE2F29D0660F771F83
:1029D000881FBB1F261737074807AB07B0E809F069
:1029E000BB0B802DBF01FF2793585F4F3AF09E3FEE
:1029F000510578F00C94F1130C943C145F3FE4F310
:102A0000983ED4F3869577956795B795F7959F5F30
:102A1000C9F7880F911D9695879597F90895E1E07C
:102A2000660F771F881FBB1F621773078407BA07DB
:102A300020F0621B730B840BBA0BEE1F88F7E09536
:102A400008950E9428156894B1110C943C140895BF
:102A50000E94211488F09F5798F0B92F9927B751F9
:102A6000B0F0E1F0660F771F881F991F1AF0BA9532
:102A7000C9F714C0B13091F00E943B14B1E0089541
:102A80000C943B14672F782F8827B85F39F0B93F33
:102A9000CCF3869577956795B395D9F73EF49095E5
:102AA0008095709561957F4F8F4F9F4F08950E943D
:102AB000601308F48FEF08950E946013880B990B40
:102AC0000895A1E21A2EAA1BBB1BFD010DC0AA1F6F
:102AD000BB1FEE1FFF1FA217B307E407F50720F087
:102AE000A21BB30BE40BF50B661F771F881F991F02
:102AF0001A9469F760957095809590959B01AC014B
:102B0000BD01CF010895EE0FFF1F881F8BBF0790F7
:102B1000F691E02D19940F931F93CF93DF9382309A
:102B2000910510F482E090E0E091D506F091D60690
:102B300030E020E0B0E0A0E0309799F421153105B5
:102B400009F44AC0281B390B24303105D8F58A8195
:102B50009B816115710589F1FB0193838283FE01DD
:102B600011C0408151810281138148175907E0F05B
:102B70004817590799F4109761F012960C93129721
:102B800013961C933296CF01DF91CF911F910F9135
:102B900008950093D5061093D606F4CF211531057C
:102BA00051F04217530738F0A901DB019A01BD012A
:102BB000DF01F801C1CFEF01F9CF9093D6068093E2
:102BC000D506CDCFFE01E20FF31F819391932250E2
:102BD000310939832883D7CF2091D3063091D40689
:102BE000232B41F420911502309116023093D40624
:102BF0002093D30620911302309114022115310540
:102C000041F42DB73EB74091170250911802241B92
:102C1000350BE091D306F091D406E217F307A0F448
:102C20002E1B3F0B2817390778F0AC014E5F5F4F22
:102C30002417350748F04E0F5F1F5093D40640937A
:102C4000D306819391939FCFF0E0E0E09CCFCF93A8
:102C5000DF930097E9F0FC01329713821282A09172
:102C6000D506B091D606ED0130E020E01097A1F432
:102C700020813181820F931F2091D3063091D40699
:102C80002817390709F061C0F093D406E093D30602
:102C9000DF91CF910895EA01CE17DF07E8F54A8169
:102CA0005B819E0141155105B1F7E901FB83EA8380
:102CB00049915991C40FD51FEC17FD0761F480812C
:102CC00091810296840F951FE901998388838281FF
:102CD00093819B838A83F0E0E0E012968D919C9132
:102CE00013970097B9F52D913C911197CD0102965C
:102CF000820F931F2091D3063091D40628173907ED
:102D000039F6309751F51092D6061092D506B09349
:102D1000D406A093D306BCCFD383C2834081518114
:102D2000840F951FC817D90761F44E5F5F4F8881E4
:102D30009981480F591F518340838A819B819383D6
:102D400082832115310509F0B0CFF093D606E093C8
:102D5000D5069ECFFD01DC01C0CF13821282D7CFF2
:102D60004F925F926F927F928F929F92AF92BF929B
:102D7000CF92DF92EF92FF920F931F93CF93DF9347
:102D80008C01009799F4CB01DF91CF911F910F91A6
:102D9000FF90EF90DF90CF90BF90AF909F908F907B
:102DA0007F906F905F904F900C948B15FC01E60F15
:102DB000F71F9C0122503109E217F30708F4AEC057
:102DC000D901CD91DC911197C617D70720F1C530F5
:102DD000D10578F0CE0104978617970750F0C61BEF
:102DE000D70B2297C193D1936D937C93CF010E940F
:102DF0002716C801DF91CF911F910F91FF90EF909F
:102E0000DF90CF90BF90AF909F908F907F906F900A
:102E10005F904F9008955B01AC1ABD0A4C018C0E77
:102E20009D1EA091D506B091D606512C412CF12CB7
:102E3000E12C109731F58091D3069091D406881536
:102E4000990509F05CC04616570608F058C08091F5
:102E5000130290911402009741F48DB79EB74091F0
:102E6000170250911802841B950BE817F90708F018
:102E700055C0F093D406E093D306F90171836083C3
:102E8000B8CF8D919C91119712966C9012971396D2
:102E90007C901397A815B90559F56C0142E0C40E52
:102EA000D11CCA14DB0420F1AC014A195B09DA0118
:102EB0001296159780F06282738251834083D90104
:102EC0006D937C93E114F10471F0D7011396FC9398
:102ED000EE9312978ECF22968C0F9D1FF90191834E
:102EE0008083F301EFCFF093D606E093D50681CF30
:102EF0004816590608F42C017D01D3019ACFCB0165
:102F00000E948B157C01009749F0AE01B8010E9428
:102F10009117C8010E94271687016BCF10E000E0CF
:102F200068CFFB01DC0102C001900D92415050407E
:102F3000D8F70895FB01DC018D91019080190110F3
:102F4000D9F3990B0895FB01DC0101900D9200204B
:102F5000E1F7089511E0C3E5D1E000E006C0802F5D
:102F6000FE010E9483152196011DC435D10780E022
:082F70000807A9F7F894FFCF50
:102F78001A1B1C19181716313233343536373839BD
:102F88002A30230000D706800000004000140054B7
:102F98000000000000120372029F025F03D002AE1D
:102FA80002C20200000000E305B605F9068C05AF71
:102FB800059C058D0500000000AD046D043C04006F
:102FC800000000F4077202F90625056E616E0069BB
:102FD8006E66006F76660057656C636F6D652121BC
:102FE80021004750532069732061637469766174C6
:102FF800696E672E2E2E0057616974696E672E2ED2
:103008002E00630053656C66205465737420262077
:10301800496E6974004D6F746F7220636865636BE5
:10302800005465737420474D2D53656E736F72009D
:10303800546573742047505320004D6F746F72208D
:10304800636865636B20204F4B0054657374204799
:103058004D2D53656E736F7220006D0053656C665D
:103068002D6164617074696F6E2E2E2E00656C651B
:10307800766174696F6E3A20006465666C65637486
:10308800696F6E3A20002E2E2E2E2E2E006D7200A5
:10309800547261636B696E6720537461722E2E2EB1
:1030A80000696E7075743A20000D0A0046696E69F1
:1030B8007368656421212100202020202020202001
:1030C8002020202020202020002D63203A53656CEA
:1030D80066205465737426496E6974002D6D203A14
:1030E80053656C662D6164617074696F6E002D7232
:1030F800203A547261636B696E6720537461720081
:00000001FF
