:020000040000FA
:100000000C94BF010C94F0010C94F0010C94F001DD
:100010000C94F0010C94F0010C94F0010C94F0019C
:100020000C94F0010C94C00C0C94C00C0C94C00CFB
:100030000C94F0010C94F0010C94F0010C94F0017C
:100040000C94F0010C94F0010C94F0010C94F0016C
:100050000C94F0010C94F0010C94F0010C94760CCB
:100060000C94F0010C94400C0C94160C0C94F001C0
:100070000C94F0010C94F0010C94F0010C94F0013C
:100080000C94F0010C94F0010C94F0010C94F0012C
:100090000C94E00B0C94B60B0C94F0010C94CA0C6D
:1000A0000C94F0010C94F0010C94F0010C94F0010C
:1000B0000C94F0010C94F0010C94F0010C94F001FC
:1000C0000C94F0010C94F0010C94F0010C94F001EC
:1000D0000C94F0010C94F0010C94F0010C94F001DC
:1000E0000C94F0010C94FD190C94A5130C9460135E
:1000F0000C9462060C9440060C9428040C94AC13E7
:100100000C94D2020C941E040C9414030C9402045C
:100110000C940C040C94B1080C946D130C94C40250
:100120000C94CA040C944F060C9498130C9422045B
:100130000C94B9130C94C6130C943F060C947C03D6
:100140000C942C040C9466130C9459040C94EE0D2E
:100150000C948B130C9477130C948A040C94311325
:100160000C94AC070C9469060C9474020C94100463
:100170000C94E7030C9414040C94F9030C946C0293
:100180000C9425130C94A1020C94F5030C94741395
:100190000C94AA050C941A040C946B020C9427047A
:1001A0000C94F1030C94B0020C947E130C9406048E
:1001B0000C94FC030C9496060C94ED0300002100B3
:1001C000240027002A002D00300033000101000028
:1001D000040107010A0100002200250028002B006D
:1001E0002E003100340002010000050108010B015E
:1001F000000020002300260029002C002F003200E0
:1002000000010000030106010901050505050705B8
:1002100008080808020202020A0A08080404040482
:1002200001010101010101010303030303030303AE
:10023000040707070C0C0C0C0C0C0C0C020202023D
:1002400006060606060606060B0B0B0B0B0B0B0B26
:1002500001021020200808102040102040800201D8
:1002600002010804020101020408102040808040BD
:1002700020100804020180040201804020100804BC
:10028000020108040201010204081020408001025A
:1002900004081020408000000A0B02090C0D0E0813
:1002A000070304010000000000000000000000003F
:1002B000000000000000000000000000000000003E
:1002C00000001211100000000000000000000000FB
:1002D0000000000000000000000000004E6F2047FA
:1002E000505320646174612072656365697665644A
:1002F0003A20636865636B20776972696E67004DA9
:100300006561737572696E672E2E2E003A003A0091
:1003100020002D002D002D2047505320646174656E
:100320002674696D653A20004D6561737572696E5A
:10033000672E2E2E00206B6D2F68002D20737065A8
:1003400065643A20002D206C6F636174696F6E3AAA
:10035000204D6561737572696E672E2E2E002D20FB
:100360006C6F6E6769747564653A20002D206C614E
:100370007469747564653A200000EE0DFD1911244E
:100380001FBECFEFD1E2DEBFCDBF00E00CBF27E044
:10039000AAE6B4E001C01D92A13BB207E1F714E068
:1003A000A0E0B2E0EEE8FEE300E00BBF02C0079081
:1003B0000D92AA36B107D9F711E0CEEBD1E000E0FB
:1003C00006C021970109802FFE010E94F71CCD3B3A
:1003D000D10780E00807A9F70E94F60F0C94351F9B
:1003E0000C940000FC01A089B18982E08C93A48563
:1003F000B5851C92A685B7858FEC8C93108EA48949
:10040000B58986E08C93A289B3898C9180618C93A5
:10041000A289B3898C9188608C93A289B3898C91CD
:1004200080688C930288F389E02D80818F7D8083A2
:10043000089596E0899FD0011124AE5CB84F909644
:100440007C936E935F9791E091969C939197E09146
:100450009F07F091A00790919E07992339F030975C
:1004600051F0811108C080914E071994309719F00E
:100470005C968C91FACF0895CF92DF92EF92FF9223
:1004800010928006609183067091840680918506A3
:10049000909186060E946D1A28E23BE64EE65EE4E5
:1004A0000E94131C6B017C01609181067091820691
:1004B00090E080E00E946D1A9B01AC01C701B6017B
:1004C0000E94A71B2091870621119058FF90EF9062
:1004D000DF90CF90089508950895DC01ED91FC918F
:1004E0000190F081E02D1994AF92BF92CF92DF92EC
:1004F000EF92FF920F931F93CF93DF936C017B01D9
:100500008B01040F151FEB015E01AE18BF08C01769
:10051000D10759F06991D601ED91FC910190F081DC
:10052000E02DC6011995892B79F7C501DF91CF918F
:100530001F910F91FF90EF90DF90CF90BF90AF9001
:100540000895FC01538D448D252F30E0842F90E0D9
:10055000821B930B541710F0CF96089501970895BE
:10056000FC01918D828D981761F0A28DAE0FBF2F87
:10057000B11D5D968C91928D9F5F9F73928F90E0DD
:1005800008958FEF9FEF0895FC01918D828D98174C
:1005900031F0828DE80FF11D858D90E008958FEF89
:1005A0009FEF0895FC01918D228D892F90E0805C52
:1005B0009F4F821B91098F739927089583E395E0DC
:1005C0000E94D20221E0892B09F420E0822F0895B5
:1005D00080ED95E00E94D20221E0892B09F420E011
:1005E000822F0895FC01A48DA80FB92FB11DA35A25
:1005F000BF4F2C91848D90E001968F739927848F43
:10060000A689B7892C93A089B1898C918370806465
:100610008C93938D848D981306C00288F389E02D06
:1006200080818F7D80830895EF92FF920F931F93B7
:10063000CF93DF93EC0181E0888F9B8D8C8D981395
:100640001AC0E889F989808185FF15C09FB7F894A1
:10065000EE89FF896083E889F989808183708064ED
:1006600080839FBF81E090E0DF91CF911F910F9138
:10067000FF90EF900895F62E0B8D10E00F5F1F4F47
:100680000F731127E02E8C8D8E110CC00FB607FC56
:10069000FACFE889F989808185FFF5CFCE010E94E4
:1006A000F202F1CFEB8DEC0FFD2FF11DE35AFF4F5E
:1006B000F0829FB7F8940B8FEA89FB898081806272
:1006C000CFCF0F931F93CF93DF938C01D0E0C0E087
:1006D000F801EC0FFD1F6491662341F080ED95E079
:1006E0000E941403892B11F02196F2CFCE01DF91E5
:1006F000CF911F910F910895CF93DF93EC01888DD7
:100700008823B9F0AA89BB89E889F9898C9185FD8C
:1007100003C0808186FD0DC00FB607FCF7CF8C911A
:1007200085FFF2CF808185FFEDCFCE010E94F202DE
:10073000E9CFDF91CF91089580E090E0892B29F0F7
:100740000E94E80281110E94000080E090E0892B65
:1007500029F00E94DE0281110E94000080E090E0FA
:10076000892B49F080E090E0892B29F00E9400005D
:1007700081110E94000080E090E0892B49F080E028
:1007800090E0892B29F00E94000081110C94000058
:1007900008958150823108F05AC0E82FF0E0882790
:1007A000EB52FC4F8F4F0C94F71CF503F903E70352
:1007B000ED03F1032704FC03020406040C041004F7
:1007C00014041A041E042704220428042C04809113
:1007D00080008F77809380000895809180008F7DC6
:1007E000F9CF80918000877FF5CF84B58F7784BD66
:1007F000089584B58F7DFBCF8091B0008F77809373
:10080000B00008958091B0008F7DF9CF8091900065
:100810008F77809390000895809190008F7DF9CF1D
:1008200080919000877FF5CF8091A0008F77809393
:10083000A00008958091A0008F7DF9CF8091A00045
:10084000877FF5CF809120018F77809320010895D5
:10085000809120018F7DF9CF80912001877FF5CF96
:10086000CF93DF93282F30E0F901EA56FD4F8491B2
:10087000F901E05BFD4FD491F901E65FFD4FC491B2
:10088000CC23A1F081110E94C903EC2FF0E0EE0F00
:10089000FF1FE051FE4FA591B491EC91ED2381E053
:1008A00090E009F480E0DF91CF91089580E090E03E
:1008B000FACF862F0C9430041F93CF93DF93282F09
:1008C00030E0F901EA56FD4F8491F901E05BFD4FFC
:1008D000D491F901E65FFD4FC491CC23A9F0162F06
:1008E00081110E94C903EC2FF0E0EE0FFF1FEA52C6
:1008F000FE4FA591B4918FB7F894EC91111108C0F7
:10090000D095DE23DC938FBFDF91CF911F910895A7
:10091000DE2BF8CF862F642F0C945C04CF93DF93EB
:1009200090E0FC01E05BFD4F2491865F9D4FFC0150
:1009300084918823C9F090E0880F991FFC01E4544A
:10094000FE4FA591B491FC01EA52FE4FC591D4919E
:1009500061110DC09FB7F8948C91209582238C93E0
:100960008881282328839FBFDF91CF91089562302B
:1009700051F49FB7F8943C91822F809583238C93F8
:10098000E8812E2BEFCF8FB7F894EC912E2B2C9380
:100990008FBFEACF862F642F0C948E04863308F025
:1009A000865320917B00982F9870277F922B9093ED
:1009B0007B008770806480937C0080917A008064E3
:1009C00080937A0080917A0086FDFCCF8091780038
:1009D0009091790008953FB7F89480912305909104
:1009E0002405A0912505B091260526B5A89B05C034
:1009F0002F3F19F00196A11DB11D3FBFBA2FA92F9E
:100A0000982F8827BC01CD01620F711D811D911D9A
:100A100042E0660F771F881F991F4A95D1F7089506
:100A20008F929F92AF92BF92CF92DF92EF92FF92FE
:100A30004B015C010E94EB046B017C010E94EB0402
:100A40006C197D098E099F09683E734081059105E7
:100A5000A8F321E0821A9108A108B10888EEC80E17
:100A600083E0D81EE11CF11C81149104A104B1049F
:100A700029F7FF90EF90DF90CF90BF90AF909F90BD
:100A80008F9008952FB7F89460911F0570912005FD
:100A900080912105909122052FBF08950F931F93F8
:100AA000CF93DF93C82FD62F86E0C89FF001112483
:100AB000EE5CF84F11A2878D90A181309105F1F085
:100AC00058F082309105F1F1039709F440C0DF91AD
:100AD000CF911F910F9108956623C9F361E070E0F3
:100AE0008C2F0E9419020E94420560938A0770931E
:100AF0008B0780938C0790938D07E9CF0E94420566
:100B000000918A0710918B0720918C0730918D07F7
:100B1000AB01BC01401B510B620B730B80919C0716
:100B200090919D07B0E0A0E084179507A607B7074E
:100B300048F462E070E08C2FDF91CF911F910F910C
:100B40000C94190263E070E0D111C1CFF4CF70E0D2
:100B500060E0F1CF0895CF93DF93EC018A859B8508
:100B6000AC85BD858E839F83A887B9870E94420587
:100B70006A837B838C839D8381E089838883DF9173
:100B8000CF910895CF93DF93EC018E819F81A8854B
:100B9000B9858A839B83AC83BD830E9442056A87A3
:100BA0007B878C879D8781E089838883DF91CF91C4
:100BB00008952091AB04260F3327331F21323105CE
:100BC000ECF42091F604FC0190E080E0243069F020
:100BD00082E00895A091AB042191AC0145575B4F91
:100BE000A40FB52FB11D2C930196861798F3809111
:100BF000AB04680F6093AB0480E0089581E0089532
:100C00001092F60481E08093F5041092D00461E024
:100C100084E10E945C0461E085E10E945C04E9EBF0
:100C2000F0E080818E7F808380818D7F808388E467
:100C30008093B80085E48093BC000895CF93DF9340
:100C400091E090938A048823B9F0C091B800D091C4
:100C5000BA008091BC008A7B8093BC0060E084E194
:100C60000E945C0460E085E10E945C040E94000632
:100C7000D093BA00C093B800DF91CF910895089542
:100C8000E0912E0580912D05E81730F4F0E0E6594B
:100C9000FB4F808190E008958FEF9FEF0895909132
:100CA0002E0580912D052FEF3FEF981748F4E92F7F
:100CB000F0E0E659FB4F208130E09F5F90932E05D6
:100CC000C901089580912D0590912E05891B990BDE
:100CD0000895CF92DF92EF92FF920F931F93CF93DD
:100CE000DF937C01CB018A012091FC04222389F04F
:100CF000EB016B01C40ED51ECC15DD0569F06991C1
:100D0000D701ED91FC910190F081E02DC70119957B
:100D1000F3CF642F0E94D905C801DF91CF911F91B5
:100D20000F91FF90EF90DF90CF900895CF93DF93D6
:100D30001F92CDB7DEB769832091FC042223F9F01E
:100D400020912B05203258F021E030E0FC01338364
:100D5000228390E080E00F90DF91CF910895809101
:100D60002C05E82FF0E0E350FB4F998190838F5FD3
:100D700080932C0580932B0581E090E0ECCF61E01F
:100D8000CE0101960E94D905F7CFCF92DF92EF9264
:100D9000FF920F931F93CF93DF93FC01C48121E057
:100DA0002093FC04C0931D0510922C0510922B0576
:100DB0008385682B8DE696E00E949606D0912B05E0
:100DC000D13208F092C00E94EB046B017C0180914B
:100DD000F604811165C082E08093F60481E080937F
:100DE000F5048FEF8093F4041092F304D093F2048F
:100DF000ADEFB4E0E2EDF4E080E0D81385C01092EE
:100E0000D1048091D104CC0FC82BC093D104809120
:100E1000D004813009F07CC01092D0040E94EB0411
:100E20006B017C018091D1048093BB008091F80418
:100E30009091F904A091FA04B091FB04892B8A2BBC
:100E40008B2B99F00E94EB040091F8041091F904A7
:100E50002091FA043091FB046C197D098E099F09D9
:100E60000617170728073907E0F18091BC0083FDBA
:100E7000D9CF85EC8093BC000E94EB046B017C0110
:100E80008091F604823009F445C08091F4048F3FCC
:100E900061F18091F404803241F18091F40425C025
:100EA0008091F8049091F904A091FA04B091FB04A8
:100EB000892B8A2B8B2B09F48ACF0E94EB0400919B
:100EC000F8041091F9042091FA043091FB046C1994
:100ED0007D098E099F09061717072807390708F0AB
:100EE00076CF8091F7040E941E0610922C05109276
:100EF0002B051092FC04DF91CF911F910F91FF9071
:100F0000EF90DF90CF9008959D9191938F5F75CF73
:100F100085EEB0CF8091F8049091F904A091FA0485
:100F2000B091FB04892B8A2B8B2B09F4A9CF0E944B
:100F3000EB040091F8041091F9042091FA04309127
:100F4000FB046C197D098E099F09061717072807EE
:100F5000390708F095CFC5CF90E080E00895CF9293
:100F6000DF92EF92FF920F931F93CF93DF937C0159
:100F70008B01D12CC12CC016D106ECF4F701C6812F
:100F8000D781F70180819181C817D90784F061E08A
:100F90008C2F0E945C0463E070E080E090E00E948F
:100FA000100560E08C2F0E945C042197EACFFFEFD0
:100FB000CF1ADF0AE0CF119501951109F7011187CA
:100FC000008768EE73E080E090E0DF91CF911F91A1
:100FD0000F91FF90EF90DF90CF900C941005CF927F
:100FE000DF92EF92FF920F931F93CF93DF938C01C9
:100FF0006B01F12CE12CF801EC14FD04E4F4C08148
:10100000D181F801868197818C179D0784F061E07A
:101010008C2F0E945C0463E070E080E090E00E940E
:10102000100560E08C2F0E945C042196EACFFFEF50
:10103000EF1AFF0AE0CFD186C08668EE73E080E049
:1010400090E0DF91CF911F910F91FF90EF90DF9093
:10105000CF900C9410050F931F93CF93DF938C01C7
:10106000FC01C081D181F801868197818C179D0791
:1010700034F061E08C2F0E948E042196F4CFDF9132
:10108000CF911F910F9108950F931F93CF938C01D0
:10109000C62F0E94C5066C2F6460C8010E94C50659
:1010A0006C2F6B7FC8010E94C50683EC90E001970E
:1010B000F1F7CF911F910F9108950F931F93CF9345
:1010C000DF938C01D62FC42F607F642B0E944408CD
:1010D00080E1D89FB00111246C2BC801DF91CF9122
:1010E0001F910F910C944408CF93DF9300D000D050
:1010F0001F921F92CDB7DEB798E0E9E1F2E0DE0182
:10110000119601900D929A95E1F79091A907961783
:1011100010F46FEF690F262F30E0220F331F41E0EC
:1011200050E04C0F5D1F240F351FF9016081680FDF
:10113000606840E081EA97E028960FB6F894DEBF39
:101140000FBECDBFDF91CF910C945D0840E061E010
:1011500081EA97E00E945D088BE39FE10197F1F738
:10116000089541E00E945D0881E090E00895FB0150
:1011700001900020E9F73197AF01461B570BDC01C6
:10118000ED91FC910280F381E02D19948F929F9252
:10119000AF92BF92EF92FF920F931F93CF93DF9383
:1011A000CDB7DEB7A1970FB6F894DEBF0FBECDBFA7
:1011B0007C01FA01CB0119A2223008F42AE08E0149
:1011C0000F5D1F4F822E912CB12CA12CBF01A501C8
:1011D00094010E94D51CF901CA016A300CF5605DCA
:1011E000D8016E938D01232B242B252B79F790E0CA
:1011F00080E0109721F0BD01C7010E94B708A196B9
:101200000FB6F894DEBF0FBECDBFDF91CF911F9117
:101210000F91FF90EF90BF90AF909F908F900895A7
:10122000695CDECF2F923F924F925F926F927F92D6
:101230008F929F92AF92BF92CF92DF92EF92FF92E6
:101240001F93CF93DF93EC016A017B01722EAB01F8
:101250009601CB01B6010E94C01C6BE572E08111C2
:1012600026C046015701E894B7F82FEF3FEF4FE74C
:101270005FE7C501B4010E94C01C81110CC02FEFB3
:101280003FEF4FE75FE7C501B4010E94681A6FE5C1
:1012900072E0181664F02FEF3FEF4FE75FE4C701ED
:1012A000B6010E94BB1C1816B4F463E672E0CE01CE
:1012B000DF91CF911F91FF90EF90DF90CF90BF9083
:1012C000AF909F908F907F906F905F904F903F90E6
:1012D0002F900C94B7082FEF3FEF4FE75FECC7015B
:1012E000B6010E94681A87FDE0CF20E030E0A90136
:1012F000C701B6010E94681A312C212C87FF09C052
:101300006DE2CE010E946D021C01F7FAF094F7F82D
:10131000F09410E060E070E080E09FE3711641F02F
:1013200020E030E040E251E40E94131C1F5FF6CF42
:10133000A70196010E94A71B2B013C010E948C1C57
:101340004B015C012AE0BC01A401CE010E94C60849
:101350007C01E20CF31C1123C1F1C501B4010E9410
:101360006D1A9B01AC01C301B2010E94A61B4B0187
:101370005C016EE2CE010E946D02E80EF91E115072
:1013800020F120E030E040E251E4C501B4010E94C8
:10139000CE1A2B013C010E948C1C4B01B12CA12CBC
:1013A0002AE0B501A401CE010E94C608E80EF91E8C
:1013B000C501B4010E946D1A9B01AC01C301B201C9
:1013C0000E94A61B4B015C01DACFC701DF91CF91D0
:1013D0001F91FF90EF90DF90CF90BF90AF909F90C4
:1013E0008F907F906F905F904F903F902F900895D7
:1013F00067E672E00C94B708CF93DF930E94610315
:10140000EC0180ED95E00E94F8098C0F9D1FDF91A3
:10141000CF9108950F931F93CF93DF93EC0122E0B8
:101420000E9412098C01CE010E94F809800F911FC1
:10143000DF91CF911F910F910895CF93DF93BC015E
:1014400080ED95E00E94B708EC0180ED95E00E94E8
:10145000F8098C0F9D1FDF91CF9108950C94B70868
:101460002F923F924F925F926F927F928F929F92B4
:10147000AF92BF92CF92DF92EF92FF920F931F93A2
:10148000CF93DF93D82FC92F8B010E94241A24E613
:1014900030E040E050E00E94D51C49019B01AC01C6
:1014A00060E876E988E990E00E94C51C6B017C0148
:1014B000F80191828082ED2FFC2F2191822F022E44
:1014C000000C990BC0970A97C0F32E3239F51F0113
:1014D00080E8882E86E9982E88E9A82EB12C9AE01B
:1014E000492E512C612C712CF101C1911F010C2E40
:1014F000000CDD0BE097CA30D10580F4C501B401C2
:10150000A30192010E94D51C49015A01DE010E94EB
:10151000FF1CC60ED71EE81EF91EE6CFA5E0B0E000
:10152000A70196010E948C1B6F5F7F4F8F4F9F4FCB
:1015300023E030E040E050E00E94D51CF801228317
:101540003383448355831682DF91CF911F910F918E
:10155000FF90EF90DF90CF90BF90AF909F908F90D3
:101560007F906F905F904F903F902F9008951F93C2
:10157000CF93DF93EC0118811D3209F42196CE013F
:101580000E94241A9B01AC01A4E6B0E00E948C1BCF
:10159000AB01BC01FE012991822F022E000C990B98
:1015A000C0970A97B8F32E3231F58181082E000CCE
:1015B000990BC0978A309105F0F4AAE0A89F90019A
:1015C000A99F300D1124C901330FAA0BBB0B480F83
:1015D000591F6A1F7B1F8281082E000C990BC09730
:1015E0008A30910540F4092E000CAA0BBB0B480F62
:1015F000591F6A1F7B1F1D3239F4709560955095F5
:1016000041955F4F6F4F7F4FCB01BA01DF91CF9173
:101610001F9108950F931F93CF93DF93EC0188815F
:101620009981009759F02A813B812617370730F0BE
:1016300081E0DF91CF911F910F9108958B016F5F32
:101640007F4F0E942C1E009759F0998388831B833B
:101650000A832C813D81232B59F7FC011082E8CFAE
:1016600080E0E7CFCF93DF93EC01198218821B82D1
:101670001A821D821C8270E060E00E940A0B2881A1
:10168000398181110FC02115310519F0C9010E945E
:10169000A31D198218821D821C821B821A82DF916F
:1016A000CF9108951D821C8269E672E0C901DF9125
:1016B000CF910C941F1FCF93DF93EC0170E060E09B
:1016C0000E940A0B2881398181110FC02115310533
:1016D00019F0C9010E94A31D198218821D821C8263
:1016E0001B821A82DF91CF9108951D821C8269E6C8
:1016F00072E0C901DF91CF910C941F1F85ED80939B
:10170000BC008091F8049091F904A091FA04B09182
:10171000FB040796A11DB11D23E0B695A7959795EB
:1017200087952A95D1F72091BC0024FD03C0109223
:10173000F60408954091F8045091F9046091FA0478
:101740007091FB04452B462B472B69F30097A105AD
:10175000B10541F02AE22A95F1F700C00197A109ED
:10176000B109E1CF8091F7040C941E061F920F92ED
:101770000FB60F9211240BB60F922F933F934F93F6
:101780005F936F937F938F939F93AF93BF93EF93E9
:10179000FF9383E395E00E94F202FF91EF91BF91E6
:1017A000AF919F918F917F916F915F914F913F91F9
:1017B0002F910F900BBE0F900FBE0F901F9018959A
:1017C0001F920F920FB60F9211240BB60F922F9308
:1017D0008F939F93EF93FF93E0914305F09144051E
:1017E0008081E0914905F0914A0582FD1DC09081FC
:1017F00080914C058F5F8F7320914D05821741F0CA
:10180000E0914C05F0E0ED5CFA4F958F80934C052C
:10181000FF91EF919F918F912F910F900BBE0F90A1
:101820000FBE0F901F9018958081F2CF1F920F92DC
:101830000FB60F9211240BB60F922F933F934F9335
:101840005F936F937F938F939F93AF93BF93EF9328
:10185000FF9380ED95E00E94F202FF91EF91BF911E
:10186000AF919F918F917F916F915F914F913F9138
:101870002F910F900BBE0F900FBE0F901F901895D9
:101880001F920F920FB60F9211240BB60F922F9347
:101890008F939F93EF93FF93E091E005F091E10523
:1018A0008081E091E605F091E70582FD1DC0908101
:1018B0008091E9058F5F8F732091EA05821741F0CF
:1018C000E091E905F0E0E053FA4F958F8093E90548
:1018D000FF91EF919F918F912F910F900BBE0F90E1
:1018E0000FBE0F901F9018958081F2CF1F920F921C
:1018F0000FB60F9211242F933F938F939F93AF9323
:10190000BF9380911F0590912005A0912105B09172
:10191000220530911E0523E0230F2D3758F501963F
:10192000A11DB11D20931E0580931F0590932005D6
:10193000A0932105B0932205809123059091240561
:10194000A0912505B09126050196A11DB11D80939A
:10195000230590932405A0932505B0932605BF91F8
:10196000AF919F918F913F912F910F900FBE0F904C
:101970001F90189526E8230F0296A11DB11DD2CF06
:101980001F920F920FB60F9211240F900FBE0F905F
:101990001F9018951F920F920FB60F9211240BB63D
:1019A0000F922F933F934F935F936F937F938F93F8
:1019B0009F93AF93BF93EF93FF938091B900887F7C
:1019C000803609F44DC008F040C0883209F4A9C03F
:1019D00028F5803109F49DC0C8F4882309F4FBC0C0
:1019E000883009F496C0FF91EF91BF91AF919F911C
:1019F0008F917F916F915F914F913F912F910F90B8
:101A00000BBE0F900FBE0F901F901895883109F4F0
:101A100088C0803241F78093F40414C0803409F404
:101A20009DC040F48033B9F38833E9F68093F40421
:101A300085ECB0C0803509F485C0883509F496C0BE
:101A4000883489F60E947E0BCECF883909F48CC089
:101A500038F5883729F050F4883611F0803719F6B8
:101A600083E08093F6041092CD0457C0883809F4BF
:101A70007BC0803919F0803809F0B5CF8091CD0452
:101A8000803208F071C0E091CD0481E08E0F809328
:101A9000CD048091BB00F0E0E355FB4F80833DC057
:101AA000803B39F0E0F4803A09F479C0883A09F0D3
:101AB0009ACF84E08093F6041092AC041092AB04A9
:101AC000E0912905F0912A0519958091AB048111C7
:101AD0000FC081E08093AB0410928B0409C0803C5E
:101AE00009F4A6CF883C09F4A3CF883B09F07BCF4B
:101AF000E091AC0481E08E0F8093AC04F0E0E557F8
:101B0000FB4F80818093BB009091AC048091AB042B
:101B100029C08091D1048093BB0085EC8093BC00E8
:101B200062CF9091F3048091F204981758F5E091F8
:101B3000F30481E08E0F8093F304F0E0EE52FB4F4C
:101B40008081E9CFE091F30481E08E0F8093F3046C
:101B50008091BB00F0E0EE52FB4F80839091F30444
:101B60008091F2049817C8F285E8D8CFE091F30489
:101B700081E08E0F8093F3048091BB00F0E0EE5281
:101B8000FB4F80838091F50481115CCF81E08093CD
:101B9000D00484EA8093BC001092F60424CF85EC34
:101BA0008093BC001092F6048091CD04803230F412
:101BB000E091CD04F0E0E355FB4F10826091CD043D
:101BC00070E0E0912705F09128058DEA94E01995E1
:101BD0001092CD0408CF1092F40434CFCF93DF934A
:101BE000109236051092350588EE93E0A0E0B0E043
:101BF0008093370590933805A0933905B0933A0543
:101C000025E232E030933405209333054DEC50E06B
:101C10005093400540933F054CEC50E050934205F3
:101C20004093410548EC50E05093440540934305F0
:101C300049EC50E050934605409345054AEC50E08E
:101C400050934805409347054EEC50E050934A05A9
:101C50004093490510924C0510924D0510924E0587
:101C600010924F051092D3051092D2058093D4059F
:101C70009093D505A093D605B093D7053093D105A1
:101C80002093D00525EC30E03093DD052093DC0572
:101C900024EC30E03093DF052093DE0520EC30E0CB
:101CA0003093E1052093E00521EC30E03093E3052B
:101CB0002093E20522EC30E03093E5052093E40523
:101CC00026EC30E03093E7052093E6051092E90515
:101CD0001092EA051092EB051092EC051092700636
:101CE00010926F068093710690937206A09373060C
:101CF000B093740687E392E090936E0680936D062E
:101D00001092A4071092A30783E592E09093A20794
:101D10008093A10787E28093A50784E18093AA07B7
:101D200084E08093AB071092AC07109234071092B6
:101D30003807109237071092390789E492E09093A0
:101D4000330780933207EEE4F7E0108214821382A7
:101D50001582369687E0EA38F807B9F783E092E013
:101D6000909395078093940780E092E09093970773
:101D70008093960784E08093980783E08093990787
:101D800087E092E09093930780939207CAE0D0E0B7
:101D9000D0939B07C0939A0784EF91E090939D079F
:101DA00080939C071092A00710929F0710928E07B5
:101DB00010928F07109290071092910710929E0731
:101DC0008AE090E00E94071DFC01D183C0838BE074
:101DD00090E0938382838CE090E0958384838DE010
:101DE00090E097838683F0933107E09330078AE091
:101DF00090E00E94071DFC0186E090E091838083C3
:101E000087E090E09383828388E090E095838483E9
:101E100089E090E097838683F0932F07E0932E0765
:101E20008AE090E00E94071DFC0182E090E091832F
:101E3000808383E090E09383828384E090E09583C5
:101E4000848385E090E097838683F0932D07E09369
:101E50002C0710927F061092800610928206109234
:101E600081061092830610928406109285061092C5
:101E700086061092870610928906109288061092A4
:101E80008A0610928B0610928C0610928D06109284
:101E90008E061092900610928F0610929106109264
:101EA0009206109293061092940610929506109244
:101EB0009706109296061092980610929906109224
:101EC0009A0610929B0610929C061092A106109200
:101ED000A2061092A3061092A4061092A5061092D4
:101EE000A6061092AF061092B0061092B10610929C
:101EF000B2061092B3061092B4061092BD0610926C
:101F0000BE061092C3061092C4061092C506109227
:101F1000C6061092CB061092CC061092D1061092F3
:101F2000D2061092D3061092D4061092D9061092BF
:101F3000DA061092DF061092E0061092E106109287
:101F4000E2061092E7061092E8061092ED06109253
:101F5000EE061092EF061092F0061092F50610921F
:101F6000F6061092FB061092FC061092FD061092E7
:101F7000FE06109203071092040782E08093140774
:101F80001092150710921607109217071092190752
:101F90001092180710921B0710921A0710921C0734
:101FA00010921D0710921E0710921F071092200713
:101FB00010922107109222071092230710922407F3
:101FC00010922507109226071092270710922807D3
:101FD0001092290710922A0710922B0710920507DA
:101FE00089E796E0DF91CF910C94320BCF93DF938A
:101FF00000D000D01F921F92CDB7DEB7789484B581
:10200000826084BD84B5816084BD85B5826085BDF4
:1020100085B5816085BD80916E00816080936E0082
:102020001092810080918100826080938100809174
:102030008100816080938100809180008160809325
:1020400080008091B10084608093B1008091B000E5
:1020500081608093B00080919100826080939100B4
:1020600080919100816080939100809190008160C7
:10207000809390008091A10082608093A100809164
:10208000A10081608093A1008091A0008160809375
:10209000A000809121018260809321018091210123
:1020A00081608093210180912001816080932001D3
:1020B00080917A00846080937A0080917A008260B7
:1020C00080937A0080917A00816080937A00809179
:1020D0007A00806880937A001092C10080ED95E0CC
:1020E0000E94F20183E395E00E94F20110922E0516
:1020F00010922D0510922C0510922B050E940006BF
:102100008BE692E090932A05809329058CE692E075
:1021100090932805809327051092A6078091AB071E
:10212000823018F098E09093A6078093A90762E3A5
:1021300070E080E090E00E9410056091AC0781EAB9
:1021400097E00E94C50668EE73E080E090E00E9490
:10215000100560E381EA97E00E9444080BE416E46E
:10216000C8010197F1F760E381EA97E00E94440813
:10217000C8010197F1F760E381EA97E00E94440803
:1021800083E592E00197F1F760E281EA97E00E942F
:1021900044086091A607606240E081EA97E00E94EF
:1021A0005D0884E08093A70740E06CE081EA97E057
:1021B0000E945D080E94A60882E08093A80740E084
:1021C00066E081EA97E00E945D0840E062E081EA13
:1021D00097E00E945D088BE39FE10197F1F788E0AB
:1021E0008093AC0760E081EA97E00E94C50660E05A
:1021F00080E00E9474086AE672E081EA97E00E943B
:102200002E0A61E080E00E94740865E772E081EACE
:1022100097E00E942E0A62E080E00E9474086AE85B
:1022200072E081EA97E00E942E0A80913007909137
:1022300031070E942B0880912E0790912F070E9452
:102240002B0880912C0790912D070E942B0842E0CB
:10225000342E01E054E6852E912CA12CB12C60E1A6
:10226000462E67E2562E612C712C83E395E00E9486
:10227000D202181619060CF0FDC683E395E00E9401
:10228000B002182F80911C0790911D07A0911E0786
:10229000B0911F070196A11DB11D80931C0790935B
:1022A0001D07A0931E07B0931F07143209F47BC2C9
:1022B000E091160715320CF0BEC01A3019F01D302F
:1022C00009F07EC2EF3008F033C1F0E0EB5FF84F69
:1022D0001082D0900407DD2009F42CC1209105075D
:1022E000822F022E000C990B3FEB320F363008F094
:1022F000AEC0C7978295807F90910607292F092E3F
:10230000000C330B4FEB490F463008F0A8C02753A1
:102310003109820F909103078913F7C08091280734
:1023200090912907A0912A07B0912B070196A11D32
:10233000B11D8093280790932907A0932A07B09393
:102340002B0780911707882399F08091200790919F
:102350002107A0912207B09123070196A11DB11D6D
:102360008093200790932107A0932207B09323071F
:10237000F0901407FF2009F47BC021E0F21234C072
:1023800081EA96E00E94C2058FEA96E00E94C205AB
:1023900080911707882341F187E0EFE8F6E0A1E894
:1023A000B6E001900D928A95E1F787E0E6E9F6E064
:1023B000A8E8B6E001900D928A95E1F70E944205E7
:1023C00060939D0670939E0680939F069093A0064F
:1023D000F0928006F0927F068DEB96E00E94AB05AE
:1023E0008BEC96E00E94AB05E0901A07F0901B077B
:1023F000E114F10409F42FC6E0911A07F0911B07CC
:1024000066A177A1F70186A197A10E94161F892BCB
:1024100009F021C6B701C70140960E941F1F0E9404
:102420004205F70160A371A382A393A305A304A3AC
:10243000E2A4F3A4DDCF1A3209F444CF1C3209F030
:10244000BFC1809103078127809303073BCF2156AB
:10245000263018F4875591094DCFC0974BCF915630
:10246000963018F42755310954CF2053310951CFF4
:102470008FEA96E00E94C20580911707882321F118
:1024800087E0EFE8F6E0A1E8B6E001900D928A95CA
:10249000E1F787E0E6E9F6E0A8E8B6E001900D9202
:1024A0008A95E1F70E94420560939D0670939E060F
:1024B00080939F069093A0060093800600937F066A
:1024C00089ED96E00E94AB058091F1069091F206AD
:1024D000A091F306B091F4068093ED069093EE067A
:1024E000A093EF06B093F0060E9442056093E906C0
:1024F0007093EA068093EB069093EC060093E8064F
:102500000093E70685EF96E06DCF809124079091C8
:102510002507A0912607B09127070196A11DB11D9F
:102520008093240790932507A0932607B09327074D
:10253000D12C91C580911507811144C065E972E0E5
:1025400085E097E00E94161F892B41F06BE972E04D
:1025500085E097E00E94161F892BF1F40093140781
:10256000809118079091190790931B0780931A0781
:10257000E0901A07F0901B07E114F104C9F265E03E
:1025800077E0F70186A197A10E94161F97FF5CC50F
:10259000F70182A593A5E8CF61EA72E085E097E0B4
:1025A0000E94161F892B41F067EA72E085E097E0F0
:1025B0000E94161F892B19F410921407D1CF309264
:1025C0001407CECFE0911407E23009F44AC090918D
:1025D0000507992309F445C020E2E29FF001112488
:1025E000E82B3197E932F10508F03BC08827E45029
:1025F000FD4E8F4F0C94F71C251366136D13741347
:102600007713A513AC13B913C61331133113311358
:10261000311331133113311331133113311331139A
:10262000311331133113311331133113311331138A
:1026300031133113311331132513601366136D13E6
:10264000741377137E138B13981385E097E00E9421
:10265000B70A6093B5067093B6068093B706909359
:10266000B806E0901A07F0901B07D0901507E11408
:10267000F10409F45DCFE0911A07F0911B0766A100
:1026800077A1F70186A197A10E94161F892B09F057
:102690004FCFF70120A531A58D2D90E0821793072C
:1026A0000CF446CF2817390739F440E150E065E0D3
:1026B00077E0C7010E94261FF701E2A4F3A4D5CF5B
:1026C00081E0913409F445C080E043C06FE876E0D2
:1026D00085E097E00E94300AC4CF81E0933509F08D
:1026E00080E080939506BDCF66E976E0F1CF81E08A
:1026F000973509F080E080939C06B3CF85E097E0A2
:102700000E94B70A6093C7067093C8068093C906F3
:102710009093CA06A6CF85E097E00E94B70A60931F
:10272000D5067093D6068093D7069093D80699CF96
:1027300085E097E00E94241A6093A7067093A8068C
:102740008093A9069093AA068CCF81E091330CF474
:10275000BBCF8093170785CF85E097E00E94241AAE
:102760006093F1067093F2068093F3069093F4065B
:1027700078CF85E097E00E94B70A6093FF067093D8
:10278000000780930107909302076BCF85E097E0E5
:102790000E94B70A6093E3067093E4068093E5060F
:1027A0009093E6065ECF10921607109215071092CE
:1027B00003073092140710920407109217075AC4A7
:1027C000EE3040F481E08E0F80931607F0E0EB5F6F
:1027D000F84F10838091040781114CC48091030746
:1027E00018271093030746C480917F06882309F4B5
:1027F0002EC18CE693E00E9461030E943C02AB0173
:10280000BC0180ED95E00E940A0A8EE593E00E94EB
:1028100061031092800660918A0670918B06809108
:102820008C0690918D060E946D1A28E23BE64EE6DA
:102830005EE40E94131C6B017C016091880670911C
:10284000890690E080E00E946D1A9B01AC01C701EF
:10285000B6010E94A71BAB01BC0180918E068111BD
:10286000705880ED95E00E940A0A8BE393E00E9485
:1028700061038091BD06882309F4EEC01092BE0664
:102880006091C3067091C4068091C5069091C606FA
:102890000E946F1A26E53EE04DEE5FE30E94CE1ADD
:1028A00020E030E048EC52E40E94131CAB01BC0174
:1028B00022E080ED95E00E94120985E393E00E94FA
:1028C000FC0986E193E00E9461038091A1068823C0
:1028D00009F4C5C08091AF06882309F4C0C01092E6
:1028E000A2066091A3067091A4068091A50690911E
:1028F000A606A50194010E94D51C6053784FAB0138
:1029000070E060E02AE080ED95E00E94C60884E176
:1029100093E00E9461031092A2066091A306709159
:10292000A4068091A5069091A606A50194010E9497
:10293000D51CCA01B901A50194010E94D51CAB01A7
:10294000BC012AE080ED95E00E94C60882E193E098
:102950000E9461031092A2066091A3067091A406E2
:102960008091A5069091A606A30192010E94D51C14
:10297000BA01A9015527662777272AE080ED95E05F
:102980000E94C60880E193E00E9461031092B006A5
:102990006091B1067091B2068091B3069091B40631
:1029A00020E432E44FE050E00E94D51CBA01A901B6
:1029B0005527662777272AE080ED95E00E94C60814
:1029C0008EE093E00E9461031092B0066091B10620
:1029D0007091B2068091B3069091B406A301920162
:1029E0000E94D51CCA01B901A50194010E94D51C01
:1029F000AB01BC012AE080ED95E00E94C6088CE0A6
:102A000093E00E9461031092B0066091B10670914C
:102A1000B2068091B3069091B406A50194010E947C
:102A2000D51CCA01B901A50194010E94D51CAB01B6
:102A3000BC012AE080ED95E00E94C60880ED95E09B
:102A40000E94F80980ED95E00E94F80913C385E41F
:102A500093E00E94FC0909CF88E293E030CF8FEF2A
:102A600092E00E94FC09EECF6BEB73E0C8010E947C
:102A7000161F892B09F0F3C00E94A60860E080E0D1
:102A80000E9474086DEB73E081EA97E00E942E0AC1
:102A900061E080E00E9474086EEC73E081EA97E0E8
:102AA0000E942E0A0E943C02AB01BC0181EA97E021
:102AB0000E940A0A6AEE72E080ED95E00E942E0AFA
:102AC0000E943C02AB01BC0180ED95E00E940A0A25
:102AD00062E080E00E9474086AED73E081EA97E0AA
:102AE0000E942E0A86E30E94CE04BC01990F880B37
:102AF000990B0E946F1A20E030E040E85AE30E94F0
:102B0000CE1A20E030E04AEF53E40E94CE1A0E9431
:102B1000851C6B01770FEE08FF082AE0B701A601BC
:102B2000F7FE0DC06DE281EA97E00E946D02442736
:102B30005527BA014C195D096E097F092AE081EA1F
:102B400097E00E94C60867EE73E080ED95E00E9472
:102B50002E0A2AE0B701A601F7FE0DC06DE280ED56
:102B600095E00E946D0244275527BA014C195D0972
:102B70006E097F092AE080ED95E00E94C60880ED8D
:102B800095E00E94F809C701B6010E946F1A6B0117
:102B90007C0180902F0590903005A0903105B09079
:102BA0003205A50194010E94BB1CA501940187FD7B
:102BB00033C0C701B6010E94A61B0E94851C072EC8
:102BC000000C880B990B0E946F1A29E23CE54FE03C
:102BD0005EE30E94131C0E94851C80913007909137
:102BE00031070E94EF07C0922F05D0923005E09286
:102BF0003105F092320589E796E00E945B0B68EEA2
:102C000073E080E090E00E94100564EF71E080E0E6
:102C100090E00E941005BBC2C701B6010E94681A6D
:102C200087FFE9CFA7019601C501B4010E94A61B49
:102C30000E94851C072E000C880B990B0E946F1AAE
:102C400029E23CE54FE05EE30E94131C0E94851CD4
:102C500080913007909131070E94AF07C4CF67E69B
:102C600074E0C8010E94161F892B09F0C9C10E9497
:102C7000A60860E080E00E94740866EF73E081EAD5
:102C800097E00E942E0A86EF93E00E941D0A61E001
:102C900080E00E94740867E074E081EA97E00E9497
:102CA0002E0A60902C0770902D07CE0101960E948D
:102CB000320B21E020939E070E94420500918E076F
:102CC00010918F072091900730919107AB01BC01C3
:102CD000401B510B620B730B80919A0790919B07DD
:102CE000B0E0A0E084179507A607B70710F710E03B
:102CF00080919807181760F4E0919407F091950778
:102D0000E10FF11D62E080810E948E041F5FF0CF11
:102D1000F12C80919907F81608F061C0CF2CD12CC6
:102D2000E0919607F0919707EC0DFD1D61E0808121
:102D30000E948E04E0919607F0919707EC0DFD1D1F
:102D400060E080810E945C04D201C1010F2C04C0AC
:102D5000880F991FAA1FBB1F0A94D2F74C015C0170
:102D6000A094B094E12C80919807E81608F50E2DF8
:102D700010E0E0919407F0919507E00FF11F80813A
:102D80000E9430040C5F1F4F000F111FF801EE5C12
:102D9000F84F892B41F48081918188299929918369
:102DA0008083E394E0CF808191818A219B21F7CFBA
:102DB000E0919607F0919707EC0DFD1D61E0808191
:102DC0000E945C048091960790919707C80ED91EC7
:102DD00060E0F60180810E948E04F3949ACF02E3B2
:102DE00017E0F801878D90A1892B31F4148E8FEFB5
:102DF0009FEF968F858F11A2369697E0EE36F907F2
:102E000089F7D12C80919807D81608F053C0C12CAF
:102E1000ED2CF12CEE0CFF1CF701E65CF84F7F0166
:102E200020919907C21608F043C0F70160817181B3
:102E30000C2C02C0769567950A94E2F7D29E900119
:102E400011242C0D311DE2E3F7E080E0458D568D15
:102E50002417350709F4CFC28F5F36968A30B1F751
:102E600060FF24C0E2E3F7E090E080E0448D411190
:102E700018C0E0919207F0919307E20FF31F408191
:102E800056E0589FF001599FF00D1124EE5CF84F69
:102E9000448F368F258F10A2178E61E00E944E0559
:102EA00005C0019636968A30910501F7C394B8CFD4
:102EB000D394A8CFF12CF80181A18111F82E0A5FDB
:102EC0001F4FF7E00E361F07B1F70E9442056093CF
:102ED0008E0770938F078093900790939107FF2040
:102EE00009F4E7CE80915307882309F4E2CE80915C
:102EF000510790915207019709F0DBCEF0904E07F1
:102F0000FF2009F4D6CE23E2F2123EC06FE074E057
:102F100080ED95E00E942E0A4D815E8169817A8163
:102F200080ED95E00E94740280ED95E00E94F80922
:102F3000E980FA80C7010E94061A8C01E114F104AD
:102F400019F0C7010E94A31DB801110F880B990B3E
:102F50000E946F1A29E23CE54FE05EE30E94131CD9
:102F60000E94851CC3010E94EF0761E080E00E947F
:102F7000740865E174E081EA97E00E942E0A85E119
:102F800094E00E941D0A41CEFF8218860D811E81A9
:102F90000F5F1F4FB801CE0101960E940A0B8823D4
:102FA00069F029813A818D819E81BE01695F7F4FE1
:102FB000820F931F0E941F1F1E830D835AE2F5127A
:102FC00012C061E087E00E94740861E274E081EA67
:102FD00097E00E942E0ACE0101960E945B0B61E0F1
:102FE00087E00E94740861E087E00E9474084D81C8
:102FF0005E8169817A8181EA97E00E94740259CEEC
:103000000E94A60860E080E00E94740862E374E019
:1030100081EA97E00E942E0A61E080E00E94740835
:1030200065E474E081EA97E00E942E0A62E080E0A5
:103030000E94740867E574E081EA97E00E942E0A16
:10304000D5C10E949C03A3C0892B09F471CA1092B8
:103050001B0710921A07809115078F5F8093150741
:103060001092160781E01A3209F080E0809304077D
:10307000D110BACB0E944205693873418105910590
:1030800080F080911C0790911D07A0911E07B091C0
:103090001F070A97A105B10520F48CED92E00E946C
:1030A000FC090E943C0220E030E0A9010E94681A5D
:1030B000882309F4DAC860E080E00E9474086DEAB1
:1030C00072E081EA97E00E942E0A81EC92E00E9471
:1030D0001D0A61E080E00E9474086AEE72E081EAF5
:1030E00097E00E942E0A0E943C02AB01BC0122E044
:1030F00081EA97E00E9412096EE274E081EA97E0AB
:103100000E942E0A62E080E00E94740867EF72E07D
:1031100081EA97E00E942E0A1092800660918A064A
:1031200070918B0680918C0690918D060E946D1A8D
:1031300028E23BE64EE65EE40E94131C6B017C0134
:10314000609188067091890690E080E00E946D1A77
:103150009B01AC01C701B6010E94A71BAB01BC01DA
:1031600080918E068111705822E081EA97E00E94DA
:10317000120962E080E00E94740865E073E081EA71
:1031800097E00E942E0A212C312C2101239480EDFE
:1031900095E00E94D202181619060CF052CF80ED6D
:1031A00095E00E94B00289831A8200917D061091F9
:1031B0007E060F5F1F4FB80189E796E00E940A0B59
:1031C000882399F02091790630917A0680917D06C6
:1031D00090917E06BE016F5F7F4F820F931F0E940A
:1031E0001F1F10937E0600937D066AE070E080E06A
:1031F00090E00E94100580917D0690917E06892BBB
:1032000009F403CD0091790610917A066AE173E022
:10321000C8010E94161F892B09F026CC0E94A6081F
:1032200060E080E00E9474086CE173E081EA97E05E
:103230000E942E0A63E080E00E9474086DE273E051
:1032400081EA97E00E942E0A62E080E00E94740802
:1032500069E373E081EA97E00E942E0A86E30E9408
:10326000CE04BC01990F880B990B0E946F1A20E0C5
:1032700030E040E85AE30E94CE1A20E030E04AEF06
:1032800053E40E94CE1AAB01BC0140932F0550932A
:103290003005609331057093320522E081EA97E0B2
:1032A0000E94120961E080E00E94740868E473E003
:1032B00081EA97E00E942E0A0E943C02AB01BC0109
:1032C00022E081EA97E00E94120929E23CE54FE002
:1032D0005EE360912F0570913005809131059091EA
:1032E00032050E94131C0E94851C8091300790912A
:1032F00031070E94EF0700912E0710912F070E94BF
:103300003C0229E23CE54FE05EE30E94131C0E9470
:10331000851CC8010E94EF0700912C0710912D0712
:1033200061E070E0C8010E94EF0761E070E0C80151
:103330000E94AF0763E080E00E94740862E573E0DA
:1033400081EA97E00E942E0A62E080E00E94740801
:1033500062E673E081EA97E00E942E0A40912F0511
:1033600050913005609131057091320522E081EA7B
:1033700097E00E94120961E080E00E94740868E40E
:1033800073E081EA97E00E942E0A0E943C02AB01A2
:10339000BC0122E081EA97E00E94120962E773E033
:1033A00080ED95E00E942E0A40912F055091300546
:1033B000609131057091320580ED95E00E940A0A16
:1033C0006AEE72E080ED95E00E942E0A0E943C02B7
:1033D000AB01BC0180ED95E00E940A0A80E893E011
:1033E0000E941D0A88E692E00E941D0A89E796E085
:1033F0000E945B0B0ACC617051CD8091790690914F
:103400007A06009711F00C94A31D0895FC018827FB
:103410009927E89421912032E9F3293010F02E30D9
:10342000C8F32B3241F02D3239F4689404C00E9465
:10343000601A820F911D219120532A30C0F31EF48F
:10344000909581959F4F08951F93FC019927882798
:10345000BC01E89411911032E9F3193010F01E30DC
:10346000C8F31B3251F01D3249F4689406C00E9423
:103470004B1A610F711D811D911D119110531A304E
:10348000B0F33EF490958095709561957F4F8F4F86
:103490009F4F1F910895592F482F372F262F660FC2
:1034A000771F881F991F660F771F881F991F620F4C
:1034B000731F841F951F660F771F881F991F08951C
:1034C0007AE0979F902D879F802D910D112408956C
:1034D0000E94AA1A08F481E00895E89409C097FBB5
:1034E0003EF490958095709561957F4F8F4F9F4FDB
:1034F0009923A9F0F92F96E9BB279395F69587951F
:1035000077956795B795F111F8CFFAF4BB0F11F4E1
:1035100060FF1BC06F5F7F4F8F4F9F4F16C0882388
:1035200011F096E911C0772321F09EE8872F762FBE
:1035300005C0662371F096E8862F70E060E02AF0FF
:103540009A95660F771F881FDAF7880F96958795EB
:1035500097F90895990F0008550FAA0BE0E8FEEFC0
:1035600016161706E807F907C0F012161306E40747
:10357000F50798F0621B730B840B950B39F40A2640
:1035800061F0232B242B252B21F408950A2609F41E
:10359000A140A6958FEF811D811D08950E94E11A1B
:1035A0000C94521B0E94441B38F00E944B1B20F0CD
:1035B000952311F00C943B1B0C94411B11240C948B
:1035C000861B0E94631B70F3959FC1F3950F50E01B
:1035D000551F629FF001729FBB27F00DB11D639FC5
:1035E000AA27F00DB11DAA1F649F6627B00DA11D6B
:1035F000661F829F2227B00DA11D621F739FB00D11
:10360000A11D621F839FA00D611D221F749F332780
:10361000A00D611D231F849F600D211D822F762F19
:103620006A2F11249F5750409AF0F1F088234AF0F6
:10363000EE0FFF1FBB1F661F771F881F9150504062
:10364000A9F79E3F510580F00C943B1B0C94861B00
:103650005F3FE4F3983ED4F3869577956795B795E9
:10366000F795E7959F5FC1F7FE2B880F911D969503
:10367000879597F9089597F99F6780E870E060E073
:1036800008959FEF80EC089500240A9416161706FB
:1036900018060906089500240A9412161306140643
:1036A00005060895092E0394000C11F4882352F0A6
:1036B000BB0F40F4BF2B11F460FF04C06F5F7F4F5E
:1036C0008F4F9F4F089557FD9058440F551F59F045
:1036D0005F3F71F04795880F97FB991F61F09F3FFF
:1036E00079F087950895121613061406551FF2CF28
:1036F0004695F1DF08C0161617061806991FF1CF78
:1037000086957105610508940895E894BB2766279E
:103710007727CB0197F908950E94971BA59F900DDD
:10372000B49F900DA49F800D911D11240895A29F18
:10373000B001B39FC001A39F700D811D1124911D85
:10374000B29F700D811D1124911D08955058BB2703
:10375000AA270E94BE1B0C94521B0E94441B38F0E7
:103760000E944B1B20F039F49F3F19F426F40C946F
:10377000411B0EF4E095E7FB0C943B1BE92F0E94E4
:10378000631B58F3BA17620773078407950720F085
:1037900079F4A6F50C94851B0EF4E0950B2EBA2F48
:1037A000A02D0B01B90190010C01CA01A001112447
:1037B000FF27591B99F0593F50F4503E68F11A16F3
:1037C000F040A22F232F342F4427585FF3CF469584
:1037D00037952795A795F0405395C9F77EF41F16A6
:1037E000BA0B620B730B840BBAF09150A1F0FF0F70
:1037F000BB1F661F771F881FC2F70EC0BA0F621F5C
:10380000731F841F48F4879577956795B795F7954B
:103810009E3F08F0B0CF9395880F08F09927EE0FE0
:103820009795879508950E94271C0C94521B0E941F
:103830004B1B58F00E94441B40F029F45F3F29F0D5
:103840000C943B1B51110C94861B0C94411B0E9441
:10385000631B68F39923B1F3552391F3951B550B23
:10386000BB27AA2762177307840738F09F5F5F4F53
:10387000220F331F441FAA1FA9F335D00E2E3AF092
:10388000E0E832D091505040E695001CCAF72BD0AA
:10389000FE2F29D0660F771F881FBB1F26173707FB
:1038A0004807AB07B0E809F0BB0B802DBF01FF272D
:1038B00093585F4F3AF09E3F510578F00C943B1BB4
:1038C0000C94861B5F3FE4F3983ED4F3869577957E
:1038D0006795B795F7959F5FC9F7880F911D9695E6
:1038E000879597F90895E1E0660F771F881FBB1F42
:1038F000621773078407BA0720F0621B730B840BEF
:10390000BA0BEE1F88F7E09508950E948C1C68940E
:10391000B1110C94861B08950E946B1B88F09F5771
:1039200098F0B92F9927B751B0F0E1F0660F771FE3
:10393000881F991F1AF0BA95C9F714C0B13091F0D9
:103940000E94851BB1E008950C94851B672F782F8A
:103950008827B85F39F0B93FCCF38695779567959E
:10396000B395D9F73EF490958095709561957F4F0A
:103970008F4F9F4F08950E94AA1A08F48FEF089561
:103980000E94AA1A880B990B0895DB018F939F93CD
:103990000E948C1BBF91AF91A29F800D911DA39F90
:1039A000900DB29F900D11240895A1E21A2EAA1B2A
:1039B000BB1BFD010DC0AA1FBB1FEE1FFF1FA217DF
:1039C000B307E407F50720F0A21BB30BE40BF50BDC
:1039D000661F771F881F991F1A9469F76095709565
:1039E000809590959B01AC01BD01CF010895EE0F2C
:1039F000FF1F881F8BBF0790F691E02D1994B7FF2A
:103A00000C948C1B0E948C1B821B930B08950F93AC
:103A10001F93CF93DF938230910510F482E090E002
:103A2000E091AF07F091B00730E020E0B0E0A0E017
:103A3000309799F42115310509F44AC0281B390B38
:103A400024303105D8F58A819B816115710589F192
:103A5000FB0193838283FE0111C040815181028169
:103A6000138148175907E0F04817590799F4109740
:103A700061F012960C93129713961C933296CF0115
:103A8000DF91CF911F910F9108950093AF0710938D
:103A9000B007F4CF2115310551F04217530738F024
:103AA000A901DB019A01BD01DF01F801C1CFEF01DE
:103AB000F9CF9093B0078093AF07CDCFFE01E20F0F
:103AC000F31F819391932250310939832883D7CFF3
:103AD0002091AD073091AE07232B41F420911502C0
:103AE000309116023093AE072093AD072091130258
:103AF000309114022115310541F42DB73EB74091A4
:103B0000170250911802241B350BE091AD07F0917C
:103B1000AE07E217F307A0F42E1B3F0B2817390757
:103B200078F0AC014E5F5F4F2417350748F04E0F19
:103B30005F1F5093AE074093AD07819391939FCF42
:103B4000F0E0E0E09CCFCF93DF930097E9F0FC0139
:103B5000329713821282A091AF07B091B007ED01A6
:103B600030E020E01097A1F420813181820F931F73
:103B70002091AD073091AE072817390709F061C0D1
:103B8000F093AE07E093AD07DF91CF910895EA017E
:103B9000CE17DF07E8F54A815B819E01411551058B
:103BA000B1F7E901FB83EA8349915991C40FD51F0D
:103BB000EC17FD0761F4808191810296840F951FB7
:103BC000E90199838883828193819B838A83F0E0D2
:103BD000E0E012968D919C9113970097B9F52D9185
:103BE0003C911197CD010296820F931F2091AD0752
:103BF0003091AE072817390739F6309751F51092F2
:103C0000B0071092AF07B093AE07A093AD07BCCF3B
:103C1000D383C28340815181840F951FC817D90770
:103C200061F44E5F5F4F88819981480F591F51831E
:103C300040838A819B81938382832115310509F01A
:103C4000B0CFF093B007E093AF079ECFFD01DC014A
:103C5000C0CF13821282D7CF4F925F926F927F9222
:103C60008F929F92AF92BF92CF92DF92EF92FF928C
:103C70000F931F93CF93DF938C01009799F4CB019F
:103C8000DF91CF911F910F91FF90EF90DF90CF9038
:103C9000BF90AF909F908F907F906F905F904F906C
:103CA0000C94071DFC01E60FF71F9C0122503109FF
:103CB000E217F30708F4AEC0D901CD91DC9111975A
:103CC000C617D70720F1C530D10578F0CE0104978B
:103CD0008617970750F0C61BD70B2297C193D19335
:103CE0006D937C93CF010E94A31DC801DF91CF91FA
:103CF0001F910F91FF90EF90DF90CF90BF90AF900A
:103D00009F908F907F906F905F904F9008955B0190
:103D1000AC1ABD0A4C018C0E9D1EA091AF07B0914C
:103D2000B007512C412CF12CE12C109731F58091EA
:103D3000AD079091AE078815990509F05CC046164D
:103D4000570608F058C08091130290911402009712
:103D500041F48DB79EB74091170250911802841B11
:103D6000950BE817F90708F055C0F093AE07E093FC
:103D7000AD07F90171836083B8CF8D919C91119744
:103D800012966C90129713967C901397A815B9050C
:103D900059F56C0142E0C40ED11CCA14DB0420F1B9
:103DA000AC014A195B09DA011296159780F062821C
:103DB000738251834083D9016D937C93E114F104A4
:103DC00071F0D7011396FC93EE9312978ECF229643
:103DD0008C0F9D1FF90191838083F301EFCFF09346
:103DE000B007E093AF0781CF4816590608F42C01BD
:103DF0007D01D3019ACFCB010E94071D7C01009762
:103E000049F0AE01B8010E940D1FC8010E94A31D18
:103E100087016BCF10E000E068CFFB01DC0102C03E
:103E200001900D9241505040D8F70895FB01DC01FC
:103E30008D91019080190110D9F3990B0895FB0120
:103E4000DC0101900D920020E1F70895FB01DC01F7
:103E50004150504048F001900D920020C9F701C038
:103E60001D9241505040E0F7089511E0CEEBD1E0B3
:103E700000E006C0802FFE010E94F71C2196011D64
:103E8000CF3BD10780E00807A9F7F894FFCF1A1BB2
:103E90001C191817163132333435363738392A3071
:103EA000230000B10780000000400014005400000F
:103EB00000000014037402A1027C03D202B002C409
:103EC000020000000096066906AC073F0662064F36
:103ED00006400600000000CA048A045904000000DD
:103EE00000B1087402AC07AA056E616E00696E66C7
:103EF000006F7666000D0A0057656C636F6D652173
:103F000021210047505320697320616374697661F1
:103F100074696E672E2E2E0057616974696E672E64
:103F20002E2E004750524D4300474E524D430047FE
:103F30005047474100474E47474100475053206D87
:103F40006F64756C652069732072656164790054D3
:103F5000686520475053206D6F64756C65206973E8
:103F60002061637469766174656420737563636549
:103F7000737366756C6C79002D206C61746974754F
:103F800064653A20002D206C6F6E676974756465F6
:103F90003A200057616974696E6720666F7220630A
:103FA0006F6D6D616E647300630053656C662054C1
:103FB000657374202620496E6974004D6F746F72AA
:103FC00020636865636B005465737420474D2D53FF
:103FD000656E736F720054657374204750532000F0
:103FE0004D6F746F7220636865636B20204F4B00C8
:103FF0005465737420474D2D53656E736F722000A6
:104000002D20474D2D53656E736F723A2000546812
:10401000652070726F63657373206F662073656CC3
:10402000662D5465737420616E6420696E697469CD
:10403000616C697A6174696F6E206861732066696A
:104040006E69736865642120006D0053656C662D90
:104050006164617074696F6E2E2E2E00456C6576FA
:104060006174696F6E3A20006465666C656374699B
:104070006F6E3A20002D204465666C656374696F2D
:104080006E3A2000547261636B696E6720537461ED
:10409000722E2E2E00696E7075743A20002D4841E4
:1040A0003A200046696E6973686564212121002009
:1040B0002020202020202020202020202020200020
:1040C0002D63203A53656C66205465737426496EDF
:1040D0006974002D6D203A53656C662D61646170C2
:1040E00074696F6E002D72203A547261636B696E51
:0840F0006720537461720000A7
:020000040003F7
:10E000000D9489F10D94B2F10D94B2F10D94B2F129
:10E010000D94B2F10D94B2F10D94B2F10D94B2F1F0
:10E020000D94B2F10D94B2F10D94B2F10D94B2F1E0
:10E030000D94B2F10D94B2F10D94B2F10D94B2F1D0
:10E040000D94B2F10D94B2F10D94B2F10D94B2F1C0
:10E050000D94B2F10D94B2F10D94B2F10D94B2F1B0
:10E060000D94B2F10D94B2F10D94B2F10D94B2F1A0
:10E070000D94B2F10D94B2F10D94B2F10D94B2F190
:10E080000D94B2F10D94B2F10D94B2F10D94B2F180
:10E090000D94B2F10D94B2F10D94B2F10D94B2F170
:10E0A0000D94B2F10D94B2F10D94B2F10D94B2F160
:10E0B0000D94B2F10D94B2F10D94B2F10D94B2F150
:10E0C0000D94B2F10D94B2F10D94B2F10D94B2F140
:10E0D0000D94B2F10D94B2F10D94B2F10D94B2F130
:10E0E0000D94B2F141546D656761323536300041AF
:10E0F000726475696E6F206578706C6F72657220DE
:10E1000073746B3530305632206279204D4C530099
:10E11000426F6F746C6F616465723E004875683F52
:10E1200000436F6D70696C6564206F6E203D200048
:10E130004350552054797065202020203D20005FF9
:10E140005F4156525F415243485F5F3D2000415658
:10E1500052204C696243205665723D20004743437C
:10E160002056657273696F6E203D20004350552024
:10E1700049442020202020203D20004C6F7720663D
:10E18000757365202020203D20004869676820665F
:10E190007573652020203D200045787420667573D6
:10E1A00065202020203D20004C6F636B2066757336
:10E1B000652020203D20004D617220203720323024
:10E1C000313300312E362E3800342E332E350056A2
:10E1D00023202020414444522020206F7020636F70
:10E1E00064652020202020696E73747275637469E1
:10E1F0006F6E2061646472202020496E74657272B3
:10E20000757074006E6F20766563746F7200726A49
:10E210006D702020006A6D70200057686174207056
:10E220006F72743A00506F7274206E6F7420737541
:10E2300070706F72746564004D7573742062652030
:10E2400061206C6574746572002000577269747483
:10E25000696E672045450052656164696E672045B7
:10E26000450045452065727220636E743D00504F35
:10E27000525400303D5A65726F2061646472003FF1
:10E280003D43505520737461747300403D454550C3
:10E29000524F4D207465737400423D426C696E6B41
:10E2A000204C454400453D44756D70204545505215
:10E2B0004F4D00463D44756D7020464C415348001B
:10E2C000483D48656C70004C3D4C69737420492F83
:10E2D0004F20506F72747300513D51756974005234
:10E2E0003D44756D702052414D00563D73686F7707
:10E2F00020696E7465727275707420566563746FF0
:10E30000727300593D506F727420626C696E6B00BD
:10E310002A0011241FBECFEFD1E2DEBFCDBF01E046
:10E320000CBF12E0A0E0B2E0EEE1FDEF03E00BBFB6
:10E3300002C007900D92A030B107D9F712E0A0E01B
:10E34000B2E001C01D92AE30B107E1F70F9460F367
:10E350000D948DFE01E20EBF0FEF0DBF11241FBE05
:10E360000D9460F30D9400F020E030E040ED57E0B4
:10E3700005C0FA013197F1F72F5F3F4F2817390792
:10E38000C0F308959C01260F311DC901A0E0B0E043
:10E390002F5F3F4FABBFFC018791882361F08093D3
:10E3A000C6008091C00086FFFCCF8091C0008064D1
:10E3B0008093C000EACF08958DE08093C6008091DD
:10E3C000C00086FFFCCF8091C00080648093C000B5
:10E3D0008AE08093C6008091C00086FFFCCF8091C8
:10E3E000C00080648093C00008950F94C2F10F9420
:10E3F000DCF10895FC019081992359F09093C600B7
:10E400008091C00086FFFCCF8091C0008064809323
:10E41000C0003196992379F70895282F982F929567
:10E420009F70892F805D8A3308F0895F8093C600D2
:10E430008091C00086FFFCCF8091C00080648093F3
:10E44000C000822F8F70982F905D9A3308F0995FEB
:10E450009093C6008091C00086FFFCCF8091C000E1
:10E4600080648093C00008959C01FB01853691056E
:10E470001CF46330710594F0C90164E670E00F94F8
:10E480002EFE605D7F4F6093C6008091C00086FFC6
:10E49000FCCF8091C00080648093C0002B30310598
:10E4A00014F43297B4F0C90164E670E00F942EFEC4
:10E4B0006AE070E00F942EFE605D7F4F6093C600AF
:10E4C0008091C00086FFFCCF8091C0008064809363
:10E4D000C000C9016AE070E00F942EFEC0968093E0
:10E4E000C6008091C00086FFFCCF8091C000806490
:10E4F0008093C00008951F93182F8EE692EE60E07F
:10E500000F94C2F11093C6008091C00086FFFCCF2B
:10E510008091C00080648093C0000F94DCF11F9153
:10E5200008952F923F924F925F926F927F928F92B7
:10E530009F92AF92BF92CF92DF92EF92FF920F9392
:10E540001F93DF93CF93CDB7DEB762970FB6F894E2
:10E55000DEBF0FBECDBF382E622ECA01DB015C01CB
:10E560006D01772420E2222E2E010894411C511CBB
:10E570008BC081E0A81680E0B80681E0C80680E084
:10E58000D80628F0C601AA27BB270F940DF2BB2797
:10E59000AD2D9C2D8B2D0F940DF28A2D0F940DF225
:10E5A0002092C6008091C00086FFFCCF8091C00001
:10E5B00080648093C0009DE29093C6008091C0006B
:10E5C00086FFFCCF8091C00080648093C0002092C1
:10E5D000C6008091C00086FFFCCF8091C00080649F
:10E5E0008093C00019828601750188249924A1E0D6
:10E5F0003A1651F03A1620F0B2E03B1661F409C029
:10E600000BBFF701779007C0C7010F9477FE782EF4
:10E6100002C0F7017080872D0F940DF22092C60082
:10E620008091C00086FFFCCF8091C0008064809301
:10E63000C000872D8052F401EF70F0708F3520F408
:10E64000E40DF51D708204C0E40DF51D8EE280839B
:10E650000894E11CF11C011D111D0894811C911CE2
:10E6600090E18916910409F0C2CF80E190E0A0E02A
:10E67000B0E0A80EB91ECA1EDB1E198AC2010F9493
:10E68000FAF10F94DCF16A94662009F072CF629679
:10E690000FB6F894DEBF0FBECDBFCF91DF911F91B3
:10E6A0000F91FF90EF90DF90CF90BF90AF909F9031
:10E6B0008F907F906F905F904F903F902F90089534
:10E6C0002F923F924F925F926F927F928F929F9282
:10E6D000AF92BF92CF92DF92EF92FF920F931F9370
:10E6E000DF93CF93CDB7DEB7CD53D1400FB6F894BB
:10E6F000DEBF0FBECDBF01E20EBF0FEF0DBF94B75F
:10E70000F894A89514BE80916000886180936000A1
:10E7100010926000789493FF05C0E0910002F091A0
:10E7200001021995279A2F9A8091C00082608093E8
:10E73000C00080E18093C40088E18093C1000000A4
:10E74000EE24FF24870144E0A42EB12CCC24DD2448
:10E7500024C0C5010197F1F70894E11CF11C011DCB
:10E76000111D21E2E2162EE4F20620E0020720E06D
:10E77000120718F031E0C32ED12CC801B70127ECE5
:10E780003BE140E050E00F9441FE611571058105C9
:10E79000910519F485B1805885B98091C00087FD35
:10E7A00003C0C114D104A9F2A6014F5F5F4FC25E3E
:10E7B000DE4F59834883CE51D140C25EDE4F8881FF
:10E7C0009981CE51D140019711F00D9410FEC05D9A
:10E7D000DE4F19821882C053D14060E0C15DDE4F28
:10E7E0001882CF52D14088249924C35DDE4F19820C
:10E7F0001882CD52D140C05EDE4F188219821A8233
:10E800001B82C052D140CE5CDE4F188219821A8220
:10E810001B82C253D140EE24FF2487010BBFF701B6
:10E8200007911691C45CDE4F19830883CC53D14005
:10E830000D940BFEC25EDE4F28813981CE51D1404E
:10E840002130310509F52091C600C25EDE4F1982E4
:10E850001882CE51D14022C02F5F3F4F4F4F5F4FA4
:10E86000213082E138078AE7480780E0580780F0C6
:10E87000C45CDE4FE881F981CC53D140EF5FFF4F9C
:10E8800019F0EE27FF27099420E030E040E050E047
:10E890008091C00087FFE0CF2091C600C35DDE4FAE
:10E8A00048815981CD52D1404F5F5F4FC35DDE4FEC
:10E8B00059834883CD52D140213209F063C64A3092
:10E8C000510508F05FC60894811C911C53E0851621
:10E8D000910409F059C600E010E018C081E280936D
:10E8E000C6008091C00086FFFCCF8091C00080648C
:10E8F0008093C0002F5F3F4F2931310579F70F9486
:10E90000DCF10F5F1F4F0530110519F020E030E0FA
:10E91000E5CF10920A0210920B0210920C02109294
:10E920000D02109206021092070210920802109235
:10E930000902109202021092030210920402109235
:10E9400005028FEE90EE60E00F94F5F180E191EE1C
:10E9500060E00F94C2F18091C00087FFFCCF9091DE
:10E96000C600903608F09F759032B8F09093C600BC
:10E970008091C00086FFFCCF8091C00080648093AE
:10E98000C000A0E2A093C6008091C00086FFFCCF2B
:10E990008091C00080648093C000983409F4D7C18E
:10E9A0009934B8F4923409F459C1933458F490333B
:10E9B00019F1903308F4E3C59F33A1F1903409F0C5
:10E9C000DEC5BDC0953409F470C1963409F0D7C5D1
:10E9D00098C1923509F42BC2933538F49C3409F46C
:10E9E000F5C1913509F0CBC518C2963509F445C279
:10E9F000993509F0C4C567C483E792EE62E00F94CD
:10EA0000F5F110920602109207021092080210927D
:10EA1000090210920A0210920B0210920C0210923C
:10EA20000D0213C18FE792EE62E00F94F5F18FEEC5
:10EA300090EE60E00F94F5F181E291EE60E00F94CA
:10EA4000C2F187EB91EE60E00F94F5F180E391EE77
:10EA500060E00F94C2F184EE90EE60E00F94F5F167
:10EA60008FE391EE60E00F94C2F186E090E061E008
:10EA700070E00F9434F20F94DCF18DE591EE60E0DC
:10EA80000F94C2F189EC91EE60E00F94F5F18EE401
:10EA900091EE60E00F94C2F183EC91EE60E00F9490
:10EAA000F5F18CE691EE60E00F94C2F18EE10F94E7
:10EAB0000DF288E90F940DF281E00F940DF20F949E
:10EAC000DCF18BE791EE60E00F94C2F119E0E0E039
:10EAD000F0E010935700E4918E2F0F940DF20F94F5
:10EAE000DCF18AE891EE60E00F94C2F1E3E0F0E03F
:10EAF00010935700E4918E2F0F940DF20F94DCF1D8
:10EB000089E991EE60E00F94C2F1E2E0F0E0109349
:10EB10005700E4918E2F0F940DF20F94DCF188EAE8
:10EB200091EE60E00F94C2F1E1E0F0E01093570045
:10EB30001491812F0F940DF20F94DCF107CF8BE825
:10EB400092EE62E00F94F5F18BE492EE60E00F94A8
:10EB5000F5F10F94DCF100E010E019C0C8016F2D51
:10EB60000F947FFEFF2031F489E492EE60E00F9471
:10EB7000C2F10BC0F092C6008091C00086FFFCCFAE
:10EB80008091C00080648093C0000F5F1F4FC80158
:10EB900081519F41A0E0B0E0ABBFFC01F790BAE229
:10EBA000FB1621F0E2E000301E07C1F60F94DCF105
:10EBB0000F94DCF187E592EE60E00F94F5F10F948D
:10EBC000DCF1CC24DD2400E010E01EC0C8010F946D
:10EBD00077FEF82E882331F489E492EE60E00F94FA
:10EBE000C2F10BC08093C6008091C00086FFFCCFAD
:10EBF0008091C00080648093C000FE1419F00894D6
:10EC0000C11CD11C0F5F1F4FC80181519F41A0E063
:10EC1000B0E0ABBFFC01E790FAE2EF1621F022E092
:10EC20000030120799F60F94DCF10F94DCF182E6C4
:10EC300092EE60E00F94C2F1C60161E070E00F94C3
:10EC400034F20F94DCF10F94DCF110920202109276
:10EC50000302109204021092050278CE89E992EE26
:10EC600062E00F94F5F1279A2F9A16C02F9880E052
:10EC700090E0E0EDF7E03197F1F7019684369105E9
:10EC8000C1F72F9A80E090E0E0EDF7E03197F1F7DF
:10EC9000019684369105C1F78091C00087FFE6CFC9
:10ECA0008091C00087FFFCCF64C485EA92EE62E0E9
:10ECB0000F94F5F140910202509103026091040219
:10ECC0007091050281E020E10F9491F2809102029F
:10ECD00090910302A0910402B091050280509F4FD1
:10ECE000AF4FBF4F8093020290930302A0930402A0
:10ECF000B093050280509041A040B04008F426CE69
:10ED0000A4CF83EB92EE62E00F94F5F140910602FE
:10ED100050910702609108027091090280E020E1A1
:10ED20000F9491F28091060290910702A09108023F
:10ED3000B091090280509F4FAF4FBF4F80930602A2
:10ED400090930702A0930802B0930902FFCD80ECD4
:10ED500092EE62E00F94F5F183E792EE60E00F949B
:10ED6000F5F18FE792EE60E00F94F5F18BE892EE0B
:10ED700060E00F94F5F189E992EE60E00F94F5F10F
:10ED800085EA92EE60E00F94F5F183EB92EE60E09D
:10ED90000F94F5F180EC92EE60E00F94F5F187ECC2
:10EDA00092EE60E00F94F5F188ED92EE60E00F9442
:10EDB000F5F18FED92EE60E00F94F5F18AEE92EEB0
:10EDC00060E00F94F5F183E093EEBDCD87EC92EE19
:10EDD00062E00F94F5F181E40F947BF282E40F94EA
:10EDE0007BF283E40F947BF284E40F947BF285E45E
:10EDF0000F947BF286E40F947BF287E40F947BF20E
:10EE000088E40F947BF28AE40F947BF28BE40F94F6
:10EE10007BF28CE40F947BF299CD88ED92EE62E068
:10EE20000F94F5F1772473948824992409C48FED05
:10EE300092EE62E00F94F5F140910A0250910B02BC
:10EE400060910C0270910D0282E020E10F9491F22A
:10EE500080910A0290910B02A0910C02B0910D02D8
:10EE600080509F4FAF4FBF4F80930A0290930B0289
:10EE7000A0930C02B0930D0269CD8AEE92EE62E08F
:10EE80000F94F5F184EE90EE60E00F94F5F18FECC5
:10EE900091EE60E00F94F5F1662477244301CC5D98
:10EEA000DE4F19821882C452D140D401C301B695F5
:10EEB000A79597958795CA5DDE4F88839983AA8326
:10EEC000BB83C652D140CC5DDE4FA881B981C4520C
:10EED000D1401196CC5DDE4FB983A883C452D14096
:10EEE000CD0162E070E00F9434F2B0E2B093C6005E
:10EEF0008091C00086FFFCCF8091C0008064809329
:10EF0000C000EDE2E093C6008091C00086FFFCCF18
:10EF10008091C00080648093C000F0E2F093C6004E
:10EF20008091C00086FFFCCF8091C00080648093F8
:10EF3000C000CA5DDE4FE880F9800A811B81C6529D
:10EF4000D140BB27A12F902F8F2D0F940DF2CA5DBA
:10EF5000DE4F8881C652D1400F940DF2B0E2FB2EF5
:10EF6000F092C6008091C00086FFFCCF8091C00067
:10EF700080648093C0000DE30093C6008091C000C0
:10EF800086FFFCCF8091C00080648093C00010E2B7
:10EF90001093C6008091C00086FFFCCF8091C00016
:10EFA00080648093C0008BBEF3012791C65DDE4F65
:10EFB0002883CA52D140A22EBB24CC24DD2408943D
:10EFC000611C711C811C911C8BBEF3018791282E42
:10EFD0003324442455240894611C711C811C911C09
:10EFE0008BBEF3013791C55DDE4F3883CB52D140E4
:10EFF0000894611C711C811C911C8BBEF30147910C
:10F00000C45DDE4F4883CC52D140ADEFEA2EAFEF66
:10F01000FA2EAFEF0A2FAFEF1A2F6E0C7F1C801E57
:10F02000911E142D032DF22CEE24EA0CFB1C0C1D5A
:10F030001D1D0F940DF220E22093C6008091C000A8
:10F0400086FFFCCF8091C00080648093C000C65DC5
:10F05000DE4F8881CA52D1400F940DF230E23093D6
:10F06000C6008091C00086FFFCCF8091C000806404
:10F070008093C000C45DDE4F8881CC52D1400F9494
:10F080000DF240E24093C6008091C00086FFFCCFA5
:10F090008091C00080648093C000C55DDE4F888190
:10F0A000CB52D1400F940DF250E25093C6008091A4
:10F0B000C00086FFFCCF8091C00080648093C000B8
:10F0C0008FEFE8168FEFF80680E0080780E018075A
:10F0D00031F484E092EE60E00F94C2F1DFC0D80119
:10F0E000C7018070907CA070B0708050904CA040A0
:10F0F000B040D1F52FEF3FE340E050E0E222F322B1
:10F1000004231523CA5DDE4FA880B980CA80DB8046
:10F11000C652D140AE0CBF1CC01ED11EAA0CBB1CD7
:10F12000CC1CDD1C8EE092EE60E00F94C2F1BB2798
:10F13000A12F902F8F2D0F940DF28E2D0F940DF285
:10F1400030E23093C6008091C00086FFFCCF8091F2
:10F15000C00080648093C0004EE34093C60080915D
:10F16000C00086FFFCCF87C08EE09EEFA0E0B0E03D
:10F17000E822F9220A231B239CE0E91694E9F90608
:10F1800090E0090790E0190709F088C0C45DDE4FE0
:10F19000A881CC52D140EA2EFF2400E010E0102FCD
:10F1A0000F2DFE2CEE24C55DDE4FB881CB52D14031
:10F1B000EB0EF11C011D111DD601C501817090706F
:10F1C000A070B070DC0199278827E80EF91E0A1F8D
:10F1D0001B1F20EF30E040E050E0A222B322C42207
:10F1E000D52241E1AA0CBB1CCC1CDD1C4A95D1F7F1
:10F1F000EA0CFB1C0C1D1D1D81E090E0A0E0B0E0BE
:10F20000282239224A225B2235E1220C331C441C7D
:10F21000551C3A95D1F7E20CF31C041D151D57013E
:10F220006801AA0CBB1CCC1CDD1C85E192EE60E0E1
:10F230000F94C2F1C801AA27BB270F940DF2BB2778
:10F24000A12F902F8F2D0F940DF28E2D0F940DF274
:10F2500090E29093C6008091C00086FFFCCF809121
:10F26000C00080648093C000AEE3A093C60080918C
:10F27000C00086FFFCCF8091C00080648093C000F6
:10F28000C601AA27BB270F940DF2BB27AD2D9C2DDD
:10F290008B2D0F940DF28A2D0F940DF20F94DCF14B
:10F2A000CC5DDE4FE881F981C452D140F99709F471
:10F2B0004DCBF4E0EF2EF12C012D112D6E0C7F1CA7
:10F2C000801E911EF2CD83E093EE62E00F94F5F183
:10F2D0008AE192EE60E00F94C2F18091C00087FF56
:10F2E000FCCF1091C6001F751093C6008091C0001E
:10F2F00086FFFCCF8091C00080648093C0000F9493
:10F30000DCF1812F81548A3108F036C1163409F4BA
:10F3100095C0173490F4133409F44EC0143430F40B
:10F320001134F1F0123409F01DC130C0143409F465
:10F3300059C0153409F016C16BC01A3409F4C4C0A1
:10F340001B3438F4173409F48FC0183409F00AC19B
:10F35000A1C01B3409F4D2C01C3409F003C1E8C0B9
:10F360008FEF81B90DC082B1809582B980E090E0C5
:10F37000E0EDF7E03197F1F70196883C9105C1F790
:10F380008091C00087FFEFCF12B8EFC08FEF84B934
:10F390000DC085B1809585B980E090E0E0EDF7E0A3
:10F3A0003197F1F70196883C9105C1F78091C00033
:10F3B00087FFEFCF15B8D9C08FEF87B90DC088B1DF
:10F3C000809588B980E090E0E0EDF7E03197F1F7C3
:10F3D0000196883C9105C1F78091C00087FFEFCF6F
:10F3E00018B8C3C08FEF8AB90DC08BB180958BB9A7
:10F3F00080E090E0E0EDF7E03197F1F70196883C8E
:10F400009105C1F78091C00087FFEFCF1BB8ADC059
:10F410008FEF8DB90DC08EB180958EB980E090E0F0
:10F42000E0EDF7E03197F1F70196883C9105C1F7DF
:10F430008091C00087FFEFCF1EB897C08FEF80BBD1
:10F440000DC081B3809581BB80E090E0E0EDF7E0F6
:10F450003197F1F70196883C9105C1F78091C00082
:10F4600087FFEFCF11BA81C08FEF83BB0DC084B38C
:10F47000809584BB80E090E0E0EDF7E03197F1F714
:10F480000196883C9105C1F78091C00087FFEFCFBE
:10F4900014BA6BC08FEF809301010FC080910201FD
:10F4A00080958093020180E090E0E0EDF7E03197F5
:10F4B000F1F70196883C9105C1F78091C00087FF64
:10F4C000EDCF1092020151C08FEF809304010FC065
:10F4D0008091050180958093050180E090E0E0ED4A
:10F4E000F7E03197F1F70196883C9105C1F78091DB
:10F4F000C00087FFEDCF1092050137C08FEF8093DA
:10F5000007010FC08091080180958093080180E079
:10F5100090E0E0EDF7E03197F1F70196883C910536
:10F52000C1F78091C00087FFEDCF109208011DC088
:10F530008FEF80930A010FC080910B01809580931B
:10F540000B0180E090E0E0EDF7E03197F1F70196F4
:10F55000883C9105C1F78091C00087FFEDCF1092E4
:10F560000B0103C085E292EEEEC98091C00087FFD7
:10F57000FCCF8091C600EAC988E392EEE4C98CE131
:10F5800091EEE1C988249924933011F1943028F444
:10F59000913089F09230B8F408C0953061F195301F
:10F5A000F0F0963009F048C043C02B3109F042C951
:10F5B00091E06BE13FC96227C15DDE4F2883CF52E6
:10F5C000D14092E037C9B22FA0E0622793E032C960
:10F5D000822F90E0A82BB92B622794E02BC92E3004
:10F5E00009F039C3622795E0C05DDE4F19821882A9
:10F5F000C053D1401FC9E1E0F0E0EC0FFD1FC05D3A
:10F60000DE4F08811981C053D140E00FF11F2083E4
:10F610000F5F1F4FC05DDE4F19830883C053D14079
:10F6200062270A171B0709F005C9D80196E002C92D
:10F63000261709F010C303C0973009F0FBC87724E0
:10F640009981933109F412C19431C8F4963009F4C8
:10F65000D8C0973050F4923009F406C1933009F4C1
:10F660006DC0913009F059C253C0913109F477C08F
:10F67000923108F0BBC0903109F04FC2F5C098310B
:10F6800009F487C0993150F4953109F4EFC09531F0
:10F6900008F4C6C1963109F040C2C2C19A3109F4DA
:10F6A0006CC09A3108F491C09B3109F45BC09D3164
:10F6B00009F033C29D81903359F48F81882311F46E
:10F6C0009EE11CC0813011F091E018C098E916C08D
:10F6D000892F807591F0903539F4E0E0F0E089E011
:10F6E0008093570094910AC0983539F4E3E0F0E034
:10F6F00089E080935700949101C090E01A821B82A8
:10F700008D818C831D829E831F8227E030E009C299
:10F710001A8288E08B8381E48C8386E58D8382E581
:10F720008E8389E48F8383E5888780E589878FE5E9
:10F730008A8782E38B872BE030E0F3C18A818139AD
:10F7400041F0823941F0803911F48FE005C080E04A
:10F7500003C082E001C08AE01A828B8344C0772410
:10F76000739482C08D81882311F48EE12CC0813086
:10F7700011F081E028C088E926C01A82E1E0F0E0BB
:10F7800089E08093570084918B831C8224E030E0D1
:10F79000C8C18B81803589F48C81883039F4E2E0EE
:10F7A000F0E089E08093570084910DC0E0E0F0E044
:10F7B00089E080935700849106C0E3E0F0E089E09F
:10F7C0008093570084911A82DFCF8D81836C99E0FA
:10F7D000E1E0F0E0082E90935700E89507B600FCB2
:10F7E000FDCF1A821B8223E030E09BC180EC8A832C
:10F7F000CE5CDE4F188219821A821B82C253D1401E
:10F800008EC18A8190E0A0E0B0E0582F44273327D2
:10F8100022278B8190E0A0E0B0E0DC0199278827C7
:10F82000282B392B4A2B5B2B8D8190E0A0E0B0E098
:10F83000282B392B4A2B5B2B8C8190E0A0E0B0E089
:10F84000BA2FA92F982F8827282B392B4A2B5B2BCF
:10F85000220F331F441F551FC05EDE4F288339839C
:10F860004A835B83C052D1401A8259C13A81C95C34
:10F87000DE4F3883C753D140CA5CDE4F1882C6536F
:10F88000D1408B81C82EDD24CA5CDE4F488159816E
:10F89000C653D140C42AD52A933109F082C0CE5C28
:10F8A000DE4F88819981AA81BB81C253D1408050AB
:10F8B000904CA340B04030F583E0CE5CDE4FE88052
:10F8C000F9800A811B81C253D140F70100935B008C
:10F8D00080935700E89507B600FCFDCFCE5CDE4F65
:10F8E000088119812A813B81C253D14000501F4FAA
:10F8F0002F4F3F4FCE5CDE4F088319832A833B8313
:10F90000C253D140C05EDE4F488159816A817B81FC
:10F91000C052D140DE011B9631E08C9111962C91A2
:10F9200011971296C75CDE4F2883C953D140C85C3B
:10F93000DE4F1882C853D14090E0C85CDE4FE881AA
:10F94000F981C853D1408E2B9F2B0C01FA01609393
:10F950005B0030935700E89511244E5F5F4F6F4F67
:10F960007F4F0EEFE02E0FEFF02ECE0CDF1CC114F8
:10F97000D10499F685E0C05EDE4F088119812A81A5
:10F980003B81C052D140F80120935B008093570027
:10F99000E89507B600FCFDCF81E180935700E8951C
:10F9A00035C0C05EDE4F88819981AA81BB81C0527B
:10F9B000D140B695A795979587957C018601ABE0D8
:10F9C000AA2EB12CAC0EBD1E0BC0D5016D915D01F0
:10F9D000C7010F947FFE0894E11CF11C01501040F8
